{
  "contractName": "RequestManager",
  "abi": [
    {
      "inputs": [
        {
          "internalType": "address",
          "name": "_projectsContract",
          "type": "address"
        }
      ],
      "stateMutability": "nonpayable",
      "type": "constructor"
    },
    {
      "anonymous": false,
      "inputs": [
        {
          "indexed": false,
          "internalType": "uint256",
          "name": "projectId",
          "type": "uint256"
        },
        {
          "indexed": false,
          "internalType": "uint256",
          "name": "milestoneId",
          "type": "uint256"
        },
        {
          "indexed": false,
          "internalType": "uint256",
          "name": "updatedRating",
          "type": "uint256"
        }
      ],
      "name": "MilestoneAccepted",
      "type": "event"
    },
    {
      "anonymous": false,
      "inputs": [
        {
          "indexed": false,
          "internalType": "uint256",
          "name": "requestId",
          "type": "uint256"
        },
        {
          "indexed": false,
          "internalType": "address",
          "name": "freelancer",
          "type": "address"
        },
        {
          "indexed": false,
          "internalType": "address",
          "name": "escrowContract",
          "type": "address"
        }
      ],
      "name": "RequestAccepted",
      "type": "event"
    },
    {
      "anonymous": false,
      "inputs": [
        {
          "indexed": false,
          "internalType": "uint256",
          "name": "requestId",
          "type": "uint256"
        },
        {
          "indexed": false,
          "internalType": "address",
          "name": "freelancer",
          "type": "address"
        }
      ],
      "name": "RequestRejected",
      "type": "event"
    },
    {
      "anonymous": false,
      "inputs": [
        {
          "indexed": false,
          "internalType": "uint256",
          "name": "requestId",
          "type": "uint256"
        },
        {
          "indexed": false,
          "internalType": "uint256",
          "name": "projectId",
          "type": "uint256"
        },
        {
          "indexed": false,
          "internalType": "address",
          "name": "freelancer",
          "type": "address"
        }
      ],
      "name": "RequestSent",
      "type": "event"
    },
    {
      "inputs": [],
      "name": "projectsContract",
      "outputs": [
        {
          "internalType": "contract Projects",
          "name": "",
          "type": "address"
        }
      ],
      "stateMutability": "view",
      "type": "function"
    },
    {
      "inputs": [],
      "name": "requestCount",
      "outputs": [
        {
          "internalType": "uint256",
          "name": "",
          "type": "uint256"
        }
      ],
      "stateMutability": "view",
      "type": "function"
    },
    {
      "inputs": [
        {
          "internalType": "uint256",
          "name": "",
          "type": "uint256"
        }
      ],
      "name": "requests",
      "outputs": [
        {
          "internalType": "uint256",
          "name": "projectId",
          "type": "uint256"
        },
        {
          "internalType": "address",
          "name": "freelancer",
          "type": "address"
        },
        {
          "internalType": "uint256",
          "name": "freelancerRating",
          "type": "uint256"
        },
        {
          "internalType": "enum RequestManager.RequestStatus",
          "name": "status",
          "type": "uint8"
        },
        {
          "internalType": "contract Escrow",
          "name": "escrowContract",
          "type": "address"
        }
      ],
      "stateMutability": "view",
      "type": "function"
    },
    {
      "inputs": [
        {
          "internalType": "uint256",
          "name": "_projectId",
          "type": "uint256"
        },
        {
          "internalType": "uint256",
          "name": "_freelancerRating",
          "type": "uint256"
        }
      ],
      "name": "sendRequest",
      "outputs": [],
      "stateMutability": "nonpayable",
      "type": "function"
    },
    {
      "inputs": [
        {
          "internalType": "uint256",
          "name": "_requestId",
          "type": "uint256"
        }
      ],
      "name": "acceptRequest",
      "outputs": [],
      "stateMutability": "payable",
      "type": "function"
    },
    {
      "inputs": [
        {
          "internalType": "uint256",
          "name": "_requestId",
          "type": "uint256"
        }
      ],
      "name": "rejectRequest",
      "outputs": [],
      "stateMutability": "nonpayable",
      "type": "function"
    },
    {
      "inputs": [
        {
          "internalType": "uint256",
          "name": "_requestId",
          "type": "uint256"
        }
      ],
      "name": "getRequest",
      "outputs": [
        {
          "components": [
            {
              "internalType": "uint256",
              "name": "projectId",
              "type": "uint256"
            },
            {
              "internalType": "address",
              "name": "freelancer",
              "type": "address"
            },
            {
              "internalType": "uint256",
              "name": "freelancerRating",
              "type": "uint256"
            },
            {
              "internalType": "enum RequestManager.RequestStatus",
              "name": "status",
              "type": "uint8"
            },
            {
              "internalType": "contract Escrow",
              "name": "escrowContract",
              "type": "address"
            }
          ],
          "internalType": "struct RequestManager.Request",
          "name": "",
          "type": "tuple"
        }
      ],
      "stateMutability": "view",
      "type": "function"
    },
    {
      "inputs": [],
      "name": "viewAllRequests",
      "outputs": [
        {
          "internalType": "uint256[]",
          "name": "requestIds",
          "type": "uint256[]"
        },
        {
          "internalType": "uint256[]",
          "name": "projectIds",
          "type": "uint256[]"
        },
        {
          "internalType": "address[]",
          "name": "freelancers",
          "type": "address[]"
        },
        {
          "internalType": "uint256[]",
          "name": "freelancerRatings",
          "type": "uint256[]"
        },
        {
          "internalType": "enum RequestManager.RequestStatus[]",
          "name": "statuses",
          "type": "uint8[]"
        },
        {
          "internalType": "address[]",
          "name": "escrowContracts",
          "type": "address[]"
        }
      ],
      "stateMutability": "view",
      "type": "function"
    },
    {
      "inputs": [],
      "name": "viewRequestsByEmployer",
      "outputs": [
        {
          "internalType": "uint256[]",
          "name": "requestIds",
          "type": "uint256[]"
        },
        {
          "internalType": "uint256[]",
          "name": "projectIds",
          "type": "uint256[]"
        },
        {
          "internalType": "address[]",
          "name": "freelancers",
          "type": "address[]"
        },
        {
          "internalType": "uint256[]",
          "name": "freelancerRatings",
          "type": "uint256[]"
        },
        {
          "internalType": "enum RequestManager.RequestStatus[]",
          "name": "statuses",
          "type": "uint8[]"
        },
        {
          "internalType": "address[]",
          "name": "escrowContracts",
          "type": "address[]"
        }
      ],
      "stateMutability": "view",
      "type": "function"
    }
  ],
  "bytecode": "0x608034606f57601f61148338819003918201601f19168301916001600160401b03831184841017607357808492602094604052833981010312606f57516001600160a01b03811690819003606f575f80546001600160a01b0319169190911790556040516113fb90816100888239f35b5f80fd5b634e487b7160e01b5f52604160045260245ffdfe60806040526004361015610011575f80fd5b5f3560e01c806313e43248146109175780632d7788db146108375780634ba1f098146105d15780634bd335b8146105aa5780635badbe4c1461058d57806381d12c581461051f578063a7080a1814610405578063b3db5c941461017c5763c58343ef1461007c575f80fd5b34610178576020366003190112610178576004355f608060405161009f81610c54565b8281528260208201528260408201528260608201520152805f5260016020526100d860018060a01b03600160405f200154161515610de3565b5f52600160205260a060405f20604051906100f282610c54565b80548252610168600180851b0360018301541660208401908152600360028401549360408601948552015492606085019161013060ff861684610dd7565b6080860194600180891b039060081c16855260405195518652600180881b039051166020860152516040850152516060840190610b98565b515f196001841b01166080820152f35b5f80fd5b346101785760403660031901126101785760043580151580610396575b1561035c575f8054604051631e1e7e5960e31b8152600481018490529190829060249082906001600160a01b03165afa908115610351575f91610329575b5060028110156102da576001036102ee576101f3600254610c46565b806002556040519161020483610c54565b8083526003602084019333855260408101602435815260608201955f875260808301955f87525f52600160205260405f2092518355600183019060018060a01b039051166bffffffffffffffffffffffff60a01b82541617905551600282015501925160038110156102da57835492516001600160a81b031990931660ff9091161760089290921b610100600160a81b0316919091179091557fe697eb68c0228bd7d4e553246a2a86e8402d0895e45092ef8ae87b4cfd29f01690606090600254906040519182526020820152336040820152a1005b634e487b7160e01b5f52602160045260245ffd5b60405162461bcd60e51b8152602060048201526013602482015272283937b532b1ba1034b9903737ba1037b832b760691b6044820152606490fd5b61034591503d805f833e61033d8183610c70565b810190610ce8565b509350505050826101d7565b6040513d5f823e3d90fd5b60405162461bcd60e51b8152602060048201526012602482015271125b9d985b1a59081c1c9bda9958dd08125160721b6044820152606490fd5b505f54604051631b7dd69360e11b815290602090829060049082906001600160a01b03165afa908115610351575f916103d3575b50811115610199565b90506020813d6020116103fd575b816103ee60209383610c70565b810103126101785751826103ca565b3d91506103e1565b34610178575f3660031901126101785760025461042181610d7d565b61042a82610d7d565b9061043483610d7d565b61043d84610d7d565b61044685610d7d565b9061045086610d7d565b9260015b8781111561047257506040519650869561046e9587610ba5565b0390f35b805f52600160205260405f20905f19810181811161050b576105006003610506948461049e858d610daf565b5280546104ab858e610daf565b5260018101546001600160a01b03166104c48589610daf565b5260028101546104d4858a610daf565b5201546104ed60ff82166104e8858b610daf565b610dd7565b60081c6001600160a01b03169188610daf565b52610c46565b610454565b634e487b7160e01b5f52601160045260245ffd5b34610178576020366003190112610178576004355f52600160205260a060405f20805490600180841b036001820154169060036002820154910154916040519384526020840152604083015261057b6060830160ff8316610b98565b60081c5f196001841b01166080820152f35b34610178575f366003190112610178576020600254604051908152f35b34610178575f366003190112610178575f546040516001600160a01b039091168152602090f35b602036600319011261017857600435805f52600160205260405f20600181019160018060a01b03835416610606811515610de3565b600383019260ff84541660038110156102da576107f9575f80549154604051631e1e7e5960e31b8152600481019190915291829060249082906001600160a01b03165afa918215610351575f925f925f916107d2575b506001600160a01b0316913383900361077c5760028110156102da576001036107405760405191610596908184019084821067ffffffffffffffff83111761072c576040938593610e30853982526020820152030191f09182156103515780546001600160a81b031916610100600160a81b03600894851b1617600117908190559254604080519283526001600160a01b0391821660208401529390921c909116918101919091527fac8064fea85b95641f19e230ba9da498102d474473fe4b103466cb224daf5e0190606090a1005b634e487b7160e01b5f52604160045260245ffd5b60405162461bcd60e51b8152602060048201526014602482015273283937b532b1ba1036bab9ba1031329037b832b760611b6044820152606490fd5b60405162461bcd60e51b815260206004820152602860248201527f4f6e6c792074686520656d706c6f7965722063616e2061636365707420746865604482015267081c995c5d595cdd60c21b6064820152608490fd5b919350506107ea91503d805f833e61033d8183610c70565b9450949250905092918761065c565b60405162461bcd60e51b815260206004820152601660248201527552657175657374206973206e6f742070656e64696e6760501b6044820152606490fd5b3461017857602036600319011261017857600435805f52600160205260405f20906003600183019261087360018060a01b038554161515610de3565b019060ff82541660038110156102da576108d257815460ff19166002179091559054604080519283526001600160a01b039190911660208301527f490ad67e4c8b3b9c1d11dfcd7f02e155190b8f6feff3a9d9e9df3721f0f74e5791a1005b60405162461bcd60e51b815260206004820152601960248201527f5265717565737420616c72656164792070726f636573736564000000000000006044820152606490fd5b34610178575f366003190112610178576002545f80546001600160a01b03169160015b81811115610a9f575061094c82610d7d565b9061095683610d7d565b9261096081610d7d565b61096982610d7d565b9061097c61097684610d7d565b93610d7d565b935f60015b8281111561099f5750505061046e9495965060405196879687610ba5565b805f526001602052895f6040812054602460405180948193631e1e7e5960e31b835260048301525afa908115610351575f91610a7f575b506001600160a01b031633146109f5575b6109f090610c46565b610981565b90610a776109f091835f52600160205260038a85610a178460405f2093610daf565b528054610a24848f610daf565b5260018101546001600160a01b0316610a3d848a610daf565b526002810154610a4d848b610daf565b520154610a6160ff82166104e8848c610daf565b60081c6001600160a01b0316610500828b610daf565b9190506109e7565b610a9391503d805f833e61033d8183610c70565b9450505050508b6109d6565b805f52600160205260405f205460405190631e1e7e5960e31b825260048201525f81602481885afa908115610351575f91610b09575b506001600160a01b03163314610af4575b610aef90610c46565b61093a565b91610b01610aef91610c46565b929050610ae6565b610b1d91503d805f833e61033d8183610c70565b94505050505085610ad5565b90602080835192838152019201905f5b818110610b465750505090565b8251845260209384019390920191600101610b39565b90602080835192838152019201905f5b818110610b795750505090565b82516001600160a01b0316845260209384019390920191600101610b6c565b9060038210156102da5752565b9695939192610bd4610bf094610bc6610be29460c08c5260c08c0190610b29565b908a820360208c0152610b29565b9088820360408a0152610b5c565b908682036060880152610b29565b9380850360808201526020808451968781520193015f955b808710610c27575050610c2493945060a0818403910152610b5c565b90565b909360208082610c3a6001948951610b98565b01950196019590610c08565b5f19811461050b5760010190565b60a0810190811067ffffffffffffffff82111761072c57604052565b90601f8019910116810190811067ffffffffffffffff82111761072c57604052565b81601f820112156101785780519067ffffffffffffffff821161072c5760405192610cc7601f8401601f191660200185610c70565b8284526020838301011161017857815f9260208093018386015e8301015290565b60c08183031261017857805192602082015167ffffffffffffffff81116101785783610d15918401610c92565b9260408301519067ffffffffffffffff821161017857610d36918401610c92565b91606081015191608082015160028110156101785760a092909201516001600160a01b03811681036101785790565b67ffffffffffffffff811161072c5760051b60200190565b90610d8782610d65565b610d946040519182610c70565b8281528092610da5601f1991610d65565b0190602036910137565b8051821015610dc35760209160051b010190565b634e487b7160e01b5f52603260045260245ffd5b60038210156102da5752565b15610dea57565b60405162461bcd60e51b815260206004820152601d60248201527f4e6f20726571756573742065786973747320666f7220746869732049440000006044820152606490fdfe6080601f61059638819003918201601f19168301916001600160401b03831184841017608957808492604094855283398101031260855760476020604183609d565b9201609d565b5f80546001600160a01b039384166001600160a01b03199182161790915560018054929093169116179055346002556040516104e590816100b18239f35b5f80fd5b634e487b7160e01b5f52604160045260245ffd5b51906001600160a01b038216820360855756fe60806040526004361015610011575f80fd5b5f3560e01c806345ad1a2e14610329578063590e1ae31461025957806369d89575146101f95780638c936e65146100d6578063a37dda2c146100af578063aa8c217c146100925763ae200e7914610066575f80fd5b3461008e575f36600319011261008e576001546040516001600160a01b039091168152602090f35b5f80fd5b3461008e575f36600319011261008e576020600254604051908152f35b3461008e575f36600319011261008e575f546040516001600160a01b039091168152602090f35b3461008e57604036600319011261008e5760025480156101b45761011760646101016004358461049c565b0460646101106024358361049c565b049061047b565b908111610160575f8080808460018060a01b03825416828215610157575bf11561014c576101479060025461047b565b600255005b6040513d5f823e3d90fd5b506108fc610135565b60405162461bcd60e51b815260206004820152602660248201527f52656475636564207061796d656e74206578636565647320657363726f772062604482015265616c616e636560d01b6064820152608490fd5b60405162461bcd60e51b815260206004820152601c60248201527f496e73756666696369656e742066756e647320696e20657363726f77000000006044820152606490fd5b3461008e575f36600319011261008e5761021e60018060a01b036001541633146103e1565b5f80808060025480156102318115610439565b82546001600160a01b0316908390610250575bf11561014c575f600255005b506108fc610244565b3461008e575f36600319011261008e575f546001600160a01b0316338190036102d357600254908115610299575f808093819382f11561014c575f600255005b60405162461bcd60e51b8152602060048201526012602482015271139bc8199d5b991cc81d1bc81c99599d5b9960721b6044820152606490fd5b60405162461bcd60e51b815260206004820152602860248201527f4f6e6c792074686520667265656c616e6365722063616e20726571756573742060448201526718481c99599d5b9960c21b6064820152608490fd5b3461008e57602036600319011261008e5760043561035260018060a01b036001541633146103e1565b600254610360811515610439565b811161038e575f8080808460018060a01b0382541682821561015757f11561014c576101479060025461047b565b60405162461bcd60e51b815260206004820152602560248201527f5265647563656420616d6f756e74206578636565647320657363726f772062616044820152646c616e636560d81b6064820152608490fd5b156103e857565b60405162461bcd60e51b815260206004820152602360248201527f4f6e6c792074686520656d706c6f7965722063616e2072656c656173652066756044820152626e647360e81b6064820152608490fd5b1561044057565b60405162461bcd60e51b81526020600482015260136024820152724e6f2066756e647320746f2072656c6561736560681b6044820152606490fd5b9190820391821161048857565b634e487b7160e01b5f52601160045260245ffd5b818102929181159184041417156104885756fea2646970667358221220b04a0c09c20775572ddb834b1a909b3da292826abe9ad9f18d7cf82abaa916c764736f6c634300081c0033a2646970667358221220b4a334057c67db78843137cd1125c175d5133fd73532f26b821e53291b75966f64736f6c634300081c0033",
  "immutableReferences": {},
  "source": "// SPDX-License-Identifier: MIT\r\npragma solidity ^0.8.0;\r\n\r\nimport \"./Projects.sol\";\r\n\r\ncontract Escrow {\r\n    address public freelancer;\r\n    address public employer;\r\n    uint public amount;\r\n\r\n    constructor(address _freelancer, address _employer) payable {\r\n        freelancer = _freelancer;\r\n        employer = _employer;\r\n        amount = msg.value; // Set the amount to the value sent during the contract creation\r\n    }\r\n\r\n    function releaseFunds() external {\r\n        require(msg.sender == employer, \"Only the employer can release funds\");\r\n        require(amount > 0, \"No funds to release\");\r\n        payable(freelancer).transfer(amount);\r\n        amount = 0; // Set amount to 0 after release\r\n    }\r\n\r\n    function refund() external {\r\n        require(msg.sender == freelancer, \"Only the freelancer can request a refund\");\r\n        require(amount > 0, \"No funds to refund\");\r\n        payable(freelancer).transfer(amount);\r\n        amount = 0; // Set amount to 0 after refund\r\n    }\r\n\r\n    function releaseReducedFunds(uint _reducedAmount) external {\r\n        require(msg.sender == employer, \"Only the employer can release funds\");\r\n        require(amount > 0, \"No funds to release\");\r\n        require(_reducedAmount <= amount, \"Reduced amount exceeds escrow balance\");\r\n\r\n        payable(freelancer).transfer(_reducedAmount);\r\n        amount -= _reducedAmount; // Deduct the paid amount from the total escrow balance\r\n    }\r\n\r\n    function releaseMilestonePayment(uint milestonePercentage, uint delayPenalty) external {\r\n        // require(msg.sender == employer, \"Only the employer can release milestone payments\");\r\n        require(amount > 0, \"Insufficient funds in escrow\");\r\n\r\n        uint milestonePayment = (amount * milestonePercentage) / 100;\r\n        uint reducedPayment = milestonePayment - ((milestonePayment * delayPenalty) / 100);\r\n\r\n        require(reducedPayment <= amount, \"Reduced payment exceeds escrow balance\");\r\n\r\n        payable(freelancer).transfer(reducedPayment);\r\n        amount -= reducedPayment;\r\n    }\r\n}\r\n\r\ncontract RequestManager {\r\n    Projects public projectsContract;\r\n\r\n    enum RequestStatus { Pending, Accepted, Rejected }\r\n\r\n    struct Request {\r\n        uint projectId;\r\n        address freelancer;\r\n        uint freelancerRating;\r\n        RequestStatus status;\r\n        Escrow escrowContract;\r\n    }\r\n\r\n    // Store all requests in a single mapping\r\n    mapping(uint => Request) public requests;\r\n    uint public requestCount; // To keep track of the total number of requests\r\n\r\n    event RequestSent(uint requestId, uint projectId, address freelancer);\r\n    event RequestAccepted(uint requestId, address freelancer, address escrowContract);\r\n    event RequestRejected(uint requestId, address freelancer);\r\n    event MilestoneAccepted(uint projectId, uint milestoneId, uint updatedRating);\r\n\r\n    constructor(address _projectsContract) {\r\n        projectsContract = Projects(_projectsContract);\r\n    }\r\n\r\n    function sendRequest(uint _projectId, uint _freelancerRating) public {\r\n        require(_projectId > 0 && _projectId <= projectsContract.projectCount(), \"Invalid project ID\");\r\n        (,, , , Projects.Status status, ) = projectsContract.getProject(_projectId);\r\n        require(status == Projects.Status.Open, \"Project is not open\");\r\n\r\n        // Create a new request\r\n        requestCount++; // Increment request count to create a unique ID\r\n        requests[requestCount] = Request({\r\n            projectId: _projectId,\r\n            freelancer: msg.sender,\r\n            freelancerRating: _freelancerRating,\r\n            status: RequestStatus.Pending,\r\n            escrowContract: Escrow(address(0))\r\n        });\r\n\r\n        emit RequestSent(requestCount, _projectId, msg.sender);\r\n    }\r\n\r\n    function acceptRequest(uint _requestId) public payable {\r\n        Request storage request = requests[_requestId];\r\n        require(request.freelancer != address(0), \"No request exists for this ID\");\r\n        require(request.status == RequestStatus.Pending, \"Request is not pending\");\r\n\r\n        // Fetch project details\r\n        (,, , uint projectReward, Projects.Status status, address employer) = projectsContract.getProject(request.projectId);\r\n        require(msg.sender == employer, \"Only the employer can accept the request\");\r\n        require(status == Projects.Status.Open, \"Project must be open\");\r\n\r\n        // Create new escrow contract instance with freelancer and employer details\r\n        request.escrowContract = new Escrow{value: projectReward}(request.freelancer, employer);\r\n\r\n        request.status = RequestStatus.Accepted;\r\n        emit RequestAccepted(_requestId, request.freelancer, address(request.escrowContract));\r\n    }\r\n\r\n    function rejectRequest(uint _requestId) public {\r\n        Request storage request = requests[_requestId];\r\n        require(request.freelancer != address(0), \"No request exists for this ID\");\r\n        require(request.status == RequestStatus.Pending, \"Request already processed\");\r\n\r\n        request.status = RequestStatus.Rejected;\r\n        emit RequestRejected(_requestId, request.freelancer);\r\n    }\r\n\r\n    function getRequest(uint _requestId) public view returns (Request memory) {\r\n        require(requests[_requestId].freelancer != address(0), \"No request exists for this ID\");\r\n        return requests[_requestId];\r\n    }\r\n\r\n    // New function to view all requests\r\n    function viewAllRequests() public view returns (\r\n        uint[] memory requestIds,\r\n        uint[] memory projectIds,\r\n        address[] memory freelancers,\r\n        uint[] memory freelancerRatings,\r\n        RequestStatus[] memory statuses,\r\n        address[] memory escrowContracts\r\n    ) {\r\n        uint count = requestCount;\r\n\r\n        // Initialize arrays based on the total request count\r\n        requestIds = new uint[](count);\r\n        projectIds = new uint[](count);\r\n        freelancers = new address[](count);\r\n        freelancerRatings = new uint[](count);\r\n        statuses = new RequestStatus[](count);\r\n        escrowContracts = new address[](count);\r\n\r\n        // Populate the arrays with request details\r\n        for (uint i = 1; i <= requestCount; i++) {\r\n            Request storage request = requests[i];\r\n            requestIds[i - 1] = i;\r\n            projectIds[i - 1] = request.projectId;\r\n            freelancers[i - 1] = request.freelancer;\r\n            freelancerRatings[i - 1] = request.freelancerRating;\r\n            statuses[i - 1] = request.status;\r\n            escrowContracts[i - 1] = address(request.escrowContract);\r\n        }\r\n\r\n        return (requestIds, projectIds, freelancers, freelancerRatings, statuses, escrowContracts);\r\n    }\r\n\r\n/*\r\nfunction acceptMilestone(uint _milestoneId, uint _actualDaysTaken, uint _delayPenalty, uint _requestId) public payable {\r\n        Request memory request = getRequest(_requestId); // Retrieve the request using requestId\r\n\r\n        // Ensure projectId is valid\r\n        require(request.projectId > 0 && request.projectId <= projectsContract.projectCount(), \"Project does not exist\");\r\n\r\n        // Retrieve the project details using the getProject function\r\n        (, , , uint reward, , address employer) = projectsContract.getProject(request.projectId);\r\n        require(msg.sender == employer, \"Only the employer can accept milestones\");\r\n\r\n        // Ensure milestoneId is valid\r\n        (\r\n            uint[] memory ids,\r\n            uint[] memory projectIds,\r\n            string[] memory names,\r\n            string[] memory descriptions,\r\n            uint[] memory daycounts,\r\n            uint[] memory percentages,\r\n            bool[] memory completions,\r\n            string[] memory proofFileHashes\r\n        ) = projectsContract.getMilestones(request.projectId);\r\n\r\n        // Check if the milestone exists and is within bounds\r\n        require(_milestoneId > 0 && _milestoneId <= ids.length, \"Milestone does not exist\");\r\n        \r\n        // Fetch milestone data by using _milestoneId as an index\r\n        uint milestoneIndex = _milestoneId - 1;\r\n        require(!completions[milestoneIndex], \"Milestone already completed\");\r\n        require(bytes(proofFileHashes[milestoneIndex]).length > 0, \"Proof file not uploaded\");\r\n\r\n        // Mark the milestone as completed\r\n        projectsContract.completeMilestone(request.projectId, _milestoneId);\r\n\r\n        // Calculate and update freelancer rating based on the provided formula\r\n        uint currentRating = projectsContract.getFreelancerRating(request.freelancer);\r\n        uint rewardWeight = (percentages[milestoneIndex] * reward) / 100;\r\n        int ratingChange = int((5 * 100 * rewardWeight * daycounts[milestoneIndex]) / (reward * _actualDaysTaken));\r\n\r\n        // Cap the increment at +0.2 if positive\r\n        if (ratingChange > 20) {\r\n            ratingChange = 20;\r\n        }\r\n\r\n        uint newRating = uint(int(currentRating) + ratingChange);\r\n\r\n        // Ensure new rating doesn't exceed 5.0 (500 basis points)\r\n        if (newRating > 500) {\r\n            newRating = 500;\r\n        }\r\n\r\n        // Update the freelancer's rating\r\n        projectsContract.setFreelancerRating(request.freelancer, newRating);\r\n\r\n        // Release milestone payment from the escrow with the specified penalty\r\n        uint milestonePercentage = percentages[milestoneIndex];\r\n        request.escrowContract.releaseMilestonePayment(milestonePercentage, _delayPenalty);\r\n\r\n        emit MilestoneAccepted(request.projectId, _milestoneId, newRating);\r\n    }\r\n    */\r\n\r\n\r\n    function viewRequestsByEmployer() public view returns (\r\n            uint[] memory requestIds,\r\n            uint[] memory projectIds,\r\n            address[] memory freelancers,\r\n            uint[] memory freelancerRatings,\r\n            RequestStatus[] memory statuses,\r\n            address[] memory escrowContracts\r\n        ) {\r\n            uint count = 0;\r\n\r\n            // Count requests that belong to projects owned by the employer\r\n            for (uint i = 1; i <= requestCount; i++) {\r\n                uint projectId = requests[i].projectId;\r\n                (, , , , , address employer) = projectsContract.getProject(projectId);\r\n                if (employer == msg.sender) {\r\n                    count++;\r\n                }\r\n            }\r\n\r\n            // Initialize arrays based on the count of matching requests\r\n            requestIds = new uint[](count);\r\n            projectIds = new uint[](count);\r\n            freelancers = new address[](count);\r\n            freelancerRatings = new uint[](count);\r\n            statuses = new RequestStatus[](count);\r\n            escrowContracts = new address[](count);\r\n\r\n            uint index = 0;\r\n\r\n            // Populate the arrays with matching request details\r\n            for (uint i = 1; i <= requestCount; i++) {\r\n                uint projectId = requests[i].projectId;\r\n                (, , , , , address employer) = projectsContract.getProject(projectId);\r\n                if (employer == msg.sender) {\r\n                    Request storage request = requests[i];\r\n                    requestIds[index] = i;\r\n                    projectIds[index] = request.projectId;\r\n                    freelancers[index] = request.freelancer;\r\n                    freelancerRatings[index] = request.freelancerRating;\r\n                    statuses[index] = request.status;\r\n                    escrowContracts[index] = address(request.escrowContract);\r\n                    index++;\r\n                }\r\n            }\r\n\r\n            return (requestIds, projectIds, freelancers, freelancerRatings, statuses, escrowContracts);\r\n    }\r\n\r\n\r\n}\r\n",
  "sourcePath": "C:\\Users\\Shashwat Chaturvedi\\OneDrive - iiit-b\\college\\projects\\delance\\truffle_project\\contracts\\RequestManager.sol",
  "compiler": {
    "name": "solc",
    "version": "0.8.28+commit.7893614a.Emscripten.clang"
  },
  "schemaVersion": "3.4.16",
  "updatedAt": "2024-11-01T18:55:34.201Z",
  "devdoc": {
    "kind": "dev",
    "methods": {},
    "version": 1
  },
  "userdoc": {
    "kind": "user",
    "methods": {},
    "version": 1
  }
}