{
  "contractName": "Projects",
  "abi": [
    {
      "anonymous": false,
      "inputs": [
        {
          "indexed": false,
          "internalType": "uint256",
          "name": "projectId",
          "type": "uint256"
        },
        {
          "indexed": false,
          "internalType": "uint256",
          "name": "milestoneId",
          "type": "uint256"
        },
        {
          "indexed": false,
          "internalType": "string",
          "name": "name",
          "type": "string"
        },
        {
          "indexed": false,
          "internalType": "uint256",
          "name": "percentage",
          "type": "uint256"
        }
      ],
      "name": "MilestoneAdded",
      "type": "event"
    },
    {
      "anonymous": false,
      "inputs": [
        {
          "indexed": false,
          "internalType": "uint256",
          "name": "projectId",
          "type": "uint256"
        },
        {
          "indexed": false,
          "internalType": "uint256",
          "name": "milestoneId",
          "type": "uint256"
        },
        {
          "indexed": false,
          "internalType": "string",
          "name": "proofFileHash",
          "type": "string"
        }
      ],
      "name": "MilestoneProofUploaded",
      "type": "event"
    },
    {
      "anonymous": false,
      "inputs": [
        {
          "indexed": false,
          "internalType": "uint256",
          "name": "id",
          "type": "uint256"
        },
        {
          "indexed": false,
          "internalType": "string",
          "name": "name",
          "type": "string"
        },
        {
          "indexed": false,
          "internalType": "address",
          "name": "employer",
          "type": "address"
        }
      ],
      "name": "ProjectAdded",
      "type": "event"
    },
    {
      "inputs": [
        {
          "internalType": "address",
          "name": "",
          "type": "address"
        }
      ],
      "name": "freelancerRatings",
      "outputs": [
        {
          "internalType": "uint256",
          "name": "",
          "type": "uint256"
        }
      ],
      "stateMutability": "view",
      "type": "function"
    },
    {
      "inputs": [],
      "name": "milestoneCount",
      "outputs": [
        {
          "internalType": "uint256",
          "name": "",
          "type": "uint256"
        }
      ],
      "stateMutability": "view",
      "type": "function"
    },
    {
      "inputs": [
        {
          "internalType": "uint256",
          "name": "",
          "type": "uint256"
        },
        {
          "internalType": "uint256",
          "name": "",
          "type": "uint256"
        }
      ],
      "name": "milestones",
      "outputs": [
        {
          "internalType": "uint256",
          "name": "id",
          "type": "uint256"
        },
        {
          "internalType": "uint256",
          "name": "projectId",
          "type": "uint256"
        },
        {
          "internalType": "string",
          "name": "name",
          "type": "string"
        },
        {
          "internalType": "string",
          "name": "description",
          "type": "string"
        },
        {
          "internalType": "uint256",
          "name": "daycount",
          "type": "uint256"
        },
        {
          "internalType": "uint256",
          "name": "percentage",
          "type": "uint256"
        },
        {
          "internalType": "bool",
          "name": "completed",
          "type": "bool"
        },
        {
          "internalType": "string",
          "name": "proofFileHash",
          "type": "string"
        }
      ],
      "stateMutability": "view",
      "type": "function"
    },
    {
      "inputs": [],
      "name": "projectCount",
      "outputs": [
        {
          "internalType": "uint256",
          "name": "",
          "type": "uint256"
        }
      ],
      "stateMutability": "view",
      "type": "function"
    },
    {
      "inputs": [
        {
          "internalType": "uint256",
          "name": "",
          "type": "uint256"
        }
      ],
      "name": "projects",
      "outputs": [
        {
          "internalType": "uint256",
          "name": "id",
          "type": "uint256"
        },
        {
          "internalType": "string",
          "name": "name",
          "type": "string"
        },
        {
          "internalType": "string",
          "name": "description",
          "type": "string"
        },
        {
          "internalType": "uint256",
          "name": "reward",
          "type": "uint256"
        },
        {
          "internalType": "enum Projects.Status",
          "name": "status",
          "type": "uint8"
        },
        {
          "internalType": "address",
          "name": "employer",
          "type": "address"
        }
      ],
      "stateMutability": "view",
      "type": "function"
    },
    {
      "inputs": [
        {
          "internalType": "string",
          "name": "_name",
          "type": "string"
        },
        {
          "internalType": "string",
          "name": "_description",
          "type": "string"
        },
        {
          "internalType": "uint256",
          "name": "_reward",
          "type": "uint256"
        }
      ],
      "name": "addProject",
      "outputs": [],
      "stateMutability": "nonpayable",
      "type": "function"
    },
    {
      "inputs": [
        {
          "internalType": "uint256",
          "name": "_projectId",
          "type": "uint256"
        },
        {
          "internalType": "string",
          "name": "_name",
          "type": "string"
        },
        {
          "internalType": "string",
          "name": "_description",
          "type": "string"
        },
        {
          "internalType": "uint256",
          "name": "_daycount",
          "type": "uint256"
        },
        {
          "internalType": "uint256",
          "name": "_percentage",
          "type": "uint256"
        }
      ],
      "name": "addMilestone",
      "outputs": [],
      "stateMutability": "nonpayable",
      "type": "function"
    },
    {
      "inputs": [
        {
          "internalType": "uint256",
          "name": "_projectId",
          "type": "uint256"
        },
        {
          "internalType": "uint256",
          "name": "_milestoneId",
          "type": "uint256"
        },
        {
          "internalType": "address",
          "name": "_freelancer",
          "type": "address"
        },
        {
          "internalType": "string",
          "name": "_proofFileHash",
          "type": "string"
        }
      ],
      "name": "uploadMilestoneProof",
      "outputs": [],
      "stateMutability": "nonpayable",
      "type": "function"
    },
    {
      "inputs": [
        {
          "internalType": "address",
          "name": "_freelancer",
          "type": "address"
        }
      ],
      "name": "getFreelancerRating",
      "outputs": [
        {
          "internalType": "uint256",
          "name": "",
          "type": "uint256"
        }
      ],
      "stateMutability": "view",
      "type": "function"
    },
    {
      "inputs": [
        {
          "internalType": "uint256",
          "name": "_id",
          "type": "uint256"
        }
      ],
      "name": "getProject",
      "outputs": [
        {
          "internalType": "uint256",
          "name": "",
          "type": "uint256"
        },
        {
          "internalType": "string",
          "name": "",
          "type": "string"
        },
        {
          "internalType": "string",
          "name": "",
          "type": "string"
        },
        {
          "internalType": "uint256",
          "name": "",
          "type": "uint256"
        },
        {
          "internalType": "enum Projects.Status",
          "name": "",
          "type": "uint8"
        },
        {
          "internalType": "address",
          "name": "",
          "type": "address"
        }
      ],
      "stateMutability": "view",
      "type": "function"
    },
    {
      "inputs": [],
      "name": "viewProjects",
      "outputs": [
        {
          "internalType": "uint256[]",
          "name": "ids",
          "type": "uint256[]"
        },
        {
          "internalType": "string[]",
          "name": "names",
          "type": "string[]"
        },
        {
          "internalType": "string[]",
          "name": "descriptions",
          "type": "string[]"
        },
        {
          "internalType": "uint256[]",
          "name": "rewards",
          "type": "uint256[]"
        },
        {
          "internalType": "enum Projects.Status[]",
          "name": "statuses",
          "type": "uint8[]"
        },
        {
          "internalType": "address[]",
          "name": "employers",
          "type": "address[]"
        }
      ],
      "stateMutability": "view",
      "type": "function"
    },
    {
      "inputs": [],
      "name": "viewOpenProjects",
      "outputs": [
        {
          "internalType": "uint256[]",
          "name": "ids",
          "type": "uint256[]"
        },
        {
          "internalType": "string[]",
          "name": "names",
          "type": "string[]"
        },
        {
          "internalType": "string[]",
          "name": "descriptions",
          "type": "string[]"
        },
        {
          "internalType": "uint256[]",
          "name": "rewards",
          "type": "uint256[]"
        },
        {
          "internalType": "enum Projects.Status[]",
          "name": "statuses",
          "type": "uint8[]"
        },
        {
          "internalType": "address[]",
          "name": "employers",
          "type": "address[]"
        }
      ],
      "stateMutability": "view",
      "type": "function"
    },
    {
      "inputs": [
        {
          "internalType": "uint256",
          "name": "_projectId",
          "type": "uint256"
        }
      ],
      "name": "getMilestones",
      "outputs": [
        {
          "internalType": "uint256[]",
          "name": "ids",
          "type": "uint256[]"
        },
        {
          "internalType": "uint256[]",
          "name": "projectIds",
          "type": "uint256[]"
        },
        {
          "internalType": "string[]",
          "name": "names",
          "type": "string[]"
        },
        {
          "internalType": "string[]",
          "name": "descriptions",
          "type": "string[]"
        },
        {
          "internalType": "uint256[]",
          "name": "daycounts",
          "type": "uint256[]"
        },
        {
          "internalType": "uint256[]",
          "name": "percentages",
          "type": "uint256[]"
        },
        {
          "internalType": "bool[]",
          "name": "completions",
          "type": "bool[]"
        },
        {
          "internalType": "string[]",
          "name": "proofFileHashes",
          "type": "string[]"
        }
      ],
      "stateMutability": "view",
      "type": "function"
    },
    {
      "inputs": [
        {
          "internalType": "uint256",
          "name": "_id",
          "type": "uint256"
        }
      ],
      "name": "closeProject",
      "outputs": [],
      "stateMutability": "nonpayable",
      "type": "function"
    },
    {
      "inputs": [
        {
          "internalType": "uint256",
          "name": "_projectId",
          "type": "uint256"
        },
        {
          "internalType": "uint256",
          "name": "_milestoneId",
          "type": "uint256"
        }
      ],
      "name": "completeMilestone",
      "outputs": [],
      "stateMutability": "nonpayable",
      "type": "function"
    },
    {
      "inputs": [
        {
          "internalType": "address",
          "name": "_freelancer",
          "type": "address"
        },
        {
          "internalType": "uint256",
          "name": "_rating",
          "type": "uint256"
        }
      ],
      "name": "setFreelancerRating",
      "outputs": [],
      "stateMutability": "nonpayable",
      "type": "function"
    }
  ],
  "bytecode": "0x6080806040523461001657611c2b908161001b8239f35b5f80fdfe60806040526004361015610011575f80fd5b5f3560e01c8063063dca0c146116ec5780630681ca55146116cf578063107046bd146116695780631c376c63146115a357806327db21e114611440578063310f94111461149557806336fbad26146114785780633a766ddf1461144057806342c549c01461114a57806353eef06014610faa578063563700d5146109c65780635fd4f7581461066457806393dc12e6146105b3578063d0b20691146102de578063f0f3f2c8146101f55763f326206b146100c9575f80fd5b346101f1576100d736611903565b90801515806101e5575b6100ea90611b0a565b811515806101cf575b1561018a575f52600160205260405f205f1982019182116101765760069161011a91611919565b5001805460ff81166101315760ff19166001179055005b60405162461bcd60e51b815260206004820152601b60248201527f4d696c6573746f6e6520616c726561647920636f6d706c6574656400000000006044820152606490fd5b634e487b7160e01b5f52601160045260245ffd5b60405162461bcd60e51b815260206004820152601860248201527f4d696c6573746f6e6520646f6573206e6f7420657869737400000000000000006044820152606490fd5b50805f52600160205260405f20548211156100f3565b506003548111156100e1565b5f80fd5b346101f15760203660031901126101f157600435801515806102d2575b61021b90611b0a565b5f525f60205260405f206040516102318161178b565b81548152610241600183016117c7565b9060208101918252610255600284016117c7565b92604082019384526004600382015491606084019283520154916080810161028060ff851682611afe565b60018060a01b03918260a082019560081c1685525194519551925190519160028310156102be576102ba94511692604051968796876118b3565b0390f35b634e487b7160e01b5f52602160045260245ffd5b50600354811115610212565b346101f15760803660031901126101f1576024356004356044356001600160a01b038116908190036101f1576001600160401b03926064358481116101f15761032b903690600401611a9b565b91831515806105a7575b61033e90611b0a565b330361054c5780151580610536575b156104fa57825f52600160209481865260405f205f1990818501908582116101765760079161037b91611919565b50019285519283116104e6576103918454611737565b601f81116104a0575b5087601f841160011461041657927fa242dc265ec329d765b4d1175eb5f3d36f052da4b6bf61b340d71ca9846ca7a2989796949281809361040698965f9461040b575b501b9260031b1c19161790555b6040519485948552840152606060408401526060830190611868565b0390a1005b88015193508c6103dd565b909291601f19831691855f52895f20925f5b81811061048b57509161040697959391857fa242dc265ec329d765b4d1175eb5f3d36f052da4b6bf61b340d71ca9846ca7a29c9b9a98969410610473575b505050811b0190556103ea565b8701519060f88460031b161c19169055898080610466565b89830151855593860193918b01918b01610428565b845f52885f20601f850160051c8101918a86106104dc575b601f0160051c019082905b8281106104d157505061039a565b5f81550182906104c3565b90915081906104b8565b634e487b7160e01b5f52604160045260245ffd5b60405162461bcd60e51b8152602060048201526014602482015273125b9d985b1a59081b5a5b195cdd1bdb9948125160621b6044820152606490fd5b50825f52600160205260405f205481111561034d565b60405162461bcd60e51b815260206004820152602d60248201527f4f6e6c79207468652061737369676e656420667265656c616e6365722063616e60448201526c103ab83637b0b210383937b7b360991b6064820152608490fd5b50600354841115610335565b346101f15760203660031901126101f15760043580151580610658575b6105d990611b0a565b5f525f602052600460405f2001805460018060a01b038160081c1633036106025760ff19169055005b60405162461bcd60e51b815260206004820152602860248201527f4f6e6c792074686520656d706c6f7965722063616e20636c6f73652074686973604482015267081c1c9bda9958dd60c21b6064820152608490fd5b506003548111156105d0565b346101f15760603660031901126101f1576004356001600160401b0381116101f157610694903690600401611a9b565b6024356001600160401b0381116101f1576106b3903690600401611a9b565b6106be600354611af0565b80600355604051906106cf8261178b565b808252602082019284845260408301526044356060830152600160808301523360a08301525f525f60205260405f209181518355519283516001600160401b0381116104e6576107226001850154611737565b601f8111610982575b506020601f82116001146109175781929394955f9261090c575b50508160011b915f199060031b1c19161760018401555b60408201519283516001600160401b0381116104e65761077f6002830154611737565b601f81116108c8575b506020601f821160011461085957819060049495965f9261084e575b50508160011b915f199060031b1c19161760028201555b6060840151600382015501608083015160028110156102be577f0c37be42d09c868de3d7b2154026972d847472b2d254f8f2f6a8f1be3a450e6a9360ff83549160a0610100600160a81b0391015160081b169216906affffffffffffffffffffff60a81b16171790556003546108436040519283928352606060208401526060830190611868565b3360408301520390a1005b0151905086806107a4565b600283015f5260205f20955f5b601f19841681106108b057509582916004959697600194601f19811610610898575b505050811b0160028201556107bb565b01515f1960f88460031b161c19169055868080610888565b82820151885560019097019660209283019201610866565b600283015f5260205f20601f830160051c810160208410610905575b601f830160051c820181106108fa575050610788565b5f81556001016108e4565b50806108e4565b015190508580610745565b600185015f5260205f20905f5b601f198416811061096a575060019394959683601f19811610610952575b505050811b01600184015561075c565b01515f1960f88460031b161c19169055858080610942565b9091602060018192858b015181550193019101610924565b600185015f5260205f20601f830160051c8101602084106109bf575b601f830160051c820181106109b457505061072b565b5f815560010161099e565b508061099e565b346101f15760a03660031901126101f1576024356001600160401b0381116101f1576109f6903690600401611a9b565b6044356001600160401b0381116101f157610a15903690600401611a9b565b90600435151580610f9c575b610a2a90611b0a565b600480355f908152602081905260409020015460081c6001600160a01b03163303610f4b57608435151580610f3e575b15610f0457610a6a600454611af0565b90816004556004355f52600160205260405f209260405192610a8b8461176f565b83526020830193600435855260408401918383526060850152606435608085015260843560a08501525f60c0850152604051602081018181106001600160401b038211176104e6576040525f815260e08501528054680100000000000000008110156104e657610b0091600182018155611919565b949094610ef15783518555516001850155519283516001600160401b0381116104e657610b306002830154611737565b601f8111610ead575b506020601f8211600114610e425781929394955f92610e37575b50508160011b915f199060031b1c19161760028201555b60608301518051906001600160401b0382116104e657610b8d6003840154611737565b601f8111610df3575b50602090601f8311600114610d8257918060e094926007945f92610d77575b50508160011b915f199060031b1c19161760038201555b6080850151600482015560a085015160058201556006810160c0860151151560ff8019835416911617905501920151918251926001600160401b0384116104e657610c178254611737565b601f8111610d32575b50602090601f8511600114610cad577fc67423104bf96f5ca8826913ae711e8c2254e1b2c04af907b2312853ed4cbed294915f9183610ca2575b50508160011b915f199060031b1c19161790555b600454610c9560405192839260043584526020840152608060408401526080830190611868565b60843560608301520390a1005b015190508580610c5a565b90601f19851691835f5260205f20925f5b818110610d1a57509160019391877fc67423104bf96f5ca8826913ae711e8c2254e1b2c04af907b2312853ed4cbed2989410610d02575b505050811b019055610c6e565b01515f1960f88460031b161c19169055858080610cf5565b92936020600181928786015181550195019301610cbe565b825f5260205f20601f860160051c81019160208710610d6d575b601f0160051c01905b818110610d625750610c20565b5f8155600101610d55565b9091508190610d4c565b015190508780610bb5565b90600384015f5260205f20915f5b601f1985168110610ddb57509260e0949260019260079583601f19811610610dc3575b505050811b016003820155610bcc565b01515f1960f88460031b161c19169055878080610db3565b91926020600181928685015181550194019201610d90565b600384015f5260205f20601f840160051c810160208510610e30575b601f830160051c82018110610e25575050610b96565b5f8155600101610e0f565b5080610e0f565b015190508580610b53565b600283015f5260205f20905f5b601f1984168110610e95575060019394959683601f19811610610e7d575b505050811b016002820155610b6a565b01515f1960f88460031b161c19169055858080610e6d565b9091602060018192858b015181550193019101610e4f565b600283015f5260205f20601f830160051c810160208410610eea575b601f830160051c82018110610edf575050610b39565b5f8155600101610ec9565b5080610ec9565b634e487b7160e01b5f525f60045260245ffd5b60405162461bcd60e51b8152602060048201526012602482015271496e76616c69642070657263656e7461676560701b6044820152606490fd5b5060646084351115610a5a565b60405162461bcd60e51b8152602060048201526024808201527f4f6e6c792074686520656d706c6f7965722063616e20616464206d696c6573746044820152636f6e657360e01b6064820152608490fd5b506003546004351115610a21565b346101f1575f3660031901126101f1575f6001600354905b818111156111045750610fd482611b66565b610fdd83611b98565b91610fe784611b98565b93610ff181611b66565b611003610ffd83611b66565b92611b66565b925f60015b82811115611025575050506102ba939495604051968796876119cd565b805f525f60205260ff600460405f2001541660028110156102be57898960018a931461105d575b50505061105890611af0565b611008565b6110f9926110b48680946110a788996004966110589a5f525f60205260405f209661108a83895492611be1565b52611097600188016117c7565b6110a18383611be1565b52611be1565b50611097600285016117c7565b5060038101546110c4848a611be1565b5201546110dd60ff82166110d8848b611be1565b611afe565b60081c6001600160a01b03166110f3828a611be1565b52611af0565b91905086898961104c565b805f525f60205260ff600460405f2001541660028110156102be57600114611135575b61113090611af0565b610fc2565b9161114261113091611af0565b929050611127565b346101f1576020806003193601126101f15760043580151580611434575b61117190611b0a565b5f526001815260405f20805461118681611b4f565b9161119460405193846117a6565b8183525f9081528381208484015b8383106113b257848681516111b681611b66565b906111c081611b66565b936111ca82611b98565b6111d383611b98565b6111dc84611b66565b6111e585611b66565b916111ef86611b4f565b936111fd60405195866117a6565b86855261120987611b4f565b858a019790601f190136893761121e81611b98565b965f5b8281106112e25750505090889392916040519a8b99610100808c528b0161124791611946565b8a8103878c015261125791611946565b89810360408b015261126891611979565b88810360608a015261127991611979565b878103608089015261128a91611946565b86810360a088015261129b91611946565b9185830360c087015251918281520192945f5b8281106112c95785806102ba878783820360e0850152611979565b86511515855295810195879550938101936001016112ae565b8a816112f99c9e95969798999b9d9a9c8185611be1565b519182519161130791611be1565b52898101516113168387611be1565b5260408101516113268388611be1565b526113318287611be1565b5060608101516113418389611be1565b5261134c8288611be1565b50608081015161135c838a611be1565b5260a081015161136c838b611be1565b5260c0810151151561137e838d611be1565b5260e0015161138d828d611be1565b52611398818c611be1565b506113a290611af0565b9b99979a9896959493929b611221565b6008866001926040516113c48161176f565b8554815284860154838201526113dc600287016117c7565b60408201526113ed600387016117c7565b606082015260048601546080820152600586015460a082015260ff600687015416151560c0820152611421600787016117c7565b60e08201528152019201920191906111a2565b50600354811115611168565b346101f15760203660031901126101f1576001600160a01b03611461611721565b165f526002602052602060405f2054604051908152f35b346101f1575f3660031901126101f1576020600354604051908152f35b346101f1575f3660031901126101f157600380546114b281611b66565b6114bb82611b98565b916114c581611b98565b6114ce82611b66565b6114d783611b66565b916114e184611b66565b936001805b82811115611504575050506102ba94959650604051968796876119cd565b805f525f60205260405f20908154915f198201908282116101765760046110f3918e6115478f8f9061159e9961153b898094611be1565b526110978b86016117c7565b50611554600283016117c7565b61155e868c611be1565b52611569858b611be1565b50810154611577858c611be1565b52015461158b60ff82166110d8858d611be1565b60081c6001600160a01b0316918a611be1565b6114e6565b346101f1576115b136611903565b905f52600160205260405f209081548110156101f1576115d091611919565b508054906102ba6001820154916115e9600282016117c7565b6115f5600383016117c7565b9160048101549261164a60058301549161163c61161c600760ff60068801541696016117c7565b956040519a8b9a610100918c5260208c01528060408c01528a0190611868565b9088820360608a0152611868565b93608087015260a0860152151560c085015283820360e0850152611868565b346101f15760203660031901126101f1576004355f525f60205260405f208054906102ba611699600183016117c7565b916116a6600282016117c7565b93600460038301549201549160405195869560ff60018060a01b038660081c16951693876118b3565b346101f1575f3660031901126101f1576020600454604051908152f35b346101f15760403660031901126101f1576001600160a01b0361170d611721565b165f52600260205260243560405f20555f80f35b600435906001600160a01b03821682036101f157565b90600182811c92168015611765575b602083101461175157565b634e487b7160e01b5f52602260045260245ffd5b91607f1691611746565b61010081019081106001600160401b038211176104e657604052565b60c081019081106001600160401b038211176104e657604052565b90601f801991011681019081106001600160401b038211176104e657604052565b9060405191825f82546117d981611737565b9081845260209460019182811690815f146118465750600114611808575b505050611806925003836117a6565b565b5f90815285812095935091905b81831061182e57505061180693508201015f80806117f7565b85548884018501529485019487945091830191611815565b9250505061180694925060ff191682840152151560051b8201015f80806117f7565b91908251928382525f5b848110611892575050825f602080949584010152601f8019910116010190565b602081830181015184830182015201611872565b9060028210156102be5752565b949060a0949796936118d96118f7946118e793895260c060208a015260c0890190611868565b908782036040890152611868565b96606086015260808501906118a6565b600180831b0316910152565b60409060031901126101f1576004359060243590565b8054821015611932575f5260205f209060031b01905f90565b634e487b7160e01b5f52603260045260245ffd5b9081518082526020808093019301915f5b828110611965575050505090565b835185529381019392810192600101611957565b90815180825260208092019182818360051b82019501935f915b8483106119a35750505050505090565b90919293949584806119bd83856001950387528a51611868565b9801930193019194939290611993565b92611a0a906119fc6119ed611a189598979460c0885260c0880190611946565b6020988782038a890152611979565b908582036040870152611979565b908382036060850152611946565b81810360808301528380845192838152019301905f5b818110611a795750505060a08183039101528180845192838152019301915f5b828110611a5c575050505090565b83516001600160a01b031685529381019392810192600101611a4e565b90919493848082611a8d6001948a516118a6565b969796019501929101611a2e565b81601f820112156101f1578035906001600160401b0382116104e65760405192611acf601f8401601f1916602001856117a6565b828452602083830101116101f157815f926020809301838601378301015290565b5f1981146101765760010190565b60028210156102be5752565b15611b1157565b60405162461bcd60e51b8152602060048201526016602482015275141c9bda9958dd08191bd95cc81b9bdd08195e1a5cdd60521b6044820152606490fd5b6001600160401b0381116104e65760051b60200190565b90611b7082611b4f565b611b7d60405191826117a6565b8281528092611b8e601f1991611b4f565b0190602036910137565b90611ba282611b4f565b611baf60405191826117a6565b8281528092611bc0601f1991611b4f565b01905f5b828110611bd057505050565b806060602080938501015201611bc4565b80518210156119325760209160051b01019056fea2646970667358221220fc8d1e2c9cffad735cfc43f69f85873c238339e091b5a3fe84cf6fe645d4b74a64736f6c63430008150033",
  "immutableReferences": {},
  "source": "// SPDX-License-Identifier: MIT\r\npragma solidity >=0.8.7;\r\n\r\n// import \"./RequestManager.sol\";\r\n\r\ncontract Projects {\r\n    \r\n    enum Status { Closed, Open }\r\n\r\n    struct Project {\r\n        uint id;\r\n        string name;\r\n        string description;\r\n        uint reward;\r\n        Status status;\r\n        address employer;\r\n    }\r\n\r\n    struct Milestone {\r\n        uint id;\r\n        uint projectId;\r\n        string name;\r\n        string description;\r\n        uint daycount;\r\n        uint percentage;\r\n        bool completed;\r\n        string proofFileHash; // To store proof file hash\r\n    }\r\n\r\n    mapping(uint => Project) public projects;\r\n    mapping(uint => Milestone[]) public milestones;\r\n    mapping(address => uint) public freelancerRatings; // Map freelancer address to their rating (in basis points out of 5 * 100)\r\n\r\n    uint public projectCount;\r\n    uint public milestoneCount;\r\n\r\n    // RequestManager public requestManager;\r\n\r\n    event ProjectAdded(uint id, string name, address employer);\r\n    event MilestoneAdded(uint projectId, uint milestoneId, string name, uint percentage);\r\n    event MilestoneProofUploaded(uint projectId, uint milestoneId, string proofFileHash);\r\n    // constructor(address _requestManager) {\r\n    //     requestManager = RequestManager(_requestManager);\r\n    // }\r\n\r\n    function addProject(string memory _name, string memory _description, uint _reward) public {\r\n        projectCount++;\r\n        projects[projectCount] = Project({\r\n            id: projectCount,\r\n            name: _name,\r\n            description: _description,\r\n            reward: _reward,\r\n            status: Status.Open,\r\n            employer: msg.sender\r\n        });\r\n\r\n        emit ProjectAdded(projectCount, _name, msg.sender);\r\n    }\r\n\r\n    function addMilestone(uint _projectId, string memory _name, string memory _description, uint _daycount, uint _percentage) public {\r\n        require(_projectId > 0 && _projectId <= projectCount, \"Project does not exist\");\r\n        require(msg.sender == projects[_projectId].employer, \"Only the employer can add milestones\");\r\n        require(_percentage > 0 && _percentage <= 100, \"Invalid percentage\");\r\n\r\n        milestoneCount++;\r\n        milestones[_projectId].push(Milestone({\r\n            id: milestoneCount,\r\n            projectId: _projectId,\r\n            name: _name,\r\n            description: _description,\r\n            daycount: _daycount,\r\n            percentage: _percentage,\r\n            completed: false,\r\n            proofFileHash: \"\" // Initialize proof file hash as empty\r\n        }));\r\n\r\n        emit MilestoneAdded(_projectId, milestoneCount, _name, _percentage);\r\n    }\r\n\r\n    function uploadMilestoneProof(uint _projectId, uint _milestoneId, address _freelancer, string memory _proofFileHash) public {\r\n        require(_projectId > 0 && _projectId <= projectCount, \"Project does not exist\");\r\n        require(msg.sender == _freelancer, \"Only the assigned freelancer can upload proof\");\r\n\r\n        // Check if the milestone exists\r\n        require(_milestoneId > 0 && _milestoneId <= milestones[_projectId].length, \"Invalid milestone ID\");\r\n\r\n        // Store the proof file hash for the milestone\r\n        milestones[_projectId][_milestoneId - 1].proofFileHash = _proofFileHash;\r\n\r\n        emit MilestoneProofUploaded(_projectId, _milestoneId, _proofFileHash);\r\n    }\r\n\r\n    function getFreelancerRating(address _freelancer) public view returns (uint) {\r\n        return freelancerRatings[_freelancer];\r\n    }\r\n\r\n    function getProject(uint _id) public view returns (uint, string memory, string memory, uint, Status, address) {\r\n        require(_id > 0 && _id <= projectCount, \"Project does not exist\");\r\n        Project memory proj = projects[_id];\r\n        return (proj.id, proj.name, proj.description, proj.reward, proj.status, proj.employer);\r\n    }\r\n\r\n    function viewProjects() public view returns (\r\n        uint[] memory ids, \r\n        string[] memory names, \r\n        string[] memory descriptions, \r\n        uint[] memory rewards, \r\n        Status[] memory statuses, \r\n        address[] memory employers\r\n    ) {\r\n        ids = new uint[](projectCount);\r\n        names = new string[](projectCount);\r\n        descriptions = new string[](projectCount);\r\n        rewards = new uint[](projectCount);\r\n        statuses = new Status[](projectCount);\r\n        employers = new address[](projectCount);\r\n\r\n        for (uint i = 1; i <= projectCount; i++) {\r\n            Project storage proj = projects[i];\r\n            ids[i - 1] = proj.id;\r\n            names[i - 1] = proj.name;\r\n            descriptions[i - 1] = proj.description;\r\n            rewards[i - 1] = proj.reward;\r\n            statuses[i - 1] = proj.status;\r\n            employers[i - 1] = proj.employer;\r\n        }\r\n\r\n        return (ids, names, descriptions, rewards, statuses, employers);\r\n    }\r\n\r\n    function viewOpenProjects() public view returns (\r\n        uint[] memory ids, \r\n        string[] memory names, \r\n        string[] memory descriptions, \r\n        uint[] memory rewards, \r\n        Status[] memory statuses, \r\n        address[] memory employers\r\n    ) {\r\n        uint openCount = 0;\r\n        for (uint i = 1; i <= projectCount; i++) {\r\n            if (projects[i].status == Status.Open) {\r\n                openCount++;\r\n            }\r\n        }\r\n\r\n        ids = new uint[](openCount);\r\n        names = new string[](openCount);\r\n        descriptions = new string[](openCount);\r\n        rewards = new uint[](openCount);\r\n        statuses = new Status[](openCount);\r\n        employers = new address[](openCount);\r\n\r\n        uint index = 0;\r\n        for (uint i = 1; i <= projectCount; i++) {\r\n            if (projects[i].status == Status.Open) {\r\n                Project storage proj = projects[i];\r\n                ids[index] = proj.id;\r\n                names[index] = proj.name;\r\n                descriptions[index] = proj.description;\r\n                rewards[index] = proj.reward;\r\n                statuses[index] = proj.status;\r\n                employers[index] = proj.employer;\r\n                index++;\r\n            }\r\n        }\r\n\r\n        return (ids, names, descriptions, rewards, statuses, employers);\r\n    }\r\n\r\n    function getMilestones(uint _projectId) \r\n        public view \r\n        returns (\r\n            uint[] memory ids, \r\n            uint[] memory projectIds, \r\n            string[] memory names, \r\n            string[] memory descriptions, \r\n            uint[] memory daycounts, \r\n            uint[] memory percentages, \r\n            bool[] memory completions, \r\n            string[] memory proofFileHashes\r\n        ) \r\n    {\r\n        require(_projectId > 0 && _projectId <= projectCount, \"Project does not exist\");\r\n\r\n        Milestone[] memory projectMilestones = milestones[_projectId];\r\n        uint milestonesCount = projectMilestones.length;\r\n\r\n        // Initialize arrays for each field in Milestone\r\n        ids = new uint[](milestonesCount);\r\n        projectIds = new uint[](milestonesCount);\r\n        names = new string[](milestonesCount);\r\n        descriptions = new string[](milestonesCount);\r\n        daycounts = new uint[](milestonesCount);\r\n        percentages = new uint[](milestonesCount);\r\n        completions = new bool[](milestonesCount);\r\n        proofFileHashes = new string[](milestonesCount);\r\n\r\n        // Populate each array with the corresponding data from each milestone\r\n        for (uint i = 0; i < milestonesCount; i++) {\r\n            Milestone memory milestone = projectMilestones[i];\r\n            ids[i] = milestone.id;\r\n            projectIds[i] = milestone.projectId;\r\n            names[i] = milestone.name;\r\n            descriptions[i] = milestone.description;\r\n            daycounts[i] = milestone.daycount;\r\n            percentages[i] = milestone.percentage;\r\n            completions[i] = milestone.completed;\r\n            proofFileHashes[i] = milestone.proofFileHash;\r\n        }\r\n\r\n        return (\r\n            ids, \r\n            projectIds, \r\n            names, \r\n            descriptions, \r\n            daycounts, \r\n            percentages, \r\n            completions, \r\n            proofFileHashes\r\n        );\r\n    }\r\n\r\n    function closeProject(uint _id) public {\r\n        require(_id > 0 && _id <= projectCount, \"Project does not exist\");\r\n        Project storage proj = projects[_id];\r\n        require(msg.sender == proj.employer, \"Only the employer can close this project\");\r\n        proj.status = Status.Closed;\r\n    }\r\n\r\n    function completeMilestone(uint _projectId, uint _milestoneId) public {\r\n        require(_projectId > 0 && _projectId <= projectCount, \"Project does not exist\");\r\n        require(_milestoneId > 0 && _milestoneId <= milestones[_projectId].length, \"Milestone does not exist\");\r\n        \r\n        Milestone storage milestone = milestones[_projectId][_milestoneId - 1];\r\n        require(!milestone.completed, \"Milestone already completed\");\r\n        \r\n        milestone.completed = true; // Mark the milestone as completed\r\n    }\r\n\r\n    function setFreelancerRating(address _freelancer, uint _rating) public {\r\n        // Ensure only the owner of the contract can set the rating\r\n        // require(msg.sender == owner, \"Only the owner can set the rating\"); // Adjust ownership logic as necessary\r\n        freelancerRatings[_freelancer] = _rating;\r\n    }\r\n\r\n\r\n}\r\n",
  "sourcePath": "C:\\Users\\Shashwat Chaturvedi\\OneDrive - iiit-b\\college\\projects\\delance\\new_truffle_project\\contracts\\Projects.sol",
  "compiler": {
    "name": "solc",
    "version": "0.8.21+commit.d9974bed.Emscripten.clang"
  },
  "schemaVersion": "3.4.16",
  "updatedAt": "2024-11-01T17:54:15.164Z",
  "devdoc": {
    "kind": "dev",
    "methods": {},
    "version": 1
  },
  "userdoc": {
    "kind": "user",
    "methods": {},
    "version": 1
  }
}