{
  "contractName": "RequestManager",
  "abi": [
    {
      "inputs": [
        {
          "internalType": "address",
          "name": "_projectsContract",
          "type": "address"
        }
      ],
      "stateMutability": "nonpayable",
      "type": "constructor"
    },
    {
      "anonymous": false,
      "inputs": [
        {
          "indexed": false,
          "internalType": "uint256",
          "name": "projectId",
          "type": "uint256"
        },
        {
          "indexed": false,
          "internalType": "uint256",
          "name": "milestoneId",
          "type": "uint256"
        },
        {
          "indexed": false,
          "internalType": "uint256",
          "name": "updatedRating",
          "type": "uint256"
        }
      ],
      "name": "MilestoneAccepted",
      "type": "event"
    },
    {
      "anonymous": false,
      "inputs": [
        {
          "indexed": false,
          "internalType": "uint256",
          "name": "requestId",
          "type": "uint256"
        },
        {
          "indexed": false,
          "internalType": "address",
          "name": "freelancer",
          "type": "address"
        },
        {
          "indexed": false,
          "internalType": "address",
          "name": "escrowContract",
          "type": "address"
        }
      ],
      "name": "RequestAccepted",
      "type": "event"
    },
    {
      "anonymous": false,
      "inputs": [
        {
          "indexed": false,
          "internalType": "uint256",
          "name": "requestId",
          "type": "uint256"
        },
        {
          "indexed": false,
          "internalType": "address",
          "name": "freelancer",
          "type": "address"
        }
      ],
      "name": "RequestRejected",
      "type": "event"
    },
    {
      "anonymous": false,
      "inputs": [
        {
          "indexed": false,
          "internalType": "uint256",
          "name": "requestId",
          "type": "uint256"
        },
        {
          "indexed": false,
          "internalType": "uint256",
          "name": "projectId",
          "type": "uint256"
        },
        {
          "indexed": false,
          "internalType": "address",
          "name": "freelancer",
          "type": "address"
        }
      ],
      "name": "RequestSent",
      "type": "event"
    },
    {
      "inputs": [],
      "name": "projectsContract",
      "outputs": [
        {
          "internalType": "contract Projects",
          "name": "",
          "type": "address"
        }
      ],
      "stateMutability": "view",
      "type": "function",
      "constant": true
    },
    {
      "inputs": [],
      "name": "requestCount",
      "outputs": [
        {
          "internalType": "uint256",
          "name": "",
          "type": "uint256"
        }
      ],
      "stateMutability": "view",
      "type": "function",
      "constant": true
    },
    {
      "inputs": [
        {
          "internalType": "uint256",
          "name": "",
          "type": "uint256"
        }
      ],
      "name": "requests",
      "outputs": [
        {
          "internalType": "uint256",
          "name": "projectId",
          "type": "uint256"
        },
        {
          "internalType": "address",
          "name": "freelancer",
          "type": "address"
        },
        {
          "internalType": "uint256",
          "name": "freelancerRating",
          "type": "uint256"
        },
        {
          "internalType": "enum RequestManager.RequestStatus",
          "name": "status",
          "type": "uint8"
        },
        {
          "internalType": "contract Escrow",
          "name": "escrowContract",
          "type": "address"
        }
      ],
      "stateMutability": "view",
      "type": "function",
      "constant": true
    },
    {
      "inputs": [
        {
          "internalType": "uint256",
          "name": "_projectId",
          "type": "uint256"
        },
        {
          "internalType": "uint256",
          "name": "_freelancerRating",
          "type": "uint256"
        }
      ],
      "name": "sendRequest",
      "outputs": [],
      "stateMutability": "nonpayable",
      "type": "function"
    },
    {
      "inputs": [
        {
          "internalType": "uint256",
          "name": "_requestId",
          "type": "uint256"
        }
      ],
      "name": "acceptRequest",
      "outputs": [],
      "stateMutability": "payable",
      "type": "function",
      "payable": true
    },
    {
      "inputs": [
        {
          "internalType": "uint256",
          "name": "_requestId",
          "type": "uint256"
        }
      ],
      "name": "rejectRequest",
      "outputs": [],
      "stateMutability": "nonpayable",
      "type": "function"
    },
    {
      "inputs": [
        {
          "internalType": "uint256",
          "name": "_requestId",
          "type": "uint256"
        }
      ],
      "name": "getRequest",
      "outputs": [
        {
          "components": [
            {
              "internalType": "uint256",
              "name": "projectId",
              "type": "uint256"
            },
            {
              "internalType": "address",
              "name": "freelancer",
              "type": "address"
            },
            {
              "internalType": "uint256",
              "name": "freelancerRating",
              "type": "uint256"
            },
            {
              "internalType": "enum RequestManager.RequestStatus",
              "name": "status",
              "type": "uint8"
            },
            {
              "internalType": "contract Escrow",
              "name": "escrowContract",
              "type": "address"
            }
          ],
          "internalType": "struct RequestManager.Request",
          "name": "",
          "type": "tuple"
        }
      ],
      "stateMutability": "view",
      "type": "function",
      "constant": true
    },
    {
      "inputs": [],
      "name": "viewAllRequests",
      "outputs": [
        {
          "internalType": "uint256[]",
          "name": "requestIds",
          "type": "uint256[]"
        },
        {
          "internalType": "uint256[]",
          "name": "projectIds",
          "type": "uint256[]"
        },
        {
          "internalType": "address[]",
          "name": "freelancers",
          "type": "address[]"
        },
        {
          "internalType": "uint256[]",
          "name": "freelancerRatings",
          "type": "uint256[]"
        },
        {
          "internalType": "enum RequestManager.RequestStatus[]",
          "name": "statuses",
          "type": "uint8[]"
        },
        {
          "internalType": "address[]",
          "name": "escrowContracts",
          "type": "address[]"
        }
      ],
      "stateMutability": "view",
      "type": "function",
      "constant": true
    },
    {
      "inputs": [
        {
          "internalType": "uint256",
          "name": "_milestoneId",
          "type": "uint256"
        },
        {
          "internalType": "uint256",
          "name": "_actualDaysTaken",
          "type": "uint256"
        },
        {
          "internalType": "uint256",
          "name": "_delayPenalty",
          "type": "uint256"
        },
        {
          "internalType": "uint256",
          "name": "_requestId",
          "type": "uint256"
        }
      ],
      "name": "acceptMilestone",
      "outputs": [],
      "stateMutability": "payable",
      "type": "function",
      "payable": true
    },
    {
      "inputs": [],
      "name": "viewRequestsByEmployer",
      "outputs": [
        {
          "internalType": "uint256[]",
          "name": "requestIds",
          "type": "uint256[]"
        },
        {
          "internalType": "uint256[]",
          "name": "projectIds",
          "type": "uint256[]"
        },
        {
          "internalType": "address[]",
          "name": "freelancers",
          "type": "address[]"
        },
        {
          "internalType": "uint256[]",
          "name": "freelancerRatings",
          "type": "uint256[]"
        },
        {
          "internalType": "enum RequestManager.RequestStatus[]",
          "name": "statuses",
          "type": "uint8[]"
        },
        {
          "internalType": "address[]",
          "name": "escrowContracts",
          "type": "address[]"
        }
      ],
      "stateMutability": "view",
      "type": "function",
      "constant": true
    }
  ],
  "bytecode": "0x60803460705761204c80380390601f19601f83011683019183831067ffffffffffffffff84111760755780849260209460405283398101031260705751600160a060020a0381169081900360705760008054600160a060020a031916919091179055604051611fa790816100a58239f35b600080fd5b7f4e487b7100000000000000000000000000000000000000000000000000000000600052604160045260246000fdfe6080604052600436101561001257600080fd5b60007c0100000000000000000000000000000000000000000000000000000000813504806313e432481461118a5780632d7788db146110aa5780634ba1f09814610dee5780634bd335b814610dc85780635badbe4c14610daa57806381d12c5814610d3e578063a3f54257146104f2578063a7080a18146103d1578063b3db5c941461010c5763c58343ef146100a757600080fd5b346101095760203660031901126101095760a06100c560043561184c565b600160a060020a0360806040519280518452826020820151166020850152604081015160408501526100ff60608201516060860190611416565b0151166080820152f35b80fd5b50346101095760403660031901126101095760043580151580610347575b1561030057602482600160a060020a038154166040519283809260e360020a631e1e7e590282528660048301525afa9081156102f55783916102cd575b5060028110156102b65760010361026f576101836002546114de565b806002556040519061019482611506565b8282526003602083019233845260408101602435815260608201948786526080830194888652885260016020526040882092518355600160a060020a0360018401915116600160a060020a0319825416179055516002820155019151600381101561025857606092600160a060020a037fe697eb68c0228bd7d4e553246a2a86e8402d0895e45092ef8ae87b4cfd29f016959361023f9360ff80198554169116178355511690611719565b600254906040519182526020820152336040820152a180f35b60248560e060020a634e487b710281526021600452fd5b606460405160e560020a62461bcd02815260206004820152601360248201527f50726f6a656374206973206e6f74206f70656e000000000000000000000000006044820152fd5b60248360e060020a634e487b710281526021600452fd5b6102e991503d8085833e6102e1818361153b565b8101906115cd565b50935050505038610167565b6040513d85823e3d90fd5b606460405160e560020a62461bcd02815260206004820152601260248201527f496e76616c69642070726f6a65637420494400000000000000000000000000006044820152fd5b5060046020600160a060020a03845416604051928380927f36fbad260000000000000000000000000000000000000000000000000000000082525afa9081156102f557839161039a575b5081111561012a565b90506020813d6020116103c9575b816103b56020938361153b565b810103126103c4575138610391565b600080fd5b3d91506103a8565b50346101095780600319360112610109576002546103ee81611661565b6103f782611661565b9161040181611661565b61040a82611661565b61041383611661565b9161041d84611661565b9360015b818111156104405750506040519650869561043c958761143c565b0390f35b8089526001602052604089206000198201908282116104db57906104d0600160a060020a036101008d600387968f8f9961047d896104d69c611693565b5261048a88835492611693565b528460018201541661049c888d611693565b5260028101546104ac888e611693565b520154906104c660ff83166104c1888f611693565b6116bf565b5004169189611693565b526114de565b610421565b60248b60e060020a634e487b710281526011600452fd5b5060803660031901126101095760043561050d60643561184c565b9081518015159081610cb6575b5015610c6f57600160a060020a03835416918051926040519360e360020a631e1e7e5902855260048501528484602481845afa8015610c645785948691610c38575b50600160a060020a03163303610bcb578151604051907f42c549c000000000000000000000000000000000000000000000000000000000825260048201528581602481855afa948515610bc05786928796889489948a92610a18575b508715159081610a0c575b50156109c5576000198701938785116109ae57846105e091611693565b5161096757836105ef91611693565b5151156109205784518891803b15610859576044839260405194859384927ff326206b00000000000000000000000000000000000000000000000000000000845260048401528b60248401525af1801561091557610901575b50600160a060020a03875416906020850190600160a060020a0382511697604051987f3a766ddf000000000000000000000000000000000000000000000000000000008a5260048a0152602089602481875afa9889156108f6578a996108c2575b5060646106c0836106ba888a611693565b51611839565b0490816101f402916101f48304036104db576106f4916106e3876106ea93611693565b5190611839565b9160243590611839565b9081156108ab570496601488136108a2575b88888201988912911290801582169115161761088b5790879392916101f48811610881575b51600160a060020a0316813b1561087d5784916044839260405194859384927f063dca0c00000000000000000000000000000000000000000000000000000000845260048401528c60248401525af190811561087257849161085d575b505061079391611693565b51600160a060020a0360808401511690813b156108595782916044839260405194859384927f8c936e650000000000000000000000000000000000000000000000000000000084526004840152833560248401525af1801561084e57610831575b507f27d841e82fb3b2469e89e27c70f2ec8597324e08569a13460e4dd8a1a3c0b10c6060848685519160405192835260208301526040820152a180f35b8161083e9194939461153b565b61084a579083386107f4565b8380fd5b6040513d84823e3d90fd5b8280fd5b816108679161153b565b610859578238610788565b6040513d86823e3d90fd5b8480fd5b6101f4975061072b565b60248860e060020a634e487b710281526011600452fd5b60149750610706565b60248a60e060020a634e487b710281526012600452fd5b9098506020813d6020116108ee575b816108de6020938361153b565b810103126103c4575197386106a9565b3d91506108d1565b6040513d8c823e3d90fd5b8761090e9198929861153b565b9538610648565b6040513d8a823e3d90fd5b606460405160e560020a62461bcd02815260206004820152601760248201527f50726f6f662066696c65206e6f742075706c6f616465640000000000000000006044820152fd5b606460405160e560020a62461bcd02815260206004820152601b60248201527f4d696c6573746f6e6520616c726561647920636f6d706c6574656400000000006044820152fd5b60248a60e060020a634e487b710281526011600452fd5b606460405160e560020a62461bcd02815260206004820152601860248201527f4d696c6573746f6e6520646f6573206e6f7420657869737400000000000000006044820152fd5b905051871115386105c3565b98505050915091503d8087873e610a2f818761153b565b85019161010086840312610bbc57855167ffffffffffffffff8111610bb85783610a5a91880161175f565b91602087015167ffffffffffffffff8111610bb45784610a7b91890161175f565b50604087015167ffffffffffffffff8111610bb45784610a9c9189016117bb565b50606087015167ffffffffffffffff8111610bb45784610abd9189016117bb565b50608087015167ffffffffffffffff8111610bb45784610ade91890161175f565b60a088015167ffffffffffffffff8111610bb05785610afe918a0161175f565b9760c081015167ffffffffffffffff8111610bac5781019580601f88011215610bac578651610b2c81611649565b97610b3a604051998a61153b565b818952602080808b01930282010190838211610ba857602001915b818310610b8b5750505060e082015167ffffffffffffffff8111610b8757610b7d92016117bb565b90979493386105b8565b8b80fd5b82518015158103610ba457815260209283019201610b55565b8e80fd5b8d80fd5b8a80fd5b8980fd5b8880fd5b8780fd5b8680fd5b6040513d88823e3d90fd5b608460405160e560020a62461bcd02815260206004820152602760248201527f4f6e6c792074686520656d706c6f7965722063616e20616363657074206d696c60448201527f6573746f6e6573000000000000000000000000000000000000000000000000006064820152fd5b600160a060020a039550610c5691503d8088833e6102e1818361153b565b98945050915050949061055c565b6040513d87823e3d90fd5b606460405160e560020a62461bcd02815260206004820152601660248201527f50726f6a65637420646f6573206e6f74206578697374000000000000000000006044820152fd5b600491506020600160a060020a03865416604051938480927f36fbad260000000000000000000000000000000000000000000000000000000082525afa918215610c64578592610d0a575b5011153861051a565b9091506020813d602011610d36575b81610d266020938361153b565b8101031261087d57519038610d01565b3d9150610d19565b503461010957602036600319011261010957604060a0916004358152600160205220600160a060020a036101008254928260018201541690600360028201549101549160405195865260208601526040850152610da16060850160ff8316611416565b04166080820152f35b50346101095780600319360112610109576020600254604051908152f35b5034610109578060031936011261010957600160a060020a036020915416604051908152f35b50602036600319011261010957600435808252600160205260408220906001820190600160a060020a03825416610e268115156116cb565b600384019360ff85541660038110156110935761104c5785600160a060020a03815416915460246040518094819360e360020a631e1e7e5902835260048301525afa918215610bc05786928792889161101b575b50600160a060020a031691823303610fae576002811015610f9757600103610f50576040519161067c918284019284841067ffffffffffffffff851117610f3957916040939185936118f6853982526020820152030191f092831561087257600160a060020a0361010081606095610f137fac8064fea85b95641f19e230ba9da498102d474473fe4b103466cb224daf5e019886611719565b600160ff198654161785555416925404169060405192835260208301526040820152a180f35b60248a60e060020a634e487b710281526041600452fd5b606460405160e560020a62461bcd02815260206004820152601460248201527f50726f6a656374206d757374206265206f70656e0000000000000000000000006044820152fd5b60248860e060020a634e487b710281526021600452fd5b608460405160e560020a62461bcd02815260206004820152602860248201527f4f6e6c792074686520656d706c6f7965722063616e206163636570742074686560448201527f20726571756573740000000000000000000000000000000000000000000000006064820152fd5b9050600160a060020a03935061103c9192503d8089833e6102e1818361153b565b9594509592509050939290610e7a565b606460405160e560020a62461bcd02815260206004820152601660248201527f52657175657374206973206e6f742070656e64696e67000000000000000000006044820152fd5b60248760e060020a634e487b710281526021600452fd5b503461010957602036600319011261010957600435808252600160205260408220600360018201916110e7600160a060020a0384541615156116cb565b019160ff83541660038110156102585761114357600160a060020a036040927f490ad67e4c8b3b9c1d11dfcd7f02e155190b8f6feff3a9d9e9df3721f0f74e5794600260ff19825416179055541682519182526020820152a180f35b606460405160e560020a62461bcd02815260206004820152601960248201527f5265717565737420616c72656164792070726f636573736564000000000000006044820152fd5b50346101095780600319360112610109576002548154600160a060020a0316918060015b8381111561131857506111c082611661565b916111ca81611661565b936111d482611661565b6111dd83611661565b916111f06111ea85611661565b94611661565b948060015b8381111561121257898961043c8a8a8a8a6040519687968761143c565b80835260016020528a83604081205460246040518094819360e360020a631e1e7e5902835260048301525afa908115610872578a918c9186916112f8575b50600160a060020a03163314611271575b505061126c906114de565b6111f5565b92600160a060020a0361010060036112ee94869761126c978a5260016020528861129f8760408d2094611693565b526112ac86835492611693565b52836001820154166112be868d611693565b5260028101546112ce868e611693565b5201546112e260ff82166104c1868f611693565b04166104d0828c611693565b919050888a611261565b61130c91503d8088833e6102e1818361153b565b94505050505038611250565b808252600160205260408220546040519060e360020a631e1e7e5902825260048201528281602481895afa9081156102f5578391611385575b50600160a060020a03163314611370575b61136b906114de565b6111ae565b9161137d61136b916114de565b929050611362565b61139991503d8085833e6102e1818361153b565b94505050505038611351565b906020808351928381520192019060005b8181106113c35750505090565b82518452602093840193909201916001016113b6565b906020808351928381520192019060005b8181106113f75750505090565b8251600160a060020a03168452602093840193909201916001016113ea565b9060038210156114235752565b60e060020a634e487b7102600052602160045260246000fd5b969593919261146b6114879461145d6114799460c08c5260c08c01906113a5565b908a820360208c01526113a5565b9088820360408a01526113d9565b9086820360608801526113a5565b9380850360808201526020808451968781520193016000955b8087106114bf5750506114bc93945060a08184039101526113d9565b90565b9093602080826114d26001948951611416565b019501960195906114a0565b60001981146114ed5760010190565b60e060020a634e487b7102600052601160045260246000fd5b60a0810190811067ffffffffffffffff82111761152257604052565b60e060020a634e487b7102600052604160045260246000fd5b90601f8019910116810190811067ffffffffffffffff82111761152257604052565b81601f820112156103c45780519067ffffffffffffffff82116115225760405192611592601f8401601f19166020018561153b565b828452602083830101116103c45760005b8281106115b857505060206000918301015290565b806020809284010151828287010152016115a3565b60c0818303126103c457805192602082015167ffffffffffffffff81116103c457836115fa91840161155d565b9260408301519067ffffffffffffffff82116103c45761161b91840161155d565b91606081015191608082015160028110156103c45760a090920151600160a060020a03811681036103c45790565b67ffffffffffffffff81116115225760208091020190565b9061166b82611649565b611678604051918261153b565b8281528092611689601f1991611649565b0190602036910137565b80518210156116a6576020809202010190565b60e060020a634e487b7102600052603260045260246000fd5b60038210156114235752565b156116d257565b606460405160e560020a62461bcd02815260206004820152601d60248201527f4e6f20726571756573742065786973747320666f7220746869732049440000006044820152fd5b9074ffffffffffffffffffffffffffffffffffffffff00610100600160a060020a038454931602169074ffffffffffffffffffffffffffffffffffffffff001916179055565b9080601f830112156103c457815161177681611649565b92611784604051948561153b565b81845260208080860193028201019283116103c457602001905b8282106117ab5750505090565b815181526020918201910161179e565b9080601f830112156103c45781516117d281611649565b926117e0604051948561153b565b8184526020808086019302820101918383116103c45760208201905b83821061180b57505050505090565b815167ffffffffffffffff81116103c45760209161182e8784809488010161155d565b8152019101906117fc565b818102929181159184041417156114ed57565b6000608060405161185c81611506565b8281528260208201528260408201528260608201520152806000526001602052611898600160a060020a036001604060002001541615156116cb565b60005260016020526040600020600160a060020a036101006003604051936118bf85611506565b805485528360018201541660208601526002810154604086015201546118eb60ff8216606086016116bf565b041660808201529056fe608061067c80380390601f19601f83011683019183831067ffffffffffffffff841117608b5780849260409485528339810103126086576047602060418360ba565b920160ba565b60008054600160a060020a03938416600160a060020a03199182161790915560018054929093169116179055346002556040516105ae90816100ce8239f35b600080fd5b7f4e487b7100000000000000000000000000000000000000000000000000000000600052604160045260246000fd5b5190600160a060020a038216820360865756fe6080604052600436101561001257600080fd5b7c010000000000000000000000000000000000000000000000000000000060003504806345ad1a2e14610392578063590e1ae31461029b57806369d89575146102375780638c936e65146100f6578063a37dda2c146100cf578063aa8c217c146100b15763ae200e791461008557600080fd5b346100ac5760003660031901126100ac576020600160a060020a0360015416604051908152f35b600080fd5b346100ac5760003660031901126100ac576020600254604051908152f35b346100ac5760003660031901126100ac576020600160a060020a0360005416604051908152f35b346100ac5760403660031901126100ac5760025480156101f057610137606461012160043584610565565b04606461013060243583610565565b0490610529565b90811161018357600080808084600160a060020a0382541682821561017a575bf11561016e5761016990600254610529565b600255005b6040513d6000823e3d90fd5b506108fc610157565b608460405160e560020a62461bcd02815260206004820152602660248201527f52656475636564207061796d656e74206578636565647320657363726f77206260448201527f616c616e636500000000000000000000000000000000000000000000000000006064820152fd5b606460405160e560020a62461bcd02815260206004820152601c60248201527f496e73756666696369656e742066756e647320696e20657363726f77000000006044820152fd5b346100ac5760003660031901126100ac5761025e600160a060020a03600154163314610467565b6000808080600254801561027281156104db565b600160a060020a03835416908390610292575bf11561016e576000600255005b506108fc610285565b346100ac5760003660031901126100ac57600160a060020a0360005416803303610325576002549081156102de576000808093819382f11561016e576000600255005b606460405160e560020a62461bcd02815260206004820152601260248201527f4e6f2066756e647320746f20726566756e6400000000000000000000000000006044820152fd5b608460405160e560020a62461bcd02815260206004820152602860248201527f4f6e6c792074686520667265656c616e6365722063616e20726571756573742060448201527f6120726566756e640000000000000000000000000000000000000000000000006064820152fd5b346100ac5760203660031901126100ac576004356103bc600160a060020a03600154163314610467565b6002546103ca8115156104db565b81116103fa57600080808084600160a060020a0382541682821561017a57f11561016e5761016990600254610529565b608460405160e560020a62461bcd02815260206004820152602560248201527f5265647563656420616d6f756e74206578636565647320657363726f7720626160448201527f6c616e63650000000000000000000000000000000000000000000000000000006064820152fd5b1561046e57565b608460405160e560020a62461bcd02815260206004820152602360248201527f4f6e6c792074686520656d706c6f7965722063616e2072656c6561736520667560448201527f6e647300000000000000000000000000000000000000000000000000000000006064820152fd5b156104e257565b606460405160e560020a62461bcd02815260206004820152601360248201527f4e6f2066756e647320746f2072656c65617365000000000000000000000000006044820152fd5b9190820391821161053657565b7f4e487b7100000000000000000000000000000000000000000000000000000000600052601160045260246000fd5b818102929181159184041417156105365756fea2646970667358221220bc6e5cb25a5b2fdab6283120b33fa3a560783a00a22363a389eca20b18519c2a64736f6c634300081c0033a26469706673582212207ac4efd9ab78a6fd63d4dd42b2e633ba14ca570e127440563d4ccb8b5a9cf9bb64736f6c634300081c0033",
  "immutableReferences": {},
  "source": "// SPDX-License-Identifier: MIT\r\npragma solidity ^0.8.0;\r\n\r\nimport \"./Projects.sol\";\r\n\r\ncontract Escrow {\r\n    address public freelancer;\r\n    address public employer;\r\n    uint public amount;\r\n\r\n    constructor(address _freelancer, address _employer) payable {\r\n        freelancer = _freelancer;\r\n        employer = _employer;\r\n        amount = msg.value; // Set the amount to the value sent during the contract creation\r\n    }\r\n\r\n    function releaseFunds() external {\r\n        require(msg.sender == employer, \"Only the employer can release funds\");\r\n        require(amount > 0, \"No funds to release\");\r\n        payable(freelancer).transfer(amount);\r\n        amount = 0; // Set amount to 0 after release\r\n    }\r\n\r\n    function refund() external {\r\n        require(msg.sender == freelancer, \"Only the freelancer can request a refund\");\r\n        require(amount > 0, \"No funds to refund\");\r\n        payable(freelancer).transfer(amount);\r\n        amount = 0; // Set amount to 0 after refund\r\n    }\r\n\r\n    function releaseReducedFunds(uint _reducedAmount) external {\r\n        require(msg.sender == employer, \"Only the employer can release funds\");\r\n        require(amount > 0, \"No funds to release\");\r\n        require(_reducedAmount <= amount, \"Reduced amount exceeds escrow balance\");\r\n\r\n        payable(freelancer).transfer(_reducedAmount);\r\n        amount -= _reducedAmount; // Deduct the paid amount from the total escrow balance\r\n    }\r\n\r\n    function releaseMilestonePayment(uint milestonePercentage, uint delayPenalty) external {\r\n        // require(msg.sender == employer, \"Only the employer can release milestone payments\");\r\n        require(amount > 0, \"Insufficient funds in escrow\");\r\n\r\n        uint milestonePayment = (amount * milestonePercentage) / 100;\r\n        uint reducedPayment = milestonePayment - ((milestonePayment * delayPenalty) / 100);\r\n\r\n        require(reducedPayment <= amount, \"Reduced payment exceeds escrow balance\");\r\n\r\n        payable(freelancer).transfer(reducedPayment);\r\n        amount -= reducedPayment;\r\n    }\r\n}\r\n\r\ncontract RequestManager {\r\n    Projects public projectsContract;\r\n\r\n    enum RequestStatus { Pending, Accepted, Rejected }\r\n\r\n    struct Request {\r\n        uint projectId;\r\n        address freelancer;\r\n        uint freelancerRating;\r\n        RequestStatus status;\r\n        Escrow escrowContract;\r\n    }\r\n\r\n    // Store all requests in a single mapping\r\n    mapping(uint => Request) public requests;\r\n    uint public requestCount; // To keep track of the total number of requests\r\n\r\n    event RequestSent(uint requestId, uint projectId, address freelancer);\r\n    event RequestAccepted(uint requestId, address freelancer, address escrowContract);\r\n    event RequestRejected(uint requestId, address freelancer);\r\n    event MilestoneAccepted(uint projectId, uint milestoneId, uint updatedRating);\r\n\r\n    constructor(address _projectsContract) {\r\n        projectsContract = Projects(_projectsContract);\r\n    }\r\n\r\n    function sendRequest(uint _projectId, uint _freelancerRating) public {\r\n        require(_projectId > 0 && _projectId <= projectsContract.projectCount(), \"Invalid project ID\");\r\n        (,, , , Projects.Status status, ) = projectsContract.getProject(_projectId);\r\n        require(status == Projects.Status.Open, \"Project is not open\");\r\n\r\n        // Create a new request\r\n        requestCount++; // Increment request count to create a unique ID\r\n        requests[requestCount] = Request({\r\n            projectId: _projectId,\r\n            freelancer: msg.sender,\r\n            freelancerRating: _freelancerRating,\r\n            status: RequestStatus.Pending,\r\n            escrowContract: Escrow(address(0))\r\n        });\r\n\r\n        emit RequestSent(requestCount, _projectId, msg.sender);\r\n    }\r\n\r\n    function acceptRequest(uint _requestId) public payable {\r\n        Request storage request = requests[_requestId];\r\n        require(request.freelancer != address(0), \"No request exists for this ID\");\r\n        require(request.status == RequestStatus.Pending, \"Request is not pending\");\r\n\r\n        // Fetch project details\r\n        (,, , uint projectReward, Projects.Status status, address employer) = projectsContract.getProject(request.projectId);\r\n        require(msg.sender == employer, \"Only the employer can accept the request\");\r\n        require(status == Projects.Status.Open, \"Project must be open\");\r\n\r\n        // Create new escrow contract instance with freelancer and employer details\r\n        request.escrowContract = new Escrow{value: projectReward}(request.freelancer, employer);\r\n\r\n        request.status = RequestStatus.Accepted;\r\n        emit RequestAccepted(_requestId, request.freelancer, address(request.escrowContract));\r\n    }\r\n\r\n    function rejectRequest(uint _requestId) public {\r\n        Request storage request = requests[_requestId];\r\n        require(request.freelancer != address(0), \"No request exists for this ID\");\r\n        require(request.status == RequestStatus.Pending, \"Request already processed\");\r\n\r\n        request.status = RequestStatus.Rejected;\r\n        emit RequestRejected(_requestId, request.freelancer);\r\n    }\r\n\r\n    function getRequest(uint _requestId) public view returns (Request memory) {\r\n        require(requests[_requestId].freelancer != address(0), \"No request exists for this ID\");\r\n        return requests[_requestId];\r\n    }\r\n\r\n    // New function to view all requests\r\n    function viewAllRequests() public view returns (\r\n        uint[] memory requestIds,\r\n        uint[] memory projectIds,\r\n        address[] memory freelancers,\r\n        uint[] memory freelancerRatings,\r\n        RequestStatus[] memory statuses,\r\n        address[] memory escrowContracts\r\n    ) {\r\n        uint count = requestCount;\r\n\r\n        // Initialize arrays based on the total request count\r\n        requestIds = new uint[](count);\r\n        projectIds = new uint[](count);\r\n        freelancers = new address[](count);\r\n        freelancerRatings = new uint[](count);\r\n        statuses = new RequestStatus[](count);\r\n        escrowContracts = new address[](count);\r\n\r\n        // Populate the arrays with request details\r\n        for (uint i = 1; i <= requestCount; i++) {\r\n            Request storage request = requests[i];\r\n            requestIds[i - 1] = i;\r\n            projectIds[i - 1] = request.projectId;\r\n            freelancers[i - 1] = request.freelancer;\r\n            freelancerRatings[i - 1] = request.freelancerRating;\r\n            statuses[i - 1] = request.status;\r\n            escrowContracts[i - 1] = address(request.escrowContract);\r\n        }\r\n\r\n        return (requestIds, projectIds, freelancers, freelancerRatings, statuses, escrowContracts);\r\n    }\r\n\r\n\r\nfunction acceptMilestone(uint _milestoneId, uint _actualDaysTaken, uint _delayPenalty, uint _requestId) public payable {\r\n        Request memory request = getRequest(_requestId); // Retrieve the request using requestId\r\n\r\n        // Ensure projectId is valid\r\n        require(request.projectId > 0 && request.projectId <= projectsContract.projectCount(), \"Project does not exist\");\r\n\r\n        // Retrieve the project details using the getProject function\r\n        (, , , uint reward, , address employer) = projectsContract.getProject(request.projectId);\r\n        require(msg.sender == employer, \"Only the employer can accept milestones\");\r\n\r\n        // Ensure milestoneId is valid\r\n        (\r\n            uint[] memory ids,\r\n            uint[] memory projectIds,\r\n            string[] memory names,\r\n            string[] memory descriptions,\r\n            uint[] memory daycounts,\r\n            uint[] memory percentages,\r\n            bool[] memory completions,\r\n            string[] memory proofFileHashes\r\n        ) = projectsContract.getMilestones(request.projectId);\r\n\r\n        // Check if the milestone exists and is within bounds\r\n        require(_milestoneId > 0 && _milestoneId <= ids.length, \"Milestone does not exist\");\r\n        \r\n        // Fetch milestone data by using _milestoneId as an index\r\n        uint milestoneIndex = _milestoneId - 1;\r\n        require(!completions[milestoneIndex], \"Milestone already completed\");\r\n        require(bytes(proofFileHashes[milestoneIndex]).length > 0, \"Proof file not uploaded\");\r\n\r\n        // Mark the milestone as completed\r\n        projectsContract.completeMilestone(request.projectId, _milestoneId);\r\n\r\n        // Calculate and update freelancer rating based on the provided formula\r\n        uint currentRating = projectsContract.getFreelancerRating(request.freelancer);\r\n        uint rewardWeight = (percentages[milestoneIndex] * reward) / 100;\r\n        int ratingChange = int((5 * 100 * rewardWeight * daycounts[milestoneIndex]) / (reward * _actualDaysTaken));\r\n\r\n        // Cap the increment at +0.2 if positive\r\n        if (ratingChange > 20) {\r\n            ratingChange = 20;\r\n        }\r\n\r\n        uint newRating = uint(int(currentRating) + ratingChange);\r\n\r\n        // Ensure new rating doesn't exceed 5.0 (500 basis points)\r\n        if (newRating > 500) {\r\n            newRating = 500;\r\n        }\r\n\r\n        // Update the freelancer's rating\r\n        projectsContract.setFreelancerRating(request.freelancer, newRating);\r\n\r\n        // Release milestone payment from the escrow with the specified penalty\r\n        uint milestonePercentage = percentages[milestoneIndex];\r\n        request.escrowContract.releaseMilestonePayment(milestonePercentage, _delayPenalty);\r\n\r\n        emit MilestoneAccepted(request.projectId, _milestoneId, newRating);\r\n    }\r\n\r\n\r\n    function viewRequestsByEmployer() public view returns (\r\n            uint[] memory requestIds,\r\n            uint[] memory projectIds,\r\n            address[] memory freelancers,\r\n            uint[] memory freelancerRatings,\r\n            RequestStatus[] memory statuses,\r\n            address[] memory escrowContracts\r\n        ) {\r\n            uint count = 0;\r\n\r\n            // Count requests that belong to projects owned by the employer\r\n            for (uint i = 1; i <= requestCount; i++) {\r\n                uint projectId = requests[i].projectId;\r\n                (, , , , , address employer) = projectsContract.getProject(projectId);\r\n                if (employer == msg.sender) {\r\n                    count++;\r\n                }\r\n            }\r\n\r\n            // Initialize arrays based on the count of matching requests\r\n            requestIds = new uint[](count);\r\n            projectIds = new uint[](count);\r\n            freelancers = new address[](count);\r\n            freelancerRatings = new uint[](count);\r\n            statuses = new RequestStatus[](count);\r\n            escrowContracts = new address[](count);\r\n\r\n            uint index = 0;\r\n\r\n            // Populate the arrays with matching request details\r\n            for (uint i = 1; i <= requestCount; i++) {\r\n                uint projectId = requests[i].projectId;\r\n                (, , , , , address employer) = projectsContract.getProject(projectId);\r\n                if (employer == msg.sender) {\r\n                    Request storage request = requests[i];\r\n                    requestIds[index] = i;\r\n                    projectIds[index] = request.projectId;\r\n                    freelancers[index] = request.freelancer;\r\n                    freelancerRatings[index] = request.freelancerRating;\r\n                    statuses[index] = request.status;\r\n                    escrowContracts[index] = address(request.escrowContract);\r\n                    index++;\r\n                }\r\n            }\r\n\r\n            return (requestIds, projectIds, freelancers, freelancerRatings, statuses, escrowContracts);\r\n    }\r\n\r\n\r\n}\r\n",
  "sourcePath": "C:\\Users\\Shashwat Chaturvedi\\OneDrive - iiit-b\\college\\projects\\delance\\new_truffle_project\\contracts\\RequestManager.sol",
  "compiler": {
    "name": "solc",
    "version": "0.8.28+commit.7893614a.Emscripten.clang"
  },
  "schemaVersion": "3.4.16",
  "updatedAt": "2024-11-01T19:13:06.576Z",
  "networkType": "ethereum",
  "devdoc": {
    "kind": "dev",
    "methods": {},
    "version": 1
  },
  "userdoc": {
    "kind": "user",
    "methods": {},
    "version": 1
  }
}