{
  "contractName": "Escrow",
  "abi": [
    {
      "inputs": [
        {
          "internalType": "address",
          "name": "_freelancer",
          "type": "address"
        },
        {
          "internalType": "address",
          "name": "_employer",
          "type": "address"
        }
      ],
      "stateMutability": "payable",
      "type": "constructor"
    },
    {
      "inputs": [],
      "name": "amount",
      "outputs": [
        {
          "internalType": "uint256",
          "name": "",
          "type": "uint256"
        }
      ],
      "stateMutability": "view",
      "type": "function"
    },
    {
      "inputs": [],
      "name": "employer",
      "outputs": [
        {
          "internalType": "address",
          "name": "",
          "type": "address"
        }
      ],
      "stateMutability": "view",
      "type": "function"
    },
    {
      "inputs": [],
      "name": "freelancer",
      "outputs": [
        {
          "internalType": "address",
          "name": "",
          "type": "address"
        }
      ],
      "stateMutability": "view",
      "type": "function"
    },
    {
      "inputs": [],
      "name": "releaseFunds",
      "outputs": [],
      "stateMutability": "nonpayable",
      "type": "function"
    },
    {
      "inputs": [],
      "name": "refund",
      "outputs": [],
      "stateMutability": "nonpayable",
      "type": "function"
    },
    {
      "inputs": [
        {
          "internalType": "uint256",
          "name": "_reducedAmount",
          "type": "uint256"
        }
      ],
      "name": "releaseReducedFunds",
      "outputs": [],
      "stateMutability": "nonpayable",
      "type": "function"
    },
    {
      "inputs": [
        {
          "internalType": "uint256",
          "name": "milestonePercentage",
          "type": "uint256"
        },
        {
          "internalType": "uint256",
          "name": "delayPenalty",
          "type": "uint256"
        }
      ],
      "name": "releaseMilestonePayment",
      "outputs": [],
      "stateMutability": "nonpayable",
      "type": "function"
    }
  ],
  "bytecode": "0x6080604052604051610e81380380610e8183398181016040528101906100259190610117565b816000806101000a81548173ffffffffffffffffffffffffffffffffffffffff021916908373ffffffffffffffffffffffffffffffffffffffff16021790555080600160006101000a81548173ffffffffffffffffffffffffffffffffffffffff021916908373ffffffffffffffffffffffffffffffffffffffff160217905550346002819055505050610157565b600080fd5b600073ffffffffffffffffffffffffffffffffffffffff82169050919050565b60006100e4826100b9565b9050919050565b6100f4816100d9565b81146100ff57600080fd5b50565b600081519050610111816100eb565b92915050565b6000806040838503121561012e5761012d6100b4565b5b600061013c85828601610102565b925050602061014d85828601610102565b9150509250929050565b610d1b806101666000396000f3fe608060405234801561001057600080fd5b506004361061009a576000357c0100000000000000000000000000000000000000000000000000000000900480638c936e65116100785780638c936e65146100cf578063a37dda2c146100eb578063aa8c217c14610109578063ae200e79146101275761009a565b806345ad1a2e1461009f578063590e1ae3146100bb57806369d89575146100c5575b600080fd5b6100b960048036038101906100b49190610750565b610145565b005b6100c36102e2565b005b6100cd610428565b005b6100e960048036038101906100e4919061077d565b610570565b005b6100f36106c5565b60405161010091906107fe565b60405180910390f35b6101116106e9565b60405161011e9190610828565b60405180910390f35b61012f6106ef565b60405161013c91906107fe565b60405180910390f35b600160009054906101000a900473ffffffffffffffffffffffffffffffffffffffff1673ffffffffffffffffffffffffffffffffffffffff163373ffffffffffffffffffffffffffffffffffffffff16146101d5576040517f08c379a00000000000000000000000000000000000000000000000000000000081526004016101cc906108c6565b60405180910390fd5b60006002541161021a576040517f08c379a000000000000000000000000000000000000000000000000000000000815260040161021190610932565b60405180910390fd5b60025481111561025f576040517f08c379a0000000000000000000000000000000000000000000000000000000008152600401610256906109c4565b60405180910390fd5b60008054906101000a900473ffffffffffffffffffffffffffffffffffffffff1673ffffffffffffffffffffffffffffffffffffffff166108fc829081150290604051600060405180830381858888f193505050501580156102c5573d6000803e3d6000fd5b5080600260008282546102d89190610a13565b9250508190555050565b60008054906101000a900473ffffffffffffffffffffffffffffffffffffffff1673ffffffffffffffffffffffffffffffffffffffff163373ffffffffffffffffffffffffffffffffffffffff1614610370576040517f08c379a000000000000000000000000000000000000000000000000000000000815260040161036790610ab9565b60405180910390fd5b6000600254116103b5576040517f08c379a00000000000000000000000000000000000000000000000000000000081526004016103ac90610b25565b60405180910390fd5b60008054906101000a900473ffffffffffffffffffffffffffffffffffffffff1673ffffffffffffffffffffffffffffffffffffffff166108fc6002549081150290604051600060405180830381858888f1935050505015801561041d573d6000803e3d6000fd5b506000600281905550565b600160009054906101000a900473ffffffffffffffffffffffffffffffffffffffff1673ffffffffffffffffffffffffffffffffffffffff163373ffffffffffffffffffffffffffffffffffffffff16146104b8576040517f08c379a00000000000000000000000000000000000000000000000000000000081526004016104af906108c6565b60405180910390fd5b6000600254116104fd576040517f08c379a00000000000000000000000000000000000000000000000000000000081526004016104f490610932565b60405180910390fd5b60008054906101000a900473ffffffffffffffffffffffffffffffffffffffff1673ffffffffffffffffffffffffffffffffffffffff166108fc6002549081150290604051600060405180830381858888f19350505050158015610565573d6000803e3d6000fd5b506000600281905550565b6000600254116105b5576040517f08c379a00000000000000000000000000000000000000000000000000000000081526004016105ac90610b91565b60405180910390fd5b60006064836002546105c79190610bb1565b6105d19190610c22565b90506000606483836105e39190610bb1565b6105ed9190610c22565b826105f89190610a13565b905060025481111561063f576040517f08c379a000000000000000000000000000000000000000000000000000000000815260040161063690610cc5565b60405180910390fd5b60008054906101000a900473ffffffffffffffffffffffffffffffffffffffff1673ffffffffffffffffffffffffffffffffffffffff166108fc829081150290604051600060405180830381858888f193505050501580156106a5573d6000803e3d6000fd5b5080600260008282546106b89190610a13565b9250508190555050505050565b60008054906101000a900473ffffffffffffffffffffffffffffffffffffffff1681565b60025481565b600160009054906101000a900473ffffffffffffffffffffffffffffffffffffffff1681565b600080fd5b6000819050919050565b61072d8161071a565b811461073857600080fd5b50565b60008135905061074a81610724565b92915050565b60006020828403121561076657610765610715565b5b60006107748482850161073b565b91505092915050565b6000806040838503121561079457610793610715565b5b60006107a28582860161073b565b92505060206107b38582860161073b565b9150509250929050565b600073ffffffffffffffffffffffffffffffffffffffff82169050919050565b60006107e8826107bd565b9050919050565b6107f8816107dd565b82525050565b600060208201905061081360008301846107ef565b92915050565b6108228161071a565b82525050565b600060208201905061083d6000830184610819565b92915050565b600082825260208201905092915050565b7f4f6e6c792074686520656d706c6f7965722063616e2072656c6561736520667560008201527f6e64730000000000000000000000000000000000000000000000000000000000602082015250565b60006108b0602383610843565b91506108bb82610854565b604082019050919050565b600060208201905081810360008301526108df816108a3565b9050919050565b7f4e6f2066756e647320746f2072656c6561736500000000000000000000000000600082015250565b600061091c601383610843565b9150610927826108e6565b602082019050919050565b6000602082019050818103600083015261094b8161090f565b9050919050565b7f5265647563656420616d6f756e74206578636565647320657363726f7720626160008201527f6c616e6365000000000000000000000000000000000000000000000000000000602082015250565b60006109ae602583610843565b91506109b982610952565b604082019050919050565b600060208201905081810360008301526109dd816109a1565b9050919050565b7f4e487b7100000000000000000000000000000000000000000000000000000000600052601160045260246000fd5b6000610a1e8261071a565b9150610a298361071a565b9250828203905081811115610a4157610a406109e4565b5b92915050565b7f4f6e6c792074686520667265656c616e6365722063616e20726571756573742060008201527f6120726566756e64000000000000000000000000000000000000000000000000602082015250565b6000610aa3602883610843565b9150610aae82610a47565b604082019050919050565b60006020820190508181036000830152610ad281610a96565b9050919050565b7f4e6f2066756e647320746f20726566756e640000000000000000000000000000600082015250565b6000610b0f601283610843565b9150610b1a82610ad9565b602082019050919050565b60006020820190508181036000830152610b3e81610b02565b9050919050565b7f496e73756666696369656e742066756e647320696e20657363726f7700000000600082015250565b6000610b7b601c83610843565b9150610b8682610b45565b602082019050919050565b60006020820190508181036000830152610baa81610b6e565b9050919050565b6000610bbc8261071a565b9150610bc78361071a565b9250828202610bd58161071a565b91508282048414831517610bec57610beb6109e4565b5b5092915050565b7f4e487b7100000000000000000000000000000000000000000000000000000000600052601260045260246000fd5b6000610c2d8261071a565b9150610c388361071a565b925082610c4857610c47610bf3565b5b828204905092915050565b7f52656475636564207061796d656e74206578636565647320657363726f77206260008201527f616c616e63650000000000000000000000000000000000000000000000000000602082015250565b6000610caf602683610843565b9150610cba82610c53565b604082019050919050565b60006020820190508181036000830152610cde81610ca2565b905091905056fea2646970667358221220e826a3380458b34a3ba67a3f55d4462ec12aa2ceed6d95d2df5195fd6b25209064736f6c634300081c0033",
  "immutableReferences": {},
  "source": "// SPDX-License-Identifier: MIT\r\npragma solidity ^0.8.0;\r\n\r\nimport \"./Projects.sol\";\r\n\r\ncontract Escrow {\r\n    address public freelancer;\r\n    address public employer;\r\n    uint public amount;\r\n\r\n    constructor(address _freelancer, address _employer) payable {\r\n        freelancer = _freelancer;\r\n        employer = _employer;\r\n        amount = msg.value; // Set the amount to the value sent during the contract creation\r\n    }\r\n\r\n    function releaseFunds() external {\r\n        require(msg.sender == employer, \"Only the employer can release funds\");\r\n        require(amount > 0, \"No funds to release\");\r\n        payable(freelancer).transfer(amount);\r\n        amount = 0; // Set amount to 0 after release\r\n    }\r\n\r\n    function refund() external {\r\n        require(msg.sender == freelancer, \"Only the freelancer can request a refund\");\r\n        require(amount > 0, \"No funds to refund\");\r\n        payable(freelancer).transfer(amount);\r\n        amount = 0; // Set amount to 0 after refund\r\n    }\r\n\r\n    function releaseReducedFunds(uint _reducedAmount) external {\r\n        require(msg.sender == employer, \"Only the employer can release funds\");\r\n        require(amount > 0, \"No funds to release\");\r\n        require(_reducedAmount <= amount, \"Reduced amount exceeds escrow balance\");\r\n\r\n        payable(freelancer).transfer(_reducedAmount);\r\n        amount -= _reducedAmount; // Deduct the paid amount from the total escrow balance\r\n    }\r\n\r\n    function releaseMilestonePayment(uint milestonePercentage, uint delayPenalty) external {\r\n        // require(msg.sender == employer, \"Only the employer can release milestone payments\");\r\n        require(amount > 0, \"Insufficient funds in escrow\");\r\n\r\n        uint milestonePayment = (amount * milestonePercentage) / 100;\r\n        uint reducedPayment = milestonePayment - ((milestonePayment * delayPenalty) / 100);\r\n\r\n        require(reducedPayment <= amount, \"Reduced payment exceeds escrow balance\");\r\n\r\n        payable(freelancer).transfer(reducedPayment);\r\n        amount -= reducedPayment;\r\n    }\r\n}\r\n\r\ncontract RequestManager {\r\n    Projects public projectsContract;\r\n\r\n    enum RequestStatus { Pending, Accepted, Rejected }\r\n\r\n    struct Request {\r\n        uint projectId;\r\n        address freelancer;\r\n        uint freelancerRating;\r\n        RequestStatus status;\r\n        Escrow escrowContract;\r\n    }\r\n\r\n    // Store all requests in a single mapping\r\n    mapping(uint => Request) public requests;\r\n    uint public requestCount; // To keep track of the total number of requests\r\n\r\n    event RequestSent(uint requestId, uint projectId, address freelancer);\r\n    event RequestAccepted(uint requestId, address freelancer, address escrowContract);\r\n    event RequestRejected(uint requestId, address freelancer);\r\n    event MilestoneAccepted(uint projectId, uint milestoneId, uint updatedRating);\r\n\r\n    constructor(address _projectsContract) {\r\n        projectsContract = Projects(_projectsContract);\r\n    }\r\n\r\n    function sendRequest(uint _projectId, uint _freelancerRating) public {\r\n        require(_projectId > 0 && _projectId <= projectsContract.projectCount(), \"Invalid project ID\");\r\n        (,, , , Projects.Status status, ) = projectsContract.getProject(_projectId);\r\n        require(status == Projects.Status.Open, \"Project is not open\");\r\n\r\n        // Create a new request\r\n        requestCount++; // Increment request count to create a unique ID\r\n        requests[requestCount] = Request({\r\n            projectId: _projectId,\r\n            freelancer: msg.sender,\r\n            freelancerRating: _freelancerRating,\r\n            status: RequestStatus.Pending,\r\n            escrowContract: Escrow(address(0))\r\n        });\r\n\r\n        emit RequestSent(requestCount, _projectId, msg.sender);\r\n    }\r\n}\r\n",
  "sourcePath": "C:\\Users\\Shashwat Chaturvedi\\OneDrive - iiit-b\\college\\projects\\delance\\truffle_project\\contracts\\RequestManager.sol",
  "compiler": {
    "name": "solc",
    "version": "0.8.28+commit.7893614a.Emscripten.clang"
  },
  "schemaVersion": "3.4.16",
  "updatedAt": "2024-11-01T04:45:31.289Z",
  "devdoc": {
    "kind": "dev",
    "methods": {},
    "version": 1
  },
  "userdoc": {
    "kind": "user",
    "methods": {},
    "version": 1
  }
}