{
  "contractName": "Escrow",
  "abi": [
    {
      "inputs": [
        {
          "internalType": "address",
          "name": "_freelancer",
          "type": "address"
        },
        {
          "internalType": "address",
          "name": "_employer",
          "type": "address"
        }
      ],
      "stateMutability": "payable",
      "type": "constructor"
    },
    {
      "inputs": [],
      "name": "amount",
      "outputs": [
        {
          "internalType": "uint256",
          "name": "",
          "type": "uint256"
        }
      ],
      "stateMutability": "view",
      "type": "function"
    },
    {
      "inputs": [],
      "name": "employer",
      "outputs": [
        {
          "internalType": "address",
          "name": "",
          "type": "address"
        }
      ],
      "stateMutability": "view",
      "type": "function"
    },
    {
      "inputs": [],
      "name": "freelancer",
      "outputs": [
        {
          "internalType": "address",
          "name": "",
          "type": "address"
        }
      ],
      "stateMutability": "view",
      "type": "function"
    },
    {
      "inputs": [],
      "name": "releaseFunds",
      "outputs": [],
      "stateMutability": "nonpayable",
      "type": "function"
    },
    {
      "inputs": [],
      "name": "refund",
      "outputs": [],
      "stateMutability": "nonpayable",
      "type": "function"
    },
    {
      "inputs": [
        {
          "internalType": "uint256",
          "name": "_reducedAmount",
          "type": "uint256"
        }
      ],
      "name": "releaseReducedFunds",
      "outputs": [],
      "stateMutability": "nonpayable",
      "type": "function"
    },
    {
      "inputs": [
        {
          "internalType": "uint256",
          "name": "milestonePercentage",
          "type": "uint256"
        }
      ],
      "name": "releaseMilestonePayment",
      "outputs": [],
      "stateMutability": "nonpayable",
      "type": "function"
    }
  ],
  "bytecode": "0x608061064980380390601f19601f83011683019183831067ffffffffffffffff841117608b5780849260409485528339810103126086576047602060418360ba565b920160ba565b60008054600160a060020a03938416600160a060020a031991821617909155600180549290931691161790553460025560405161057b90816100ce8239f35b600080fd5b7f4e487b7100000000000000000000000000000000000000000000000000000000600052604160045260246000fd5b5190600160a060020a038216820360865756fe6080604052600436101561001257600080fd5b7c010000000000000000000000000000000000000000000000000000000060003504806345ad1a2e1461039e578063590e1ae3146102a757806369d8957514610243578063a37dda2c1461021c578063aa8c217c146101fe578063ae200e79146101d75763cd0c15bf1461008557600080fd5b346101d25760203660031901126101d257600254600435811561018b57808202908282040361015c57606490049081116100ef57600080808093600160a060020a038254168282156100e6575bf1156100da57005b6040513d6000823e3d90fd5b506108fc6100d2565b608460405160e560020a62461bcd02815260206004820152602860248201527f4d696c6573746f6e65207061796d656e74206578636565647320657363726f7760448201527f2062616c616e63650000000000000000000000000000000000000000000000006064820152fd5b7f4e487b7100000000000000000000000000000000000000000000000000000000600052601160045260246000fd5b606460405160e560020a62461bcd02815260206004820152601c60248201527f496e73756666696369656e742066756e647320696e20657363726f77000000006044820152fd5b600080fd5b346101d25760003660031901126101d2576020600160a060020a0360015416604051908152f35b346101d25760003660031901126101d2576020600254604051908152f35b346101d25760003660031901126101d2576020600160a060020a0360005416604051908152f35b346101d25760003660031901126101d25761026a600160a060020a03600154163314610483565b6000808080600254801561027e81156104f7565b600160a060020a0383541690839061029e575bf1156100da576000600255005b506108fc610291565b346101d25760003660031901126101d257600160a060020a0360005416803303610331576002549081156102ea576000808093819382f1156100da576000600255005b606460405160e560020a62461bcd02815260206004820152601260248201527f4e6f2066756e647320746f20726566756e6400000000000000000000000000006044820152fd5b608460405160e560020a62461bcd02815260206004820152602860248201527f4f6e6c792074686520667265656c616e6365722063616e20726571756573742060448201527f6120726566756e640000000000000000000000000000000000000000000000006064820152fd5b346101d25760203660031901126101d2576004356103c8600160a060020a03600154163314610483565b6002546103d68115156104f7565b811161041657600080808084600160a060020a0382541682821561040d575bf1156100da5760025490810390811161015c57600255005b506108fc6103f5565b608460405160e560020a62461bcd02815260206004820152602560248201527f5265647563656420616d6f756e74206578636565647320657363726f7720626160448201527f6c616e63650000000000000000000000000000000000000000000000000000006064820152fd5b1561048a57565b608460405160e560020a62461bcd02815260206004820152602360248201527f4f6e6c792074686520656d706c6f7965722063616e2072656c6561736520667560448201527f6e647300000000000000000000000000000000000000000000000000000000006064820152fd5b156104fe57565b606460405160e560020a62461bcd02815260206004820152601360248201527f4e6f2066756e647320746f2072656c65617365000000000000000000000000006044820152fdfea26469706673582212203abe41ddee30ef90823781b94fc6429c41b6693886f89a607af8696b68f4761364736f6c634300081c0033",
  "immutableReferences": {},
  "source": "// SPDX-License-Identifier: MIT\npragma solidity ^0.8.0;\n\nimport \"./Projects.sol\";\n\ncontract Escrow {\n    address public freelancer;\n    address public employer;\n    uint public amount;\n\n    constructor(address _freelancer, address _employer) payable {\n        freelancer = _freelancer;\n        employer = _employer;\n        amount = msg.value; // Set the amount to the value sent during the contract creation\n    }\n\n    function releaseFunds() external {\n        require(msg.sender == employer, \"Only the employer can release funds\");\n        require(amount > 0, \"No funds to release\");\n        payable(freelancer).transfer(amount);\n        amount = 0; // Set amount to 0 after release\n    }\n\n    function refund() external {\n        require(msg.sender == freelancer, \"Only the freelancer can request a refund\");\n        require(amount > 0, \"No funds to refund\");\n        payable(freelancer).transfer(amount);\n        amount = 0; // Set amount to 0 after refund\n    }\n\n    function releaseReducedFunds(uint _reducedAmount) external {\n        require(msg.sender == employer, \"Only the employer can release funds\");\n        require(amount > 0, \"No funds to release\");\n        require(_reducedAmount <= amount, \"Reduced amount exceeds escrow balance\");\n\n        payable(freelancer).transfer(_reducedAmount);\n        amount -= _reducedAmount; // Deduct the paid amount from the total escrow balance\n    }\n\n    function releaseMilestonePayment(uint milestonePercentage) external {\n        require(amount > 0, \"Insufficient funds in escrow\");\n\n        uint milestonePayment = (amount * milestonePercentage) / 100;\n        require(milestonePayment <= amount, \"Milestone payment exceeds escrow balance\");\n\n        payable(freelancer).transfer(milestonePayment);\n        // amount -= milestonePayment;\n    }\n}\n\ncontract RequestManager {\n    Projects public projectsContract;\n\n    enum RequestStatus { Pending, Accepted, Rejected }\n\n    struct Request {\n        uint projectId;\n        address freelancer;\n        uint freelancerRating;\n        RequestStatus status;\n        Escrow escrowContract;\n    }\n\n    struct MilestoneReviewRequest {\n        uint id;\n        uint milestoneId;\n        address freelancer;\n        string cid;\n        bool reviewed;\n    }\n\n    struct File {\n        uint id;\n        uint milestoneId;\n        string name;\n        string rid;\n        string cid;\n    }\n\n    struct ReviewResponse{\n        uint id;\n        uint milestoneId;\n        address freelancer;\n        string response;\n        bool accepted;\n    }\n    \n    mapping(uint => ReviewResponse) public reviewResponses;\n    uint public responseCount;\n\n    // Mapping milestone ID to an array of files\n    mapping(uint => File[]) public milestoneFiles;\n    uint public fileCount;\n\n    // Store all requests in a single mapping\n    mapping(uint => Request) public requests;\n    uint public requestCount; // To keep track of the total number of requests\n\n    mapping(uint => MilestoneReviewRequest) public milestoneReviewRequests;\n    uint public milestoneReviewRequestCount;\n\n    event RequestSent(uint requestId, uint projectId, address freelancer);\n    event RequestAccepted(uint requestId, address freelancer, address escrowContract);\n    event RequestRejected(uint requestId, address freelancer);\n    event MilestoneReviewRequestSent(uint requestId, uint milestoneId, string cid);\n    event MilestoneAccepted(uint projectId, uint milestoneId, uint updatedRating);\n    event MilestoneReviewRequestRejected(uint indexed reviewRequestId, string reason);\n    event RejectionReasonAccepted(uint _reviewRequestId);\n\n    constructor(address _projectsContract) {\n        projectsContract = Projects(_projectsContract);\n    }\n\n    function sendRequest(uint _projectId, uint _freelancerRating) public {\n        require(_projectId > 0 && _projectId <= projectsContract.projectCount(), \"Invalid project ID\");\n        (,, , , Projects.Status status, ) = projectsContract.getProject(_projectId);\n        require(status == Projects.Status.Open, \"Project is not open\");\n\n        // Create a new request\n        requestCount++; // Increment request count to create a unique ID\n        requests[requestCount] = Request({\n            projectId: _projectId,\n            freelancer: msg.sender,\n            freelancerRating: _freelancerRating,\n            status: RequestStatus.Pending,\n            escrowContract: Escrow(address(0))\n        });\n\n        emit RequestSent(requestCount, _projectId, msg.sender);\n    }\n\n    function acceptRequest(uint _requestId) public payable {\n        Request storage request = requests[_requestId];\n        require(request.freelancer != address(0), \"No request exists for this ID\");\n        require(request.status == RequestStatus.Pending, \"Request is not pending\");\n\n        // Fetch project details\n        (,, , uint projectReward, Projects.Status status, address employer) = projectsContract.getProject(request.projectId);\n        require(msg.sender == employer, \"Only the employer can accept the request\");\n        require(status == Projects.Status.Open, \"Project must be open\");\n\n        // Create new escrow contract instance with freelancer and employer details\n        request.escrowContract = new Escrow{value: projectReward}(request.freelancer, employer);\n\n        request.status = RequestStatus.Accepted;\n        emit RequestAccepted(_requestId, request.freelancer, address(request.escrowContract));\n    }\n\n    function rejectRequest(uint _requestId) public {\n        Request storage request = requests[_requestId];\n        require(request.freelancer != address(0), \"No request exists for this ID\");\n        require(request.status == RequestStatus.Pending, \"Request already processed\");\n\n        request.status = RequestStatus.Rejected;\n        emit RequestRejected(_requestId, request.freelancer);\n    }\n\n    \n\n    function getRequest(uint _requestId) public view returns (Request memory) {\n        require(requests[_requestId].freelancer != address(0), \"No request exists for this ID\");\n        return requests[_requestId];\n    }\n\n    // New function to view all requests\n    function viewAllRequests() public view returns (\n        uint[] memory requestIds,\n        uint[] memory projectIds,\n        address[] memory freelancers,\n        uint[] memory freelancerRatings,\n        RequestStatus[] memory statuses,\n        address[] memory escrowContracts\n    ) {\n        uint count = requestCount;\n\n        // Initialize arrays based on the total request count\n        requestIds = new uint[](count);\n        projectIds = new uint[](count);\n        freelancers = new address[](count);\n        freelancerRatings = new uint[](count);\n        statuses = new RequestStatus[](count);\n        escrowContracts = new address[](count);\n\n        // Populate the arrays with request details\n        for (uint i = 1; i <= requestCount; i++) {\n            Request storage request = requests[i];\n            requestIds[i - 1] = i;\n            projectIds[i - 1] = request.projectId;\n            freelancers[i - 1] = request.freelancer;\n            freelancerRatings[i - 1] = request.freelancerRating;\n            statuses[i - 1] = request.status;\n            escrowContracts[i - 1] = address(request.escrowContract);\n        }\n\n        return (requestIds, projectIds, freelancers, freelancerRatings, statuses, escrowContracts);\n    }\n\n\n    function viewAllReviewResponses() public view returns (\n        uint[] memory responseIds,\n        uint[] memory milestoneIds,\n        address[] memory freelancers,\n        string[] memory responses,\n        bool[] memory acceptedStatuses\n    ) {\n        uint count = responseCount;\n\n        // Initialize arrays based on the total response count\n        responseIds = new uint[](count);\n        milestoneIds = new uint[](count);\n        freelancers = new address[](count);\n        responses = new string[](count);\n        acceptedStatuses = new bool[](count);\n\n        // Populate the arrays with response details\n        for (uint i = 1; i <= count; i++) {\n            ReviewResponse storage reviewResponse = reviewResponses[i];\n            responseIds[i - 1] = reviewResponse.id;\n            milestoneIds[i - 1] = reviewResponse.milestoneId;\n            freelancers[i - 1] = reviewResponse.freelancer;\n            responses[i - 1] = reviewResponse.response;\n            acceptedStatuses[i - 1] = reviewResponse.accepted;\n        }\n\n        return (responseIds, milestoneIds, freelancers, responses, acceptedStatuses);\n    }\n\n\n    // function acceptMilestone(uint _milestoneId, uint _actualDaysTaken, uint _delayPenalty, uint _requestId) public payable {\n    //     Request memory request = getRequest(_requestId); // Retrieve the request using requestId\n\n    //     // Ensure projectId is valid\n    //     require(request.projectId > 0 && request.projectId <= projectsContract.projectCount(), \"Project does not exist\");\n\n    //     // Retrieve the project details using the getProject function\n    //     (, , , uint reward, , address employer) = projectsContract.getProject(request.projectId);\n    //     require(msg.sender == employer, \"Only the employer can accept milestones\");\n\n    //     // Ensure milestoneId is valid\n    //     (\n    //         uint[] memory ids,\n    //         uint[] memory projectIds,\n    //         string[] memory names,\n    //         string[] memory descriptions,\n    //         uint[] memory daycounts,\n    //         uint[] memory percentages,\n    //         bool[] memory completions,\n    //         string[] memory proofFileHashes\n    //     ) = projectsContract.getMilestones(request.projectId);\n\n    //     // Check if the milestone exists and is within bounds\n    //     require(_milestoneId > 0 && _milestoneId <= ids.length, \"Milestone does not exist\");\n        \n    //     // Fetch milestone data by using _milestoneId as an index\n    //     uint milestoneIndex = _milestoneId - 1;\n    //     require(!completions[milestoneIndex], \"Milestone already completed\");\n    //     require(bytes(proofFileHashes[milestoneIndex]).length > 0, \"Proof file not uploaded\");\n\n    //     // Mark the milestone as completed\n    //     projectsContract.completeMilestone(request.projectId, _milestoneId);\n\n    //     // Calculate and update freelancer rating based on the provided formula\n    //     uint currentRating = projectsContract.getFreelancerRating(request.freelancer);\n    //     uint rewardWeight = (percentages[milestoneIndex] * reward) / 100;\n    //     int ratingChange = int((5 * 100 * rewardWeight * daycounts[milestoneIndex]) / (reward * _actualDaysTaken));\n\n    //     // Cap the increment at +0.2 if positive\n    //     if (ratingChange > 20) {\n    //         ratingChange = 20;\n    //     }\n\n    //     uint newRating = uint(int(currentRating) + ratingChange);\n\n    //     // Ensure new rating doesn't exceed 5.0 (500 basis points)\n    //     if (newRating > 500) {\n    //         newRating = 500;\n    //     }\n\n    //     // Update the freelancer's rating\n    //     projectsContract.setFreelancerRating(request.freelancer, newRating);\n\n    //     // Release milestone payment from the escrow with the specified penalty\n    //     uint milestonePercentage = percentages[milestoneIndex];\n    //     request.escrowContract.releaseMilestonePayment(milestonePercentage, _delayPenalty);\n\n    //     emit MilestoneAccepted(request.projectId, _milestoneId, newRating);\n    // }\n\n\n    function viewRequestsByEmployer() public view returns (\n            uint[] memory requestIds,\n            uint[] memory projectIds,\n            address[] memory freelancers,\n            uint[] memory freelancerRatings,\n            RequestStatus[] memory statuses,\n            address[] memory escrowContracts\n        ) {\n            uint count = 0;\n\n            // Count requests that belong to projects owned by the employer\n            for (uint i = 1; i <= requestCount; i++) {\n                uint projectId = requests[i].projectId;\n                (, , , , , address employer) = projectsContract.getProject(projectId);\n                if (employer == msg.sender) {\n                    count++;\n                }\n            }\n\n            // Initialize arrays based on the count of matching requests\n            requestIds = new uint[](count);\n            projectIds = new uint[](count);\n            freelancers = new address[](count);\n            freelancerRatings = new uint[](count);\n            statuses = new RequestStatus[](count);\n            escrowContracts = new address[](count);\n\n            uint index = 0;\n\n            // Populate the arrays with matching request details\n            for (uint i = 1; i <= requestCount; i++) {\n                uint projectId = requests[i].projectId;\n                (, , , , , address employer) = projectsContract.getProject(projectId);\n                if (employer == msg.sender) {\n                    Request storage request = requests[i];\n                    requestIds[index] = i;\n                    projectIds[index] = request.projectId;\n                    freelancers[index] = request.freelancer;\n                    freelancerRatings[index] = request.freelancerRating;\n                    statuses[index] = request.status;\n                    escrowContracts[index] = address(request.escrowContract);\n                    index++;\n                }\n            }\n\n            return (requestIds, projectIds, freelancers, freelancerRatings, statuses, escrowContracts);\n    }\n\n    function sendMilestoneReviewRequest(uint _milestoneId, string calldata _cid, address _freelancer) public {\n        // Create a new milestone review request\n        milestoneReviewRequestCount++; // Increment count for unique ID\n        milestoneReviewRequests[milestoneReviewRequestCount] = MilestoneReviewRequest({\n            id: milestoneReviewRequestCount,\n            milestoneId: _milestoneId,\n            freelancer: _freelancer,\n            cid: _cid,\n            reviewed: false // Initially, the request is not reviewed\n        });\n\n        emit MilestoneReviewRequestSent(milestoneReviewRequestCount, _milestoneId, _cid); // Emit event\n    }\n\n    function viewAllMilestoneReviewRequests() public view returns (\n        uint[] memory requestIds,\n        uint[] memory milestoneIds,\n        address[] memory freelancers,\n        string[] memory cids,\n        bool[] memory reviewedStatuses\n    ) {\n        uint count = milestoneReviewRequestCount;\n\n        // Initialize arrays based on the total count of review requests\n        requestIds = new uint[](count);\n        milestoneIds = new uint[](count);\n        freelancers = new address[](count);\n        cids = new string[](count);\n        reviewedStatuses = new bool[](count);\n\n        // Populate the arrays with review request details\n        for (uint i = 1; i <= milestoneReviewRequestCount; i++) {\n            MilestoneReviewRequest storage reviewRequest = milestoneReviewRequests[i];\n            requestIds[i - 1] = reviewRequest.id;\n            milestoneIds[i - 1] = reviewRequest.milestoneId;\n            freelancers[i - 1] = reviewRequest.freelancer;\n            cids[i - 1] = reviewRequest.cid;\n            reviewedStatuses[i - 1] = reviewRequest.reviewed;\n        }\n\n        return (requestIds, milestoneIds, freelancers, cids, reviewedStatuses);\n    }\n\n\n    function getEscrowAccountFromReviewRequest(uint _reviewRequestId, uint _projectId) public view returns (Escrow) {\n        // Fetch the MilestoneReviewRequest using the provided ID\n        MilestoneReviewRequest storage reviewRequest = milestoneReviewRequests[_reviewRequestId];\n\n        // Ensure the review request exists\n        require(reviewRequest.id != 0, \"Review request does not exist\");\n        \n        // Find the corresponding request based on the project ID and freelancer address\n        for (uint i = 0; i < requestCount; i++) {\n            Request storage request = requests[i];\n\n            // Check if the request matches the provided projectId and the freelancer address from the review request\n            if (request.projectId == _projectId && request.freelancer == reviewRequest.freelancer && request.status == RequestStatus.Accepted) {\n                return request.escrowContract; // Return the escrow contract associated with the request\n            }\n        }\n\n        // If no matching request was found, revert with an error message\n        revert(\"No matching request found for this review request\");\n    }\n\n\n\n\n    function acceptMilestoneReviewRequest(uint _reviewRequestId, uint _projId) public payable {\n        // Fetch the  request using the ID\n        MilestoneReviewRequest storage reviewRequest = milestoneReviewRequests[_reviewRequestId];\n        require(!reviewRequest.reviewed, \"Review request already accepted\");\n\n        // Get the milestone ID from the  request\n        uint milestoneId = reviewRequest.milestoneId;\n\n        // Retrieve the associated milestones for the project\n        (\n            uint[] memory ids,\n            uint[] memory projectIds,\n            string[] memory names,\n            string[] memory descriptions,\n            uint[] memory daycounts,\n            uint[] memory percentages,\n            bool[] memory completions,\n            string[] memory proofFileHashes\n        ) = projectsContract.getMilestones(_projId);\n\n        // Initialize variables to store the milestone data once we find it\n        bool milestoneFound = false;\n        string memory milestoneName;\n        string memory milestoneDescription;\n        uint milestoneDaycount;\n        uint milestonePercentage;\n        bool milestoneCompleted;\n        string memory milestoneProofFileHash;\n\n        // Search for the milestone with the specified milestoneId\n        for (uint i = 0; i < ids.length; i++) {\n            if (ids[i] == milestoneId) {\n                milestoneFound = true;\n                milestoneName = names[i];\n                milestoneDescription = descriptions[i];\n                milestoneDaycount = daycounts[i];\n                milestonePercentage = percentages[i];\n                milestoneCompleted = completions[i];\n                milestoneProofFileHash = proofFileHashes[i];\n                break;\n            }\n        }\n\n        require(milestoneFound, \"Milestone does not exist\");\n\n        reviewRequest.reviewed = true;\n\n        // Get freelancer's address from the request\n        address freelancer = reviewRequest.freelancer;\n\n        // Update freelancer rating based on the milestone percentage\n        uint currentRating = projectsContract.getFreelancerRating(freelancer);\n        // uint rewardWeight = projReward / 100;\n        uint newRating = currentRating + (5 * milestonePercentage / 100);\n\n        // Ensure the new rating does not exceed 500\n        if (newRating > 500) {\n            newRating = 500;\n        }\n\n        // Set the new rating for the freelancer\n        projectsContract.setFreelancerRating(freelancer, newRating);\n\n\n        getEscrowAccountFromReviewRequest(_reviewRequestId, _projId).releaseMilestonePayment(milestonePercentage);\n\n\n        uint _milestoneId = reviewRequest.milestoneId;\n        address _freelancer = reviewRequest.freelancer;\n\n        responseCount++;\n        reviewResponses[responseCount] = ReviewResponse({\n            id: responseCount,\n            milestoneId: _milestoneId,\n            freelancer: _freelancer,\n            response: \"\",\n            accepted: true\n        });\n    }\n\n\n\n    // function acceptMilestoneReviewRequest(uint _reviewRequestId, uint _projId) public payable {\n    //     // Fetch the  request using the ID\n    //     MilestoneReviewRequest storage reviewRequest = milestoneReviewRequests[_reviewRequestId];\n    //     require(!reviewRequest.reviewed, \"Review request already accepted\");\n\n    //     // Get the milestone ID from the  request\n    //     uint milestoneId = reviewRequest.milestoneId;\n\n    //     // Retrieve the associated milestones for the project\n    //     (\n    //         uint[] memory ids,\n    //         uint[] memory projectIds,\n    //         string[] memory names,\n    //         string[] memory descriptions,\n    //         uint[] memory daycounts,\n    //         uint[] memory percentages,\n    //         bool[] memory completions,\n    //         string[] memory proofFileHashes\n    //     ) = projectsContract.getMilestones(_projId);\n\n    //     // Initialize variables to store the milestone data once we find it\n    //     bool milestoneFound = false;\n    //     string memory milestoneName;\n    //     string memory milestoneDescription;\n    //     uint milestoneDaycount;\n    //     uint milestonePercentage;\n    //     bool milestoneCompleted;\n    //     string memory milestoneProofFileHash;\n\n    //     // Search for the milestone with the specified milestoneId\n    //     for (uint i = 0; i < ids.length; i++) {\n    //         if (ids[i] == milestoneId) {\n    //             milestoneFound = true;\n    //             milestoneName = names[i];\n    //             milestoneDescription = descriptions[i];\n    //             milestoneDaycount = daycounts[i];\n    //             milestonePercentage = percentages[i];\n    //             milestoneCompleted = completions[i];\n    //             milestoneProofFileHash = proofFileHashes[i];\n    //             break;\n    //         }\n    //     }\n\n    //     require(milestoneFound, \"Milestone does not exist\");\n\n    //     // Use getProject to retrieve the project details\n    //     (\n    //         uint projId,\n    //         string memory projName,\n    //         string memory projDescription,\n    //         uint projReward,\n    //         Projects.Status projStatus,\n    //         address projEmployer\n    //     ) = projectsContract.getProject(_projId);\n\n    //     // Verify that the sender is the employer of the project\n    //     require(projEmployer == msg.sender, \"Only the employer can accept milestones\");\n\n    //     // Mark the review request as accepted\n    //     reviewRequest.reviewed = true;\n\n    //     // Get freelancer's address from the request\n    //     address freelancer = reviewRequest.freelancer;\n\n    //     // Update freelancer rating based on the milestone percentage\n    //     uint currentRating = projectsContract.getFreelancerRating(freelancer);\n    //     uint rewardWeight = projReward / 100;\n    //     uint newRating = currentRating + (5 * milestonePercentage / rewardWeight);\n\n    //     // Ensure the new rating does not exceed 500\n    //     if (newRating > 500) {\n    //         newRating = 500;\n    //     }\n\n    //     // Set the new rating for the freelancer\n    //     projectsContract.setFreelancerRating(freelancer, newRating);\n\n    //     // Find the request with the matching projectId and freelancer\n    //     uint requestIndex;\n    //     bool foundRequest = false;\n\n    //     for (uint i = 0; i < requestCount; i++) {\n    //         if (requests[i].projectId == _projId && requests[i].freelancer == freelancer && requests[i].status == RequestStatus.Accepted) {\n    //             requestIndex = i;\n    //             foundRequest = true;\n    //             break;\n    //         }\n    //     }\n    //     require(foundRequest, \"Associated request not found\");\n\n    //     // Release the milestone payment from escrow using the found request\n    //     requests[requestIndex].escrowContract.releaseMilestonePayment(milestonePercentage);\n\n    //     // Emit an event to record the milestone acceptance\n    //     emit MilestoneAccepted(projId, milestoneId, newRating);\n    // }\n\n    // function acceptMilestoneReviewRequest(uint _reviewRequestId, uint _projId) public payable {\n    //     // Fetch the request using the ID\n    //     MilestoneReviewRequest storage reviewRequest = milestoneReviewRequests[_reviewRequestId];\n    //     require(reviewRequest.id != 0, \"Review request does not exist\");\n    //     require(!reviewRequest.reviewed, \"Review request already accepted\");\n\n    //     // Get the milestone ID from the request\n    //     uint milestoneId = reviewRequest.milestoneId;\n\n    //     // Retrieve the associated milestones for the project\n    //     (\n    //         uint[] memory ids,\n    //         ,  // projectIds not used\n    //         ,  // names not used\n    //         ,  // descriptions not used\n    //         uint[] memory daycounts,\n    //         uint[] memory percentages,\n    //         bool[] memory completions,\n    //         string[] memory proofFileHashes\n    //     ) = projectsContract.getMilestones(_projId);\n\n    //     // Verify that the milestone exists and get its index\n    //     uint milestoneIndex;\n    //     bool milestoneFound = false;\n    //     for (uint i = 0; i < ids.length; i++) {\n    //         if (ids[i] == milestoneId) {\n    //             milestoneIndex = i;\n    //             milestoneFound = true;\n    //             break;\n    //         }\n    //     }\n    //     require(milestoneFound, \"Milestone does not exist\");\n    //     require(!completions[milestoneIndex], \"Milestone already completed\");\n    //     require(bytes(proofFileHashes[milestoneIndex]).length > 0, \"Proof file not uploaded\");\n\n    //     // Get project details\n    //     (, , , uint projReward, , address projEmployer) = projectsContract.getProject(_projId);\n    //     require(msg.sender == projEmployer, \"Only the employer can accept milestones\");\n\n    //     // Mark the milestone as completed in the Projects contract\n    //     projectsContract.completeMilestone(_projId, milestoneId);\n\n    //     // Mark the review request as accepted\n    //     reviewRequest.reviewed = true;\n\n    //     // Get freelancer's address from the request\n    //     address freelancer = reviewRequest.freelancer;\n\n    //     // Update freelancer rating\n    //     uint currentRating = projectsContract.getFreelancerRating(freelancer);\n    //     uint milestonePercentage = percentages[milestoneIndex];\n        \n    //     // Calculate rating increase based on milestone percentage and project reward\n    //     uint ratingIncrease = (5 * milestonePercentage * daycounts[milestoneIndex]) / 100;\n    //     uint newRating = currentRating + ratingIncrease;\n        \n    //     // Cap the rating at 500 (5.0)\n    //     if (newRating > 500) {\n    //         newRating = 500;\n    //     }\n\n    //     // Update the freelancer's rating\n    //     projectsContract.setFreelancerRating(freelancer, newRating);\n\n    //     // Find the associated request for the escrow\n    //     uint requestId;\n    //     bool foundRequest = false;\n    //     for (uint i = 1; i <= requestCount; i++) {\n    //         if (requests[i].projectId == _projId && \n    //             requests[i].freelancer == freelancer && \n    //             requests[i].status == RequestStatus.Accepted) {\n    //             requestId = i;\n    //             foundRequest = true;\n    //             break;\n    //         }\n    //     }\n    //     require(foundRequest, \"Associated request not found\");\n    //     require(address(requests[requestId].escrowContract) != address(0), \"Escrow contract not found\");\n\n    //     // Release the milestone payment from escrow\n    //     requests[requestId].escrowContract.releaseMilestonePayment(milestonePercentage);\n\n    //     // Emit event\n    //     emit MilestoneAccepted(_projId, milestoneId, newRating);\n    // }\n\n\n\n\n    function rejectMilestoneReviewRequest(uint _reviewRequestId, string calldata _reason)  public {\n        MilestoneReviewRequest storage reviewRequest = milestoneReviewRequests[_reviewRequestId];\n        require(!reviewRequest.reviewed, \"Review request already processed\");\n        reviewRequest.reviewed = true;\n\n        uint _milestoneId = reviewRequest.milestoneId;\n        address _freelancer = reviewRequest.freelancer;\n\n        responseCount++;\n        // request.escrowContract = new ReviewResponse{value: projectReward}(request.freelancer, employer);\n        reviewResponses[responseCount] = ReviewResponse({\n            id: responseCount,\n            milestoneId: _milestoneId,\n            freelancer: _freelancer,\n            response: _reason,\n            accepted: false\n        });\n\n        emit MilestoneReviewRequestRejected(_reviewRequestId, _reason);\n    }\n\n    function acceptRejectionReason(uint _reviewRequestId) public {\n        // Fetch the request using the ID\n        MilestoneReviewRequest storage reviewRequest = milestoneReviewRequests[_reviewRequestId];\n        \n        // Check if the request exists and if it is not already reviewed\n        require(reviewRequest.freelancer == msg.sender, \"Only the freelancer can accept the rejection reason\");\n        require(!reviewRequest.reviewed, \"Review request already reviewed\");\n\n        // Accept the rejection reason and mark the request as reviewed\n        reviewRequest.reviewed = true;\n\n        // Emit an event for this action (optional)\n        emit RejectionReasonAccepted(_reviewRequestId);\n    }\n\n\n    function viewAcceptedProjectsByFreelancer(address freelancer) public view returns (\n        uint[] memory ids, \n        string[] memory names, \n        string[] memory descriptions, \n        uint[] memory rewards, \n        Projects.Status[] memory statuses, // Change here to use Projects.Status\n        address[] memory employers\n    ) {\n        // Temporary storage for matched projects\n        uint[] memory tempIds = new uint[](requestCount); \n        string[] memory tempNames = new string[](requestCount);\n        string[] memory tempDescriptions = new string[](requestCount);\n        uint[] memory tempRewards = new uint[](requestCount);\n        Projects.Status[] memory tempStatuses = new Projects.Status[](requestCount); // Change here to use Projects.Status\n        address[] memory tempEmployers = new address[](requestCount);\n\n        uint matchCount = 0; // Count of matched projects\n\n        for (uint i = 1; i <= requestCount; i++) {\n            Request storage req = requests[i];\n            if (req.status == RequestStatus.Accepted && req.freelancer == freelancer) {\n                // Unpack the return values from getProject\n                (uint id, string memory name, string memory description, uint reward, Projects.Status status, address employer) = \n                    projectsContract.getProject(req.projectId); // Call the function\n                \n                // Assign the unpacked values to temporary storage\n                tempIds[matchCount] = id;\n                tempNames[matchCount] = name;\n                tempDescriptions[matchCount] = description;\n                tempRewards[matchCount] = reward;\n                tempStatuses[matchCount] = status;\n                tempEmployers[matchCount] = employer;\n                matchCount++;\n            }\n        }\n\n        // Create memory arrays of the exact size of matches found\n        ids = new uint[](matchCount);\n        names = new string[](matchCount);\n        descriptions = new string[](matchCount);\n        rewards = new uint[](matchCount);\n        statuses = new Projects.Status[](matchCount); // Change here to use Projects.Status\n        employers = new address[](matchCount);\n\n        for (uint j = 0; j < matchCount; j++) {\n            ids[j] = tempIds[j];\n            names[j] = tempNames[j];\n            descriptions[j] = tempDescriptions[j];\n            rewards[j] = tempRewards[j];\n            statuses[j] = tempStatuses[j];\n            employers[j] = tempEmployers[j];\n        }\n\n        return (ids, names, descriptions, rewards, statuses, employers);\n    }\n    \n\n    function addFile(\n        uint _milestoneId, \n        string memory _name, \n        string memory _rid, \n        string memory _cid\n    ) public {\n        // Create a new File struct with a unique ID and add it to the milestoneFiles map\n        File memory newFile = File({\n            id: fileCount, // unique global ID for each file\n            milestoneId: _milestoneId,\n            name: _name,\n            rid: _rid,\n            cid: _cid\n        });\n        \n        milestoneFiles[_milestoneId].push(newFile); // Add file to the array for the specific milestone\n        fileCount++; // Increment the global file count\n    }\n\n    function viewAllFilesForMilestone(uint _milestoneId) \n        public \n        view \n        returns (\n            uint[] memory ids,\n            uint[] memory milestoneIds,\n            string[] memory names,\n            string[] memory rids,\n            string[] memory cids\n        ) \n    {\n        uint count = fileCount; // Assuming 'fileCount' keeps track of the total files added\n\n        // Initialize arrays based on the total file count for the specified milestone\n        ids = new uint[](count);\n        milestoneIds = new uint[](count);\n        names = new string[](count);\n        rids = new string[](count);\n        cids = new string[](count);\n\n        // Populate the arrays with file details for the given milestone\n        uint index = 0;\n        for (uint i = 0; i < count; i++) {\n            if (milestoneFiles[_milestoneId][i].milestoneId == _milestoneId) {\n                File storage file = milestoneFiles[_milestoneId][i];\n                ids[index] = file.id;\n                milestoneIds[index] = file.milestoneId;\n                names[index] = file.name;\n                rids[index] = file.rid;\n                cids[index] = file.cid;\n                index++;\n            }\n        }\n\n        return (ids, milestoneIds, names, rids, cids);\n    }\n\n\n}\n",
  "sourcePath": "C:\\Users\\Shashwat Chaturvedi\\OneDrive - iiit-b\\college\\projects\\Delance_test\\delance_test2\\contracts\\RequestManager.sol",
  "compiler": {
    "name": "solc",
    "version": "0.8.28+commit.7893614a.Emscripten.clang"
  },
  "schemaVersion": "3.4.16",
  "updatedAt": "2024-11-03T03:09:53.929Z",
  "devdoc": {
    "kind": "dev",
    "methods": {},
    "version": 1
  },
  "userdoc": {
    "kind": "user",
    "methods": {},
    "version": 1
  }
}