{
  "contractName": "Escrow",
  "abi": [
    {
      "inputs": [
        {
          "internalType": "address",
          "name": "_freelancer",
          "type": "address"
        },
        {
          "internalType": "address",
          "name": "_employer",
          "type": "address"
        },
        {
          "internalType": "uint256",
          "name": "_amount",
          "type": "uint256"
        }
      ],
      "stateMutability": "payable",
      "type": "constructor"
    },
    {
      "inputs": [],
      "name": "amount",
      "outputs": [
        {
          "internalType": "uint256",
          "name": "",
          "type": "uint256"
        }
      ],
      "stateMutability": "view",
      "type": "function"
    },
    {
      "inputs": [],
      "name": "employer",
      "outputs": [
        {
          "internalType": "address",
          "name": "",
          "type": "address"
        }
      ],
      "stateMutability": "view",
      "type": "function"
    },
    {
      "inputs": [],
      "name": "freelancer",
      "outputs": [
        {
          "internalType": "address",
          "name": "",
          "type": "address"
        }
      ],
      "stateMutability": "view",
      "type": "function"
    },
    {
      "inputs": [],
      "name": "releaseFunds",
      "outputs": [],
      "stateMutability": "nonpayable",
      "type": "function"
    }
  ],
  "bytecode": "0x60806040526040516105363803806105368339818101604052810190610025919061014e565b826000806101000a81548173ffffffffffffffffffffffffffffffffffffffff021916908373ffffffffffffffffffffffffffffffffffffffff16021790555081600160006101000a81548173ffffffffffffffffffffffffffffffffffffffff021916908373ffffffffffffffffffffffffffffffffffffffff160217905550806002819055505050506101a1565b600080fd5b600073ffffffffffffffffffffffffffffffffffffffff82169050919050565b60006100e5826100ba565b9050919050565b6100f5816100da565b811461010057600080fd5b50565b600081519050610112816100ec565b92915050565b6000819050919050565b61012b81610118565b811461013657600080fd5b50565b60008151905061014881610122565b92915050565b600080600060608486031215610167576101666100b5565b5b600061017586828701610103565b935050602061018686828701610103565b925050604061019786828701610139565b9150509250925092565b610386806101b06000396000f3fe608060405234801561001057600080fd5b5060043610610069576000357c01000000000000000000000000000000000000000000000000000000009004806369d895751461006e578063a37dda2c14610078578063aa8c217c14610096578063ae200e79146100b4575b600080fd5b6100766100d2565b005b6100806101cd565b60405161008d919061025e565b60405180910390f35b61009e6101f1565b6040516100ab9190610292565b60405180910390f35b6100bc6101f7565b6040516100c9919061025e565b60405180910390f35b600160009054906101000a900473ffffffffffffffffffffffffffffffffffffffff1673ffffffffffffffffffffffffffffffffffffffff163373ffffffffffffffffffffffffffffffffffffffff1614610162576040517f08c379a000000000000000000000000000000000000000000000000000000000815260040161015990610330565b60405180910390fd5b60008054906101000a900473ffffffffffffffffffffffffffffffffffffffff1673ffffffffffffffffffffffffffffffffffffffff166108fc6002549081150290604051600060405180830381858888f193505050501580156101ca573d6000803e3d6000fd5b50565b60008054906101000a900473ffffffffffffffffffffffffffffffffffffffff1681565b60025481565b600160009054906101000a900473ffffffffffffffffffffffffffffffffffffffff1681565b600073ffffffffffffffffffffffffffffffffffffffff82169050919050565b60006102488261021d565b9050919050565b6102588161023d565b82525050565b6000602082019050610273600083018461024f565b92915050565b6000819050919050565b61028c81610279565b82525050565b60006020820190506102a76000830184610283565b92915050565b600082825260208201905092915050565b7f4f6e6c792074686520656d706c6f7965722063616e2072656c6561736520667560008201527f6e64730000000000000000000000000000000000000000000000000000000000602082015250565b600061031a6023836102ad565b9150610325826102be565b604082019050919050565b600060208201905081810360008301526103498161030d565b905091905056fea26469706673582212200fb512bb72a14851223ec05cf56413224c29a057a5d9f8795b9b5c64639312bd64736f6c634300081c0033",
  "immutableReferences": {},
  "source": "// SPDX-License-Identifier: MIT\r\npragma solidity ^0.8.0;\r\n\r\nimport \"./Projects.sol\";\r\n\r\ncontract Escrow {\r\n    address public freelancer;\r\n    address public employer;\r\n    uint public amount;\r\n\r\n    constructor(address _freelancer, address _employer, uint _amount) payable {\r\n        freelancer = _freelancer;\r\n        employer = _employer;\r\n        amount = _amount;\r\n    }\r\n\r\n    function releaseFunds() external {\r\n        require(msg.sender == employer, \"Only the employer can release funds\");\r\n        payable(freelancer).transfer(amount);\r\n    }\r\n}\r\n\r\ncontract RequestManager {\r\n\r\n    Projects public projectsContract;\r\n\r\n    enum RequestStatus { Pending, Accepted, Rejected }\r\n\r\n    struct Request {\r\n        uint projectId;\r\n        address freelancer;\r\n        uint freelancerRating;\r\n        RequestStatus status;\r\n        Escrow escrowContract;\r\n    }\r\n\r\n    mapping(uint => Request) public requests;\r\n\r\n    event RequestSent(uint projectId, address freelancer);\r\n    event RequestAccepted(uint projectId, address freelancer, address escrowContract);\r\n    event RequestRejected(uint projectId, address freelancer);\r\n\r\n    constructor(address _projectsContract) {\r\n        projectsContract = Projects(_projectsContract);\r\n    }\r\n\r\n    function sendRequest(uint _projectId, uint _freelancerRating) public {\r\n        require(_projectId > 0 && _projectId <= projectsContract.projectCount(), \"Invalid project ID\");\r\n        (,, , , Projects.Status status, ) = projectsContract.getProject(_projectId);\r\n        require(status == Projects.Status.Open, \"Project is not open\");\r\n\r\n        requests[_projectId] = Request({\r\n            projectId: _projectId,\r\n            freelancer: msg.sender,\r\n            freelancerRating: _freelancerRating,\r\n            status: RequestStatus.Pending,\r\n            escrowContract: Escrow(address(0))\r\n        });\r\n\r\n        emit RequestSent(_projectId, msg.sender);\r\n    }\r\n\r\n    function acceptRequest(uint _projectId) public payable {\r\n        require(requests[_projectId].freelancer != address(0), \"No request exists for this project\");\r\n        require(requests[_projectId].status == RequestStatus.Pending, \"Request already processed\");\r\n\r\n        (, , , uint reward, Projects.Status status, address employer) = projectsContract.getProject(_projectId);\r\n        require(status == Projects.Status.Open, \"Project must be open\");\r\n        require(msg.sender == employer, \"Only the employer can accept this request\");\r\n        require(msg.value == reward, \"Incorrect reward amount sent\");\r\n\r\n        // Create new escrow contract instance with freelancer and employer details\r\n        Escrow escrow = new Escrow{value: reward}(requests[_projectId].freelancer, employer, reward);\r\n        requests[_projectId].escrowContract = escrow;\r\n\r\n        requests[_projectId].status = RequestStatus.Accepted;\r\n        emit RequestAccepted(_projectId, requests[_projectId].freelancer, address(escrow));\r\n    }\r\n\r\n    function rejectRequest(uint _projectId) public {\r\n        require(requests[_projectId].freelancer != address(0), \"No request exists for this project\");\r\n        require(requests[_projectId].status == RequestStatus.Pending, \"Request already processed\");\r\n\r\n        (, , , , Projects.Status status, address employer) = projectsContract.getProject(_projectId);\r\n        require(status == Projects.Status.Open, \"Project must be open\");\r\n        require(msg.sender == employer, \"Only the employer can reject this request\");\r\n\r\n        requests[_projectId].status = RequestStatus.Rejected;\r\n        emit RequestRejected(_projectId, requests[_projectId].freelancer);\r\n    }\r\n\r\n    function getRequest(uint _projectId) public view returns (Request memory) {\r\n        return requests[_projectId];\r\n    }\r\n}\r\n",
  "sourcePath": "C:\\Users\\risha\\Projects\\blockchain\\delance\\contracts\\RequestManager.sol",
  "compiler": {
    "name": "solc",
    "version": "0.8.28+commit.7893614a.Emscripten.clang"
  },
  "schemaVersion": "3.4.16",
  "updatedAt": "2024-10-29T15:34:16.867Z",
  "devdoc": {
    "kind": "dev",
    "methods": {},
    "version": 1
  },
  "userdoc": {
    "kind": "user",
    "methods": {},
    "version": 1
  }
}