{
  "contractName": "Migrations",
  "abi": [
    {
      "inputs": [],
      "stateMutability": "nonpayable",
      "type": "constructor"
    },
    {
      "inputs": [],
      "name": "last_completed_migration",
      "outputs": [
        {
          "internalType": "uint256",
          "name": "",
          "type": "uint256"
        }
      ],
      "stateMutability": "view",
      "type": "function"
    },
    {
      "inputs": [],
      "name": "owner",
      "outputs": [
        {
          "internalType": "address",
          "name": "",
          "type": "address"
        }
      ],
      "stateMutability": "view",
      "type": "function"
    },
    {
      "inputs": [
        {
          "internalType": "uint256",
          "name": "completed",
          "type": "uint256"
        }
      ],
      "name": "setCompleted",
      "outputs": [],
      "stateMutability": "nonpayable",
      "type": "function"
    }
  ],
  "bytecode": "0x6080604052348015600f57600080fd5b50336000806101000a81548173ffffffffffffffffffffffffffffffffffffffff021916908373ffffffffffffffffffffffffffffffffffffffff1602179055506103448061005f6000396000f3fe608060405234801561001057600080fd5b506004361061005e576000357c010000000000000000000000000000000000000000000000000000000090048063445df0ac146100635780638da5cb5b14610081578063fdacd5761461009f575b600080fd5b61006b6100bb565b6040516100789190610196565b60405180910390f35b6100896100c1565b60405161009691906101f2565b60405180910390f35b6100b960048036038101906100b4919061023e565b6100e5565b005b60015481565b60008054906101000a900473ffffffffffffffffffffffffffffffffffffffff1681565b60008054906101000a900473ffffffffffffffffffffffffffffffffffffffff1673ffffffffffffffffffffffffffffffffffffffff163373ffffffffffffffffffffffffffffffffffffffff1614610173576040517f08c379a000000000000000000000000000000000000000000000000000000000815260040161016a906102ee565b60405180910390fd5b8060018190555050565b6000819050919050565b6101908161017d565b82525050565b60006020820190506101ab6000830184610187565b92915050565b600073ffffffffffffffffffffffffffffffffffffffff82169050919050565b60006101dc826101b1565b9050919050565b6101ec816101d1565b82525050565b600060208201905061020760008301846101e3565b92915050565b600080fd5b61021b8161017d565b811461022657600080fd5b50565b60008135905061023881610212565b92915050565b6000602082840312156102545761025361020d565b5b600061026284828501610229565b91505092915050565b600082825260208201905092915050565b7f4f6e6c7920746865206f776e65722063616e2073657420636f6d706c6574656460008201527f206d6967726174696f6e2e000000000000000000000000000000000000000000602082015250565b60006102d8602b8361026b565b91506102e38261027c565b604082019050919050565b60006020820190508181036000830152610307816102cb565b905091905056fea2646970667358221220301c6f43d232d4d2e43fd63da4e05e68a7604ad065cb050ccc3b915f26777a4164736f6c634300081c0033",
  "immutableReferences": {},
  "source": "pragma solidity ^0.8.0;\r\n\r\ncontract Migrations {\r\n  address public owner;\r\n  uint public last_completed_migration;\r\n\r\n  constructor() {\r\n    owner = msg.sender;\r\n  }\r\n\r\n  function setCompleted(uint completed) public {\r\n    require(msg.sender == owner, \"Only the owner can set completed migration.\");\r\n    last_completed_migration = completed;\r\n  }\r\n}\r\n",
  "sourcePath": "C:\\Users\\Shashwat Chaturvedi\\OneDrive - iiit-b\\college\\projects\\delance\\truffle_project\\contracts\\Migrations.sol",
  "compiler": {
    "name": "solc",
    "version": "0.8.28+commit.7893614a.Emscripten.clang"
  },
  "schemaVersion": "3.4.16",
  "updatedAt": "2024-11-01T04:45:31.257Z",
  "devdoc": {
    "kind": "dev",
    "methods": {},
    "version": 1
  },
  "userdoc": {
    "kind": "user",
    "methods": {},
    "version": 1
  }
}