{
  "contractName": "Projects",
  "abi": [
    {
      "anonymous": false,
      "inputs": [
        {
          "indexed": false,
          "internalType": "uint256",
          "name": "projectId",
          "type": "uint256"
        },
        {
          "indexed": false,
          "internalType": "uint256",
          "name": "milestoneId",
          "type": "uint256"
        },
        {
          "indexed": false,
          "internalType": "string",
          "name": "name",
          "type": "string"
        },
        {
          "indexed": false,
          "internalType": "uint256",
          "name": "percentage",
          "type": "uint256"
        }
      ],
      "name": "MilestoneAdded",
      "type": "event"
    },
    {
      "anonymous": false,
      "inputs": [
        {
          "indexed": false,
          "internalType": "uint256",
          "name": "id",
          "type": "uint256"
        },
        {
          "indexed": false,
          "internalType": "string",
          "name": "name",
          "type": "string"
        },
        {
          "indexed": false,
          "internalType": "address",
          "name": "employer",
          "type": "address"
        }
      ],
      "name": "ProjectAdded",
      "type": "event"
    },
    {
      "inputs": [],
      "name": "milestoneCount",
      "outputs": [
        {
          "internalType": "uint256",
          "name": "",
          "type": "uint256"
        }
      ],
      "stateMutability": "view",
      "type": "function",
      "constant": true
    },
    {
      "inputs": [
        {
          "internalType": "uint256",
          "name": "",
          "type": "uint256"
        },
        {
          "internalType": "uint256",
          "name": "",
          "type": "uint256"
        }
      ],
      "name": "milestones",
      "outputs": [
        {
          "internalType": "uint256",
          "name": "id",
          "type": "uint256"
        },
        {
          "internalType": "uint256",
          "name": "projectId",
          "type": "uint256"
        },
        {
          "internalType": "string",
          "name": "name",
          "type": "string"
        },
        {
          "internalType": "string",
          "name": "description",
          "type": "string"
        },
        {
          "internalType": "uint256",
          "name": "daycount",
          "type": "uint256"
        },
        {
          "internalType": "uint256",
          "name": "percentage",
          "type": "uint256"
        },
        {
          "internalType": "bool",
          "name": "completed",
          "type": "bool"
        }
      ],
      "stateMutability": "view",
      "type": "function",
      "constant": true
    },
    {
      "inputs": [],
      "name": "projectCount",
      "outputs": [
        {
          "internalType": "uint256",
          "name": "",
          "type": "uint256"
        }
      ],
      "stateMutability": "view",
      "type": "function",
      "constant": true
    },
    {
      "inputs": [
        {
          "internalType": "uint256",
          "name": "",
          "type": "uint256"
        }
      ],
      "name": "projects",
      "outputs": [
        {
          "internalType": "uint256",
          "name": "id",
          "type": "uint256"
        },
        {
          "internalType": "string",
          "name": "name",
          "type": "string"
        },
        {
          "internalType": "string",
          "name": "description",
          "type": "string"
        },
        {
          "internalType": "uint256",
          "name": "reward",
          "type": "uint256"
        },
        {
          "internalType": "enum Projects.Status",
          "name": "status",
          "type": "uint8"
        },
        {
          "internalType": "address",
          "name": "employer",
          "type": "address"
        }
      ],
      "stateMutability": "view",
      "type": "function",
      "constant": true
    },
    {
      "inputs": [
        {
          "internalType": "string",
          "name": "_name",
          "type": "string"
        },
        {
          "internalType": "string",
          "name": "_description",
          "type": "string"
        },
        {
          "internalType": "uint256",
          "name": "_reward",
          "type": "uint256"
        }
      ],
      "name": "addProject",
      "outputs": [],
      "stateMutability": "nonpayable",
      "type": "function"
    },
    {
      "inputs": [
        {
          "internalType": "uint256",
          "name": "_projectId",
          "type": "uint256"
        },
        {
          "internalType": "string",
          "name": "_name",
          "type": "string"
        },
        {
          "internalType": "string",
          "name": "_description",
          "type": "string"
        },
        {
          "internalType": "uint256",
          "name": "_daycount",
          "type": "uint256"
        },
        {
          "internalType": "uint256",
          "name": "_percentage",
          "type": "uint256"
        }
      ],
      "name": "addMilestone",
      "outputs": [],
      "stateMutability": "nonpayable",
      "type": "function"
    },
    {
      "inputs": [
        {
          "internalType": "uint256",
          "name": "_id",
          "type": "uint256"
        }
      ],
      "name": "getProject",
      "outputs": [
        {
          "internalType": "uint256",
          "name": "",
          "type": "uint256"
        },
        {
          "internalType": "string",
          "name": "",
          "type": "string"
        },
        {
          "internalType": "string",
          "name": "",
          "type": "string"
        },
        {
          "internalType": "uint256",
          "name": "",
          "type": "uint256"
        },
        {
          "internalType": "enum Projects.Status",
          "name": "",
          "type": "uint8"
        },
        {
          "internalType": "address",
          "name": "",
          "type": "address"
        }
      ],
      "stateMutability": "view",
      "type": "function",
      "constant": true
    },
    {
      "inputs": [],
      "name": "viewProjects",
      "outputs": [
        {
          "internalType": "uint256[]",
          "name": "ids",
          "type": "uint256[]"
        },
        {
          "internalType": "string[]",
          "name": "names",
          "type": "string[]"
        },
        {
          "internalType": "string[]",
          "name": "descriptions",
          "type": "string[]"
        },
        {
          "internalType": "uint256[]",
          "name": "rewards",
          "type": "uint256[]"
        },
        {
          "internalType": "enum Projects.Status[]",
          "name": "statuses",
          "type": "uint8[]"
        },
        {
          "internalType": "address[]",
          "name": "employers",
          "type": "address[]"
        }
      ],
      "stateMutability": "view",
      "type": "function",
      "constant": true
    },
    {
      "inputs": [],
      "name": "viewOpenProjects",
      "outputs": [
        {
          "internalType": "uint256[]",
          "name": "ids",
          "type": "uint256[]"
        },
        {
          "internalType": "string[]",
          "name": "names",
          "type": "string[]"
        },
        {
          "internalType": "string[]",
          "name": "descriptions",
          "type": "string[]"
        },
        {
          "internalType": "uint256[]",
          "name": "rewards",
          "type": "uint256[]"
        },
        {
          "internalType": "enum Projects.Status[]",
          "name": "statuses",
          "type": "uint8[]"
        },
        {
          "internalType": "address[]",
          "name": "employers",
          "type": "address[]"
        }
      ],
      "stateMutability": "view",
      "type": "function",
      "constant": true
    },
    {
      "inputs": [
        {
          "internalType": "uint256",
          "name": "_projectId",
          "type": "uint256"
        }
      ],
      "name": "getMilestones",
      "outputs": [
        {
          "components": [
            {
              "internalType": "uint256",
              "name": "id",
              "type": "uint256"
            },
            {
              "internalType": "uint256",
              "name": "projectId",
              "type": "uint256"
            },
            {
              "internalType": "string",
              "name": "name",
              "type": "string"
            },
            {
              "internalType": "string",
              "name": "description",
              "type": "string"
            },
            {
              "internalType": "uint256",
              "name": "daycount",
              "type": "uint256"
            },
            {
              "internalType": "uint256",
              "name": "percentage",
              "type": "uint256"
            },
            {
              "internalType": "bool",
              "name": "completed",
              "type": "bool"
            }
          ],
          "internalType": "struct Projects.Milestone[]",
          "name": "",
          "type": "tuple[]"
        }
      ],
      "stateMutability": "view",
      "type": "function",
      "constant": true
    },
    {
      "inputs": [
        {
          "internalType": "uint256",
          "name": "_id",
          "type": "uint256"
        }
      ],
      "name": "closeProject",
      "outputs": [],
      "stateMutability": "nonpayable",
      "type": "function"
    },
    {
      "inputs": [
        {
          "internalType": "uint256",
          "name": "_projectId",
          "type": "uint256"
        },
        {
          "internalType": "uint256",
          "name": "_milestoneId",
          "type": "uint256"
        }
      ],
      "name": "completeMilestone",
      "outputs": [],
      "stateMutability": "nonpayable",
      "type": "function"
    }
  ],
  "bytecode": "0x6080604052348015600f57600080fd5b50612e2a8061001f6000396000f3fe608060405234801561001057600080fd5b50600436106100d1576000357c01000000000000000000000000000000000000000000000000000000009004806353eef0601161008e57806353eef060146101d0578063563700d5146101f35780635fd4f7581461020f57806393dc12e61461022b578063f0f3f2c814610247578063f326206b1461027c576100d1565b80630681ca55146100d6578063107046bd146100f45780631c376c6314610129578063310f94111461015f57806336fbad261461018257806342c549c0146101a0575b600080fd5b6100de610298565b6040516100eb9190611b9b565b60405180910390f35b61010e60048036038101906101099190611bf6565b61029e565b60405161012096959493929190611d6b565b60405180910390f35b610143600480360381019061013e9190611dda565b610417565b6040516101569796959493929190611e35565b60405180910390f35b610167610593565b604051610179969594939291906121f8565b60405180910390f35b61018a610a66565b6040516101979190611b9b565b60405180910390f35b6101ba60048036038101906101b59190611bf6565b610a6c565b6040516101c791906123f7565b60405180910390f35b6101d8610c96565b6040516101ea969594939291906121f8565b60405180910390f35b61020d6004803603810190610208919061254e565b6111f5565b005b61022960048036038101906102249190612601565b611481565b005b61024560048036038101906102409190611bf6565b611600565b005b610261600480360381019061025c9190611bf6565b61172a565b60405161027396959493929190611d6b565b60405180910390f35b61029660048036038101906102919190611dda565b6119a2565b005b60035481565b60006020528060005260406000206000915090508060000154908060010180546102c7906126bb565b80601f01602080910402602001604051908101604052809291908181526020018280546102f3906126bb565b80156103405780601f1061031557610100808354040283529160200191610340565b820191906000526020600020905b81548152906001019060200180831161032357829003601f168201915b505050505090806002018054610355906126bb565b80601f0160208091040260200160405190810160405280929190818152602001828054610381906126bb565b80156103ce5780601f106103a3576101008083540402835291602001916103ce565b820191906000526020600020905b8154815290600101906020018083116103b157829003601f168201915b5050505050908060030154908060040160009054906101000a900460ff16908060040160019054906101000a900473ffffffffffffffffffffffffffffffffffffffff16905086565b6001602052816000526040600020818154811061043357600080fd5b906000526020600020906007020160009150915050806000015490806001015490806002018054610463906126bb565b80601f016020809104026020016040519081016040528092919081815260200182805461048f906126bb565b80156104dc5780601f106104b1576101008083540402835291602001916104dc565b820191906000526020600020905b8154815290600101906020018083116104bf57829003601f168201915b5050505050908060030180546104f1906126bb565b80601f016020809104026020016040519081016040528092919081815260200182805461051d906126bb565b801561056a5780601f1061053f5761010080835404028352916020019161056a565b820191906000526020600020905b81548152906001019060200180831161054d57829003601f168201915b5050505050908060040154908060050154908060060160009054906101000a900460ff16905087565b60608060608060608060025467ffffffffffffffff8111156105b8576105b7612423565b5b6040519080825280602002602001820160405280156105e65781602001602082028036833780820191505090505b50955060025467ffffffffffffffff81111561060557610604612423565b5b60405190808252806020026020018201604052801561063857816020015b60608152602001906001900390816106235790505b50945060025467ffffffffffffffff81111561065757610656612423565b5b60405190808252806020026020018201604052801561068a57816020015b60608152602001906001900390816106755790505b50935060025467ffffffffffffffff8111156106a9576106a8612423565b5b6040519080825280602002602001820160405280156106d75781602001602082028036833780820191505090505b50925060025467ffffffffffffffff8111156106f6576106f5612423565b5b6040519080825280602002602001820160405280156107245781602001602082028036833780820191505090505b50915060025467ffffffffffffffff81111561074357610742612423565b5b6040519080825280602002602001820160405280156107715781602001602082028036833780820191505090505b5090506000600190505b6002548111610a5d57600080600083815260200190815260200160002090508060000154886001846107ad919061271b565b815181106107be576107bd61274f565b5b6020026020010181815250508060010180546107d9906126bb565b80601f0160208091040260200160405190810160405280929190818152602001828054610805906126bb565b80156108525780601f1061082757610100808354040283529160200191610852565b820191906000526020600020905b81548152906001019060200180831161083557829003601f168201915b505050505087600184610865919061271b565b815181106108765761087561274f565b5b6020026020010181905250806002018054610890906126bb565b80601f01602080910402602001604051908101604052809291908181526020018280546108bc906126bb565b80156109095780601f106108de57610100808354040283529160200191610909565b820191906000526020600020905b8154815290600101906020018083116108ec57829003601f168201915b50505050508660018461091c919061271b565b8151811061092d5761092c61274f565b5b602002602001018190525080600301548560018461094b919061271b565b8151811061095c5761095b61274f565b5b6020026020010181815250508060040160009054906101000a900460ff1684600184610988919061271b565b815181106109995761099861274f565b5b602002602001019060018111156109b3576109b2611cb3565b5b908160018111156109c7576109c6611cb3565b5b815250508060040160019054906101000a900473ffffffffffffffffffffffffffffffffffffffff16836001846109fe919061271b565b81518110610a0f57610a0e61274f565b5b602002602001019073ffffffffffffffffffffffffffffffffffffffff16908173ffffffffffffffffffffffffffffffffffffffff1681525050508080610a559061277e565b91505061077b565b50909192939495565b60025481565b6060600082118015610a8057506002548211155b610abf576040517f08c379a0000000000000000000000000000000000000000000000000000000008152600401610ab690612812565b60405180910390fd5b60016000838152602001908152602001600020805480602002602001604051908101604052809291908181526020016000905b82821015610c8b57838290600052602060002090600702016040518060e00160405290816000820154815260200160018201548152602001600282018054610b39906126bb565b80601f0160208091040260200160405190810160405280929190818152602001828054610b65906126bb565b8015610bb25780601f10610b8757610100808354040283529160200191610bb2565b820191906000526020600020905b815481529060010190602001808311610b9557829003601f168201915b50505050508152602001600382018054610bcb906126bb565b80601f0160208091040260200160405190810160405280929190818152602001828054610bf7906126bb565b8015610c445780601f10610c1957610100808354040283529160200191610c44565b820191906000526020600020905b815481529060010190602001808311610c2757829003601f168201915b5050505050815260200160048201548152602001600582015481526020016006820160009054906101000a900460ff16151515158152505081526020019060010190610af2565b505050509050919050565b606080606080606080600080600190505b6002548111610d1f57600180811115610cc357610cc2611cb3565b5b60008083815260200190815260200160002060040160009054906101000a900460ff166001811115610cf857610cf7611cb3565b5b03610d0c578180610d089061277e565b9250505b8080610d179061277e565b915050610ca7565b508067ffffffffffffffff811115610d3a57610d39612423565b5b604051908082528060200260200182016040528015610d685781602001602082028036833780820191505090505b5096508067ffffffffffffffff811115610d8557610d84612423565b5b604051908082528060200260200182016040528015610db857816020015b6060815260200190600190039081610da35790505b5095508067ffffffffffffffff811115610dd557610dd4612423565b5b604051908082528060200260200182016040528015610e0857816020015b6060815260200190600190039081610df35790505b5094508067ffffffffffffffff811115610e2557610e24612423565b5b604051908082528060200260200182016040528015610e535781602001602082028036833780820191505090505b5093508067ffffffffffffffff811115610e7057610e6f612423565b5b604051908082528060200260200182016040528015610e9e5781602001602082028036833780820191505090505b5092508067ffffffffffffffff811115610ebb57610eba612423565b5b604051908082528060200260200182016040528015610ee95781602001602082028036833780820191505090505b509150600080600190505b60025481116111ea57600180811115610f1057610f0f611cb3565b5b60008083815260200190815260200160002060040160009054906101000a900460ff166001811115610f4557610f44611cb3565b5b036111d7576000806000838152602001908152602001600020905080600001548a8481518110610f7857610f7761274f565b5b602002602001018181525050806001018054610f93906126bb565b80601f0160208091040260200160405190810160405280929190818152602001828054610fbf906126bb565b801561100c5780601f10610fe15761010080835404028352916020019161100c565b820191906000526020600020905b815481529060010190602001808311610fef57829003601f168201915b50505050508984815181106110245761102361274f565b5b602002602001018190525080600201805461103e906126bb565b80601f016020809104026020016040519081016040528092919081815260200182805461106a906126bb565b80156110b75780601f1061108c576101008083540402835291602001916110b7565b820191906000526020600020905b81548152906001019060200180831161109a57829003601f168201915b50505050508884815181106110cf576110ce61274f565b5b602002602001018190525080600301548784815181106110f2576110f161274f565b5b6020026020010181815250508060040160009054906101000a900460ff168684815181106111235761112261274f565b5b6020026020010190600181111561113d5761113c611cb3565b5b9081600181111561115157611150611cb3565b5b815250508060040160019054906101000a900473ffffffffffffffffffffffffffffffffffffffff1685848151811061118d5761118c61274f565b5b602002602001019073ffffffffffffffffffffffffffffffffffffffff16908173ffffffffffffffffffffffffffffffffffffffff168152505082806111d29061277e565b935050505b80806111e29061277e565b915050610ef4565b505050909192939495565b60008511801561120757506002548511155b611246576040517f08c379a000000000000000000000000000000000000000000000000000000000815260040161123d90612812565b60405180910390fd5b60008086815260200190815260200160002060040160019054906101000a900473ffffffffffffffffffffffffffffffffffffffff1673ffffffffffffffffffffffffffffffffffffffff163373ffffffffffffffffffffffffffffffffffffffff16146112e9576040517f08c379a00000000000000000000000000000000000000000000000000000000081526004016112e0906128a4565b60405180910390fd5b6000811180156112fa575060648111155b611339576040517f08c379a000000000000000000000000000000000000000000000000000000000815260040161133090612910565b60405180910390fd5b6003600081548092919061134c9061277e565b9190505550600160008681526020019081526020016000206040518060e001604052806003548152602001878152602001868152602001858152602001848152602001838152602001600015158152509080600181540180825580915050600190039060005260206000209060070201600090919091909150600082015181600001556020820151816001015560408201518160020190816113ee9190612ae2565b5060608201518160030190816114049190612ae2565b506080820151816004015560a0820151816005015560c08201518160060160006101000a81548160ff02191690831515021790555050507fc67423104bf96f5ca8826913ae711e8c2254e1b2c04af907b2312853ed4cbed28560035486846040516114729493929190612bb4565b60405180910390a15050505050565b600260008154809291906114949061277e565b91905055506040518060c0016040528060025481526020018481526020018381526020018281526020016001808111156114d1576114d0611cb3565b5b81526020013373ffffffffffffffffffffffffffffffffffffffff1681525060008060025481526020019081526020016000206000820151816000015560208201518160010190816115239190612ae2565b5060408201518160020190816115399190612ae2565b506060820151816003015560808201518160040160006101000a81548160ff0219169083600181111561156f5761156e611cb3565b5b021790555060a08201518160040160016101000a81548173ffffffffffffffffffffffffffffffffffffffff021916908373ffffffffffffffffffffffffffffffffffffffff1602179055509050507f0c37be42d09c868de3d7b2154026972d847472b2d254f8f2f6a8f1be3a450e6a60025484336040516115f393929190612c00565b60405180910390a1505050565b60008111801561161257506002548111155b611651576040517f08c379a000000000000000000000000000000000000000000000000000000000815260040161164890612812565b60405180910390fd5b600080600083815260200190815260200160002090508060040160019054906101000a900473ffffffffffffffffffffffffffffffffffffffff1673ffffffffffffffffffffffffffffffffffffffff163373ffffffffffffffffffffffffffffffffffffffff16146116f9576040517f08c379a00000000000000000000000000000000000000000000000000000000081526004016116f090612cb0565b60405180910390fd5b60008160040160006101000a81548160ff0219169083600181111561172157611720611cb3565b5b02179055505050565b60006060806000806000808711801561174557506002548711155b611784576040517f08c379a000000000000000000000000000000000000000000000000000000000815260040161177b90612812565b60405180910390fd5b60008060008981526020019081526020016000206040518060c0016040529081600082015481526020016001820180546117bd906126bb565b80601f01602080910402602001604051908101604052809291908181526020018280546117e9906126bb565b80156118365780601f1061180b57610100808354040283529160200191611836565b820191906000526020600020905b81548152906001019060200180831161181957829003601f168201915b5050505050815260200160028201805461184f906126bb565b80601f016020809104026020016040519081016040528092919081815260200182805461187b906126bb565b80156118c85780601f1061189d576101008083540402835291602001916118c8565b820191906000526020600020905b8154815290600101906020018083116118ab57829003601f168201915b50505050508152602001600382015481526020016004820160009054906101000a900460ff166001811115611900576118ff611cb3565b5b600181111561191257611911611cb3565b5b81526020016004820160019054906101000a900473ffffffffffffffffffffffffffffffffffffffff1673ffffffffffffffffffffffffffffffffffffffff1673ffffffffffffffffffffffffffffffffffffffff16815250509050806000015181602001518260400151836060015184608001518560a001519650965096509650965096505091939550919395565b6000821180156119b457506002548211155b6119f3576040517f08c379a00000000000000000000000000000000000000000000000000000000081526004016119ea90612812565b60405180910390fd5b60008083815260200190815260200160002060040160019054906101000a900473ffffffffffffffffffffffffffffffffffffffff1673ffffffffffffffffffffffffffffffffffffffff163373ffffffffffffffffffffffffffffffffffffffff1614611a96576040517f08c379a0000000000000000000000000000000000000000000000000000000008152600401611a8d90612d42565b60405180910390fd5b60006001600084815260200190815260200160002090506000805b8280549050811015611b3b5783838281548110611ad157611ad061274f565b5b90600052602060002090600702016000015403611b2e576001838281548110611afd57611afc61274f565b5b906000526020600020906007020160060160006101000a81548160ff02191690831515021790555060019150611b3b565b8080600101915050611ab1565b5080611b7c576040517f08c379a0000000000000000000000000000000000000000000000000000000008152600401611b7390612dd4565b60405180910390fd5b50505050565b6000819050919050565b611b9581611b82565b82525050565b6000602082019050611bb06000830184611b8c565b92915050565b6000604051905090565b600080fd5b600080fd5b611bd381611b82565b8114611bde57600080fd5b50565b600081359050611bf081611bca565b92915050565b600060208284031215611c0c57611c0b611bc0565b5b6000611c1a84828501611be1565b91505092915050565b600081519050919050565b600082825260208201905092915050565b60005b83811015611c5d578082015181840152602081019050611c42565b60008484015250505050565b6000601f19601f8301169050919050565b6000611c8582611c23565b611c8f8185611c2e565b9350611c9f818560208601611c3f565b611ca881611c69565b840191505092915050565b7f4e487b7100000000000000000000000000000000000000000000000000000000600052602160045260246000fd5b60028110611cf357611cf2611cb3565b5b50565b6000819050611d0482611ce2565b919050565b6000611d1482611cf6565b9050919050565b611d2481611d09565b82525050565b600073ffffffffffffffffffffffffffffffffffffffff82169050919050565b6000611d5582611d2a565b9050919050565b611d6581611d4a565b82525050565b600060c082019050611d806000830189611b8c565b8181036020830152611d928188611c7a565b90508181036040830152611da68187611c7a565b9050611db56060830186611b8c565b611dc26080830185611d1b565b611dcf60a0830184611d5c565b979650505050505050565b60008060408385031215611df157611df0611bc0565b5b6000611dff85828601611be1565b9250506020611e1085828601611be1565b9150509250929050565b60008115159050919050565b611e2f81611e1a565b82525050565b600060e082019050611e4a600083018a611b8c565b611e576020830189611b8c565b8181036040830152611e698188611c7a565b90508181036060830152611e7d8187611c7a565b9050611e8c6080830186611b8c565b611e9960a0830185611b8c565b611ea660c0830184611e26565b98975050505050505050565b600081519050919050565b600082825260208201905092915050565b6000819050602082019050919050565b611ee781611b82565b82525050565b6000611ef98383611ede565b60208301905092915050565b6000602082019050919050565b6000611f1d82611eb2565b611f278185611ebd565b9350611f3283611ece565b8060005b83811015611f63578151611f4a8882611eed565b9750611f5583611f05565b925050600181019050611f36565b5085935050505092915050565b600081519050919050565b600082825260208201905092915050565b6000819050602082019050919050565b600082825260208201905092915050565b6000611fb882611c23565b611fc28185611f9c565b9350611fd2818560208601611c3f565b611fdb81611c69565b840191505092915050565b6000611ff28383611fad565b905092915050565b6000602082019050919050565b600061201282611f70565b61201c8185611f7b565b93508360208202850161202e85611f8c565b8060005b8581101561206a578484038952815161204b8582611fe6565b945061205683611ffa565b925060208a01995050600181019050612032565b50829750879550505050505092915050565b600081519050919050565b600082825260208201905092915050565b6000819050602082019050919050565b6120b181611d09565b82525050565b60006120c383836120a8565b60208301905092915050565b6000602082019050919050565b60006120e78261207c565b6120f18185612087565b93506120fc83612098565b8060005b8381101561212d57815161211488826120b7565b975061211f836120cf565b925050600181019050612100565b5085935050505092915050565b600081519050919050565b600082825260208201905092915050565b6000819050602082019050919050565b61216f81611d4a565b82525050565b60006121818383612166565b60208301905092915050565b6000602082019050919050565b60006121a58261213a565b6121af8185612145565b93506121ba83612156565b8060005b838110156121eb5781516121d28882612175565b97506121dd8361218d565b9250506001810190506121be565b5085935050505092915050565b600060c08201905081810360008301526122128189611f12565b905081810360208301526122268188612007565b9050818103604083015261223a8187612007565b9050818103606083015261224e8186611f12565b9050818103608083015261226281856120dc565b905081810360a0830152612276818461219a565b9050979650505050505050565b600081519050919050565b600082825260208201905092915050565b6000819050602082019050919050565b6122b881611e1a565b82525050565b600060e0830160008301516122d66000860182611ede565b5060208301516122e96020860182611ede565b50604083015184820360408601526123018282611fad565b9150506060830151848203606086015261231b8282611fad565b91505060808301516123306080860182611ede565b5060a083015161234360a0860182611ede565b5060c083015161235660c08601826122af565b508091505092915050565b600061236d83836122be565b905092915050565b6000602082019050919050565b600061238d82612283565b612397818561228e565b9350836020820285016123a98561229f565b8060005b858110156123e557848403895281516123c68582612361565b94506123d183612375565b925060208a019950506001810190506123ad565b50829750879550505050505092915050565b600060208201905081810360008301526124118184612382565b905092915050565b600080fd5b600080fd5b7f4e487b7100000000000000000000000000000000000000000000000000000000600052604160045260246000fd5b61245b82611c69565b810181811067ffffffffffffffff8211171561247a57612479612423565b5b80604052505050565b600061248d611bb6565b90506124998282612452565b919050565b600067ffffffffffffffff8211156124b9576124b8612423565b5b6124c282611c69565b9050602081019050919050565b82818337600083830152505050565b60006124f16124ec8461249e565b612483565b90508281526020810184848401111561250d5761250c61241e565b5b6125188482856124cf565b509392505050565b600082601f83011261253557612534612419565b5b81356125458482602086016124de565b91505092915050565b600080600080600060a0868803121561256a57612569611bc0565b5b600061257888828901611be1565b955050602086013567ffffffffffffffff81111561259957612598611bc5565b5b6125a588828901612520565b945050604086013567ffffffffffffffff8111156125c6576125c5611bc5565b5b6125d288828901612520565b93505060606125e388828901611be1565b92505060806125f488828901611be1565b9150509295509295909350565b60008060006060848603121561261a57612619611bc0565b5b600084013567ffffffffffffffff81111561263857612637611bc5565b5b61264486828701612520565b935050602084013567ffffffffffffffff81111561266557612664611bc5565b5b61267186828701612520565b925050604061268286828701611be1565b9150509250925092565b7f4e487b7100000000000000000000000000000000000000000000000000000000600052602260045260246000fd5b600060028204905060018216806126d357607f821691505b6020821081036126e6576126e561268c565b5b50919050565b7f4e487b7100000000000000000000000000000000000000000000000000000000600052601160045260246000fd5b600061272682611b82565b915061273183611b82565b9250828203905081811115612749576127486126ec565b5b92915050565b7f4e487b7100000000000000000000000000000000000000000000000000000000600052603260045260246000fd5b600061278982611b82565b91507fffffffffffffffffffffffffffffffffffffffffffffffffffffffffffffffff82036127bb576127ba6126ec565b5b600182019050919050565b7f50726f6a65637420646f6573206e6f7420657869737400000000000000000000600082015250565b60006127fc601683611c2e565b9150612807826127c6565b602082019050919050565b6000602082019050818103600083015261282b816127ef565b9050919050565b7f4f6e6c792074686520656d706c6f7965722063616e20616464206d696c65737460008201527f6f6e657300000000000000000000000000000000000000000000000000000000602082015250565b600061288e602483611c2e565b915061289982612832565b604082019050919050565b600060208201905081810360008301526128bd81612881565b9050919050565b7f496e76616c69642070657263656e746167650000000000000000000000000000600082015250565b60006128fa601283611c2e565b9150612905826128c4565b602082019050919050565b60006020820190508181036000830152612929816128ed565b9050919050565b60008190508160005260206000209050919050565b60006020601f8301049050919050565b60008160020a8302905092915050565b6000600883026129957fffffffffffffffffffffffffffffffffffffffffffffffffffffffffffffffff82612955565b61299f8683612955565b95508019841693508086168417925050509392505050565b6000819050919050565b60006129dc6129d76129d284611b82565b6129b7565b611b82565b9050919050565b6000819050919050565b6129f6836129c1565b612a0a612a02826129e3565b848454612965565b825550505050565b600090565b612a1f612a12565b612a2a8184846129ed565b505050565b5b81811015612a4e57612a43600082612a17565b600181019050612a30565b5050565b601f821115612a9357612a6481612930565b612a6d84612945565b81016020851015612a7c578190505b612a90612a8885612945565b830182612a2f565b50505b505050565b60008160020a8304905092915050565b6000612ab960001984600802612a98565b1980831691505092915050565b6000612ad28383612aa8565b9150826002028217905092915050565b612aeb82611c23565b67ffffffffffffffff811115612b0457612b03612423565b5b612b0e82546126bb565b612b19828285612a52565b600060209050601f831160018114612b4c5760008415612b3a578287015190505b612b448582612ac6565b865550612bac565b601f198416612b5a86612930565b60005b82811015612b8257848901518255600182019150602085019450602081019050612b5d565b86831015612b9f5784890151612b9b601f891682612aa8565b8355505b6001600288020188555050505b505050505050565b6000608082019050612bc96000830187611b8c565b612bd66020830186611b8c565b8181036040830152612be88185611c7a565b9050612bf76060830184611b8c565b95945050505050565b6000606082019050612c156000830186611b8c565b8181036020830152612c278185611c7a565b9050612c366040830184611d5c565b949350505050565b7f4f6e6c792074686520656d706c6f7965722063616e20636c6f7365207468697360008201527f2070726f6a656374000000000000000000000000000000000000000000000000602082015250565b6000612c9a602883611c2e565b9150612ca582612c3e565b604082019050919050565b60006020820190508181036000830152612cc981612c8d565b9050919050565b7f4f6e6c792074686520656d706c6f7965722063616e206d61726b206d696c657360008201527f746f6e657320617320636f6d706c657465640000000000000000000000000000602082015250565b6000612d2c603283611c2e565b9150612d3782612cd0565b604082019050919050565b60006020820190508181036000830152612d5b81612d1f565b9050919050565b7f4d696c6573746f6e6520646f6573206e6f7420657869737420696e207468697360008201527f2070726f6a656374000000000000000000000000000000000000000000000000602082015250565b6000612dbe602883611c2e565b9150612dc982612d62565b604082019050919050565b60006020820190508181036000830152612ded81612db1565b905091905056fea2646970667358221220d4fee7798c9297863bbabf5b03f14c8b20c4cf7871e4f4ee70b57c0197d46f9964736f6c634300081c0033",
  "immutableReferences": {},
  "source": "// SPDX-License-Identifier: MIT\r\npragma solidity >=0.8.7;\r\n\r\ncontract Projects {\r\n    \r\n    enum Status { Closed, Open }\r\n\r\n    struct Project {\r\n        uint id;\r\n        string name;\r\n        string description;\r\n        uint reward;\r\n        Status status;\r\n        address employer;\r\n    }\r\n\r\n    struct Milestone {\r\n        uint id;\r\n        uint projectId;\r\n        string name;\r\n        string description;\r\n        uint daycount;\r\n        uint percentage;\r\n        bool completed;\r\n    }\r\n\r\n    mapping(uint => Project) public projects;\r\n    mapping(uint => Milestone[]) public milestones;\r\n\r\n    uint public projectCount;\r\n    uint public milestoneCount;\r\n\r\n    event ProjectAdded(uint id, string name, address employer);\r\n    event MilestoneAdded(uint projectId, uint milestoneId, string name, uint percentage);\r\n\r\n    function addProject(string memory _name, string memory _description, uint _reward) public {\r\n        projectCount++;\r\n        projects[projectCount] = Project({\r\n            id: projectCount,\r\n            name: _name,\r\n            description: _description,\r\n            reward: _reward,\r\n            status: Status.Open,\r\n            employer: msg.sender\r\n        });\r\n\r\n        emit ProjectAdded(projectCount, _name, msg.sender);\r\n    }\r\n\r\n    function addMilestone(uint _projectId, string memory _name, string memory _description, uint _daycount, uint _percentage) public {\r\n        require(_projectId > 0 && _projectId <= projectCount, \"Project does not exist\");\r\n        require(msg.sender == projects[_projectId].employer, \"Only the employer can add milestones\");\r\n        require(_percentage > 0 && _percentage <= 100, \"Invalid percentage\");\r\n\r\n        milestoneCount++;\r\n        milestones[_projectId].push(Milestone({\r\n            id: milestoneCount,\r\n            projectId: _projectId,\r\n            name: _name,\r\n            description: _description,\r\n            daycount: _daycount,\r\n            percentage: _percentage,\r\n            completed: false\r\n        }));\r\n\r\n        emit MilestoneAdded(_projectId, milestoneCount, _name, _percentage);\r\n    }\r\n\r\n    function getProject(uint _id) public view returns (uint, string memory, string memory, uint, Status, address) {\r\n        require(_id > 0 && _id <= projectCount, \"Project does not exist\");\r\n        Project memory proj = projects[_id];\r\n        return (proj.id, proj.name, proj.description, proj.reward, proj.status, proj.employer);\r\n    }\r\n\r\n    function viewProjects() public view returns (\r\n        uint[] memory ids, \r\n        string[] memory names, \r\n        string[] memory descriptions, \r\n        uint[] memory rewards, \r\n        Status[] memory statuses, \r\n        address[] memory employers\r\n    ) {\r\n        ids = new uint[](projectCount);\r\n        names = new string[](projectCount);\r\n        descriptions = new string[](projectCount);\r\n        rewards = new uint[](projectCount);\r\n        statuses = new Status[](projectCount);\r\n        employers = new address[](projectCount);\r\n\r\n        for (uint i = 1; i <= projectCount; i++) {\r\n            Project storage proj = projects[i];\r\n            ids[i - 1] = proj.id;\r\n            names[i - 1] = proj.name;\r\n            descriptions[i - 1] = proj.description;\r\n            rewards[i - 1] = proj.reward;\r\n            statuses[i - 1] = proj.status;\r\n            employers[i - 1] = proj.employer;\r\n        }\r\n\r\n        return (ids, names, descriptions, rewards, statuses, employers);\r\n    }\r\n\r\n    function viewOpenProjects() public view returns (\r\n        uint[] memory ids, \r\n        string[] memory names, \r\n        string[] memory descriptions, \r\n        uint[] memory rewards, \r\n        Status[] memory statuses, \r\n        address[] memory employers\r\n    ) {\r\n        uint openCount = 0;\r\n        for (uint i = 1; i <= projectCount; i++) {\r\n            if (projects[i].status == Status.Open) {\r\n                openCount++;\r\n            }\r\n        }\r\n\r\n        ids = new uint[](openCount);\r\n        names = new string[](openCount);\r\n        descriptions = new string[](openCount);\r\n        rewards = new uint[](openCount);\r\n        statuses = new Status[](openCount);\r\n        employers = new address[](openCount);\r\n\r\n        uint index = 0;\r\n        for (uint i = 1; i <= projectCount; i++) {\r\n            if (projects[i].status == Status.Open) {\r\n                Project storage proj = projects[i];\r\n                ids[index] = proj.id;\r\n                names[index] = proj.name;\r\n                descriptions[index] = proj.description;\r\n                rewards[index] = proj.reward;\r\n                statuses[index] = proj.status;\r\n                employers[index] = proj.employer;\r\n                index++;\r\n            }\r\n        }\r\n\r\n        return (ids, names, descriptions, rewards, statuses, employers);\r\n    }\r\n\r\n    function getMilestones(uint _projectId) public view returns (Milestone[] memory) {\r\n        require(_projectId > 0 && _projectId <= projectCount, \"Project does not exist\");\r\n        return milestones[_projectId];\r\n    }\r\n\r\n    function closeProject(uint _id) public {\r\n        require(_id > 0 && _id <= projectCount, \"Project does not exist\");\r\n        Project storage proj = projects[_id];\r\n        require(msg.sender == proj.employer, \"Only the employer can close this project\");\r\n        proj.status = Status.Closed;\r\n    }\r\n\r\n    function completeMilestone(uint _projectId, uint _milestoneId) public {\r\n        require(_projectId > 0 && _projectId <= projectCount, \"Project does not exist\");\r\n        require(msg.sender == projects[_projectId].employer, \"Only the employer can mark milestones as completed\");\r\n\r\n        Milestone[] storage projectMilestones = milestones[_projectId];\r\n        bool found = false;\r\n\r\n        for (uint i = 0; i < projectMilestones.length; i++) {\r\n            if (projectMilestones[i].id == _milestoneId) {\r\n                projectMilestones[i].completed = true;\r\n                found = true;\r\n                break;\r\n            }\r\n        }\r\n\r\n        require(found, \"Milestone does not exist in this project\");\r\n    }\r\n}\r\n",
  "sourcePath": "C:\\Users\\risha\\Projects\\blockchain\\delance\\contracts\\Projects.sol",
  "compiler": {
    "name": "solc",
    "version": "0.8.28+commit.7893614a.Emscripten.clang"
  },
  "schemaVersion": "3.4.16",
  "updatedAt": "2024-10-29T15:34:31.327Z",
  "networkType": "ethereum",
  "devdoc": {
    "kind": "dev",
    "methods": {},
    "version": 1
  },
  "userdoc": {
    "kind": "user",
    "methods": {},
    "version": 1
  }
}