{
  "contractName": "Projects",
  "abi": [
    {
      "anonymous": false,
      "inputs": [
        {
          "indexed": false,
          "internalType": "uint256",
          "name": "projectId",
          "type": "uint256"
        },
        {
          "indexed": false,
          "internalType": "uint256",
          "name": "milestoneId",
          "type": "uint256"
        },
        {
          "indexed": false,
          "internalType": "string",
          "name": "name",
          "type": "string"
        },
        {
          "indexed": false,
          "internalType": "uint256",
          "name": "percentage",
          "type": "uint256"
        }
      ],
      "name": "MilestoneAdded",
      "type": "event"
    },
    {
      "anonymous": false,
      "inputs": [
        {
          "indexed": false,
          "internalType": "uint256",
          "name": "projectId",
          "type": "uint256"
        },
        {
          "indexed": false,
          "internalType": "uint256",
          "name": "milestoneId",
          "type": "uint256"
        },
        {
          "indexed": false,
          "internalType": "string",
          "name": "proofFileHash",
          "type": "string"
        }
      ],
      "name": "MilestoneProofUploaded",
      "type": "event"
    },
    {
      "anonymous": false,
      "inputs": [
        {
          "indexed": false,
          "internalType": "uint256",
          "name": "id",
          "type": "uint256"
        },
        {
          "indexed": false,
          "internalType": "string",
          "name": "name",
          "type": "string"
        },
        {
          "indexed": false,
          "internalType": "address",
          "name": "employer",
          "type": "address"
        }
      ],
      "name": "ProjectAdded",
      "type": "event"
    },
    {
      "inputs": [
        {
          "internalType": "address",
          "name": "",
          "type": "address"
        }
      ],
      "name": "freelancerRatings",
      "outputs": [
        {
          "internalType": "uint256",
          "name": "",
          "type": "uint256"
        }
      ],
      "stateMutability": "view",
      "type": "function"
    },
    {
      "inputs": [],
      "name": "milestoneCount",
      "outputs": [
        {
          "internalType": "uint256",
          "name": "",
          "type": "uint256"
        }
      ],
      "stateMutability": "view",
      "type": "function"
    },
    {
      "inputs": [
        {
          "internalType": "uint256",
          "name": "",
          "type": "uint256"
        },
        {
          "internalType": "uint256",
          "name": "",
          "type": "uint256"
        }
      ],
      "name": "milestones",
      "outputs": [
        {
          "internalType": "uint256",
          "name": "id",
          "type": "uint256"
        },
        {
          "internalType": "uint256",
          "name": "projectId",
          "type": "uint256"
        },
        {
          "internalType": "string",
          "name": "name",
          "type": "string"
        },
        {
          "internalType": "string",
          "name": "description",
          "type": "string"
        },
        {
          "internalType": "uint256",
          "name": "daycount",
          "type": "uint256"
        },
        {
          "internalType": "uint256",
          "name": "percentage",
          "type": "uint256"
        },
        {
          "internalType": "bool",
          "name": "completed",
          "type": "bool"
        },
        {
          "internalType": "string",
          "name": "proofFileHash",
          "type": "string"
        }
      ],
      "stateMutability": "view",
      "type": "function"
    },
    {
      "inputs": [],
      "name": "projectCount",
      "outputs": [
        {
          "internalType": "uint256",
          "name": "",
          "type": "uint256"
        }
      ],
      "stateMutability": "view",
      "type": "function"
    },
    {
      "inputs": [
        {
          "internalType": "uint256",
          "name": "",
          "type": "uint256"
        }
      ],
      "name": "projects",
      "outputs": [
        {
          "internalType": "uint256",
          "name": "id",
          "type": "uint256"
        },
        {
          "internalType": "string",
          "name": "name",
          "type": "string"
        },
        {
          "internalType": "string",
          "name": "description",
          "type": "string"
        },
        {
          "internalType": "uint256",
          "name": "reward",
          "type": "uint256"
        },
        {
          "internalType": "enum Projects.Status",
          "name": "status",
          "type": "uint8"
        },
        {
          "internalType": "address",
          "name": "employer",
          "type": "address"
        }
      ],
      "stateMutability": "view",
      "type": "function"
    },
    {
      "inputs": [
        {
          "internalType": "string",
          "name": "_name",
          "type": "string"
        },
        {
          "internalType": "string",
          "name": "_description",
          "type": "string"
        },
        {
          "internalType": "uint256",
          "name": "_reward",
          "type": "uint256"
        }
      ],
      "name": "addProject",
      "outputs": [],
      "stateMutability": "nonpayable",
      "type": "function"
    },
    {
      "inputs": [
        {
          "internalType": "uint256",
          "name": "_projectId",
          "type": "uint256"
        },
        {
          "internalType": "string",
          "name": "_name",
          "type": "string"
        },
        {
          "internalType": "string",
          "name": "_description",
          "type": "string"
        },
        {
          "internalType": "uint256",
          "name": "_daycount",
          "type": "uint256"
        },
        {
          "internalType": "uint256",
          "name": "_percentage",
          "type": "uint256"
        }
      ],
      "name": "addMilestone",
      "outputs": [],
      "stateMutability": "nonpayable",
      "type": "function"
    },
    {
      "inputs": [
        {
          "internalType": "uint256",
          "name": "_projectId",
          "type": "uint256"
        },
        {
          "internalType": "uint256",
          "name": "_milestoneId",
          "type": "uint256"
        },
        {
          "internalType": "address",
          "name": "_freelancer",
          "type": "address"
        },
        {
          "internalType": "string",
          "name": "_proofFileHash",
          "type": "string"
        }
      ],
      "name": "uploadMilestoneProof",
      "outputs": [],
      "stateMutability": "nonpayable",
      "type": "function"
    },
    {
      "inputs": [
        {
          "internalType": "address",
          "name": "_freelancer",
          "type": "address"
        }
      ],
      "name": "getFreelancerRating",
      "outputs": [
        {
          "internalType": "uint256",
          "name": "",
          "type": "uint256"
        }
      ],
      "stateMutability": "view",
      "type": "function"
    },
    {
      "inputs": [
        {
          "internalType": "uint256",
          "name": "_id",
          "type": "uint256"
        }
      ],
      "name": "getProject",
      "outputs": [
        {
          "internalType": "uint256",
          "name": "",
          "type": "uint256"
        },
        {
          "internalType": "string",
          "name": "",
          "type": "string"
        },
        {
          "internalType": "string",
          "name": "",
          "type": "string"
        },
        {
          "internalType": "uint256",
          "name": "",
          "type": "uint256"
        },
        {
          "internalType": "enum Projects.Status",
          "name": "",
          "type": "uint8"
        },
        {
          "internalType": "address",
          "name": "",
          "type": "address"
        }
      ],
      "stateMutability": "view",
      "type": "function"
    },
    {
      "inputs": [],
      "name": "viewProjects",
      "outputs": [
        {
          "internalType": "uint256[]",
          "name": "ids",
          "type": "uint256[]"
        },
        {
          "internalType": "string[]",
          "name": "names",
          "type": "string[]"
        },
        {
          "internalType": "string[]",
          "name": "descriptions",
          "type": "string[]"
        },
        {
          "internalType": "uint256[]",
          "name": "rewards",
          "type": "uint256[]"
        },
        {
          "internalType": "enum Projects.Status[]",
          "name": "statuses",
          "type": "uint8[]"
        },
        {
          "internalType": "address[]",
          "name": "employers",
          "type": "address[]"
        }
      ],
      "stateMutability": "view",
      "type": "function"
    },
    {
      "inputs": [],
      "name": "viewOpenProjects",
      "outputs": [
        {
          "internalType": "uint256[]",
          "name": "ids",
          "type": "uint256[]"
        },
        {
          "internalType": "string[]",
          "name": "names",
          "type": "string[]"
        },
        {
          "internalType": "string[]",
          "name": "descriptions",
          "type": "string[]"
        },
        {
          "internalType": "uint256[]",
          "name": "rewards",
          "type": "uint256[]"
        },
        {
          "internalType": "enum Projects.Status[]",
          "name": "statuses",
          "type": "uint8[]"
        },
        {
          "internalType": "address[]",
          "name": "employers",
          "type": "address[]"
        }
      ],
      "stateMutability": "view",
      "type": "function"
    },
    {
      "inputs": [
        {
          "internalType": "uint256",
          "name": "_projectId",
          "type": "uint256"
        }
      ],
      "name": "getMilestones",
      "outputs": [
        {
          "internalType": "uint256[]",
          "name": "ids",
          "type": "uint256[]"
        },
        {
          "internalType": "uint256[]",
          "name": "projectIds",
          "type": "uint256[]"
        },
        {
          "internalType": "string[]",
          "name": "names",
          "type": "string[]"
        },
        {
          "internalType": "string[]",
          "name": "descriptions",
          "type": "string[]"
        },
        {
          "internalType": "uint256[]",
          "name": "daycounts",
          "type": "uint256[]"
        },
        {
          "internalType": "uint256[]",
          "name": "percentages",
          "type": "uint256[]"
        },
        {
          "internalType": "bool[]",
          "name": "completions",
          "type": "bool[]"
        },
        {
          "internalType": "string[]",
          "name": "proofFileHashes",
          "type": "string[]"
        }
      ],
      "stateMutability": "view",
      "type": "function"
    },
    {
      "inputs": [
        {
          "internalType": "uint256",
          "name": "_id",
          "type": "uint256"
        }
      ],
      "name": "closeProject",
      "outputs": [],
      "stateMutability": "nonpayable",
      "type": "function"
    },
    {
      "inputs": [
        {
          "internalType": "uint256",
          "name": "_projectId",
          "type": "uint256"
        },
        {
          "internalType": "uint256",
          "name": "_milestoneId",
          "type": "uint256"
        }
      ],
      "name": "completeMilestone",
      "outputs": [],
      "stateMutability": "nonpayable",
      "type": "function"
    },
    {
      "inputs": [
        {
          "internalType": "address",
          "name": "_freelancer",
          "type": "address"
        },
        {
          "internalType": "uint256",
          "name": "_rating",
          "type": "uint256"
        }
      ],
      "name": "setFreelancerRating",
      "outputs": [],
      "stateMutability": "nonpayable",
      "type": "function"
    }
  ],
  "bytecode": "0x60808060405234601557611bdb908161001a8239f35b5f80fdfe60806040526004361015610011575f80fd5b5f3560e01c8063063dca0c146116b55780630681ca5514611698578063107046bd146116325780631c376c631461156c57806327db21e11461140b578063310f94111461146057806336fbad26146114435780633a766ddf1461140b57806342c549c01461112757806353eef06014610f87578063563700d5146109cf5780635fd4f7581461067457806393dc12e6146105be578063d0b20691146102ea578063f0f3f2c8146101f55763f326206b146100c9575f80fd5b346101f1576100d7366118b1565b90801515806101e5575b6100ea90611b60565b811515806101cf575b1561018a575f52600160205260405f205f1982019182116101765760069161011a916118c7565b5001805460ff81166101315760ff19166001179055005b60405162461bcd60e51b815260206004820152601b60248201527f4d696c6573746f6e6520616c726561647920636f6d706c6574656400000000006044820152606490fd5b634e487b7160e01b5f52601160045260245ffd5b60405162461bcd60e51b815260206004820152601860248201527f4d696c6573746f6e6520646f6573206e6f7420657869737400000000000000006044820152606490fd5b50805f52600160205260405f20548211156100f3565b506003548111156100e1565b5f80fd5b346101f15760203660031901126101f157600435801515806102de575b61021b90611b60565b5f525f60205260405f2060405161023181611754565b8154815261024160018301611790565b906020810191825261025560028401611790565b9260408201938452600460038201549160608401928352015491608081019061028160ff851683611b54565b60089390931c6001600160a01b031660a08401908152925193519451915190519060028210156102ca576102c69360018060a01b039051169260405196879687611861565b0390f35b634e487b7160e01b5f52602160045260245ffd5b50600354811115610212565b346101f15760803660031901126101f1576044356001600160a01b0381169060243590600435908390036101f1576064356001600160401b0381116101f157610337903690600401611a4b565b92811515806105b2575b61034a90611b60565b33036105575781151580610541575b1561050557805f52600160205260405f205f1983019083821161017657600791610382916118c7565b500183516001600160401b0381116104f15761039e8254611700565b601f81116104ac575b506020601f82116001146104265791817fa242dc265ec329d765b4d1175eb5f3d36f052da4b6bf61b340d71ca9846ca7a29692610416945f9161041b575b508160011b915f199060031b1c19161790555b60405193849384526020840152606060408401526060830190611830565b0390a1005b9050830151886103e5565b601f19821690835f52805f20915f5b8181106104945750926104169492600192827fa242dc265ec329d765b4d1175eb5f3d36f052da4b6bf61b340d71ca9846ca7a29a961061047c575b5050811b0190556103f8565b8501515f1960f88460031b161c191690558880610470565b9192602060018192868c015181550194019201610435565b825f5260205f20601f830160051c810191602084106104e7575b601f0160051c01905b8181106104dc57506103a7565b5f81556001016104cf565b90915081906104c6565b634e487b7160e01b5f52604160045260245ffd5b60405162461bcd60e51b8152602060048201526014602482015273125b9d985b1a59081b5a5b195cdd1bdb9948125160621b6044820152606490fd5b50805f52600160205260405f2054821115610359565b60405162461bcd60e51b815260206004820152602d60248201527f4f6e6c79207468652061737369676e656420667265656c616e6365722063616e60448201526c103ab83637b0b210383937b7b360991b6064820152608490fd5b50600354821115610341565b346101f15760203660031901126101f15760043580151580610668575b6105e490611b60565b5f908152602081905260409020600401805460081c6001600160a01b0316330361061257805460ff19169055005b60405162461bcd60e51b815260206004820152602860248201527f4f6e6c792074686520656d706c6f7965722063616e20636c6f73652074686973604482015267081c1c9bda9958dd60c21b6064820152608490fd5b506003548111156105db565b346101f15760603660031901126101f1576004356001600160401b0381116101f1576106a4903690600401611a4b565b6024356001600160401b0381116101f1576106c3903690600401611a4b565b906106cf600354611b32565b90816003556040516106e081611754565b82815260208101908282526040810194855260608101604435815260808201926001845260a08301953387525f525f60205260405f20925183556001830190518051906001600160401b0382116104f157819061073d8454611700565b601f811161097f575b50602090601f831160011461091c575f92610911575b50508160011b915f199060031b1c19161790555b6002820195519586516001600160401b0381116104f1576107918254611700565b601f81116108cc575b506020601f82116001146108655781906004969798995f9261085a575b50508160011b915f199060031b1c19161790555b5160038201550190519260028410156102ca5781549051610100600160a81b0360089190911b1660ff949094166001600160a81b031990911617929092179091556003546040519081526060602082018190527f0c37be42d09c868de3d7b2154026972d847472b2d254f8f2f6a8f1be3a450e6a92829161084f9190830190611830565b3360408301520390a1005b0151905089806107b7565b601f19821698835f52815f20995f5b8181106108b457509160049798999a9184600195941061089c575b505050811b0190556107cb565b01515f1960f88460031b161c1916905589808061088f565b838301518c556001909b019a60209384019301610874565b825f5260205f20601f830160051c81019160208410610907575b601f0160051c01905b8181106108fc575061079a565b5f81556001016108ef565b90915081906108e6565b01519050898061075c565b5f8581528281209350601f198516905b818110610967575090846001959493921061094f575b505050811b019055610770565b01515f1960f88460031b161c19169055898080610942565b9293602060018192878601518155019501930161092c565b909150835f5260205f20601f840160051c810191602085106109c5575b90601f859493920160051c01905b8181106109b75750610746565b5f81558493506001016109aa565b909150819061099c565b346101f15760a03660031901126101f1576004356024356001600160401b0381116101f157610a02903690600401611a4b565b6044356001600160401b0381116101f157610a21903690600401611a4b565b916084359080151580610f7b575b610a3890611b60565b5f8181526020819052604090206004015460081c6001600160a01b03163303610f2a5781151580610f1f575b15610ee557610a74600454611b32565b9182600455815f52600160205260405f2060405193610a9285611738565b84526020840193838552604081018681526060820197885260808201606435815260a083019085825260c08401925f845260209860405196610ad48b8961176f565b5f885260e087019788528054680100000000000000008110156104f157610b00916001820181556118c7565b969096610ed25751865551600186015551805160028601916001600160401b0382116104f1578190610b328454611700565b601f8111610e84575b508b90601f8311600114610e20575f92610e15575b50508160011b915f199060031b1c19161790555b600384019951998a516001600160401b0381116104f157610b858254611700565b601f8111610dd2575b5089601f8211600114610d65578190600798999a9b9c9d5f92610d5a575b50508160011b915f199060031b1c19161790555b516004840155516005830155600682019051151560ff801983541691161790550190518051906001600160401b0382116104f157610bfe8354611700565b601f8111610d17575b508590601f8311600114610c8f579180610c7994927fc67423104bf96f5ca8826913ae711e8c2254e1b2c04af907b2312853ed4cbed299945f92610c84575b50508160011b915f199060031b1c19161790555b6004546040519586958652850152608060408501526080840190611830565b9060608301520390a1005b015190508980610c46565b90601f19831691845f52875f20925f5b818110610d0057509260019285927fc67423104bf96f5ca8826913ae711e8c2254e1b2c04af907b2312853ed4cbed29b96610c79989610610ce8575b505050811b019055610c5a565b01515f1960f88460031b161c19169055898080610cdb565b929389600181928786015181550195019301610c9f565b835f52865f20601f840160051c810191888510610d50575b601f0160051c01905b818110610d455750610c07565b5f8155600101610d38565b9091508190610d2f565b015190508d80610bac565b601f1982169c835f528b5f209d5f5b818110610db65750916007999a9b9c9d9e91846001959410610d9e575b505050811b019055610bc0565b01515f1960f88460031b161c191690558d8080610d91565b919e8f60018f928684930151815501940192019e91929e610d74565b825f528a5f20601f830160051c8101918c8410610e0b575b601f0160051c01905b818110610e005750610b8e565b5f8155600101610df3565b9091508190610dea565b015190508d80610b50565b5f8581528d81209350601f198516908e5b828210610e6d575050908460019594939210610e55575b505050811b019055610b64565b01515f1960f88460031b161c191690558d8080610e48565b60018596829396860151815501950193018e610e31565b909150835f528b5f20601f840160051c8101918d8510610ec8575b90601f859493920160051c01905b818110610eba5750610b3b565b5f8155849350600101610ead565b9091508190610e9f565b634e487b7160e01b5f525f60045260245ffd5b60405162461bcd60e51b8152602060048201526012602482015271496e76616c69642070657263656e7461676560701b6044820152606490fd5b506064821115610a64565b60405162461bcd60e51b8152602060048201526024808201527f4f6e6c792074686520656d706c6f7965722063616e20616464206d696c6573746044820152636f6e657360e01b6064820152608490fd5b50600354811115610a2f565b346101f1575f3660031901126101f1575f6001600354905b818111156110e15750610fb182611ab7565b610fba83611ae9565b91610fc484611ae9565b93610fce81611ab7565b610fe0610fda83611ab7565b92611ab7565b925f60015b82811115611002575050506102c69394956040519687968761197f565b805f525f60205260ff600460405f2001541660028110156102ca57898960018a931461103a575b50505061103590611b32565b610fe5565b6110d69261109186809461108488996004966110359a5f525f60205260405f209661106783895492611b40565b5261107460018801611790565b61107e8383611b40565b52611b40565b5061107460028501611790565b5060038101546110a1848a611b40565b5201546110ba60ff82166110b5848b611b40565b611b54565b60081c6001600160a01b03166110d0828a611b40565b52611b32565b919050868989611029565b805f525f60205260ff600460405f2001541660028110156102ca57600114611112575b61110d90611b32565b610f9f565b9161111f61110d91611b32565b929050611104565b346101f15760203660031901126101f157600435801515806113ff575b61114d90611b60565b5f52600160205260405f20805461116381611aa0565b91611171604051938461176f565b81835260208301905f5260205f205f915b83831061137c5784805161119581611ab7565b9161119f82611ab7565b6111a883611ae9565b6111b184611ae9565b6111ba85611ab7565b916111c486611ab7565b966111ce87611aa0565b946111dc604051968761176f565b8786526111e888611aa0565b602087019890601f1901368a376111fe81611ae9565b975f5b8281106112c757505050936112656112819461125761123c9a9b956112496112739660209a6040519e8f9261010084526101008401906118f4565b918c8184039101526118f4565b8c810360408e015290611927565b908a820360608c0152611927565b9088820360808a01526118f4565b9086820360a08801526118f4565b9184830360c086015251918281520193905f5b8181106112af5784806102c6888783820360e0850152611927565b82511515865260209586019590920191600101611294565b8060e08d6112d760019486611b40565b519081516112e5858b611b40565b5260208201516112f5858a611b40565b526040820151611305858c611b40565b52611310848b611b40565b506060820151611320858d611b40565b5261132b848c611b40565b50608082015161133b858e611b40565b5261134b8460a084015192611b40565b5260c0810151151561135d848e611b40565b52015161136a828d611b40565b52611375818c611b40565b5001611201565b6008602060019260405161138f81611738565b8554815284860154838201526113a760028701611790565b60408201526113b860038701611790565b606082015260048601546080820152600586015460a082015260ff600687015416151560c08201526113ec60078701611790565b60e0820152815201920192019190611182565b50600354811115611144565b346101f15760203660031901126101f1576001600160a01b0361142c6116ea565b165f526002602052602060405f2054604051908152f35b346101f1575f3660031901126101f1576020600354604051908152f35b346101f1575f3660031901126101f15760035461147c81611ab7565b61148582611ae9565b9161148f81611ae9565b61149882611ab7565b6114a183611ab7565b916114ab84611ab7565b9360015b818111156114cc575050906102c69392916040519687968761197f565b805f525f60205260405f20908154915f198201908282116101765760046110d09161150e848e611567988f8361150191611b40565b5261107460018501611790565b5061151b60028201611790565b611525858a611b40565b526115308489611b40565b506003810154611540858b611b40565b52015461155460ff82166110b5858c611b40565b60081c6001600160a01b03169189611b40565b6114af565b346101f15761157a366118b1565b905f52600160205260405f209081548110156101f157611599916118c7565b5080546102c66001830154926115b160028201611790565b6115bd60038301611790565b916004810154926116136005830154916116056115e4600760ff6006880154169601611790565b956040519a8b9a8b5260208b015261010060408b01526101008a0190611830565b9088820360608a0152611830565b93608087015260a0860152151560c085015283820360e0850152611830565b346101f15760203660031901126101f1576004355f525f60205260405f208054906102c661166260018301611790565b9161166f60028201611790565b93600460038301549201549160405195869560ff60018060a01b038660081c1695169387611861565b346101f1575f3660031901126101f1576020600454604051908152f35b346101f15760403660031901126101f1576001600160a01b036116d66116ea565b165f52600260205260243560405f20555f80f35b600435906001600160a01b03821682036101f157565b90600182811c9216801561172e575b602083101461171a57565b634e487b7160e01b5f52602260045260245ffd5b91607f169161170f565b61010081019081106001600160401b038211176104f157604052565b60c081019081106001600160401b038211176104f157604052565b90601f801991011681019081106001600160401b038211176104f157604052565b9060405191825f8254926117a384611700565b808452936001811690811561180e57506001146117ca575b506117c89250038361176f565b565b90505f9291925260205f20905f915b8183106117f25750509060206117c8928201015f6117bb565b60209193508060019154838589010152019101909184926117d9565b9050602092506117c894915060ff191682840152151560051b8201015f6117bb565b805180835260209291819084018484015e5f828201840152601f01601f1916010190565b9060028210156102ca5752565b949060a0949796936118876118a59461189593895260c060208a015260c0890190611830565b908782036040890152611830565b9660608601526080850190611854565b600180831b0316910152565b60409060031901126101f1576004359060243590565b80548210156118e0575f5260205f209060031b01905f90565b634e487b7160e01b5f52603260045260245ffd5b90602080835192838152019201905f5b8181106119115750505090565b8251845260209384019390920191600101611904565b9080602083519182815201916020808360051b8301019401925f915b83831061195257505050505090565b9091929394602080611970600193601f198682030187528951611830565b97019301930191939290611943565b9391926119ac6119c89461199e6119ba9460c0895260c08901906118f4565b908782036020890152611927565b908582036040870152611927565b9083820360608501526118f4565b8181036080830152602080845192838152019301905f5b818110611a2c5750505060a0818303910152602080835192838152019201905f5b818110611a0d5750505090565b82516001600160a01b0316845260209384019390920191600101611a00565b90919360208082611a406001948951611854565b0195019291016119df565b81601f820112156101f1578035906001600160401b0382116104f15760405192611a7f601f8401601f19166020018561176f565b828452602083830101116101f157815f926020809301838601378301015290565b6001600160401b0381116104f15760051b60200190565b90611ac182611aa0565b611ace604051918261176f565b8281528092611adf601f1991611aa0565b0190602036910137565b90611af382611aa0565b611b00604051918261176f565b8281528092611b11601f1991611aa0565b01905f5b828110611b2157505050565b806060602080938501015201611b15565b5f1981146101765760010190565b80518210156118e05760209160051b010190565b60028210156102ca5752565b15611b6757565b60405162461bcd60e51b8152602060048201526016602482015275141c9bda9958dd08191bd95cc81b9bdd08195e1a5cdd60521b6044820152606490fdfea26469706673582212205a82f2d1c40818aa6529127fced4d8334fae2991919d46b97ea54e0b92308d5364736f6c634300081c0033",
  "immutableReferences": {},
  "source": "// SPDX-License-Identifier: MIT\r\npragma solidity >=0.8.7;\r\n\r\n// import \"./RequestManager.sol\";\r\n\r\ncontract Projects {\r\n    \r\n    enum Status { Closed, Open }\r\n\r\n    struct Project {\r\n        uint id;\r\n        string name;\r\n        string description;\r\n        uint reward;\r\n        Status status;\r\n        address employer;\r\n    }\r\n\r\n    struct Milestone {\r\n        uint id;\r\n        uint projectId;\r\n        string name;\r\n        string description;\r\n        uint daycount;\r\n        uint percentage;\r\n        bool completed;\r\n        string proofFileHash; // To store proof file hash\r\n    }\r\n\r\n    mapping(uint => Project) public projects;\r\n    mapping(uint => Milestone[]) public milestones;\r\n    mapping(address => uint) public freelancerRatings; // Map freelancer address to their rating (in basis points out of 5 * 100)\r\n\r\n    uint public projectCount;\r\n    uint public milestoneCount;\r\n\r\n    // RequestManager public requestManager;\r\n\r\n    event ProjectAdded(uint id, string name, address employer);\r\n    event MilestoneAdded(uint projectId, uint milestoneId, string name, uint percentage);\r\n    event MilestoneProofUploaded(uint projectId, uint milestoneId, string proofFileHash);\r\n    // constructor(address _requestManager) {\r\n    //     requestManager = RequestManager(_requestManager);\r\n    // }\r\n\r\n    function addProject(string memory _name, string memory _description, uint _reward) public {\r\n        projectCount++;\r\n        projects[projectCount] = Project({\r\n            id: projectCount,\r\n            name: _name,\r\n            description: _description,\r\n            reward: _reward,\r\n            status: Status.Open,\r\n            employer: msg.sender\r\n        });\r\n\r\n        emit ProjectAdded(projectCount, _name, msg.sender);\r\n    }\r\n\r\n    function addMilestone(uint _projectId, string memory _name, string memory _description, uint _daycount, uint _percentage) public {\r\n        require(_projectId > 0 && _projectId <= projectCount, \"Project does not exist\");\r\n        require(msg.sender == projects[_projectId].employer, \"Only the employer can add milestones\");\r\n        require(_percentage > 0 && _percentage <= 100, \"Invalid percentage\");\r\n\r\n        milestoneCount++;\r\n        milestones[_projectId].push(Milestone({\r\n            id: milestoneCount,\r\n            projectId: _projectId,\r\n            name: _name,\r\n            description: _description,\r\n            daycount: _daycount,\r\n            percentage: _percentage,\r\n            completed: false,\r\n            proofFileHash: \"\" // Initialize proof file hash as empty\r\n        }));\r\n\r\n        emit MilestoneAdded(_projectId, milestoneCount, _name, _percentage);\r\n    }\r\n\r\n    function uploadMilestoneProof(uint _projectId, uint _milestoneId, address _freelancer, string memory _proofFileHash) public {\r\n        require(_projectId > 0 && _projectId <= projectCount, \"Project does not exist\");\r\n        require(msg.sender == _freelancer, \"Only the assigned freelancer can upload proof\");\r\n\r\n        // Check if the milestone exists\r\n        require(_milestoneId > 0 && _milestoneId <= milestones[_projectId].length, \"Invalid milestone ID\");\r\n\r\n        // Store the proof file hash for the milestone\r\n        milestones[_projectId][_milestoneId - 1].proofFileHash = _proofFileHash;\r\n\r\n        emit MilestoneProofUploaded(_projectId, _milestoneId, _proofFileHash);\r\n    }\r\n\r\n    function getFreelancerRating(address _freelancer) public view returns (uint) {\r\n        return freelancerRatings[_freelancer];\r\n    }\r\n\r\n    function getProject(uint _id) public view returns (uint, string memory, string memory, uint, Status, address) {\r\n        require(_id > 0 && _id <= projectCount, \"Project does not exist\");\r\n        Project memory proj = projects[_id];\r\n        return (proj.id, proj.name, proj.description, proj.reward, proj.status, proj.employer);\r\n    }\r\n\r\n    function viewProjects() public view returns (\r\n        uint[] memory ids, \r\n        string[] memory names, \r\n        string[] memory descriptions, \r\n        uint[] memory rewards, \r\n        Status[] memory statuses, \r\n        address[] memory employers\r\n    ) {\r\n        ids = new uint[](projectCount);\r\n        names = new string[](projectCount);\r\n        descriptions = new string[](projectCount);\r\n        rewards = new uint[](projectCount);\r\n        statuses = new Status[](projectCount);\r\n        employers = new address[](projectCount);\r\n\r\n        for (uint i = 1; i <= projectCount; i++) {\r\n            Project storage proj = projects[i];\r\n            ids[i - 1] = proj.id;\r\n            names[i - 1] = proj.name;\r\n            descriptions[i - 1] = proj.description;\r\n            rewards[i - 1] = proj.reward;\r\n            statuses[i - 1] = proj.status;\r\n            employers[i - 1] = proj.employer;\r\n        }\r\n\r\n        return (ids, names, descriptions, rewards, statuses, employers);\r\n    }\r\n\r\n    function viewOpenProjects() public view returns (\r\n        uint[] memory ids, \r\n        string[] memory names, \r\n        string[] memory descriptions, \r\n        uint[] memory rewards, \r\n        Status[] memory statuses, \r\n        address[] memory employers\r\n    ) {\r\n        uint openCount = 0;\r\n        for (uint i = 1; i <= projectCount; i++) {\r\n            if (projects[i].status == Status.Open) {\r\n                openCount++;\r\n            }\r\n        }\r\n\r\n        ids = new uint[](openCount);\r\n        names = new string[](openCount);\r\n        descriptions = new string[](openCount);\r\n        rewards = new uint[](openCount);\r\n        statuses = new Status[](openCount);\r\n        employers = new address[](openCount);\r\n\r\n        uint index = 0;\r\n        for (uint i = 1; i <= projectCount; i++) {\r\n            if (projects[i].status == Status.Open) {\r\n                Project storage proj = projects[i];\r\n                ids[index] = proj.id;\r\n                names[index] = proj.name;\r\n                descriptions[index] = proj.description;\r\n                rewards[index] = proj.reward;\r\n                statuses[index] = proj.status;\r\n                employers[index] = proj.employer;\r\n                index++;\r\n            }\r\n        }\r\n\r\n        return (ids, names, descriptions, rewards, statuses, employers);\r\n    }\r\n\r\n    function getMilestones(uint _projectId) \r\n        public view \r\n        returns (\r\n            uint[] memory ids, \r\n            uint[] memory projectIds, \r\n            string[] memory names, \r\n            string[] memory descriptions, \r\n            uint[] memory daycounts, \r\n            uint[] memory percentages, \r\n            bool[] memory completions, \r\n            string[] memory proofFileHashes\r\n        ) \r\n    {\r\n        require(_projectId > 0 && _projectId <= projectCount, \"Project does not exist\");\r\n\r\n        Milestone[] memory projectMilestones = milestones[_projectId];\r\n        uint milestonesCount = projectMilestones.length;\r\n\r\n        // Initialize arrays for each field in Milestone\r\n        ids = new uint[](milestonesCount);\r\n        projectIds = new uint[](milestonesCount);\r\n        names = new string[](milestonesCount);\r\n        descriptions = new string[](milestonesCount);\r\n        daycounts = new uint[](milestonesCount);\r\n        percentages = new uint[](milestonesCount);\r\n        completions = new bool[](milestonesCount);\r\n        proofFileHashes = new string[](milestonesCount);\r\n\r\n        // Populate each array with the corresponding data from each milestone\r\n        for (uint i = 0; i < milestonesCount; i++) {\r\n            Milestone memory milestone = projectMilestones[i];\r\n            ids[i] = milestone.id;\r\n            projectIds[i] = milestone.projectId;\r\n            names[i] = milestone.name;\r\n            descriptions[i] = milestone.description;\r\n            daycounts[i] = milestone.daycount;\r\n            percentages[i] = milestone.percentage;\r\n            completions[i] = milestone.completed;\r\n            proofFileHashes[i] = milestone.proofFileHash;\r\n        }\r\n\r\n        return (\r\n            ids, \r\n            projectIds, \r\n            names, \r\n            descriptions, \r\n            daycounts, \r\n            percentages, \r\n            completions, \r\n            proofFileHashes\r\n        );\r\n    }\r\n\r\n    function closeProject(uint _id) public {\r\n        require(_id > 0 && _id <= projectCount, \"Project does not exist\");\r\n        Project storage proj = projects[_id];\r\n        require(msg.sender == proj.employer, \"Only the employer can close this project\");\r\n        proj.status = Status.Closed;\r\n    }\r\n\r\n    function completeMilestone(uint _projectId, uint _milestoneId) public {\r\n        require(_projectId > 0 && _projectId <= projectCount, \"Project does not exist\");\r\n        require(_milestoneId > 0 && _milestoneId <= milestones[_projectId].length, \"Milestone does not exist\");\r\n        \r\n        Milestone storage milestone = milestones[_projectId][_milestoneId - 1];\r\n        require(!milestone.completed, \"Milestone already completed\");\r\n        \r\n        milestone.completed = true; // Mark the milestone as completed\r\n    }\r\n\r\n    function setFreelancerRating(address _freelancer, uint _rating) public {\r\n        // Ensure only the owner of the contract can set the rating\r\n        // require(msg.sender == owner, \"Only the owner can set the rating\"); // Adjust ownership logic as necessary\r\n        freelancerRatings[_freelancer] = _rating;\r\n    }\r\n\r\n\r\n}\r\n",
  "sourcePath": "C:\\Users\\Shashwat Chaturvedi\\OneDrive - iiit-b\\college\\projects\\delance\\truffle_project\\contracts\\Projects.sol",
  "compiler": {
    "name": "solc",
    "version": "0.8.28+commit.7893614a.Emscripten.clang"
  },
  "schemaVersion": "3.4.16",
  "updatedAt": "2024-11-01T17:45:15.827Z",
  "devdoc": {
    "kind": "dev",
    "methods": {},
    "version": 1
  },
  "userdoc": {
    "kind": "user",
    "methods": {},
    "version": 1
  }
}