{
  "contractName": "Projects",
  "abi": [
    {
      "anonymous": false,
      "inputs": [
        {
          "indexed": false,
          "internalType": "uint256",
          "name": "projectId",
          "type": "uint256"
        },
        {
          "indexed": false,
          "internalType": "uint256",
          "name": "milestoneId",
          "type": "uint256"
        },
        {
          "indexed": false,
          "internalType": "string",
          "name": "name",
          "type": "string"
        },
        {
          "indexed": false,
          "internalType": "uint256",
          "name": "percentage",
          "type": "uint256"
        }
      ],
      "name": "MilestoneAdded",
      "type": "event"
    },
    {
      "anonymous": false,
      "inputs": [
        {
          "indexed": false,
          "internalType": "uint256",
          "name": "projectId",
          "type": "uint256"
        },
        {
          "indexed": false,
          "internalType": "uint256",
          "name": "milestoneId",
          "type": "uint256"
        },
        {
          "indexed": false,
          "internalType": "string",
          "name": "proofFileHash",
          "type": "string"
        }
      ],
      "name": "MilestoneProofUploaded",
      "type": "event"
    },
    {
      "anonymous": false,
      "inputs": [
        {
          "indexed": false,
          "internalType": "uint256",
          "name": "id",
          "type": "uint256"
        },
        {
          "indexed": false,
          "internalType": "string",
          "name": "name",
          "type": "string"
        },
        {
          "indexed": false,
          "internalType": "address",
          "name": "employer",
          "type": "address"
        }
      ],
      "name": "ProjectAdded",
      "type": "event"
    },
    {
      "inputs": [
        {
          "internalType": "address",
          "name": "",
          "type": "address"
        }
      ],
      "name": "freelancerRatings",
      "outputs": [
        {
          "internalType": "uint256",
          "name": "",
          "type": "uint256"
        }
      ],
      "stateMutability": "view",
      "type": "function"
    },
    {
      "inputs": [],
      "name": "milestoneCount",
      "outputs": [
        {
          "internalType": "uint256",
          "name": "",
          "type": "uint256"
        }
      ],
      "stateMutability": "view",
      "type": "function"
    },
    {
      "inputs": [
        {
          "internalType": "uint256",
          "name": "",
          "type": "uint256"
        },
        {
          "internalType": "uint256",
          "name": "",
          "type": "uint256"
        }
      ],
      "name": "milestones",
      "outputs": [
        {
          "internalType": "uint256",
          "name": "id",
          "type": "uint256"
        },
        {
          "internalType": "uint256",
          "name": "projectId",
          "type": "uint256"
        },
        {
          "internalType": "string",
          "name": "name",
          "type": "string"
        },
        {
          "internalType": "string",
          "name": "description",
          "type": "string"
        },
        {
          "internalType": "uint256",
          "name": "daycount",
          "type": "uint256"
        },
        {
          "internalType": "uint256",
          "name": "percentage",
          "type": "uint256"
        },
        {
          "internalType": "bool",
          "name": "completed",
          "type": "bool"
        },
        {
          "internalType": "string",
          "name": "proofFileHash",
          "type": "string"
        }
      ],
      "stateMutability": "view",
      "type": "function"
    },
    {
      "inputs": [],
      "name": "projectCount",
      "outputs": [
        {
          "internalType": "uint256",
          "name": "",
          "type": "uint256"
        }
      ],
      "stateMutability": "view",
      "type": "function"
    },
    {
      "inputs": [
        {
          "internalType": "uint256",
          "name": "",
          "type": "uint256"
        }
      ],
      "name": "projects",
      "outputs": [
        {
          "internalType": "uint256",
          "name": "id",
          "type": "uint256"
        },
        {
          "internalType": "string",
          "name": "name",
          "type": "string"
        },
        {
          "internalType": "string",
          "name": "description",
          "type": "string"
        },
        {
          "internalType": "uint256",
          "name": "reward",
          "type": "uint256"
        },
        {
          "internalType": "enum Projects.Status",
          "name": "status",
          "type": "uint8"
        },
        {
          "internalType": "address",
          "name": "employer",
          "type": "address"
        }
      ],
      "stateMutability": "view",
      "type": "function"
    },
    {
      "inputs": [
        {
          "internalType": "string",
          "name": "_name",
          "type": "string"
        },
        {
          "internalType": "string",
          "name": "_description",
          "type": "string"
        },
        {
          "internalType": "uint256",
          "name": "_reward",
          "type": "uint256"
        }
      ],
      "name": "addProject",
      "outputs": [],
      "stateMutability": "nonpayable",
      "type": "function"
    },
    {
      "inputs": [
        {
          "internalType": "uint256",
          "name": "_projectId",
          "type": "uint256"
        },
        {
          "internalType": "string",
          "name": "_name",
          "type": "string"
        },
        {
          "internalType": "string",
          "name": "_description",
          "type": "string"
        },
        {
          "internalType": "uint256",
          "name": "_daycount",
          "type": "uint256"
        },
        {
          "internalType": "uint256",
          "name": "_percentage",
          "type": "uint256"
        }
      ],
      "name": "addMilestone",
      "outputs": [],
      "stateMutability": "nonpayable",
      "type": "function"
    },
    {
      "inputs": [
        {
          "internalType": "uint256",
          "name": "_projectId",
          "type": "uint256"
        },
        {
          "internalType": "uint256",
          "name": "_milestoneId",
          "type": "uint256"
        },
        {
          "internalType": "address",
          "name": "_freelancer",
          "type": "address"
        },
        {
          "internalType": "string",
          "name": "_proofFileHash",
          "type": "string"
        }
      ],
      "name": "uploadMilestoneProof",
      "outputs": [],
      "stateMutability": "nonpayable",
      "type": "function"
    },
    {
      "inputs": [
        {
          "internalType": "address",
          "name": "_freelancer",
          "type": "address"
        }
      ],
      "name": "getFreelancerRating",
      "outputs": [
        {
          "internalType": "uint256",
          "name": "",
          "type": "uint256"
        }
      ],
      "stateMutability": "view",
      "type": "function"
    },
    {
      "inputs": [
        {
          "internalType": "uint256",
          "name": "_id",
          "type": "uint256"
        }
      ],
      "name": "getProject",
      "outputs": [
        {
          "internalType": "uint256",
          "name": "",
          "type": "uint256"
        },
        {
          "internalType": "string",
          "name": "",
          "type": "string"
        },
        {
          "internalType": "string",
          "name": "",
          "type": "string"
        },
        {
          "internalType": "uint256",
          "name": "",
          "type": "uint256"
        },
        {
          "internalType": "enum Projects.Status",
          "name": "",
          "type": "uint8"
        },
        {
          "internalType": "address",
          "name": "",
          "type": "address"
        }
      ],
      "stateMutability": "view",
      "type": "function"
    },
    {
      "inputs": [],
      "name": "viewProjects",
      "outputs": [
        {
          "internalType": "uint256[]",
          "name": "ids",
          "type": "uint256[]"
        },
        {
          "internalType": "string[]",
          "name": "names",
          "type": "string[]"
        },
        {
          "internalType": "string[]",
          "name": "descriptions",
          "type": "string[]"
        },
        {
          "internalType": "uint256[]",
          "name": "rewards",
          "type": "uint256[]"
        },
        {
          "internalType": "enum Projects.Status[]",
          "name": "statuses",
          "type": "uint8[]"
        },
        {
          "internalType": "address[]",
          "name": "employers",
          "type": "address[]"
        }
      ],
      "stateMutability": "view",
      "type": "function"
    },
    {
      "inputs": [],
      "name": "viewOpenProjects",
      "outputs": [
        {
          "internalType": "uint256[]",
          "name": "ids",
          "type": "uint256[]"
        },
        {
          "internalType": "string[]",
          "name": "names",
          "type": "string[]"
        },
        {
          "internalType": "string[]",
          "name": "descriptions",
          "type": "string[]"
        },
        {
          "internalType": "uint256[]",
          "name": "rewards",
          "type": "uint256[]"
        },
        {
          "internalType": "enum Projects.Status[]",
          "name": "statuses",
          "type": "uint8[]"
        },
        {
          "internalType": "address[]",
          "name": "employers",
          "type": "address[]"
        }
      ],
      "stateMutability": "view",
      "type": "function"
    },
    {
      "inputs": [
        {
          "internalType": "uint256",
          "name": "_projectId",
          "type": "uint256"
        }
      ],
      "name": "getMilestones",
      "outputs": [
        {
          "internalType": "uint256[]",
          "name": "ids",
          "type": "uint256[]"
        },
        {
          "internalType": "uint256[]",
          "name": "projectIds",
          "type": "uint256[]"
        },
        {
          "internalType": "string[]",
          "name": "names",
          "type": "string[]"
        },
        {
          "internalType": "string[]",
          "name": "descriptions",
          "type": "string[]"
        },
        {
          "internalType": "uint256[]",
          "name": "daycounts",
          "type": "uint256[]"
        },
        {
          "internalType": "uint256[]",
          "name": "percentages",
          "type": "uint256[]"
        },
        {
          "internalType": "bool[]",
          "name": "completions",
          "type": "bool[]"
        },
        {
          "internalType": "string[]",
          "name": "proofFileHashes",
          "type": "string[]"
        }
      ],
      "stateMutability": "view",
      "type": "function"
    },
    {
      "inputs": [
        {
          "internalType": "uint256",
          "name": "_id",
          "type": "uint256"
        }
      ],
      "name": "closeProject",
      "outputs": [],
      "stateMutability": "nonpayable",
      "type": "function"
    },
    {
      "inputs": [
        {
          "internalType": "uint256",
          "name": "_projectId",
          "type": "uint256"
        },
        {
          "internalType": "uint256",
          "name": "_milestoneId",
          "type": "uint256"
        }
      ],
      "name": "completeMilestone",
      "outputs": [],
      "stateMutability": "nonpayable",
      "type": "function"
    },
    {
      "inputs": [
        {
          "internalType": "address",
          "name": "_freelancer",
          "type": "address"
        },
        {
          "internalType": "uint256",
          "name": "_rating",
          "type": "uint256"
        }
      ],
      "name": "setFreelancerRating",
      "outputs": [],
      "stateMutability": "nonpayable",
      "type": "function"
    }
  ],
  "bytecode": "0x6080604052348015600f57600080fd5b5061382b8061001f6000396000f3fe608060405234801561001057600080fd5b506004361061011d576000357c01000000000000000000000000000000000000000000000000000000009004806342c549c0116100b457806393dc12e61161008357806393dc12e6146102fb578063d0b2069114610317578063f0f3f2c814610333578063f326206b146103685761011d565b806342c549c01461026957806353eef060146102a0578063563700d5146102c35780635fd4f758146102df5761011d565b806327db21e1116100f057806327db21e1146101c8578063310f9411146101f857806336fbad261461021b5780633a766ddf146102395761011d565b8063063dca0c146101225780630681ca551461013e578063107046bd1461015c5780631c376c6314610191575b600080fd5b61013c6004803603810190610137919061242b565b610384565b005b6101466103cc565b604051610153919061247a565b60405180910390f35b61017660048036038101906101719190612495565b6103d2565b604051610188969594939291906125d8565b60405180910390f35b6101ab60048036038101906101a69190612647565b61054b565b6040516101bf9897969594939291906126a2565b60405180910390f35b6101e260048036038101906101dd9190612735565b610755565b6040516101ef919061247a565b60405180910390f35b61020061076d565b60405161021296959493929190612aa8565b60405180910390f35b610223610c40565b604051610230919061247a565b60405180910390f35b610253600480360381019061024e9190612735565b610c46565b604051610260919061247a565b60405180910390f35b610283600480360381019061027e9190612495565b610c8f565b604051610297989796959493929190612bf1565b60405180910390f35b6102a8611329565b6040516102ba96959493929190612aa8565b60405180910390f35b6102dd60048036038101906102d89190612ddc565b611888565b005b6102f960048036038101906102f49190612e8f565b611b40565b005b61031560048036038101906103109190612495565b611cbf565b005b610331600480360381019061032c9190612f1a565b611de9565b005b61034d60048036038101906103489190612495565b611f9e565b60405161035f969594939291906125d8565b60405180910390f35b610382600480360381019061037d9190612647565b612216565b005b80600260008473ffffffffffffffffffffffffffffffffffffffff1673ffffffffffffffffffffffffffffffffffffffff168152602001908152602001600020819055505050565b60045481565b60006020528060005260406000206000915090508060000154908060010180546103fb90612fcc565b80601f016020809104026020016040519081016040528092919081815260200182805461042790612fcc565b80156104745780601f1061044957610100808354040283529160200191610474565b820191906000526020600020905b81548152906001019060200180831161045757829003601f168201915b50505050509080600201805461048990612fcc565b80601f01602080910402602001604051908101604052809291908181526020018280546104b590612fcc565b80156105025780601f106104d757610100808354040283529160200191610502565b820191906000526020600020905b8154815290600101906020018083116104e557829003601f168201915b5050505050908060030154908060040160009054906101000a900460ff16908060040160019054906101000a900473ffffffffffffffffffffffffffffffffffffffff16905086565b6001602052816000526040600020818154811061056757600080fd5b90600052602060002090600802016000915091505080600001549080600101549080600201805461059790612fcc565b80601f01602080910402602001604051908101604052809291908181526020018280546105c390612fcc565b80156106105780601f106105e557610100808354040283529160200191610610565b820191906000526020600020905b8154815290600101906020018083116105f357829003601f168201915b50505050509080600301805461062590612fcc565b80601f016020809104026020016040519081016040528092919081815260200182805461065190612fcc565b801561069e5780601f106106735761010080835404028352916020019161069e565b820191906000526020600020905b81548152906001019060200180831161068157829003601f168201915b5050505050908060040154908060050154908060060160009054906101000a900460ff16908060070180546106d290612fcc565b80601f01602080910402602001604051908101604052809291908181526020018280546106fe90612fcc565b801561074b5780601f106107205761010080835404028352916020019161074b565b820191906000526020600020905b81548152906001019060200180831161072e57829003601f168201915b5050505050905088565b60026020528060005260406000206000915090505481565b60608060608060608060035467ffffffffffffffff81111561079257610791612cb1565b5b6040519080825280602002602001820160405280156107c05781602001602082028036833780820191505090505b50955060035467ffffffffffffffff8111156107df576107de612cb1565b5b60405190808252806020026020018201604052801561081257816020015b60608152602001906001900390816107fd5790505b50945060035467ffffffffffffffff81111561083157610830612cb1565b5b60405190808252806020026020018201604052801561086457816020015b606081526020019060019003908161084f5790505b50935060035467ffffffffffffffff81111561088357610882612cb1565b5b6040519080825280602002602001820160405280156108b15781602001602082028036833780820191505090505b50925060035467ffffffffffffffff8111156108d0576108cf612cb1565b5b6040519080825280602002602001820160405280156108fe5781602001602082028036833780820191505090505b50915060035467ffffffffffffffff81111561091d5761091c612cb1565b5b60405190808252806020026020018201604052801561094b5781602001602082028036833780820191505090505b5090506000600190505b6003548111610c375760008060008381526020019081526020016000209050806000015488600184610987919061302c565b8151811061099857610997613060565b5b6020026020010181815250508060010180546109b390612fcc565b80601f01602080910402602001604051908101604052809291908181526020018280546109df90612fcc565b8015610a2c5780601f10610a0157610100808354040283529160200191610a2c565b820191906000526020600020905b815481529060010190602001808311610a0f57829003601f168201915b505050505087600184610a3f919061302c565b81518110610a5057610a4f613060565b5b6020026020010181905250806002018054610a6a90612fcc565b80601f0160208091040260200160405190810160405280929190818152602001828054610a9690612fcc565b8015610ae35780601f10610ab857610100808354040283529160200191610ae3565b820191906000526020600020905b815481529060010190602001808311610ac657829003601f168201915b505050505086600184610af6919061302c565b81518110610b0757610b06613060565b5b6020026020010181905250806003015485600184610b25919061302c565b81518110610b3657610b35613060565b5b6020026020010181815250508060040160009054906101000a900460ff1684600184610b62919061302c565b81518110610b7357610b72613060565b5b60200260200101906001811115610b8d57610b8c612552565b5b90816001811115610ba157610ba0612552565b5b815250508060040160019054906101000a900473ffffffffffffffffffffffffffffffffffffffff1683600184610bd8919061302c565b81518110610be957610be8613060565b5b602002602001019073ffffffffffffffffffffffffffffffffffffffff16908173ffffffffffffffffffffffffffffffffffffffff1681525050508080610c2f9061308f565b915050610955565b50909192939495565b60035481565b6000600260008373ffffffffffffffffffffffffffffffffffffffff1673ffffffffffffffffffffffffffffffffffffffff168152602001908152602001600020549050919050565b606080606080606080606080600089118015610cad57506003548911155b610cec576040517f08c379a0000000000000000000000000000000000000000000000000000000008152600401610ce390613123565b60405180910390fd5b6000600160008b8152602001908152602001600020805480602002602001604051908101604052809291908181526020016000905b82821015610f4d5783829060005260206000209060080201604051806101000160405290816000820154815260200160018201548152602001600282018054610d6990612fcc565b80601f0160208091040260200160405190810160405280929190818152602001828054610d9590612fcc565b8015610de25780601f10610db757610100808354040283529160200191610de2565b820191906000526020600020905b815481529060010190602001808311610dc557829003601f168201915b50505050508152602001600382018054610dfb90612fcc565b80601f0160208091040260200160405190810160405280929190818152602001828054610e2790612fcc565b8015610e745780601f10610e4957610100808354040283529160200191610e74565b820191906000526020600020905b815481529060010190602001808311610e5757829003601f168201915b5050505050815260200160048201548152602001600582015481526020016006820160009054906101000a900460ff16151515158152602001600782018054610ebc90612fcc565b80601f0160208091040260200160405190810160405280929190818152602001828054610ee890612fcc565b8015610f355780601f10610f0a57610100808354040283529160200191610f35565b820191906000526020600020905b815481529060010190602001808311610f1857829003601f168201915b50505050508152505081526020019060010190610d21565b5050505090506000815190508067ffffffffffffffff811115610f7357610f72612cb1565b5b604051908082528060200260200182016040528015610fa15781602001602082028036833780820191505090505b5099508067ffffffffffffffff811115610fbe57610fbd612cb1565b5b604051908082528060200260200182016040528015610fec5781602001602082028036833780820191505090505b5098508067ffffffffffffffff81111561100957611008612cb1565b5b60405190808252806020026020018201604052801561103c57816020015b60608152602001906001900390816110275790505b5097508067ffffffffffffffff81111561105957611058612cb1565b5b60405190808252806020026020018201604052801561108c57816020015b60608152602001906001900390816110775790505b5096508067ffffffffffffffff8111156110a9576110a8612cb1565b5b6040519080825280602002602001820160405280156110d75781602001602082028036833780820191505090505b5095508067ffffffffffffffff8111156110f4576110f3612cb1565b5b6040519080825280602002602001820160405280156111225781602001602082028036833780820191505090505b5094508067ffffffffffffffff81111561113f5761113e612cb1565b5b60405190808252806020026020018201604052801561116d5781602001602082028036833780820191505090505b5093508067ffffffffffffffff81111561118a57611189612cb1565b5b6040519080825280602002602001820160405280156111bd57816020015b60608152602001906001900390816111a85790505b50925060005b8181101561131b5760008382815181106111e0576111df613060565b5b6020026020010151905080600001518c838151811061120257611201613060565b5b60200260200101818152505080602001518b838151811061122657611225613060565b5b60200260200101818152505080604001518a838151811061124a57611249613060565b5b6020026020010181905250806060015189838151811061126d5761126c613060565b5b602002602001018190525080608001518883815181106112905761128f613060565b5b6020026020010181815250508060a001518783815181106112b4576112b3613060565b5b6020026020010181815250508060c001518683815181106112d8576112d7613060565b5b6020026020010190151590811515815250508060e0015185838151811061130257611301613060565b5b60200260200101819052505080806001019150506111c3565b505050919395975091939597565b606080606080606080600080600190505b60035481116113b25760018081111561135657611355612552565b5b60008083815260200190815260200160002060040160009054906101000a900460ff16600181111561138b5761138a612552565b5b0361139f57818061139b9061308f565b9250505b80806113aa9061308f565b91505061133a565b508067ffffffffffffffff8111156113cd576113cc612cb1565b5b6040519080825280602002602001820160405280156113fb5781602001602082028036833780820191505090505b5096508067ffffffffffffffff81111561141857611417612cb1565b5b60405190808252806020026020018201604052801561144b57816020015b60608152602001906001900390816114365790505b5095508067ffffffffffffffff81111561146857611467612cb1565b5b60405190808252806020026020018201604052801561149b57816020015b60608152602001906001900390816114865790505b5094508067ffffffffffffffff8111156114b8576114b7612cb1565b5b6040519080825280602002602001820160405280156114e65781602001602082028036833780820191505090505b5093508067ffffffffffffffff81111561150357611502612cb1565b5b6040519080825280602002602001820160405280156115315781602001602082028036833780820191505090505b5092508067ffffffffffffffff81111561154e5761154d612cb1565b5b60405190808252806020026020018201604052801561157c5781602001602082028036833780820191505090505b509150600080600190505b600354811161187d576001808111156115a3576115a2612552565b5b60008083815260200190815260200160002060040160009054906101000a900460ff1660018111156115d8576115d7612552565b5b0361186a576000806000838152602001908152602001600020905080600001548a848151811061160b5761160a613060565b5b60200260200101818152505080600101805461162690612fcc565b80601f016020809104026020016040519081016040528092919081815260200182805461165290612fcc565b801561169f5780601f106116745761010080835404028352916020019161169f565b820191906000526020600020905b81548152906001019060200180831161168257829003601f168201915b50505050508984815181106116b7576116b6613060565b5b60200260200101819052508060020180546116d190612fcc565b80601f01602080910402602001604051908101604052809291908181526020018280546116fd90612fcc565b801561174a5780601f1061171f5761010080835404028352916020019161174a565b820191906000526020600020905b81548152906001019060200180831161172d57829003601f168201915b505050505088848151811061176257611761613060565b5b6020026020010181905250806003015487848151811061178557611784613060565b5b6020026020010181815250508060040160009054906101000a900460ff168684815181106117b6576117b5613060565b5b602002602001019060018111156117d0576117cf612552565b5b908160018111156117e4576117e3612552565b5b815250508060040160019054906101000a900473ffffffffffffffffffffffffffffffffffffffff168584815181106118205761181f613060565b5b602002602001019073ffffffffffffffffffffffffffffffffffffffff16908173ffffffffffffffffffffffffffffffffffffffff168152505082806118659061308f565b935050505b80806118759061308f565b915050611587565b505050909192939495565b60008511801561189a57506003548511155b6118d9576040517f08c379a00000000000000000000000000000000000000000000000000000000081526004016118d090613123565b60405180910390fd5b60008086815260200190815260200160002060040160019054906101000a900473ffffffffffffffffffffffffffffffffffffffff1673ffffffffffffffffffffffffffffffffffffffff163373ffffffffffffffffffffffffffffffffffffffff161461197c576040517f08c379a0000000000000000000000000000000000000000000000000000000008152600401611973906131b5565b60405180910390fd5b60008111801561198d575060648111155b6119cc576040517f08c379a00000000000000000000000000000000000000000000000000000000081526004016119c390613221565b60405180910390fd5b600460008154809291906119df9061308f565b919050555060016000868152602001908152602001600020604051806101000160405280600454815260200187815260200186815260200185815260200184815260200183815260200160001515815260200160405180602001604052806000815250815250908060018154018082558091505060019003906000526020600020906008020160009091909190915060008201518160000155602082015181600101556040820151816002019081611a9791906133f3565b506060820151816003019081611aad91906133f3565b506080820151816004015560a0820151816005015560c08201518160060160006101000a81548160ff02191690831515021790555060e0820151816007019081611af791906133f3565b5050507fc67423104bf96f5ca8826913ae711e8c2254e1b2c04af907b2312853ed4cbed2856004548684604051611b3194939291906134c5565b60405180910390a15050505050565b60036000815480929190611b539061308f565b91905055506040518060c001604052806003548152602001848152602001838152602001828152602001600180811115611b9057611b8f612552565b5b81526020013373ffffffffffffffffffffffffffffffffffffffff168152506000806003548152602001908152602001600020600082015181600001556020820151816001019081611be291906133f3565b506040820151816002019081611bf891906133f3565b506060820151816003015560808201518160040160006101000a81548160ff02191690836001811115611c2e57611c2d612552565b5b021790555060a08201518160040160016101000a81548173ffffffffffffffffffffffffffffffffffffffff021916908373ffffffffffffffffffffffffffffffffffffffff1602179055509050507f0c37be42d09c868de3d7b2154026972d847472b2d254f8f2f6a8f1be3a450e6a6003548433604051611cb293929190613511565b60405180910390a1505050565b600081118015611cd157506003548111155b611d10576040517f08c379a0000000000000000000000000000000000000000000000000000000008152600401611d0790613123565b60405180910390fd5b600080600083815260200190815260200160002090508060040160019054906101000a900473ffffffffffffffffffffffffffffffffffffffff1673ffffffffffffffffffffffffffffffffffffffff163373ffffffffffffffffffffffffffffffffffffffff1614611db8576040517f08c379a0000000000000000000000000000000000000000000000000000000008152600401611daf906135c1565b60405180910390fd5b60008160040160006101000a81548160ff02191690836001811115611de057611ddf612552565b5b02179055505050565b600084118015611dfb57506003548411155b611e3a576040517f08c379a0000000000000000000000000000000000000000000000000000000008152600401611e3190613123565b60405180910390fd5b8173ffffffffffffffffffffffffffffffffffffffff163373ffffffffffffffffffffffffffffffffffffffff1614611ea8576040517f08c379a0000000000000000000000000000000000000000000000000000000008152600401611e9f90613653565b60405180910390fd5b600083118015611ece575060016000858152602001908152602001600020805490508311155b611f0d576040517f08c379a0000000000000000000000000000000000000000000000000000000008152600401611f04906136bf565b60405180910390fd5b8060016000868152602001908152602001600020600185611f2e919061302c565b81548110611f3f57611f3e613060565b5b90600052602060002090600802016007019081611f5c91906133f3565b507fa242dc265ec329d765b4d1175eb5f3d36f052da4b6bf61b340d71ca9846ca7a2848483604051611f90939291906136df565b60405180910390a150505050565b600060608060008060008087118015611fb957506003548711155b611ff8576040517f08c379a0000000000000000000000000000000000000000000000000000000008152600401611fef90613123565b60405180910390fd5b60008060008981526020019081526020016000206040518060c00160405290816000820154815260200160018201805461203190612fcc565b80601f016020809104026020016040519081016040528092919081815260200182805461205d90612fcc565b80156120aa5780601f1061207f576101008083540402835291602001916120aa565b820191906000526020600020905b81548152906001019060200180831161208d57829003601f168201915b505050505081526020016002820180546120c390612fcc565b80601f01602080910402602001604051908101604052809291908181526020018280546120ef90612fcc565b801561213c5780601f106121115761010080835404028352916020019161213c565b820191906000526020600020905b81548152906001019060200180831161211f57829003601f168201915b50505050508152602001600382015481526020016004820160009054906101000a900460ff16600181111561217457612173612552565b5b600181111561218657612185612552565b5b81526020016004820160019054906101000a900473ffffffffffffffffffffffffffffffffffffffff1673ffffffffffffffffffffffffffffffffffffffff1673ffffffffffffffffffffffffffffffffffffffff16815250509050806000015181602001518260400151836060015184608001518560a001519650965096509650965096505091939550919395565b60008211801561222857506003548211155b612267576040517f08c379a000000000000000000000000000000000000000000000000000000000815260040161225e90613123565b60405180910390fd5b60008111801561228d575060016000838152602001908152602001600020805490508111155b6122cc576040517f08c379a00000000000000000000000000000000000000000000000000000000081526004016122c390613769565b60405180910390fd5b6000600160008481526020019081526020016000206001836122ee919061302c565b815481106122ff576122fe613060565b5b906000526020600020906008020190508060060160009054906101000a900460ff1615612361576040517f08c379a0000000000000000000000000000000000000000000000000000000008152600401612358906137d5565b60405180910390fd5b60018160060160006101000a81548160ff021916908315150217905550505050565b6000604051905090565b600080fd5b600080fd5b600073ffffffffffffffffffffffffffffffffffffffff82169050919050565b60006123c282612397565b9050919050565b6123d2816123b7565b81146123dd57600080fd5b50565b6000813590506123ef816123c9565b92915050565b6000819050919050565b612408816123f5565b811461241357600080fd5b50565b600081359050612425816123ff565b92915050565b600080604083850312156124425761244161238d565b5b6000612450858286016123e0565b925050602061246185828601612416565b9150509250929050565b612474816123f5565b82525050565b600060208201905061248f600083018461246b565b92915050565b6000602082840312156124ab576124aa61238d565b5b60006124b984828501612416565b91505092915050565b600081519050919050565b600082825260208201905092915050565b60005b838110156124fc5780820151818401526020810190506124e1565b60008484015250505050565b6000601f19601f8301169050919050565b6000612524826124c2565b61252e81856124cd565b935061253e8185602086016124de565b61254781612508565b840191505092915050565b7f4e487b7100000000000000000000000000000000000000000000000000000000600052602160045260246000fd5b6002811061259257612591612552565b5b50565b60008190506125a382612581565b919050565b60006125b382612595565b9050919050565b6125c3816125a8565b82525050565b6125d2816123b7565b82525050565b600060c0820190506125ed600083018961246b565b81810360208301526125ff8188612519565b905081810360408301526126138187612519565b9050612622606083018661246b565b61262f60808301856125ba565b61263c60a08301846125c9565b979650505050505050565b6000806040838503121561265e5761265d61238d565b5b600061266c85828601612416565b925050602061267d85828601612416565b9150509250929050565b60008115159050919050565b61269c81612687565b82525050565b6000610100820190506126b8600083018b61246b565b6126c5602083018a61246b565b81810360408301526126d78189612519565b905081810360608301526126eb8188612519565b90506126fa608083018761246b565b61270760a083018661246b565b61271460c0830185612693565b81810360e08301526127268184612519565b90509998505050505050505050565b60006020828403121561274b5761274a61238d565b5b6000612759848285016123e0565b91505092915050565b600081519050919050565b600082825260208201905092915050565b6000819050602082019050919050565b612797816123f5565b82525050565b60006127a9838361278e565b60208301905092915050565b6000602082019050919050565b60006127cd82612762565b6127d7818561276d565b93506127e28361277e565b8060005b838110156128135781516127fa888261279d565b9750612805836127b5565b9250506001810190506127e6565b5085935050505092915050565b600081519050919050565b600082825260208201905092915050565b6000819050602082019050919050565b600082825260208201905092915050565b6000612868826124c2565b612872818561284c565b93506128828185602086016124de565b61288b81612508565b840191505092915050565b60006128a2838361285d565b905092915050565b6000602082019050919050565b60006128c282612820565b6128cc818561282b565b9350836020820285016128de8561283c565b8060005b8581101561291a57848403895281516128fb8582612896565b9450612906836128aa565b925060208a019950506001810190506128e2565b50829750879550505050505092915050565b600081519050919050565b600082825260208201905092915050565b6000819050602082019050919050565b612961816125a8565b82525050565b60006129738383612958565b60208301905092915050565b6000602082019050919050565b60006129978261292c565b6129a18185612937565b93506129ac83612948565b8060005b838110156129dd5781516129c48882612967565b97506129cf8361297f565b9250506001810190506129b0565b5085935050505092915050565b600081519050919050565b600082825260208201905092915050565b6000819050602082019050919050565b612a1f816123b7565b82525050565b6000612a318383612a16565b60208301905092915050565b6000602082019050919050565b6000612a55826129ea565b612a5f81856129f5565b9350612a6a83612a06565b8060005b83811015612a9b578151612a828882612a25565b9750612a8d83612a3d565b925050600181019050612a6e565b5085935050505092915050565b600060c0820190508181036000830152612ac281896127c2565b90508181036020830152612ad681886128b7565b90508181036040830152612aea81876128b7565b90508181036060830152612afe81866127c2565b90508181036080830152612b12818561298c565b905081810360a0830152612b268184612a4a565b9050979650505050505050565b600081519050919050565b600082825260208201905092915050565b6000819050602082019050919050565b612b6881612687565b82525050565b6000612b7a8383612b5f565b60208301905092915050565b6000602082019050919050565b6000612b9e82612b33565b612ba88185612b3e565b9350612bb383612b4f565b8060005b83811015612be4578151612bcb8882612b6e565b9750612bd683612b86565b925050600181019050612bb7565b5085935050505092915050565b6000610100820190508181036000830152612c0c818b6127c2565b90508181036020830152612c20818a6127c2565b90508181036040830152612c3481896128b7565b90508181036060830152612c4881886128b7565b90508181036080830152612c5c81876127c2565b905081810360a0830152612c7081866127c2565b905081810360c0830152612c848185612b93565b905081810360e0830152612c9881846128b7565b90509998505050505050505050565b600080fd5b600080fd5b7f4e487b7100000000000000000000000000000000000000000000000000000000600052604160045260246000fd5b612ce982612508565b810181811067ffffffffffffffff82111715612d0857612d07612cb1565b5b80604052505050565b6000612d1b612383565b9050612d278282612ce0565b919050565b600067ffffffffffffffff821115612d4757612d46612cb1565b5b612d5082612508565b9050602081019050919050565b82818337600083830152505050565b6000612d7f612d7a84612d2c565b612d11565b905082815260208101848484011115612d9b57612d9a612cac565b5b612da6848285612d5d565b509392505050565b600082601f830112612dc357612dc2612ca7565b5b8135612dd3848260208601612d6c565b91505092915050565b600080600080600060a08688031215612df857612df761238d565b5b6000612e0688828901612416565b955050602086013567ffffffffffffffff811115612e2757612e26612392565b5b612e3388828901612dae565b945050604086013567ffffffffffffffff811115612e5457612e53612392565b5b612e6088828901612dae565b9350506060612e7188828901612416565b9250506080612e8288828901612416565b9150509295509295909350565b600080600060608486031215612ea857612ea761238d565b5b600084013567ffffffffffffffff811115612ec657612ec5612392565b5b612ed286828701612dae565b935050602084013567ffffffffffffffff811115612ef357612ef2612392565b5b612eff86828701612dae565b9250506040612f1086828701612416565b9150509250925092565b60008060008060808587031215612f3457612f3361238d565b5b6000612f4287828801612416565b9450506020612f5387828801612416565b9350506040612f64878288016123e0565b925050606085013567ffffffffffffffff811115612f8557612f84612392565b5b612f9187828801612dae565b91505092959194509250565b7f4e487b7100000000000000000000000000000000000000000000000000000000600052602260045260246000fd5b60006002820490506001821680612fe457607f821691505b602082108103612ff757612ff6612f9d565b5b50919050565b7f4e487b7100000000000000000000000000000000000000000000000000000000600052601160045260246000fd5b6000613037826123f5565b9150613042836123f5565b925082820390508181111561305a57613059612ffd565b5b92915050565b7f4e487b7100000000000000000000000000000000000000000000000000000000600052603260045260246000fd5b600061309a826123f5565b91507fffffffffffffffffffffffffffffffffffffffffffffffffffffffffffffffff82036130cc576130cb612ffd565b5b600182019050919050565b7f50726f6a65637420646f6573206e6f7420657869737400000000000000000000600082015250565b600061310d6016836124cd565b9150613118826130d7565b602082019050919050565b6000602082019050818103600083015261313c81613100565b9050919050565b7f4f6e6c792074686520656d706c6f7965722063616e20616464206d696c65737460008201527f6f6e657300000000000000000000000000000000000000000000000000000000602082015250565b600061319f6024836124cd565b91506131aa82613143565b604082019050919050565b600060208201905081810360008301526131ce81613192565b9050919050565b7f496e76616c69642070657263656e746167650000000000000000000000000000600082015250565b600061320b6012836124cd565b9150613216826131d5565b602082019050919050565b6000602082019050818103600083015261323a816131fe565b9050919050565b60008190508160005260206000209050919050565b60006020601f8301049050919050565b60008160020a8302905092915050565b6000600883026132a67fffffffffffffffffffffffffffffffffffffffffffffffffffffffffffffffff82613266565b6132b08683613266565b95508019841693508086168417925050509392505050565b6000819050919050565b60006132ed6132e86132e3846123f5565b6132c8565b6123f5565b9050919050565b6000819050919050565b613307836132d2565b61331b613313826132f4565b848454613276565b825550505050565b600090565b613330613323565b61333b8184846132fe565b505050565b5b8181101561335f57613354600082613328565b600181019050613341565b5050565b601f8211156133a45761337581613241565b61337e84613256565b8101602085101561338d578190505b6133a161339985613256565b830182613340565b50505b505050565b60008160020a8304905092915050565b60006133ca600019846008026133a9565b1980831691505092915050565b60006133e383836133b9565b9150826002028217905092915050565b6133fc826124c2565b67ffffffffffffffff81111561341557613414612cb1565b5b61341f8254612fcc565b61342a828285613363565b600060209050601f83116001811461345d576000841561344b578287015190505b61345585826133d7565b8655506134bd565b601f19841661346b86613241565b60005b828110156134935784890151825560018201915060208501945060208101905061346e565b868310156134b057848901516134ac601f8916826133b9565b8355505b6001600288020188555050505b505050505050565b60006080820190506134da600083018761246b565b6134e7602083018661246b565b81810360408301526134f98185612519565b9050613508606083018461246b565b95945050505050565b6000606082019050613526600083018661246b565b81810360208301526135388185612519565b905061354760408301846125c9565b949350505050565b7f4f6e6c792074686520656d706c6f7965722063616e20636c6f7365207468697360008201527f2070726f6a656374000000000000000000000000000000000000000000000000602082015250565b60006135ab6028836124cd565b91506135b68261354f565b604082019050919050565b600060208201905081810360008301526135da8161359e565b9050919050565b7f4f6e6c79207468652061737369676e656420667265656c616e6365722063616e60008201527f2075706c6f61642070726f6f6600000000000000000000000000000000000000602082015250565b600061363d602d836124cd565b9150613648826135e1565b604082019050919050565b6000602082019050818103600083015261366c81613630565b9050919050565b7f496e76616c6964206d696c6573746f6e65204944000000000000000000000000600082015250565b60006136a96014836124cd565b91506136b482613673565b602082019050919050565b600060208201905081810360008301526136d88161369c565b9050919050565b60006060820190506136f4600083018661246b565b613701602083018561246b565b81810360408301526137138184612519565b9050949350505050565b7f4d696c6573746f6e6520646f6573206e6f742065786973740000000000000000600082015250565b60006137536018836124cd565b915061375e8261371d565b602082019050919050565b6000602082019050818103600083015261378281613746565b9050919050565b7f4d696c6573746f6e6520616c726561647920636f6d706c657465640000000000600082015250565b60006137bf601b836124cd565b91506137ca82613789565b602082019050919050565b600060208201905081810360008301526137ee816137b2565b905091905056fea2646970667358221220645e9501958fb2ca1b87b8b8947da5c6263660eb63eb457f0f4ffaae23eea98664736f6c634300081c0033",
  "immutableReferences": {},
  "source": "// SPDX-License-Identifier: MIT\r\npragma solidity >=0.8.7;\r\n\r\n// import \"./RequestManager.sol\";\r\n\r\ncontract Projects {\r\n    \r\n    enum Status { Closed, Open }\r\n\r\n    struct Project {\r\n        uint id;\r\n        string name;\r\n        string description;\r\n        uint reward;\r\n        Status status;\r\n        address employer;\r\n    }\r\n\r\n    struct Milestone {\r\n        uint id;\r\n        uint projectId;\r\n        string name;\r\n        string description;\r\n        uint daycount;\r\n        uint percentage;\r\n        bool completed;\r\n        string proofFileHash; // To store proof file hash\r\n    }\r\n\r\n    mapping(uint => Project) public projects;\r\n    mapping(uint => Milestone[]) public milestones;\r\n    mapping(address => uint) public freelancerRatings; // Map freelancer address to their rating (in basis points out of 5 * 100)\r\n\r\n    uint public projectCount;\r\n    uint public milestoneCount;\r\n\r\n    // RequestManager public requestManager;\r\n\r\n    event ProjectAdded(uint id, string name, address employer);\r\n    event MilestoneAdded(uint projectId, uint milestoneId, string name, uint percentage);\r\n    event MilestoneProofUploaded(uint projectId, uint milestoneId, string proofFileHash);\r\n    // constructor(address _requestManager) {\r\n    //     requestManager = RequestManager(_requestManager);\r\n    // }\r\n\r\n    function addProject(string memory _name, string memory _description, uint _reward) public {\r\n        projectCount++;\r\n        projects[projectCount] = Project({\r\n            id: projectCount,\r\n            name: _name,\r\n            description: _description,\r\n            reward: _reward,\r\n            status: Status.Open,\r\n            employer: msg.sender\r\n        });\r\n\r\n        emit ProjectAdded(projectCount, _name, msg.sender);\r\n    }\r\n\r\n    function addMilestone(uint _projectId, string memory _name, string memory _description, uint _daycount, uint _percentage) public {\r\n        require(_projectId > 0 && _projectId <= projectCount, \"Project does not exist\");\r\n        require(msg.sender == projects[_projectId].employer, \"Only the employer can add milestones\");\r\n        require(_percentage > 0 && _percentage <= 100, \"Invalid percentage\");\r\n\r\n        milestoneCount++;\r\n        milestones[_projectId].push(Milestone({\r\n            id: milestoneCount,\r\n            projectId: _projectId,\r\n            name: _name,\r\n            description: _description,\r\n            daycount: _daycount,\r\n            percentage: _percentage,\r\n            completed: false,\r\n            proofFileHash: \"\" // Initialize proof file hash as empty\r\n        }));\r\n\r\n        emit MilestoneAdded(_projectId, milestoneCount, _name, _percentage);\r\n    }\r\n\r\n    function uploadMilestoneProof(uint _projectId, uint _milestoneId, address _freelancer, string memory _proofFileHash) public {\r\n        require(_projectId > 0 && _projectId <= projectCount, \"Project does not exist\");\r\n        require(msg.sender == _freelancer, \"Only the assigned freelancer can upload proof\");\r\n\r\n        // Check if the milestone exists\r\n        require(_milestoneId > 0 && _milestoneId <= milestones[_projectId].length, \"Invalid milestone ID\");\r\n\r\n        // Store the proof file hash for the milestone\r\n        milestones[_projectId][_milestoneId - 1].proofFileHash = _proofFileHash;\r\n\r\n        emit MilestoneProofUploaded(_projectId, _milestoneId, _proofFileHash);\r\n    }\r\n\r\n\r\n\r\n    function getFreelancerRating(address _freelancer) public view returns (uint) {\r\n        return freelancerRatings[_freelancer];\r\n    }\r\n\r\n    function getProject(uint _id) public view returns (uint, string memory, string memory, uint, Status, address) {\r\n        require(_id > 0 && _id <= projectCount, \"Project does not exist\");\r\n        Project memory proj = projects[_id];\r\n        return (proj.id, proj.name, proj.description, proj.reward, proj.status, proj.employer);\r\n    }\r\n\r\n    function viewProjects() public view returns (\r\n        uint[] memory ids, \r\n        string[] memory names, \r\n        string[] memory descriptions, \r\n        uint[] memory rewards, \r\n        Status[] memory statuses, \r\n        address[] memory employers\r\n    ) {\r\n        ids = new uint[](projectCount);\r\n        names = new string[](projectCount);\r\n        descriptions = new string[](projectCount);\r\n        rewards = new uint[](projectCount);\r\n        statuses = new Status[](projectCount);\r\n        employers = new address[](projectCount);\r\n\r\n        for (uint i = 1; i <= projectCount; i++) {\r\n            Project storage proj = projects[i];\r\n            ids[i - 1] = proj.id;\r\n            names[i - 1] = proj.name;\r\n            descriptions[i - 1] = proj.description;\r\n            rewards[i - 1] = proj.reward;\r\n            statuses[i - 1] = proj.status;\r\n            employers[i - 1] = proj.employer;\r\n        }\r\n\r\n        return (ids, names, descriptions, rewards, statuses, employers);\r\n    }\r\n\r\n    function viewOpenProjects() public view returns (\r\n        uint[] memory ids, \r\n        string[] memory names, \r\n        string[] memory descriptions, \r\n        uint[] memory rewards, \r\n        Status[] memory statuses, \r\n        address[] memory employers\r\n    ) {\r\n        uint openCount = 0;\r\n        for (uint i = 1; i <= projectCount; i++) {\r\n            if (projects[i].status == Status.Open) {\r\n                openCount++;\r\n            }\r\n        }\r\n\r\n        ids = new uint[](openCount);\r\n        names = new string[](openCount);\r\n        descriptions = new string[](openCount);\r\n        rewards = new uint[](openCount);\r\n        statuses = new Status[](openCount);\r\n        employers = new address[](openCount);\r\n\r\n        uint index = 0;\r\n        for (uint i = 1; i <= projectCount; i++) {\r\n            if (projects[i].status == Status.Open) {\r\n                Project storage proj = projects[i];\r\n                ids[index] = proj.id;\r\n                names[index] = proj.name;\r\n                descriptions[index] = proj.description;\r\n                rewards[index] = proj.reward;\r\n                statuses[index] = proj.status;\r\n                employers[index] = proj.employer;\r\n                index++;\r\n            }\r\n        }\r\n\r\n        return (ids, names, descriptions, rewards, statuses, employers);\r\n    }\r\n\r\n    function getMilestones(uint _projectId) \r\n        public view \r\n        returns (\r\n            uint[] memory ids, \r\n            uint[] memory projectIds, \r\n            string[] memory names, \r\n            string[] memory descriptions, \r\n            uint[] memory daycounts, \r\n            uint[] memory percentages, \r\n            bool[] memory completions, \r\n            string[] memory proofFileHashes\r\n        ) \r\n    {\r\n        require(_projectId > 0 && _projectId <= projectCount, \"Project does not exist\");\r\n\r\n        Milestone[] memory projectMilestones = milestones[_projectId];\r\n        uint milestonesCount = projectMilestones.length;\r\n\r\n        // Initialize arrays for each field in Milestone\r\n        ids = new uint[](milestonesCount);\r\n        projectIds = new uint[](milestonesCount);\r\n        names = new string[](milestonesCount);\r\n        descriptions = new string[](milestonesCount);\r\n        daycounts = new uint[](milestonesCount);\r\n        percentages = new uint[](milestonesCount);\r\n        completions = new bool[](milestonesCount);\r\n        proofFileHashes = new string[](milestonesCount);\r\n\r\n        // Populate each array with the corresponding data from each milestone\r\n        for (uint i = 0; i < milestonesCount; i++) {\r\n            Milestone memory milestone = projectMilestones[i];\r\n            ids[i] = milestone.id;\r\n            projectIds[i] = milestone.projectId;\r\n            names[i] = milestone.name;\r\n            descriptions[i] = milestone.description;\r\n            daycounts[i] = milestone.daycount;\r\n            percentages[i] = milestone.percentage;\r\n            completions[i] = milestone.completed;\r\n            proofFileHashes[i] = milestone.proofFileHash;\r\n        }\r\n\r\n        return (\r\n            ids, \r\n            projectIds, \r\n            names, \r\n            descriptions, \r\n            daycounts, \r\n            percentages, \r\n            completions, \r\n            proofFileHashes\r\n        );\r\n    }\r\n\r\n    function closeProject(uint _id) public {\r\n        require(_id > 0 && _id <= projectCount, \"Project does not exist\");\r\n        Project storage proj = projects[_id];\r\n        require(msg.sender == proj.employer, \"Only the employer can close this project\");\r\n        proj.status = Status.Closed;\r\n    }\r\n\r\n    function completeMilestone(uint _projectId, uint _milestoneId) public {\r\n        require(_projectId > 0 && _projectId <= projectCount, \"Project does not exist\");\r\n        require(_milestoneId > 0 && _milestoneId <= milestones[_projectId].length, \"Milestone does not exist\");\r\n        \r\n        Milestone storage milestone = milestones[_projectId][_milestoneId - 1];\r\n        require(!milestone.completed, \"Milestone already completed\");\r\n        \r\n        milestone.completed = true; // Mark the milestone as completed\r\n    }\r\n\r\n    function setFreelancerRating(address _freelancer, uint _rating) public {\r\n        // Ensure only the owner of the contract can set the rating\r\n        // require(msg.sender == owner, \"Only the owner can set the rating\"); // Adjust ownership logic as necessary\r\n        freelancerRatings[_freelancer] = _rating;\r\n    }\r\n\r\n\r\n}\r\n",
  "sourcePath": "C:\\Users\\Shashwat Chaturvedi\\OneDrive - iiit-b\\college\\projects\\delance\\truffle_project\\contracts\\Projects.sol",
  "compiler": {
    "name": "solc",
    "version": "0.8.28+commit.7893614a.Emscripten.clang"
  },
  "schemaVersion": "3.4.16",
  "updatedAt": "2024-11-01T04:45:31.272Z",
  "devdoc": {
    "kind": "dev",
    "methods": {},
    "version": 1
  },
  "userdoc": {
    "kind": "user",
    "methods": {},
    "version": 1
  }
}