{
  "contractName": "RequestManager",
  "abi": [
    {
      "inputs": [
        {
          "internalType": "address",
          "name": "_projectsContract",
          "type": "address"
        }
      ],
      "stateMutability": "nonpayable",
      "type": "constructor"
    },
    {
      "anonymous": false,
      "inputs": [
        {
          "indexed": false,
          "internalType": "uint256",
          "name": "projectId",
          "type": "uint256"
        },
        {
          "indexed": false,
          "internalType": "address",
          "name": "freelancer",
          "type": "address"
        },
        {
          "indexed": false,
          "internalType": "address",
          "name": "escrowContract",
          "type": "address"
        }
      ],
      "name": "RequestAccepted",
      "type": "event"
    },
    {
      "anonymous": false,
      "inputs": [
        {
          "indexed": false,
          "internalType": "uint256",
          "name": "projectId",
          "type": "uint256"
        },
        {
          "indexed": false,
          "internalType": "address",
          "name": "freelancer",
          "type": "address"
        }
      ],
      "name": "RequestRejected",
      "type": "event"
    },
    {
      "anonymous": false,
      "inputs": [
        {
          "indexed": false,
          "internalType": "uint256",
          "name": "projectId",
          "type": "uint256"
        },
        {
          "indexed": false,
          "internalType": "address",
          "name": "freelancer",
          "type": "address"
        }
      ],
      "name": "RequestSent",
      "type": "event"
    },
    {
      "inputs": [],
      "name": "projectsContract",
      "outputs": [
        {
          "internalType": "contract Projects",
          "name": "",
          "type": "address"
        }
      ],
      "stateMutability": "view",
      "type": "function",
      "constant": true
    },
    {
      "inputs": [
        {
          "internalType": "uint256",
          "name": "",
          "type": "uint256"
        }
      ],
      "name": "requests",
      "outputs": [
        {
          "internalType": "uint256",
          "name": "projectId",
          "type": "uint256"
        },
        {
          "internalType": "address",
          "name": "freelancer",
          "type": "address"
        },
        {
          "internalType": "uint256",
          "name": "freelancerRating",
          "type": "uint256"
        },
        {
          "internalType": "enum RequestManager.RequestStatus",
          "name": "status",
          "type": "uint8"
        },
        {
          "internalType": "contract Escrow",
          "name": "escrowContract",
          "type": "address"
        }
      ],
      "stateMutability": "view",
      "type": "function",
      "constant": true
    },
    {
      "inputs": [
        {
          "internalType": "uint256",
          "name": "_projectId",
          "type": "uint256"
        },
        {
          "internalType": "uint256",
          "name": "_freelancerRating",
          "type": "uint256"
        }
      ],
      "name": "sendRequest",
      "outputs": [],
      "stateMutability": "nonpayable",
      "type": "function"
    },
    {
      "inputs": [
        {
          "internalType": "uint256",
          "name": "_projectId",
          "type": "uint256"
        }
      ],
      "name": "acceptRequest",
      "outputs": [],
      "stateMutability": "payable",
      "type": "function",
      "payable": true
    },
    {
      "inputs": [
        {
          "internalType": "uint256",
          "name": "_projectId",
          "type": "uint256"
        }
      ],
      "name": "rejectRequest",
      "outputs": [],
      "stateMutability": "nonpayable",
      "type": "function"
    },
    {
      "inputs": [
        {
          "internalType": "uint256",
          "name": "_projectId",
          "type": "uint256"
        }
      ],
      "name": "getRequest",
      "outputs": [
        {
          "components": [
            {
              "internalType": "uint256",
              "name": "projectId",
              "type": "uint256"
            },
            {
              "internalType": "address",
              "name": "freelancer",
              "type": "address"
            },
            {
              "internalType": "uint256",
              "name": "freelancerRating",
              "type": "uint256"
            },
            {
              "internalType": "enum RequestManager.RequestStatus",
              "name": "status",
              "type": "uint8"
            },
            {
              "internalType": "contract Escrow",
              "name": "escrowContract",
              "type": "address"
            }
          ],
          "internalType": "struct RequestManager.Request",
          "name": "",
          "type": "tuple"
        }
      ],
      "stateMutability": "view",
      "type": "function",
      "constant": true
    }
  ],
  "bytecode": "0x608060405234801561001057600080fd5b5060405161208e38038061208e833981810160405281019061003291906100db565b806000806101000a81548173ffffffffffffffffffffffffffffffffffffffff021916908373ffffffffffffffffffffffffffffffffffffffff16021790555050610108565b600080fd5b600073ffffffffffffffffffffffffffffffffffffffff82169050919050565b60006100a88261007d565b9050919050565b6100b88161009d565b81146100c357600080fd5b50565b6000815190506100d5816100af565b92915050565b6000602082840312156100f1576100f0610078565b5b60006100ff848285016100c6565b91505092915050565b611f77806101176000396000f3fe608060405260043610610072576000357c0100000000000000000000000000000000000000000000000000000000900480632d7788db146100775780634ba1f098146100a05780634bd335b8146100bc57806381d12c58146100e7578063b3db5c9414610128578063c58343ef14610151575b600080fd5b34801561008357600080fd5b5061009e60048036038101906100999190610fdc565b61018e565b005b6100ba60048036038101906100b59190610fdc565b61050a565b005b3480156100c857600080fd5b506100d1610998565b6040516100de9190611088565b60405180910390f35b3480156100f357600080fd5b5061010e60048036038101906101099190610fdc565b6109bc565b60405161011f95949392919061116b565b60405180910390f35b34801561013457600080fd5b5061014f600480360381019061014a91906111be565b610a3f565b005b34801561015d57600080fd5b5061017860048036038101906101739190610fdc565b610df0565b60405161018591906112a2565b60405180910390f35b600073ffffffffffffffffffffffffffffffffffffffff166001600083815260200190815260200160002060010160009054906101000a900473ffffffffffffffffffffffffffffffffffffffff1673ffffffffffffffffffffffffffffffffffffffff1603610233576040517f08c379a000000000000000000000000000000000000000000000000000000000815260040161022a90611340565b60405180910390fd5b60006002811115610247576102466110d3565b5b6001600083815260200190815260200160002060030160009054906101000a900460ff16600281111561027d5761027c6110d3565b5b146102bd576040517f08c379a00000000000000000000000000000000000000000000000000000000081526004016102b4906113ac565b60405180910390fd5b60008060008054906101000a900473ffffffffffffffffffffffffffffffffffffffff1673ffffffffffffffffffffffffffffffffffffffff1663f0f3f2c8846040518263ffffffff167c010000000000000000000000000000000000000000000000000000000002815260040161033591906113cc565b600060405180830381865afa158015610352573d6000803e3d6000fd5b505050506040513d6000823e3d601f19601f8201168201806040525081019061037b91906115ae565b9550955050505050600180811115610396576103956110d3565b5b8260018111156103a9576103a86110d3565b5b146103e9576040517f08c379a00000000000000000000000000000000000000000000000000000000081526004016103e0906116bf565b60405180910390fd5b8073ffffffffffffffffffffffffffffffffffffffff163373ffffffffffffffffffffffffffffffffffffffff1614610457576040517f08c379a000000000000000000000000000000000000000000000000000000000815260040161044e90611751565b60405180910390fd5b60026001600085815260200190815260200160002060030160006101000a81548160ff02191690836002811115610491576104906110d3565b5b02179055507f490ad67e4c8b3b9c1d11dfcd7f02e155190b8f6feff3a9d9e9df3721f0f74e57836001600086815260200190815260200160002060010160009054906101000a900473ffffffffffffffffffffffffffffffffffffffff166040516104fd929190611771565b60405180910390a1505050565b600073ffffffffffffffffffffffffffffffffffffffff166001600083815260200190815260200160002060010160009054906101000a900473ffffffffffffffffffffffffffffffffffffffff1673ffffffffffffffffffffffffffffffffffffffff16036105af576040517f08c379a00000000000000000000000000000000000000000000000000000000081526004016105a690611340565b60405180910390fd5b600060028111156105c3576105c26110d3565b5b6001600083815260200190815260200160002060030160009054906101000a900460ff1660028111156105f9576105f86110d3565b5b14610639576040517f08c379a0000000000000000000000000000000000000000000000000000000008152600401610630906113ac565b60405180910390fd5b60008060008060009054906101000a900473ffffffffffffffffffffffffffffffffffffffff1673ffffffffffffffffffffffffffffffffffffffff1663f0f3f2c8856040518263ffffffff167c01000000000000000000000000000000000000000000000000000000000281526004016106b491906113cc565b600060405180830381865afa1580156106d1573d6000803e3d6000fd5b505050506040513d6000823e3d601f19601f820116820180604052508101906106fa91906115ae565b955095509550505050600180811115610716576107156110d3565b5b826001811115610729576107286110d3565b5b14610769576040517f08c379a0000000000000000000000000000000000000000000000000000000008152600401610760906116bf565b60405180910390fd5b8073ffffffffffffffffffffffffffffffffffffffff163373ffffffffffffffffffffffffffffffffffffffff16146107d7576040517f08c379a00000000000000000000000000000000000000000000000000000000081526004016107ce9061180c565b60405180910390fd5b823414610819576040517f08c379a000000000000000000000000000000000000000000000000000000000815260040161081090611878565b60405180910390fd5b6000836001600087815260200190815260200160002060010160009054906101000a900473ffffffffffffffffffffffffffffffffffffffff16838660405161086190610f18565b61086d93929190611898565b6040518091039082f090508015801561088a573d6000803e3d6000fd5b509050806001600087815260200190815260200160002060030160016101000a81548173ffffffffffffffffffffffffffffffffffffffff021916908373ffffffffffffffffffffffffffffffffffffffff160217905550600180600087815260200190815260200160002060030160006101000a81548160ff0219169083600281111561091b5761091a6110d3565b5b02179055507fac8064fea85b95641f19e230ba9da498102d474473fe4b103466cb224daf5e01856001600088815260200190815260200160002060010160009054906101000a900473ffffffffffffffffffffffffffffffffffffffff1683604051610989939291906118cf565b60405180910390a15050505050565b60008054906101000a900473ffffffffffffffffffffffffffffffffffffffff1681565b60016020528060005260406000206000915090508060000154908060010160009054906101000a900473ffffffffffffffffffffffffffffffffffffffff16908060020154908060030160009054906101000a900460ff16908060030160019054906101000a900473ffffffffffffffffffffffffffffffffffffffff16905085565b600082118015610af9575060008054906101000a900473ffffffffffffffffffffffffffffffffffffffff1673ffffffffffffffffffffffffffffffffffffffff166336fbad266040518163ffffffff167c0100000000000000000000000000000000000000000000000000000000028152600401602060405180830381865afa158015610ad1573d6000803e3d6000fd5b505050506040513d601f19601f82011682018060405250810190610af59190611906565b8211155b610b38576040517f08c379a0000000000000000000000000000000000000000000000000000000008152600401610b2f9061197f565b60405180910390fd5b60008060009054906101000a900473ffffffffffffffffffffffffffffffffffffffff1673ffffffffffffffffffffffffffffffffffffffff1663f0f3f2c8846040518263ffffffff167c0100000000000000000000000000000000000000000000000000000000028152600401610bb091906113cc565b600060405180830381865afa158015610bcd573d6000803e3d6000fd5b505050506040513d6000823e3d601f19601f82011682018060405250810190610bf691906115ae565b50945050505050600180811115610c1057610c0f6110d3565b5b816001811115610c2357610c226110d3565b5b14610c63576040517f08c379a0000000000000000000000000000000000000000000000000000000008152600401610c5a906119eb565b60405180910390fd5b6040518060a001604052808481526020013373ffffffffffffffffffffffffffffffffffffffff16815260200183815260200160006002811115610caa57610ca96110d3565b5b8152602001600073ffffffffffffffffffffffffffffffffffffffff16815250600160008581526020019081526020016000206000820151816000015560208201518160010160006101000a81548173ffffffffffffffffffffffffffffffffffffffff021916908373ffffffffffffffffffffffffffffffffffffffff1602179055506040820151816002015560608201518160030160006101000a81548160ff02191690836002811115610d6357610d626110d3565b5b021790555060808201518160030160016101000a81548173ffffffffffffffffffffffffffffffffffffffff021916908373ffffffffffffffffffffffffffffffffffffffff1602179055509050507f48b98ad7a8a8dbe21cc82bf98710ad4d2cdd949ccac393692e4d9a1722c162c78333604051610de3929190611771565b60405180910390a1505050565b610df8610f25565b600160008381526020019081526020016000206040518060a0016040529081600082015481526020016001820160009054906101000a900473ffffffffffffffffffffffffffffffffffffffff1673ffffffffffffffffffffffffffffffffffffffff1673ffffffffffffffffffffffffffffffffffffffff168152602001600282015481526020016003820160009054906101000a900460ff166002811115610ea557610ea46110d3565b5b6002811115610eb757610eb66110d3565b5b81526020016003820160019054906101000a900473ffffffffffffffffffffffffffffffffffffffff1673ffffffffffffffffffffffffffffffffffffffff1673ffffffffffffffffffffffffffffffffffffffff16815250509050919050565b61053680611a0c83390190565b6040518060a0016040528060008152602001600073ffffffffffffffffffffffffffffffffffffffff1681526020016000815260200160006002811115610f6f57610f6e6110d3565b5b8152602001600073ffffffffffffffffffffffffffffffffffffffff1681525090565b6000604051905090565b600080fd5b600080fd5b6000819050919050565b610fb981610fa6565b8114610fc457600080fd5b50565b600081359050610fd681610fb0565b92915050565b600060208284031215610ff257610ff1610f9c565b5b600061100084828501610fc7565b91505092915050565b600073ffffffffffffffffffffffffffffffffffffffff82169050919050565b6000819050919050565b600061104e61104961104484611009565b611029565b611009565b9050919050565b600061106082611033565b9050919050565b600061107282611055565b9050919050565b61108281611067565b82525050565b600060208201905061109d6000830184611079565b92915050565b6110ac81610fa6565b82525050565b60006110bd82611009565b9050919050565b6110cd816110b2565b82525050565b7f4e487b7100000000000000000000000000000000000000000000000000000000600052602160045260246000fd5b60038110611113576111126110d3565b5b50565b600081905061112482611102565b919050565b600061113482611116565b9050919050565b61114481611129565b82525050565b600061115582611055565b9050919050565b6111658161114a565b82525050565b600060a08201905061118060008301886110a3565b61118d60208301876110c4565b61119a60408301866110a3565b6111a7606083018561113b565b6111b4608083018461115c565b9695505050505050565b600080604083850312156111d5576111d4610f9c565b5b60006111e385828601610fc7565b92505060206111f485828601610fc7565b9150509250929050565b61120781610fa6565b82525050565b611216816110b2565b82525050565b61122581611129565b82525050565b6112348161114a565b82525050565b60a08201600082015161125060008501826111fe565b506020820151611263602085018261120d565b50604082015161127660408501826111fe565b506060820151611289606085018261121c565b50608082015161129c608085018261122b565b50505050565b600060a0820190506112b7600083018461123a565b92915050565b600082825260208201905092915050565b7f4e6f20726571756573742065786973747320666f7220746869732070726f6a6560008201527f6374000000000000000000000000000000000000000000000000000000000000602082015250565b600061132a6022836112bd565b9150611335826112ce565b604082019050919050565b600060208201905081810360008301526113598161131d565b9050919050565b7f5265717565737420616c72656164792070726f63657373656400000000000000600082015250565b60006113966019836112bd565b91506113a182611360565b602082019050919050565b600060208201905081810360008301526113c581611389565b9050919050565b60006020820190506113e160008301846110a3565b92915050565b6000815190506113f681610fb0565b92915050565b600080fd5b600080fd5b6000601f19601f8301169050919050565b7f4e487b7100000000000000000000000000000000000000000000000000000000600052604160045260246000fd5b61144f82611406565b810181811067ffffffffffffffff8211171561146e5761146d611417565b5b80604052505050565b6000611481610f92565b905061148d8282611446565b919050565b600067ffffffffffffffff8211156114ad576114ac611417565b5b6114b682611406565b9050602081019050919050565b60005b838110156114e15780820151818401526020810190506114c6565b60008484015250505050565b60006115006114fb84611492565b611477565b90508281526020810184848401111561151c5761151b611401565b5b6115278482856114c3565b509392505050565b600082601f830112611544576115436113fc565b5b81516115548482602086016114ed565b91505092915050565b6002811061156a57600080fd5b50565b60008151905061157c8161155d565b92915050565b61158b816110b2565b811461159657600080fd5b50565b6000815190506115a881611582565b92915050565b60008060008060008060c087890312156115cb576115ca610f9c565b5b60006115d989828a016113e7565b965050602087015167ffffffffffffffff8111156115fa576115f9610fa1565b5b61160689828a0161152f565b955050604087015167ffffffffffffffff81111561162757611626610fa1565b5b61163389828a0161152f565b945050606061164489828a016113e7565b935050608061165589828a0161156d565b92505060a061166689828a01611599565b9150509295509295509295565b7f50726f6a656374206d757374206265206f70656e000000000000000000000000600082015250565b60006116a96014836112bd565b91506116b482611673565b602082019050919050565b600060208201905081810360008301526116d88161169c565b9050919050565b7f4f6e6c792074686520656d706c6f7965722063616e2072656a6563742074686960008201527f7320726571756573740000000000000000000000000000000000000000000000602082015250565b600061173b6029836112bd565b9150611746826116df565b604082019050919050565b6000602082019050818103600083015261176a8161172e565b9050919050565b600060408201905061178660008301856110a3565b61179360208301846110c4565b9392505050565b7f4f6e6c792074686520656d706c6f7965722063616e206163636570742074686960008201527f7320726571756573740000000000000000000000000000000000000000000000602082015250565b60006117f66029836112bd565b91506118018261179a565b604082019050919050565b60006020820190508181036000830152611825816117e9565b9050919050565b7f496e636f72726563742072657761726420616d6f756e742073656e7400000000600082015250565b6000611862601c836112bd565b915061186d8261182c565b602082019050919050565b6000602082019050818103600083015261189181611855565b9050919050565b60006060820190506118ad60008301866110c4565b6118ba60208301856110c4565b6118c760408301846110a3565b949350505050565b60006060820190506118e460008301866110a3565b6118f160208301856110c4565b6118fe60408301846110c4565b949350505050565b60006020828403121561191c5761191b610f9c565b5b600061192a848285016113e7565b91505092915050565b7f496e76616c69642070726f6a6563742049440000000000000000000000000000600082015250565b60006119696012836112bd565b915061197482611933565b602082019050919050565b600060208201905081810360008301526119988161195c565b9050919050565b7f50726f6a656374206973206e6f74206f70656e00000000000000000000000000600082015250565b60006119d56013836112bd565b91506119e08261199f565b602082019050919050565b60006020820190508181036000830152611a04816119c8565b905091905056fe60806040526040516105363803806105368339818101604052810190610025919061014e565b826000806101000a81548173ffffffffffffffffffffffffffffffffffffffff021916908373ffffffffffffffffffffffffffffffffffffffff16021790555081600160006101000a81548173ffffffffffffffffffffffffffffffffffffffff021916908373ffffffffffffffffffffffffffffffffffffffff160217905550806002819055505050506101a1565b600080fd5b600073ffffffffffffffffffffffffffffffffffffffff82169050919050565b60006100e5826100ba565b9050919050565b6100f5816100da565b811461010057600080fd5b50565b600081519050610112816100ec565b92915050565b6000819050919050565b61012b81610118565b811461013657600080fd5b50565b60008151905061014881610122565b92915050565b600080600060608486031215610167576101666100b5565b5b600061017586828701610103565b935050602061018686828701610103565b925050604061019786828701610139565b9150509250925092565b610386806101b06000396000f3fe608060405234801561001057600080fd5b5060043610610069576000357c01000000000000000000000000000000000000000000000000000000009004806369d895751461006e578063a37dda2c14610078578063aa8c217c14610096578063ae200e79146100b4575b600080fd5b6100766100d2565b005b6100806101cd565b60405161008d919061025e565b60405180910390f35b61009e6101f1565b6040516100ab9190610292565b60405180910390f35b6100bc6101f7565b6040516100c9919061025e565b60405180910390f35b600160009054906101000a900473ffffffffffffffffffffffffffffffffffffffff1673ffffffffffffffffffffffffffffffffffffffff163373ffffffffffffffffffffffffffffffffffffffff1614610162576040517f08c379a000000000000000000000000000000000000000000000000000000000815260040161015990610330565b60405180910390fd5b60008054906101000a900473ffffffffffffffffffffffffffffffffffffffff1673ffffffffffffffffffffffffffffffffffffffff166108fc6002549081150290604051600060405180830381858888f193505050501580156101ca573d6000803e3d6000fd5b50565b60008054906101000a900473ffffffffffffffffffffffffffffffffffffffff1681565b60025481565b600160009054906101000a900473ffffffffffffffffffffffffffffffffffffffff1681565b600073ffffffffffffffffffffffffffffffffffffffff82169050919050565b60006102488261021d565b9050919050565b6102588161023d565b82525050565b6000602082019050610273600083018461024f565b92915050565b6000819050919050565b61028c81610279565b82525050565b60006020820190506102a76000830184610283565b92915050565b600082825260208201905092915050565b7f4f6e6c792074686520656d706c6f7965722063616e2072656c6561736520667560008201527f6e64730000000000000000000000000000000000000000000000000000000000602082015250565b600061031a6023836102ad565b9150610325826102be565b604082019050919050565b600060208201905081810360008301526103498161030d565b905091905056fea26469706673582212200fb512bb72a14851223ec05cf56413224c29a057a5d9f8795b9b5c64639312bd64736f6c634300081c0033a2646970667358221220a668508d07b057ec6a57540f6769546167f3701f4329759159d8114ee4f6abd064736f6c634300081c0033",
  "immutableReferences": {},
  "source": "// SPDX-License-Identifier: MIT\r\npragma solidity ^0.8.0;\r\n\r\nimport \"./Projects.sol\";\r\n\r\ncontract Escrow {\r\n    address public freelancer;\r\n    address public employer;\r\n    uint public amount;\r\n\r\n    constructor(address _freelancer, address _employer, uint _amount) payable {\r\n        freelancer = _freelancer;\r\n        employer = _employer;\r\n        amount = _amount;\r\n    }\r\n\r\n    function releaseFunds() external {\r\n        require(msg.sender == employer, \"Only the employer can release funds\");\r\n        payable(freelancer).transfer(amount);\r\n    }\r\n}\r\n\r\ncontract RequestManager {\r\n\r\n    Projects public projectsContract;\r\n\r\n    enum RequestStatus { Pending, Accepted, Rejected }\r\n\r\n    struct Request {\r\n        uint projectId;\r\n        address freelancer;\r\n        uint freelancerRating;\r\n        RequestStatus status;\r\n        Escrow escrowContract;\r\n    }\r\n\r\n    mapping(uint => Request) public requests;\r\n\r\n    event RequestSent(uint projectId, address freelancer);\r\n    event RequestAccepted(uint projectId, address freelancer, address escrowContract);\r\n    event RequestRejected(uint projectId, address freelancer);\r\n\r\n    constructor(address _projectsContract) {\r\n        projectsContract = Projects(_projectsContract);\r\n    }\r\n\r\n    function sendRequest(uint _projectId, uint _freelancerRating) public {\r\n        require(_projectId > 0 && _projectId <= projectsContract.projectCount(), \"Invalid project ID\");\r\n        (,, , , Projects.Status status, ) = projectsContract.getProject(_projectId);\r\n        require(status == Projects.Status.Open, \"Project is not open\");\r\n\r\n        requests[_projectId] = Request({\r\n            projectId: _projectId,\r\n            freelancer: msg.sender,\r\n            freelancerRating: _freelancerRating,\r\n            status: RequestStatus.Pending,\r\n            escrowContract: Escrow(address(0))\r\n        });\r\n\r\n        emit RequestSent(_projectId, msg.sender);\r\n    }\r\n\r\n    function acceptRequest(uint _projectId) public payable {\r\n        require(requests[_projectId].freelancer != address(0), \"No request exists for this project\");\r\n        require(requests[_projectId].status == RequestStatus.Pending, \"Request already processed\");\r\n\r\n        (, , , uint reward, Projects.Status status, address employer) = projectsContract.getProject(_projectId);\r\n        require(status == Projects.Status.Open, \"Project must be open\");\r\n        require(msg.sender == employer, \"Only the employer can accept this request\");\r\n        require(msg.value == reward, \"Incorrect reward amount sent\");\r\n\r\n        // Create new escrow contract instance with freelancer and employer details\r\n        Escrow escrow = new Escrow{value: reward}(requests[_projectId].freelancer, employer, reward);\r\n        requests[_projectId].escrowContract = escrow;\r\n\r\n        requests[_projectId].status = RequestStatus.Accepted;\r\n        emit RequestAccepted(_projectId, requests[_projectId].freelancer, address(escrow));\r\n    }\r\n\r\n    function rejectRequest(uint _projectId) public {\r\n        require(requests[_projectId].freelancer != address(0), \"No request exists for this project\");\r\n        require(requests[_projectId].status == RequestStatus.Pending, \"Request already processed\");\r\n\r\n        (, , , , Projects.Status status, address employer) = projectsContract.getProject(_projectId);\r\n        require(status == Projects.Status.Open, \"Project must be open\");\r\n        require(msg.sender == employer, \"Only the employer can reject this request\");\r\n\r\n        requests[_projectId].status = RequestStatus.Rejected;\r\n        emit RequestRejected(_projectId, requests[_projectId].freelancer);\r\n    }\r\n\r\n    function getRequest(uint _projectId) public view returns (Request memory) {\r\n        return requests[_projectId];\r\n    }\r\n}\r\n",
  "sourcePath": "C:\\Users\\risha\\Projects\\blockchain\\delance\\contracts\\RequestManager.sol",
  "compiler": {
    "name": "solc",
    "version": "0.8.28+commit.7893614a.Emscripten.clang"
  },
  "schemaVersion": "3.4.16",
  "updatedAt": "2024-10-29T15:34:31.425Z",
  "networkType": "ethereum",
  "devdoc": {
    "kind": "dev",
    "methods": {},
    "version": 1
  },
  "userdoc": {
    "kind": "user",
    "methods": {},
    "version": 1
  }
}