{
  "contractName": "RequestManager",
  "abi": [
    {
      "inputs": [
        {
          "internalType": "address",
          "name": "_projectsContract",
          "type": "address"
        }
      ],
      "stateMutability": "nonpayable",
      "type": "constructor"
    },
    {
      "anonymous": false,
      "inputs": [
        {
          "indexed": false,
          "internalType": "uint256",
          "name": "projectId",
          "type": "uint256"
        },
        {
          "indexed": false,
          "internalType": "uint256",
          "name": "milestoneId",
          "type": "uint256"
        },
        {
          "indexed": false,
          "internalType": "uint256",
          "name": "updatedRating",
          "type": "uint256"
        }
      ],
      "name": "MilestoneAccepted",
      "type": "event"
    },
    {
      "anonymous": false,
      "inputs": [
        {
          "indexed": false,
          "internalType": "uint256",
          "name": "requestId",
          "type": "uint256"
        },
        {
          "indexed": false,
          "internalType": "address",
          "name": "freelancer",
          "type": "address"
        },
        {
          "indexed": false,
          "internalType": "address",
          "name": "escrowContract",
          "type": "address"
        }
      ],
      "name": "RequestAccepted",
      "type": "event"
    },
    {
      "anonymous": false,
      "inputs": [
        {
          "indexed": false,
          "internalType": "uint256",
          "name": "requestId",
          "type": "uint256"
        },
        {
          "indexed": false,
          "internalType": "address",
          "name": "freelancer",
          "type": "address"
        }
      ],
      "name": "RequestRejected",
      "type": "event"
    },
    {
      "anonymous": false,
      "inputs": [
        {
          "indexed": false,
          "internalType": "uint256",
          "name": "requestId",
          "type": "uint256"
        },
        {
          "indexed": false,
          "internalType": "uint256",
          "name": "projectId",
          "type": "uint256"
        },
        {
          "indexed": false,
          "internalType": "address",
          "name": "freelancer",
          "type": "address"
        }
      ],
      "name": "RequestSent",
      "type": "event"
    },
    {
      "inputs": [],
      "name": "projectsContract",
      "outputs": [
        {
          "internalType": "contract Projects",
          "name": "",
          "type": "address"
        }
      ],
      "stateMutability": "view",
      "type": "function"
    },
    {
      "inputs": [],
      "name": "requestCount",
      "outputs": [
        {
          "internalType": "uint256",
          "name": "",
          "type": "uint256"
        }
      ],
      "stateMutability": "view",
      "type": "function"
    },
    {
      "inputs": [
        {
          "internalType": "uint256",
          "name": "",
          "type": "uint256"
        }
      ],
      "name": "requests",
      "outputs": [
        {
          "internalType": "uint256",
          "name": "projectId",
          "type": "uint256"
        },
        {
          "internalType": "address",
          "name": "freelancer",
          "type": "address"
        },
        {
          "internalType": "uint256",
          "name": "freelancerRating",
          "type": "uint256"
        },
        {
          "internalType": "enum RequestManager.RequestStatus",
          "name": "status",
          "type": "uint8"
        },
        {
          "internalType": "contract Escrow",
          "name": "escrowContract",
          "type": "address"
        }
      ],
      "stateMutability": "view",
      "type": "function"
    },
    {
      "inputs": [
        {
          "internalType": "uint256",
          "name": "_projectId",
          "type": "uint256"
        },
        {
          "internalType": "uint256",
          "name": "_freelancerRating",
          "type": "uint256"
        }
      ],
      "name": "sendRequest",
      "outputs": [],
      "stateMutability": "nonpayable",
      "type": "function"
    },
    {
      "inputs": [
        {
          "internalType": "uint256",
          "name": "_requestId",
          "type": "uint256"
        }
      ],
      "name": "acceptRequest",
      "outputs": [],
      "stateMutability": "payable",
      "type": "function"
    },
    {
      "inputs": [
        {
          "internalType": "uint256",
          "name": "_requestId",
          "type": "uint256"
        }
      ],
      "name": "rejectRequest",
      "outputs": [],
      "stateMutability": "nonpayable",
      "type": "function"
    },
    {
      "inputs": [
        {
          "internalType": "uint256",
          "name": "_requestId",
          "type": "uint256"
        }
      ],
      "name": "getRequest",
      "outputs": [
        {
          "components": [
            {
              "internalType": "uint256",
              "name": "projectId",
              "type": "uint256"
            },
            {
              "internalType": "address",
              "name": "freelancer",
              "type": "address"
            },
            {
              "internalType": "uint256",
              "name": "freelancerRating",
              "type": "uint256"
            },
            {
              "internalType": "enum RequestManager.RequestStatus",
              "name": "status",
              "type": "uint8"
            },
            {
              "internalType": "contract Escrow",
              "name": "escrowContract",
              "type": "address"
            }
          ],
          "internalType": "struct RequestManager.Request",
          "name": "",
          "type": "tuple"
        }
      ],
      "stateMutability": "view",
      "type": "function"
    },
    {
      "inputs": [],
      "name": "viewAllRequests",
      "outputs": [
        {
          "internalType": "uint256[]",
          "name": "requestIds",
          "type": "uint256[]"
        },
        {
          "internalType": "uint256[]",
          "name": "projectIds",
          "type": "uint256[]"
        },
        {
          "internalType": "address[]",
          "name": "freelancers",
          "type": "address[]"
        },
        {
          "internalType": "uint256[]",
          "name": "freelancerRatings",
          "type": "uint256[]"
        },
        {
          "internalType": "enum RequestManager.RequestStatus[]",
          "name": "statuses",
          "type": "uint8[]"
        },
        {
          "internalType": "address[]",
          "name": "escrowContracts",
          "type": "address[]"
        }
      ],
      "stateMutability": "view",
      "type": "function"
    },
    {
      "inputs": [
        {
          "internalType": "uint256",
          "name": "_milestoneId",
          "type": "uint256"
        },
        {
          "internalType": "uint256",
          "name": "_actualDaysTaken",
          "type": "uint256"
        },
        {
          "internalType": "uint256",
          "name": "_delayPenalty",
          "type": "uint256"
        },
        {
          "internalType": "uint256",
          "name": "_requestId",
          "type": "uint256"
        }
      ],
      "name": "acceptMilestone",
      "outputs": [],
      "stateMutability": "payable",
      "type": "function"
    },
    {
      "inputs": [],
      "name": "viewRequestsByEmployer",
      "outputs": [
        {
          "internalType": "uint256[]",
          "name": "requestIds",
          "type": "uint256[]"
        },
        {
          "internalType": "uint256[]",
          "name": "projectIds",
          "type": "uint256[]"
        },
        {
          "internalType": "address[]",
          "name": "freelancers",
          "type": "address[]"
        },
        {
          "internalType": "uint256[]",
          "name": "freelancerRatings",
          "type": "uint256[]"
        },
        {
          "internalType": "enum RequestManager.RequestStatus[]",
          "name": "statuses",
          "type": "uint8[]"
        },
        {
          "internalType": "address[]",
          "name": "escrowContracts",
          "type": "address[]"
        }
      ],
      "stateMutability": "view",
      "type": "function"
    }
  ],
  "bytecode": "0x608034606f57601f611cf638819003918201601f19168301916001600160401b03831184841017607357808492602094604052833981010312606f57516001600160a01b03811690819003606f575f80546001600160a01b031916919091179055604051611c6e90816100888239f35b5f80fd5b634e487b7160e01b5f52604160045260245ffdfe60806040526004361015610011575f80fd5b5f5f3560e01c806313e4324814610ff95780632d7788db14610f195780634ba1f09814610ca05780634bd335b814610c795780635badbe4c14610c5c57806381d12c5814610bee578063a3f54257146104b2578063a7080a1814610390578063b3db5c94146100f15763c58343ef14610088575f80fd5b346100ee5760203660031901126100ee5760a06100a66004356115f9565b6040519080518252600180841b036020820151166020830152604081015160408301526100db6060820151606084019061127a565b6080600180851b03910151166080820152f35b80fd5b50346100ee5760403660031901126100ee576004358015158061031d575b156102e3578154604051631e1e7e5960e31b815260048101839052908390829060249082906001600160a01b03165afa9081156102d85783916102b0575b50600281101561029c5760010361026157610169600254611328565b806002556040519061017a82611336565b8282526003602083019233845260408101602435815260608201948786526080830194888652885260016020526040882092518355600183019060018060a01b039051166bffffffffffffffffffffffff60a01b825416179055516002820155019151600381101561024d57825491516001600160a81b031990921660ff9091161760089190911b610100600160a81b03161790557fe697eb68c0228bd7d4e553246a2a86e8402d0895e45092ef8ae87b4cfd29f01690606090600254906040519182526020820152336040820152a180f35b634e487b7160e01b85526021600452602485fd5b60405162461bcd60e51b8152602060048201526013602482015272283937b532b1ba1034b9903737ba1037b832b760691b6044820152606490fd5b634e487b7160e01b83526021600452602483fd5b6102cc91503d8085833e6102c48183611351565b8101906113c7565b5093505050505f61014d565b6040513d85823e3d90fd5b60405162461bcd60e51b8152602060048201526012602482015271125b9d985b1a59081c1c9bda9958dd08125160721b6044820152606490fd5b508154604051631b7dd69360e11b815290602090829060049082906001600160a01b03165afa9081156102d857839161035a575b5081111561010f565b90506020813d602011610388575b8161037560209383611351565b8101031261038457515f610351565b5f80fd5b3d9150610368565b50346100ee57806003193601126100ee576002546103ad81611459565b6103b682611459565b916103c081611459565b6103c982611459565b6103d283611459565b916103dc84611459565b9360015b818111156103ff575050604051965086956103fb9587611287565b0390f35b8089526001602052604089205f1982019082821161049e5790610493600384938d61043e858f8f99610434836104999c61148b565b528454935061148b565b5260018101546001600160a01b0316610457858a61148b565b526002810154610467858b61148b565b52015461048060ff821661047b858c61148b565b6114b3565b60081c6001600160a01b0316918961148b565b52611328565b6103e0565b634e487b7160e01b8b52601160045260248bfd5b506080366003190112610384576004356104cd6064356115f9565b9081518015159081610b7d575b5015610b3f5760018060a01b035f54169180519260405193631e1e7e5960e31b855260048501525f84602481845afa801561084a575f945f91610b1a575b506001600160a01b03163303610ac55781516040519063010b152760e61b825260048201525f81602481855afa94851561084a575f925f965f945f945f92610944575b508715159081610938575b50156108f3575f198701938785116108df57846105829161148b565b5161089a57836105919161148b565b515115610855578451813b15610384575f9160448392604051948593849263f326206b60e01b845260048401528b60248401525af1801561084a57610835575b50865460208581018051604051633a766ddf60e01b81526001600160a01b039182166004820152999316939092909189602481875afa98891561082a578a996107f6575b50606461062c83610626888a61148b565b516115e6565b0490816101f402916101f483040361049e576106609161064f876106569361148b565b51906115e6565b91602435906115e6565b9081156107e2570496601488136107d9575b8888820198891291129080158216911516176107c55790879392916101f488116107bb575b516001600160a01b0316813b156107b757849160448392604051948593849263018f728360e21b845260048401528c60248401525af19081156107ac578491610797575b50506106e69161148b565b5160808301516001600160a01b031690813b15610793578291604483926040519485938492638c936e6560e01b84526004840152833560248401525af180156107885761076b575b507f27d841e82fb3b2469e89e27c70f2ec8597324e08569a13460e4dd8a1a3c0b10c6060848685519160405192835260208301526040820152a180f35b8161077891949394611351565b6107845790835f61072e565b8380fd5b6040513d84823e3d90fd5b8280fd5b816107a191611351565b61079357825f6106db565b6040513d86823e3d90fd5b8480fd5b6101f49750610697565b634e487b7160e01b88526011600452602488fd5b60149750610672565b634e487b7160e01b8a52601260045260248afd5b9098506020813d602011610822575b8161081260209383611351565b810103126103845751975f610615565b3d9150610805565b6040513d8c823e3d90fd5b6108429197505f90611351565b5f955f6105d1565b6040513d5f823e3d90fd5b60405162461bcd60e51b815260206004820152601760248201527f50726f6f662066696c65206e6f742075706c6f616465640000000000000000006044820152606490fd5b60405162461bcd60e51b815260206004820152601b60248201527f4d696c6573746f6e6520616c726561647920636f6d706c6574656400000000006044820152606490fd5b634e487b7160e01b5f52601160045260245ffd5b60405162461bcd60e51b815260206004820152601860248201527f4d696c6573746f6e6520646f6573206e6f7420657869737400000000000000006044820152606490fd5b9050518711155f610566565b98505050915091503d805f873e61095b8187611351565b850191610100868403126103845785516001600160401b038111610384578361098591880161150b565b9160208701516001600160401b03811161038457846109a591890161150b565b5060408701516001600160401b03811161038457846109c5918901611568565b5060608701516001600160401b03811161038457846109e5918901611568565b5060808701516001600160401b0381116103845784610a0591890161150b565b60a08801516001600160401b0381116103845785610a24918a0161150b565b9760c08101516001600160401b0381116103845781019580601f88011215610384578651610a5181611442565b97610a5f604051998a611351565b8189526020808a019260051b8201019083821161038457602001915b818310610aac5750505060e08201516001600160401b03811161038457610aa29201611568565b909794935f61055b565b8251801515810361038457815260209283019201610a7b565b60405162461bcd60e51b815260206004820152602760248201527f4f6e6c792074686520656d706c6f7965722063616e20616363657074206d696c6044820152666573746f6e657360c81b6064820152608490fd5b9050610b319194503d805f833e6102c48183611351565b97945050915050935f610518565b60405162461bcd60e51b8152602060048201526016602482015275141c9bda9958dd08191bd95cc81b9bdd08195e1a5cdd60521b6044820152606490fd5b5f54604051631b7dd69360e11b81529250602090839060049082906001600160a01b03165afa91821561084a575f92610bba575b5011155f6104da565b9091506020813d602011610be6575b81610bd660209383611351565b810103126103845751905f610bb1565b3d9150610bc9565b34610384576020366003190112610384576004355f52600160205260a060405f20805490600180841b0360018201541690600360028201549101549160405193845260208401526040830152610c4a6060830160ff831661127a565b60081c5f196001841b01166080820152f35b34610384575f366003190112610384576020600254604051908152f35b34610384575f366003190112610384575f546040516001600160a01b039091168152602090f35b602036600319011261038457600435805f52600160205260405f20600181019160018060a01b03835416610cd58115156114bf565b600383019260ff8454166003811015610e4a57610edb575f80549154604051631e1e7e5960e31b8152600481019190915291829060249082906001600160a01b03165afa91821561084a575f925f925f91610eb4575b506001600160a01b03169133839003610e5e576002811015610e4a57600103610e0e576040519161059690818401908482106001600160401b03831117610dfa5760409385936116a3853982526020820152030191f091821561084a5780546001600160a81b031916610100600160a81b03600894851b1617600117908190559254604080519283526001600160a01b0391821660208401529390921c909116918101919091527fac8064fea85b95641f19e230ba9da498102d474473fe4b103466cb224daf5e0190606090a1005b634e487b7160e01b5f52604160045260245ffd5b60405162461bcd60e51b8152602060048201526014602482015273283937b532b1ba1036bab9ba1031329037b832b760611b6044820152606490fd5b634e487b7160e01b5f52602160045260245ffd5b60405162461bcd60e51b815260206004820152602860248201527f4f6e6c792074686520656d706c6f7965722063616e2061636365707420746865604482015267081c995c5d595cdd60c21b6064820152608490fd5b91935050610ecc91503d805f833e6102c48183611351565b94509492509050929187610d2b565b60405162461bcd60e51b815260206004820152601660248201527552657175657374206973206e6f742070656e64696e6760501b6044820152606490fd5b3461038457602036600319011261038457600435805f52600160205260405f209060036001830192610f5560018060a01b0385541615156114bf565b019060ff8254166003811015610e4a57610fb457815460ff19166002179091559054604080519283526001600160a01b039190911660208301527f490ad67e4c8b3b9c1d11dfcd7f02e155190b8f6feff3a9d9e9df3721f0f74e5791a1005b60405162461bcd60e51b815260206004820152601960248201527f5265717565737420616c72656164792070726f636573736564000000000000006044820152606490fd5b34610384575f366003190112610384576002545f80546001600160a01b03169160015b81811115611181575061102e82611459565b9061103883611459565b9261104281611459565b61104b82611459565b9061105e61105884611459565b93611459565b935f60015b82811115611081575050506103fb9495965060405196879687611287565b805f526001602052895f6040812054602460405180948193631e1e7e5960e31b835260048301525afa90811561084a575f91611161575b506001600160a01b031633146110d7575b6110d290611328565b611063565b906111596110d291835f52600160205260038a856110f98460405f209361148b565b528054611106848f61148b565b5260018101546001600160a01b031661111f848a61148b565b52600281015461112f848b61148b565b52015461114360ff821661047b848c61148b565b60081c6001600160a01b0316610493828b61148b565b9190506110c9565b61117591503d805f833e6102c48183611351565b9450505050508b6110b8565b805f52600160205260405f205460405190631e1e7e5960e31b825260048201525f81602481885afa90811561084a575f916111eb575b506001600160a01b031633146111d6575b6111d190611328565b61101c565b916111e36111d191611328565b9290506111c8565b6111ff91503d805f833e6102c48183611351565b945050505050856111b7565b90602080835192838152019201905f5b8181106112285750505090565b825184526020938401939092019160010161121b565b90602080835192838152019201905f5b81811061125b5750505090565b82516001600160a01b031684526020938401939092019160010161124e565b906003821015610e4a5752565b96959391926112b66112d2946112a86112c49460c08c5260c08c019061120b565b908a820360208c015261120b565b9088820360408a015261123e565b90868203606088015261120b565b9380850360808201526020808451968781520193015f955b80871061130957505061130693945060a081840391015261123e565b90565b90936020808261131c600194895161127a565b019501960195906112ea565b5f1981146108df5760010190565b60a081019081106001600160401b03821117610dfa57604052565b90601f801991011681019081106001600160401b03821117610dfa57604052565b81601f82011215610384578051906001600160401b038211610dfa57604051926113a6601f8401601f191660200185611351565b8284526020838301011161038457815f9260208093018386015e8301015290565b60c0818303126103845780519260208201516001600160401b03811161038457836113f3918401611372565b926040830151906001600160401b03821161038457611413918401611372565b91606081015191608082015160028110156103845760a092909201516001600160a01b03811681036103845790565b6001600160401b038111610dfa5760051b60200190565b9061146382611442565b6114706040519182611351565b8281528092611481601f1991611442565b0190602036910137565b805182101561149f5760209160051b010190565b634e487b7160e01b5f52603260045260245ffd5b6003821015610e4a5752565b156114c657565b60405162461bcd60e51b815260206004820152601d60248201527f4e6f20726571756573742065786973747320666f7220746869732049440000006044820152606490fd5b9080601f8301121561038457815161152281611442565b926115306040519485611351565b81845260208085019260051b82010192831161038457602001905b8282106115585750505090565b815181526020918201910161154b565b9080601f8301121561038457815161157f81611442565b9261158d6040519485611351565b81845260208085019260051b820101918383116103845760208201905b8382106115b957505050505090565b81516001600160401b038111610384576020916115db87848094880101611372565b8152019101906115aa565b818102929181159184041417156108df57565b5f608060405161160881611336565b8281528260208201528260408201528260608201520152805f52600160205261164160018060a01b03600160405f2001541615156114bf565b5f52600160205260405f2060036040519161165b83611336565b8054835260018101546001600160a01b0316602084015260028101546040840152015461168e60ff8216606084016114b3565b60081c6001600160a01b031660808201529056fe6080601f61059638819003918201601f19168301916001600160401b03831184841017608957808492604094855283398101031260855760476020604183609d565b9201609d565b5f80546001600160a01b039384166001600160a01b03199182161790915560018054929093169116179055346002556040516104e590816100b18239f35b5f80fd5b634e487b7160e01b5f52604160045260245ffd5b51906001600160a01b038216820360855756fe60806040526004361015610011575f80fd5b5f3560e01c806345ad1a2e14610329578063590e1ae31461025957806369d89575146101f95780638c936e65146100d6578063a37dda2c146100af578063aa8c217c146100925763ae200e7914610066575f80fd5b3461008e575f36600319011261008e576001546040516001600160a01b039091168152602090f35b5f80fd5b3461008e575f36600319011261008e576020600254604051908152f35b3461008e575f36600319011261008e575f546040516001600160a01b039091168152602090f35b3461008e57604036600319011261008e5760025480156101b45761011760646101016004358461049c565b0460646101106024358361049c565b049061047b565b908111610160575f8080808460018060a01b03825416828215610157575bf11561014c576101479060025461047b565b600255005b6040513d5f823e3d90fd5b506108fc610135565b60405162461bcd60e51b815260206004820152602660248201527f52656475636564207061796d656e74206578636565647320657363726f772062604482015265616c616e636560d01b6064820152608490fd5b60405162461bcd60e51b815260206004820152601c60248201527f496e73756666696369656e742066756e647320696e20657363726f77000000006044820152606490fd5b3461008e575f36600319011261008e5761021e60018060a01b036001541633146103e1565b5f80808060025480156102318115610439565b82546001600160a01b0316908390610250575bf11561014c575f600255005b506108fc610244565b3461008e575f36600319011261008e575f546001600160a01b0316338190036102d357600254908115610299575f808093819382f11561014c575f600255005b60405162461bcd60e51b8152602060048201526012602482015271139bc8199d5b991cc81d1bc81c99599d5b9960721b6044820152606490fd5b60405162461bcd60e51b815260206004820152602860248201527f4f6e6c792074686520667265656c616e6365722063616e20726571756573742060448201526718481c99599d5b9960c21b6064820152608490fd5b3461008e57602036600319011261008e5760043561035260018060a01b036001541633146103e1565b600254610360811515610439565b811161038e575f8080808460018060a01b0382541682821561015757f11561014c576101479060025461047b565b60405162461bcd60e51b815260206004820152602560248201527f5265647563656420616d6f756e74206578636565647320657363726f772062616044820152646c616e636560d81b6064820152608490fd5b156103e857565b60405162461bcd60e51b815260206004820152602360248201527f4f6e6c792074686520656d706c6f7965722063616e2072656c656173652066756044820152626e647360e81b6064820152608490fd5b1561044057565b60405162461bcd60e51b81526020600482015260136024820152724e6f2066756e647320746f2072656c6561736560681b6044820152606490fd5b9190820391821161048857565b634e487b7160e01b5f52601160045260245ffd5b818102929181159184041417156104885756fea2646970667358221220cd2386a0d80e2d6fb4ee879d9d464077ea4606770b8fd04aa6b1e6c2ae73a2b864736f6c634300081c0033a2646970667358221220bdb3541f91355446c0cbc9175a8ef9de789772e6f512db69db8690a6da075ded64736f6c634300081c0033",
  "immutableReferences": {},
  "source": "// SPDX-License-Identifier: MIT\r\npragma solidity ^0.8.0;\r\n\r\nimport \"./Projects.sol\";\r\n\r\ncontract Escrow {\r\n    address public freelancer;\r\n    address public employer;\r\n    uint public amount;\r\n\r\n    constructor(address _freelancer, address _employer) payable {\r\n        freelancer = _freelancer;\r\n        employer = _employer;\r\n        amount = msg.value; // Set the amount to the value sent during the contract creation\r\n    }\r\n\r\n    function releaseFunds() external {\r\n        require(msg.sender == employer, \"Only the employer can release funds\");\r\n        require(amount > 0, \"No funds to release\");\r\n        payable(freelancer).transfer(amount);\r\n        amount = 0; // Set amount to 0 after release\r\n    }\r\n\r\n    function refund() external {\r\n        require(msg.sender == freelancer, \"Only the freelancer can request a refund\");\r\n        require(amount > 0, \"No funds to refund\");\r\n        payable(freelancer).transfer(amount);\r\n        amount = 0; // Set amount to 0 after refund\r\n    }\r\n\r\n    function releaseReducedFunds(uint _reducedAmount) external {\r\n        require(msg.sender == employer, \"Only the employer can release funds\");\r\n        require(amount > 0, \"No funds to release\");\r\n        require(_reducedAmount <= amount, \"Reduced amount exceeds escrow balance\");\r\n\r\n        payable(freelancer).transfer(_reducedAmount);\r\n        amount -= _reducedAmount; // Deduct the paid amount from the total escrow balance\r\n    }\r\n\r\n    function releaseMilestonePayment(uint milestonePercentage, uint delayPenalty) external {\r\n        // require(msg.sender == employer, \"Only the employer can release milestone payments\");\r\n        require(amount > 0, \"Insufficient funds in escrow\");\r\n\r\n        uint milestonePayment = (amount * milestonePercentage) / 100;\r\n        uint reducedPayment = milestonePayment - ((milestonePayment * delayPenalty) / 100);\r\n\r\n        require(reducedPayment <= amount, \"Reduced payment exceeds escrow balance\");\r\n\r\n        payable(freelancer).transfer(reducedPayment);\r\n        amount -= reducedPayment;\r\n    }\r\n}\r\n\r\ncontract RequestManager {\r\n    Projects public projectsContract;\r\n\r\n    enum RequestStatus { Pending, Accepted, Rejected }\r\n\r\n    struct Request {\r\n        uint projectId;\r\n        address freelancer;\r\n        uint freelancerRating;\r\n        RequestStatus status;\r\n        Escrow escrowContract;\r\n    }\r\n\r\n    // Store all requests in a single mapping\r\n    mapping(uint => Request) public requests;\r\n    uint public requestCount; // To keep track of the total number of requests\r\n\r\n    event RequestSent(uint requestId, uint projectId, address freelancer);\r\n    event RequestAccepted(uint requestId, address freelancer, address escrowContract);\r\n    event RequestRejected(uint requestId, address freelancer);\r\n    event MilestoneAccepted(uint projectId, uint milestoneId, uint updatedRating);\r\n\r\n    constructor(address _projectsContract) {\r\n        projectsContract = Projects(_projectsContract);\r\n    }\r\n\r\n    function sendRequest(uint _projectId, uint _freelancerRating) public {\r\n        require(_projectId > 0 && _projectId <= projectsContract.projectCount(), \"Invalid project ID\");\r\n        (,, , , Projects.Status status, ) = projectsContract.getProject(_projectId);\r\n        require(status == Projects.Status.Open, \"Project is not open\");\r\n\r\n        // Create a new request\r\n        requestCount++; // Increment request count to create a unique ID\r\n        requests[requestCount] = Request({\r\n            projectId: _projectId,\r\n            freelancer: msg.sender,\r\n            freelancerRating: _freelancerRating,\r\n            status: RequestStatus.Pending,\r\n            escrowContract: Escrow(address(0))\r\n        });\r\n\r\n        emit RequestSent(requestCount, _projectId, msg.sender);\r\n    }\r\n\r\n    function acceptRequest(uint _requestId) public payable {\r\n        Request storage request = requests[_requestId];\r\n        require(request.freelancer != address(0), \"No request exists for this ID\");\r\n        require(request.status == RequestStatus.Pending, \"Request is not pending\");\r\n\r\n        // Fetch project details\r\n        (,, , uint projectReward, Projects.Status status, address employer) = projectsContract.getProject(request.projectId);\r\n        require(msg.sender == employer, \"Only the employer can accept the request\");\r\n        require(status == Projects.Status.Open, \"Project must be open\");\r\n\r\n        // Create new escrow contract instance with freelancer and employer details\r\n        request.escrowContract = new Escrow{value: projectReward}(request.freelancer, employer);\r\n\r\n        request.status = RequestStatus.Accepted;\r\n        emit RequestAccepted(_requestId, request.freelancer, address(request.escrowContract));\r\n    }\r\n\r\n    function rejectRequest(uint _requestId) public {\r\n        Request storage request = requests[_requestId];\r\n        require(request.freelancer != address(0), \"No request exists for this ID\");\r\n        require(request.status == RequestStatus.Pending, \"Request already processed\");\r\n\r\n        request.status = RequestStatus.Rejected;\r\n        emit RequestRejected(_requestId, request.freelancer);\r\n    }\r\n\r\n    function getRequest(uint _requestId) public view returns (Request memory) {\r\n        require(requests[_requestId].freelancer != address(0), \"No request exists for this ID\");\r\n        return requests[_requestId];\r\n    }\r\n\r\n    // New function to view all requests\r\n    function viewAllRequests() public view returns (\r\n        uint[] memory requestIds,\r\n        uint[] memory projectIds,\r\n        address[] memory freelancers,\r\n        uint[] memory freelancerRatings,\r\n        RequestStatus[] memory statuses,\r\n        address[] memory escrowContracts\r\n    ) {\r\n        uint count = requestCount;\r\n\r\n        // Initialize arrays based on the total request count\r\n        requestIds = new uint[](count);\r\n        projectIds = new uint[](count);\r\n        freelancers = new address[](count);\r\n        freelancerRatings = new uint[](count);\r\n        statuses = new RequestStatus[](count);\r\n        escrowContracts = new address[](count);\r\n\r\n        // Populate the arrays with request details\r\n        for (uint i = 1; i <= requestCount; i++) {\r\n            Request storage request = requests[i];\r\n            requestIds[i - 1] = i;\r\n            projectIds[i - 1] = request.projectId;\r\n            freelancers[i - 1] = request.freelancer;\r\n            freelancerRatings[i - 1] = request.freelancerRating;\r\n            statuses[i - 1] = request.status;\r\n            escrowContracts[i - 1] = address(request.escrowContract);\r\n        }\r\n\r\n        return (requestIds, projectIds, freelancers, freelancerRatings, statuses, escrowContracts);\r\n    }\r\n\r\n\r\nfunction acceptMilestone(uint _milestoneId, uint _actualDaysTaken, uint _delayPenalty, uint _requestId) public payable {\r\n        Request memory request = getRequest(_requestId); // Retrieve the request using requestId\r\n\r\n        // Ensure projectId is valid\r\n        require(request.projectId > 0 && request.projectId <= projectsContract.projectCount(), \"Project does not exist\");\r\n\r\n        // Retrieve the project details using the getProject function\r\n        (, , , uint reward, , address employer) = projectsContract.getProject(request.projectId);\r\n        require(msg.sender == employer, \"Only the employer can accept milestones\");\r\n\r\n        // Ensure milestoneId is valid\r\n        (\r\n            uint[] memory ids,\r\n            uint[] memory projectIds,\r\n            string[] memory names,\r\n            string[] memory descriptions,\r\n            uint[] memory daycounts,\r\n            uint[] memory percentages,\r\n            bool[] memory completions,\r\n            string[] memory proofFileHashes\r\n        ) = projectsContract.getMilestones(request.projectId);\r\n\r\n        // Check if the milestone exists and is within bounds\r\n        require(_milestoneId > 0 && _milestoneId <= ids.length, \"Milestone does not exist\");\r\n        \r\n        // Fetch milestone data by using _milestoneId as an index\r\n        uint milestoneIndex = _milestoneId - 1;\r\n        require(!completions[milestoneIndex], \"Milestone already completed\");\r\n        require(bytes(proofFileHashes[milestoneIndex]).length > 0, \"Proof file not uploaded\");\r\n\r\n        // Mark the milestone as completed\r\n        projectsContract.completeMilestone(request.projectId, _milestoneId);\r\n\r\n        // Calculate and update freelancer rating based on the provided formula\r\n        uint currentRating = projectsContract.getFreelancerRating(request.freelancer);\r\n        uint rewardWeight = (percentages[milestoneIndex] * reward) / 100;\r\n        int ratingChange = int((5 * 100 * rewardWeight * daycounts[milestoneIndex]) / (reward * _actualDaysTaken));\r\n\r\n        // Cap the increment at +0.2 if positive\r\n        if (ratingChange > 20) {\r\n            ratingChange = 20;\r\n        }\r\n\r\n        uint newRating = uint(int(currentRating) + ratingChange);\r\n\r\n        // Ensure new rating doesn't exceed 5.0 (500 basis points)\r\n        if (newRating > 500) {\r\n            newRating = 500;\r\n        }\r\n\r\n        // Update the freelancer's rating\r\n        projectsContract.setFreelancerRating(request.freelancer, newRating);\r\n\r\n        // Release milestone payment from the escrow with the specified penalty\r\n        uint milestonePercentage = percentages[milestoneIndex];\r\n        request.escrowContract.releaseMilestonePayment(milestonePercentage, _delayPenalty);\r\n\r\n        emit MilestoneAccepted(request.projectId, _milestoneId, newRating);\r\n    }\r\n\r\n\r\n    function viewRequestsByEmployer() public view returns (\r\n            uint[] memory requestIds,\r\n            uint[] memory projectIds,\r\n            address[] memory freelancers,\r\n            uint[] memory freelancerRatings,\r\n            RequestStatus[] memory statuses,\r\n            address[] memory escrowContracts\r\n        ) {\r\n            uint count = 0;\r\n\r\n            // Count requests that belong to projects owned by the employer\r\n            for (uint i = 1; i <= requestCount; i++) {\r\n                uint projectId = requests[i].projectId;\r\n                (, , , , , address employer) = projectsContract.getProject(projectId);\r\n                if (employer == msg.sender) {\r\n                    count++;\r\n                }\r\n            }\r\n\r\n            // Initialize arrays based on the count of matching requests\r\n            requestIds = new uint[](count);\r\n            projectIds = new uint[](count);\r\n            freelancers = new address[](count);\r\n            freelancerRatings = new uint[](count);\r\n            statuses = new RequestStatus[](count);\r\n            escrowContracts = new address[](count);\r\n\r\n            uint index = 0;\r\n\r\n            // Populate the arrays with matching request details\r\n            for (uint i = 1; i <= requestCount; i++) {\r\n                uint projectId = requests[i].projectId;\r\n                (, , , , , address employer) = projectsContract.getProject(projectId);\r\n                if (employer == msg.sender) {\r\n                    Request storage request = requests[i];\r\n                    requestIds[index] = i;\r\n                    projectIds[index] = request.projectId;\r\n                    freelancers[index] = request.freelancer;\r\n                    freelancerRatings[index] = request.freelancerRating;\r\n                    statuses[index] = request.status;\r\n                    escrowContracts[index] = address(request.escrowContract);\r\n                    index++;\r\n                }\r\n            }\r\n\r\n            return (requestIds, projectIds, freelancers, freelancerRatings, statuses, escrowContracts);\r\n    }\r\n\r\n\r\n}\r\n",
  "sourcePath": "C:\\Users\\Shashwat Chaturvedi\\OneDrive - iiit-b\\college\\projects\\delance\\truffle_project\\contracts\\RequestManager.sol",
  "compiler": {
    "name": "solc",
    "version": "0.8.28+commit.7893614a.Emscripten.clang"
  },
  "schemaVersion": "3.4.16",
  "updatedAt": "2024-11-01T17:45:15.853Z",
  "devdoc": {
    "kind": "dev",
    "methods": {},
    "version": 1
  },
  "userdoc": {
    "kind": "user",
    "methods": {},
    "version": 1
  }
}