{
  "contractName": "RequestManager",
  "abi": [
    {
      "inputs": [
        {
          "internalType": "address",
          "name": "_projectsContract",
          "type": "address"
        }
      ],
      "stateMutability": "nonpayable",
      "type": "constructor"
    },
    {
      "anonymous": false,
      "inputs": [
        {
          "indexed": false,
          "internalType": "uint256",
          "name": "projectId",
          "type": "uint256"
        },
        {
          "indexed": false,
          "internalType": "uint256",
          "name": "milestoneId",
          "type": "uint256"
        },
        {
          "indexed": false,
          "internalType": "uint256",
          "name": "updatedRating",
          "type": "uint256"
        }
      ],
      "name": "MilestoneAccepted",
      "type": "event"
    },
    {
      "anonymous": false,
      "inputs": [
        {
          "indexed": false,
          "internalType": "uint256",
          "name": "requestId",
          "type": "uint256"
        },
        {
          "indexed": false,
          "internalType": "uint256",
          "name": "milestoneId",
          "type": "uint256"
        },
        {
          "indexed": false,
          "internalType": "string",
          "name": "cid",
          "type": "string"
        }
      ],
      "name": "MilestoneReviewRequestSent",
      "type": "event"
    },
    {
      "anonymous": false,
      "inputs": [
        {
          "indexed": false,
          "internalType": "uint256",
          "name": "_reviewRequestId",
          "type": "uint256"
        }
      ],
      "name": "RejectionReasonAccepted",
      "type": "event"
    },
    {
      "anonymous": false,
      "inputs": [
        {
          "indexed": false,
          "internalType": "uint256",
          "name": "requestId",
          "type": "uint256"
        },
        {
          "indexed": false,
          "internalType": "address",
          "name": "freelancer",
          "type": "address"
        },
        {
          "indexed": false,
          "internalType": "address",
          "name": "escrowContract",
          "type": "address"
        }
      ],
      "name": "RequestAccepted",
      "type": "event"
    },
    {
      "anonymous": false,
      "inputs": [
        {
          "indexed": false,
          "internalType": "uint256",
          "name": "requestId",
          "type": "uint256"
        },
        {
          "indexed": false,
          "internalType": "address",
          "name": "freelancer",
          "type": "address"
        }
      ],
      "name": "RequestRejected",
      "type": "event"
    },
    {
      "anonymous": false,
      "inputs": [
        {
          "indexed": false,
          "internalType": "uint256",
          "name": "requestId",
          "type": "uint256"
        },
        {
          "indexed": false,
          "internalType": "uint256",
          "name": "projectId",
          "type": "uint256"
        },
        {
          "indexed": false,
          "internalType": "address",
          "name": "freelancer",
          "type": "address"
        }
      ],
      "name": "RequestSent",
      "type": "event"
    },
    {
      "inputs": [],
      "name": "fileCount",
      "outputs": [
        {
          "internalType": "uint256",
          "name": "",
          "type": "uint256"
        }
      ],
      "stateMutability": "view",
      "type": "function",
      "constant": true
    },
    {
      "inputs": [
        {
          "internalType": "uint256",
          "name": "",
          "type": "uint256"
        },
        {
          "internalType": "uint256",
          "name": "",
          "type": "uint256"
        }
      ],
      "name": "milestoneFiles",
      "outputs": [
        {
          "internalType": "uint256",
          "name": "id",
          "type": "uint256"
        },
        {
          "internalType": "uint256",
          "name": "milestoneId",
          "type": "uint256"
        },
        {
          "internalType": "string",
          "name": "name",
          "type": "string"
        },
        {
          "internalType": "string",
          "name": "rid",
          "type": "string"
        },
        {
          "internalType": "string",
          "name": "cid",
          "type": "string"
        }
      ],
      "stateMutability": "view",
      "type": "function",
      "constant": true
    },
    {
      "inputs": [],
      "name": "milestoneReviewRequestCount",
      "outputs": [
        {
          "internalType": "uint256",
          "name": "",
          "type": "uint256"
        }
      ],
      "stateMutability": "view",
      "type": "function",
      "constant": true
    },
    {
      "inputs": [
        {
          "internalType": "uint256",
          "name": "",
          "type": "uint256"
        }
      ],
      "name": "milestoneReviewRequests",
      "outputs": [
        {
          "internalType": "uint256",
          "name": "id",
          "type": "uint256"
        },
        {
          "internalType": "uint256",
          "name": "milestoneId",
          "type": "uint256"
        },
        {
          "internalType": "address",
          "name": "freelancer",
          "type": "address"
        },
        {
          "internalType": "string",
          "name": "cid",
          "type": "string"
        },
        {
          "internalType": "bool",
          "name": "reviewed",
          "type": "bool"
        }
      ],
      "stateMutability": "view",
      "type": "function",
      "constant": true
    },
    {
      "inputs": [],
      "name": "projectsContract",
      "outputs": [
        {
          "internalType": "contract Projects",
          "name": "",
          "type": "address"
        }
      ],
      "stateMutability": "view",
      "type": "function",
      "constant": true
    },
    {
      "inputs": [],
      "name": "requestCount",
      "outputs": [
        {
          "internalType": "uint256",
          "name": "",
          "type": "uint256"
        }
      ],
      "stateMutability": "view",
      "type": "function",
      "constant": true
    },
    {
      "inputs": [
        {
          "internalType": "uint256",
          "name": "",
          "type": "uint256"
        }
      ],
      "name": "requests",
      "outputs": [
        {
          "internalType": "uint256",
          "name": "projectId",
          "type": "uint256"
        },
        {
          "internalType": "address",
          "name": "freelancer",
          "type": "address"
        },
        {
          "internalType": "uint256",
          "name": "freelancerRating",
          "type": "uint256"
        },
        {
          "internalType": "enum RequestManager.RequestStatus",
          "name": "status",
          "type": "uint8"
        },
        {
          "internalType": "contract Escrow",
          "name": "escrowContract",
          "type": "address"
        }
      ],
      "stateMutability": "view",
      "type": "function",
      "constant": true
    },
    {
      "inputs": [
        {
          "internalType": "uint256",
          "name": "_projectId",
          "type": "uint256"
        },
        {
          "internalType": "uint256",
          "name": "_freelancerRating",
          "type": "uint256"
        }
      ],
      "name": "sendRequest",
      "outputs": [],
      "stateMutability": "nonpayable",
      "type": "function"
    },
    {
      "inputs": [
        {
          "internalType": "uint256",
          "name": "_requestId",
          "type": "uint256"
        }
      ],
      "name": "acceptRequest",
      "outputs": [],
      "stateMutability": "payable",
      "type": "function",
      "payable": true
    },
    {
      "inputs": [
        {
          "internalType": "uint256",
          "name": "_requestId",
          "type": "uint256"
        }
      ],
      "name": "rejectRequest",
      "outputs": [],
      "stateMutability": "nonpayable",
      "type": "function"
    },
    {
      "inputs": [
        {
          "internalType": "uint256",
          "name": "_requestId",
          "type": "uint256"
        }
      ],
      "name": "getRequest",
      "outputs": [
        {
          "components": [
            {
              "internalType": "uint256",
              "name": "projectId",
              "type": "uint256"
            },
            {
              "internalType": "address",
              "name": "freelancer",
              "type": "address"
            },
            {
              "internalType": "uint256",
              "name": "freelancerRating",
              "type": "uint256"
            },
            {
              "internalType": "enum RequestManager.RequestStatus",
              "name": "status",
              "type": "uint8"
            },
            {
              "internalType": "contract Escrow",
              "name": "escrowContract",
              "type": "address"
            }
          ],
          "internalType": "struct RequestManager.Request",
          "name": "",
          "type": "tuple"
        }
      ],
      "stateMutability": "view",
      "type": "function",
      "constant": true
    },
    {
      "inputs": [],
      "name": "viewAllRequests",
      "outputs": [
        {
          "internalType": "uint256[]",
          "name": "requestIds",
          "type": "uint256[]"
        },
        {
          "internalType": "uint256[]",
          "name": "projectIds",
          "type": "uint256[]"
        },
        {
          "internalType": "address[]",
          "name": "freelancers",
          "type": "address[]"
        },
        {
          "internalType": "uint256[]",
          "name": "freelancerRatings",
          "type": "uint256[]"
        },
        {
          "internalType": "enum RequestManager.RequestStatus[]",
          "name": "statuses",
          "type": "uint8[]"
        },
        {
          "internalType": "address[]",
          "name": "escrowContracts",
          "type": "address[]"
        }
      ],
      "stateMutability": "view",
      "type": "function",
      "constant": true
    },
    {
      "inputs": [],
      "name": "viewRequestsByEmployer",
      "outputs": [
        {
          "internalType": "uint256[]",
          "name": "requestIds",
          "type": "uint256[]"
        },
        {
          "internalType": "uint256[]",
          "name": "projectIds",
          "type": "uint256[]"
        },
        {
          "internalType": "address[]",
          "name": "freelancers",
          "type": "address[]"
        },
        {
          "internalType": "uint256[]",
          "name": "freelancerRatings",
          "type": "uint256[]"
        },
        {
          "internalType": "enum RequestManager.RequestStatus[]",
          "name": "statuses",
          "type": "uint8[]"
        },
        {
          "internalType": "address[]",
          "name": "escrowContracts",
          "type": "address[]"
        }
      ],
      "stateMutability": "view",
      "type": "function",
      "constant": true
    },
    {
      "inputs": [
        {
          "internalType": "uint256",
          "name": "_milestoneId",
          "type": "uint256"
        },
        {
          "internalType": "string",
          "name": "_cid",
          "type": "string"
        },
        {
          "internalType": "address",
          "name": "_freelancer",
          "type": "address"
        }
      ],
      "name": "sendMilestoneReviewRequest",
      "outputs": [],
      "stateMutability": "nonpayable",
      "type": "function"
    },
    {
      "inputs": [],
      "name": "viewAllMilestoneReviewRequests",
      "outputs": [
        {
          "internalType": "uint256[]",
          "name": "requestIds",
          "type": "uint256[]"
        },
        {
          "internalType": "uint256[]",
          "name": "milestoneIds",
          "type": "uint256[]"
        },
        {
          "internalType": "address[]",
          "name": "freelancers",
          "type": "address[]"
        },
        {
          "internalType": "string[]",
          "name": "cids",
          "type": "string[]"
        },
        {
          "internalType": "bool[]",
          "name": "reviewedStatuses",
          "type": "bool[]"
        }
      ],
      "stateMutability": "view",
      "type": "function",
      "constant": true
    },
    {
      "inputs": [
        {
          "internalType": "uint256",
          "name": "_reviewRequestId",
          "type": "uint256"
        },
        {
          "internalType": "uint256",
          "name": "_projId",
          "type": "uint256"
        }
      ],
      "name": "acceptMilestoneReviewRequest",
      "outputs": [],
      "stateMutability": "payable",
      "type": "function",
      "payable": true
    },
    {
      "inputs": [
        {
          "internalType": "uint256",
          "name": "_reviewRequestId",
          "type": "uint256"
        },
        {
          "internalType": "string",
          "name": "_reason",
          "type": "string"
        }
      ],
      "name": "rejectMilestoneReviewRequest",
      "outputs": [
        {
          "internalType": "string",
          "name": "",
          "type": "string"
        }
      ],
      "stateMutability": "view",
      "type": "function",
      "constant": true
    },
    {
      "inputs": [
        {
          "internalType": "uint256",
          "name": "_reviewRequestId",
          "type": "uint256"
        }
      ],
      "name": "acceptRejectionReason",
      "outputs": [],
      "stateMutability": "nonpayable",
      "type": "function"
    },
    {
      "inputs": [
        {
          "internalType": "address",
          "name": "freelancer",
          "type": "address"
        }
      ],
      "name": "viewAcceptedProjectsByFreelancer",
      "outputs": [
        {
          "internalType": "uint256[]",
          "name": "ids",
          "type": "uint256[]"
        },
        {
          "internalType": "string[]",
          "name": "names",
          "type": "string[]"
        },
        {
          "internalType": "string[]",
          "name": "descriptions",
          "type": "string[]"
        },
        {
          "internalType": "uint256[]",
          "name": "rewards",
          "type": "uint256[]"
        },
        {
          "internalType": "enum Projects.Status[]",
          "name": "statuses",
          "type": "uint8[]"
        },
        {
          "internalType": "address[]",
          "name": "employers",
          "type": "address[]"
        }
      ],
      "stateMutability": "view",
      "type": "function",
      "constant": true
    },
    {
      "inputs": [
        {
          "internalType": "uint256",
          "name": "_milestoneId",
          "type": "uint256"
        },
        {
          "internalType": "string",
          "name": "_name",
          "type": "string"
        },
        {
          "internalType": "string",
          "name": "_rid",
          "type": "string"
        },
        {
          "internalType": "string",
          "name": "_cid",
          "type": "string"
        }
      ],
      "name": "addFile",
      "outputs": [],
      "stateMutability": "nonpayable",
      "type": "function"
    },
    {
      "inputs": [
        {
          "internalType": "uint256",
          "name": "_milestoneId",
          "type": "uint256"
        }
      ],
      "name": "viewAllFilesForMilestone",
      "outputs": [
        {
          "internalType": "uint256[]",
          "name": "ids",
          "type": "uint256[]"
        },
        {
          "internalType": "uint256[]",
          "name": "milestoneIds",
          "type": "uint256[]"
        },
        {
          "internalType": "string[]",
          "name": "names",
          "type": "string[]"
        },
        {
          "internalType": "string[]",
          "name": "rids",
          "type": "string[]"
        },
        {
          "internalType": "string[]",
          "name": "cids",
          "type": "string[]"
        }
      ],
      "stateMutability": "view",
      "type": "function",
      "constant": true
    }
  ],
  "bytecode": "0x6080346070576133b680380390601f19601f83011683019183831067ffffffffffffffff84111760755780849260209460405283398101031260705751600160a060020a0381169081900360705760008054600160a060020a03191691909117905560405161331190816100a58239f35b600080fd5b7f4e487b7100000000000000000000000000000000000000000000000000000000600052604160045260246000fdfe610140604052600436101561001357600080fd5b6000610100527c0100000000000000000000000000000000000000000000000000000000610100513504806313e43248146123525780631a79631514611c155780632d7788db14611b2957806331eb2af414611a6f5780633a760554146118d957806343953519146118b95780634ba1f0981461162d5780634bd335b8146116025780634d758c291461125a5780635badbe4c1461123a5780637e670ea21461119557806381d12c581461112457806386fe6d4f14610e7757806394e1502914610e575780639be8d8f914610cb2578063a7080a1814610b84578063a817229a14610a4b578063b3db5c9414610772578063bb6866e1146106ef578063c58343ef146105e55763c62851001461012857600080fd5b346105de5760803660031901126105de5760043560243567ffffffffffffffff81116105de5761015c903690600401612964565b60443567ffffffffffffffff81116105de5761017c903690600401612964565b9160643567ffffffffffffffff81116105de5761019d903690600401612964565b9160025491604051926101af84612817565b83526020830190808252604084019283526060840195865260808401948552610100515260016020526040610100512080546801000000000000000081101561041f57610201916001820181556127a4565b9390936105bf57518355516001830155518051600283019167ffffffffffffffff821161041f5761023283546127d9565b601f8111610570575b5060209082906001601f8311146104fe5761026e9282916101005192610353575b50509060080260020a60001904191690565b906002021790555b60038101925192835167ffffffffffffffff811161041f5761029882546127d9565b601f81116104af575b5060206001601f83111461043c5781806102d4926004979861010051926103535750509060080260020a60001904191690565b906002021790555b01905180519067ffffffffffffffff821161041f576102fb83546127d9565b601f81116103d0575b5060209082906001601f83111461035e5761033692829161010051926103535750509060080260020a60001904191690565b906002021790555b61034960025461297f565b6002556101005180f35b01519050388061025c565b9050601f1983169184610100515280610100512092610100515b8181106103b85750916002939185600196941061039c575b5050500201905561033e565b01516008601f84160260020a6000190419169055388080610390565b91936020600181928787015181550195019201610378565b836101005152602061010051206020601f85010481019160208510610415575b601f602091010401905b8181106104075750610304565b6101005181556001016103fa565b90915081906103f0565b60e060020a634e487b710261010051526041600452602461010051fd5b601f1982169083610100515280610100512091610100515b8181106104975750916004969784926001956002951061047b575b505050020190556102dc565b01516008601f84160260020a600019041916905538808061046f565b9192602060018192868c015181550194019201610454565b826101005152602061010051206020601f840104810191602084106104f4575b601f602091010401905b8181106104e657506102a1565b6101005181556001016104d9565b90915081906104cf565b9050601f1983169184610100515280610100512092610100515b8181106105585750916002939185600196941061053c575b50505002019055610276565b01516008601f84160260020a6000190419169055388080610530565b91936020600181928787015181550195019201610518565b836101005152602061010051206020601f850104810191602085106105b5575b601f602091010401905b8181106105a7575061023b565b61010051815560010161059a565b9091508190610590565b60e060020a634e487b7102610100515261010051600452602461010051fd5b6101005180fd5b346105de5760203660031901126105de5760043560405161060581612817565b6101005181526101005160208201526101005160408201526101005160608201526080610100519101528061010051526003602052610658600160a060020a036001604061010051200154161515612ba8565b6101005152600360205260a060406101005120600160a060020a036040519161068083612817565b805483526106e682600183015416602085019081526003600284015493604087019485520154928460608701926106ba60ff871685612ac2565b8161010060808a0197041686526040519751885251166020870152516040860152516060850190612608565b51166080820152f35b346105de5760203660031901126105de5760043561010051526005602052604061010051208054600182015491610766600160a060020a036002830154169160ff600461073e6003840161286e565b920154169260405195869586526020860152604085015260a0606085015260a0840190612729565b90151560808301520390f35b346105de57610780366126c2565b90801515806109bb575b1561097457600160a060020a036101005154166040519060e360020a631e1e7e590282528260048301528160248161010051935afa90811561096657610100519161093b575b5060028110156108d7576001036108f4576107ec60045461297f565b908160045560036040516107ff81612817565b828152602081019433865260408201908152600160a060020a036060830196610100518852608084019661010051885261010051528460205260406101005120935184555116600160a060020a03600184019116600160a060020a03198254161790555160028201550192519160038310156108d7577fe697eb68c0228bd7d4e553246a2a86e8402d0895e45092ef8ae87b4cfd29f01693600160a060020a036108ba9260609560ff80198554169116178355511690612c40565b600454906040519182526020820152336040820152a16101005180f35b60e060020a634e487b710261010051526021600452602461010051fd5b606460405160e560020a62461bcd02815260206004820152601360248201527f50726f6a656374206973206e6f74206f70656e000000000000000000000000006044820152fd5b61095a91503d8061010051833e610952818361284c565b8101906129e9565b509350505050836107d0565b6040513d61010051823e3d90fd5b606460405160e560020a62461bcd02815260206004820152601260248201527f496e76616c69642070726f6a65637420494400000000000000000000000000006044820152fd5b5060046020600160a060020a03610100515416604051928380927f36fbad260000000000000000000000000000000000000000000000000000000082525afa908115610966576101005191610a14575b5081111561078a565b90506020813d602011610a43575b81610a2f6020938361284c565b81010312610a3e575183610a0b565b600080fd5b3d9150610a22565b346105de5760203660031901126105de57600435806101005152600560205260406101005120600160a060020a036002820154163303610b17576004019081549060ff8216610ad0577f25fa961293610a63a633d14b93d5aa91df30ab4131e3e197fbb148988f45f2fa92600160209360ff1916179055604051908152a16101005180f35b606460405160e560020a62461bcd02815260206004820152601f60248201527f526576696577207265717565737420616c7265616479207265766965776564006044820152fd5b608460405160e560020a62461bcd02815260206004820152603360248201527f4f6e6c792074686520667265656c616e6365722063616e20616363657074207460448201527f68652072656a656374696f6e20726561736f6e000000000000000000000000006064820152fd5b346105de57610100513660031901126105de57600454610ba381612a7d565b610bac82612a7d565b91610bb681612a7d565b610bbf82612a7d565b610bc883612a7d565b91610bd284612a7d565b9360015b81811115610bf757505090610bf39392916040519687968761262e565b0390f35b806101005152600360205260406101005120906000198101818111610c9557610c8a600160a060020a036101006003610c90968e878f88610c3791612aaf565b52815490610c46908890612aaf565b5260018101548416610c58878c612aaf565b526002810154610c68878d612aaf565b520154610c8160ff8216610c7c878e612aaf565b612ac2565b04169189612aaf565b5261297f565b610bd6565b60e060020a634e487b710261010051526011600452602461010051fd5b346105de57610100513660031901126105de57600654610cd181612a7d565b90610cdb81612a7d565b610ce482612a7d565b610ced83612bf6565b90610cf784612a65565b92610d05604051948561284c565b848452610d1185612a65565b602085019590601f190136873760015b81811115610db957610d518888886020610d7a8a610d6c8b610d5e8c6040519a8b9a60a08c5260a08c0190612597565b908a8203888c0152612597565b9088820360408a01526125cb565b90868203606088015261274e565b9184830360808601525191828152019190610100515b818110610d9e575050500390f35b82511515845285945060209384019390920191600101610d90565b806101005152600560205260406101005120908154600019820190828211610c955760ff6004610e5295610e4893610df28f8790612aaf565b526001810154610e02868b612aaf565b526002810154600160a060020a0316610e1b868c612aaf565b52610e286003820161286e565b610e32868d612aaf565b52610e3d858c612aaf565b500154169189612aaf565b901515905261297f565b610d21565b346105de57610100513660031901126105de576020600654604051908152f35b346105de5760603660031901126105de5760043560243567ffffffffffffffff81116105de57610eab9036906004016126d8565b604435600160a060020a038116939291908490036105de57610ece60065461297f565b80600655604051610ede81612817565b818152600160a060020a03602082019686885260408301908152610f0336868861292d565b976060840198895260808401946101005186526101005152600560205260406101005120935184555160018401555116600160a060020a03600283019116600160a060020a031982541617905560038101955195865167ffffffffffffffff811161041f57610f7282546127d9565b601f81116110d5575b5060206001601f83111461103b579181610fd681608099989796946004967fbfc58ffde775327d37ac02c637219967f9f1d0d5dae07e75af5d1ad5be3543609d61010051926110305750509060080260020a60001904191690565b906002021790555b019051151560ff80198354169116179055806006549260405195869485526020850152606060408501528160608501528484013761010051828201840152601f01601f19168101030190a16101005180f35b015190508d8061025c565b601f1982169083610100515280610100512091610100515b8181106110bd575083600495937fbfc58ffde775327d37ac02c637219967f9f1d0d5dae07e75af5d1ad5be3543609c60019460809c9b9a9997600295106110a1575b50505002019055610fde565b01516008601f84160260020a60001904191690558c8080611095565b9192602060018192868f015181550194019201611053565b826101005152602061010051206020601f8401048101916020841061111a575b601f602091010401905b81811061110c5750610f7b565b6101005181556001016110ff565b90915081906110f5565b346105de5760203660031901126105de576004356101005152600360205260a060406101005120600160a060020a03610100825492826001820154169060036002820154910154916040519586526020860152604085015261118c6060850160ff8316612608565b04166080820152f35b346105de576111a3366126c2565b9061010051526001602052604061010051209081548110156105de576111c8916127a4565b508054610bf360018301549261122c6111e36002830161286e565b9161121e6111ff60046111f86003850161286e565b930161286e565b936040519788978852602088015260a0604088015260a0870190612729565b908582036060870152612729565b908382036080850152612729565b346105de57610100513660031901126105de576020600454604051908152f35b346105de5760203660031901126105de57600435600160a060020a03811681036105de5760045461128a81612a7d565b9161129482612bf6565b9061129e83612bf6565b60e0526112aa83612a7d565b60c0526112b683612a7d565b60a0526112c283612a7d565b608052610100519260015b8181111561148c575050506112e182612a7d565b916112eb81612bf6565b6112f482612bf6565b906112fe83612a7d565b9261130881612a7d565b9461131282612a7d565b97610100515b8381106113c7575050505061136e9291611352611360926113446040519860c08a5260c08a0190612597565b9088820360208a015261274e565b90868203604088015261274e565b908482036060860152612597565b82810360808401526020808351928381520192019061010051905b8082106113a4578480610bf3868983820360a08501526125cb565b90919283519060028210156108d757602081600193829352019401920190611389565b6113d18183612aaf565b516113dc828b612aaf565b526113e78184612aaf565b516113f28287612aaf565b526113fd8186612aaf565b5061140a8160e051612aaf565b516114158288612aaf565b526114208187612aaf565b5061142d8160c051612aaf565b516114388289612aaf565b526114458160a051612aaf565b519060028210156108d757611465600192611460838c612aaf565b612c86565b600160a060020a0361147982608051612aaf565b5116611485828d612aaf565b5201611318565b80610100515260036020526040610100512060ff60038201541660038110156108d757600114806115e3575b6114cc575b506114c79061297f565b6112cd565b9094600160a060020a036101005154169154916040519260e360020a631e1e7e5902845260048401528260248161010051935afa90811561096657876115a8926114c79461010051610100516101005190610100519287610100519561010051976115af575b506115419061158b9798612aaf565b5261154c878d612aaf565b52611557868c612aaf565b506115648660e051612aaf565b526115718560e051612aaf565b5061157e8560c051612aaf565b526114608460a051612aaf565b600160a060020a0361159f83608051612aaf565b9116905261297f565b94906114bd565b925093505061158b945061154193506115d591503d8061010051833e610952818361284c565b975095909491939190611532565b50600160a060020a038416600160a060020a03600183015416146114b8565b346105de57610100513660031901126105de576020600160a060020a03610100515416604051908152f35b60203660031901126105de57600435806101005152600360205260406101005120906001820190600160a060020a0382541661166a811515612ba8565b600384019360ff85541660038110156108d75761187257600160a060020a036101005154169054906040519160e360020a631e1e7e5902835260048301528160248161010051935afa9182156109665761010051928392839161183e575b50600160a060020a0316918233036117d15760028110156108d75760010361178a5760405191610649908184019084821067ffffffffffffffff83111761041f576040938593612c93853982526020820152030191f092831561096657600160a060020a036101008160609561175f7fac8064fea85b95641f19e230ba9da498102d474473fe4b103466cb224daf5e019886612c40565b845460ff19166001179485905554604080519687529116602086015292041690820152a16101005180f35b606460405160e560020a62461bcd02815260206004820152601460248201527f50726f6a656374206d757374206265206f70656e0000000000000000000000006044820152fd5b608460405160e560020a62461bcd02815260206004820152602860248201527f4f6e6c792074686520656d706c6f7965722063616e206163636570742074686560448201527f20726571756573740000000000000000000000000000000000000000000000006064820152fd5b9050600160a060020a0393506118629192503d8061010051833e610952818361284c565b95945095925090509392906116c8565b606460405160e560020a62461bcd02815260206004820152601660248201527f52657175657374206973206e6f742070656e64696e67000000000000000000006044820152fd5b346105de57610100513660031901126105de576020600254604051908152f35b346105de5760203660031901126105de576004356002546118f981612a7d565b9061190381612a7d565b61190c82612bf6565b9061191683612bf6565b9261192081612bf6565b610100519096815b83811061198f5761195788610bf38b6119818b6119738c6119658d604051998a9960a08b5260a08b0190612597565b9089820360208b0152612597565b90878203604089015261274e565b90858203606087015261274e565b90838203608085015261274e565b81610100515260016020528160016119ad83604061010051206127a4565b500154146119be575b600101611928565b91611a6760019183610100515282602052611a4c60046119e487604061010051206127a4565b5080546119f1858f612aaf565b5285810154611a00858c612aaf565b52611a0d6002820161286e565b611a17858d612aaf565b52611a22848c612aaf565b508b611a3a85611a346003850161286e565b92612aaf565b52611a45848d612aaf565b500161286e565b611a56828d612aaf565b52611a61818c612aaf565b5061297f565b9290506119b6565b346105de5760403660031901126105de5760243567ffffffffffffffff81116105de57611aa09036906004016126d8565b6004356101005152600560205260ff600460406101005120015416611ae257610bf391611ace91369161292d565b604051918291602083526020830190612729565b606460405160e560020a62461bcd02815260206004820152602060248201527f526576696577207265717565737420616c72656164792070726f6365737365646044820152fd5b346105de5760203660031901126105de5760043580610100515260036020526040610100512060036001820191611b6b600160a060020a038454161515612ba8565b019160ff83541660038110156108d757611bce57825460ff19166002179092555460408051928352600160a060020a039190911660208301527f490ad67e4c8b3b9c1d11dfcd7f02e155190b8f6feff3a9d9e9df3721f0f74e5791a16101005180f35b606460405160e560020a62461bcd02815260206004820152601960248201527f5265717565737420616c72656164792070726f636573736564000000000000006044820152fd5b611c1e366126c2565b906101005152600560205260406101005120600481015460ff811661230b576001820154600160a060020a0361010051541693604051907f42c549c00000000000000000000000000000000000000000000000000000000082528060048301526101005182602481895afa9485156109665761010051610120819052958693849182918291829190612149575b5061010051998a805b8251811015612137578a611cc88285612aaf565b5114611cd657600101611cb4565b611d15969798999a9b9c50809594819350611d0e9250611d0882611d0896611d088260019d611d088261012051612aaf565b50612aaf565b5198612aaf565b505b156120f0576040519560e360020a631e1e7e590287528260048801528660248161010051935afa94851561096657610100519687968791906120c4575b50600160a060020a033391160361205757600160a060020a0391600160029260ff1916176004820155015416600160a060020a03610100515416604051967f3a766ddf000000000000000000000000000000000000000000000000000000008852826004890152602088602481855afa978815610966576101005198612022575b506064900484600502600581048603610c9557811561200557048701809711610c95576101f48711611ffb575b803b156105de57604051907f063dca0c00000000000000000000000000000000000000000000000000000000825282600483015287602483015281604481610100519361010051905af1801561096657611fe8575b50610100516004549092839290835b838110611f89575b5050505015611f425761010051526003602052600160a060020a036101006003604082512001540416803b156105de57604051917fcd0c15bf000000000000000000000000000000000000000000000000000000008352600483015281602481610100519361010051905af1801561096657611f23575b7f27d841e82fb3b2469e89e27c70f2ec8597324e08569a13460e4dd8a1a3c0b10c606084868560405192835260208301526040820152a16101005180f35b61010051919291611f339161284c565b610100516105de579083611ee5565b606460405160e560020a62461bcd02815260206004820152601c60248201527f4173736f6369617465642072657175657374206e6f7420666f756e64000000006044820152fd5b80610100515260036020528160406101005120541480611fc1575b611fb057600101611e66565b945050505050600186808080611e6e565b50806101005152600360205282600160a060020a0360016040610100512001541614611fa4565b61010051611ff59161284c565b86611e57565b6101f49650611e02565b60e060020a634e487b710261010051526012600452602461010051fd5b9097506020813d60201161204f575b8161203e6020938361284c565b810103126105de5751966064611dd5565b3d9150612031565b608460405160e560020a62461bcd02815260206004820152602760248201527f4f6e6c792074686520656d706c6f7965722063616e20616363657074206d696c60448201527f6573746f6e6573000000000000000000000000000000000000000000000000006064820152fd5b919650506120e09196503d8061010051833e610952818361284c565b9994925050969150959688611d54565b606460405160e560020a62461bcd02815260206004820152601860248201527f4d696c6573746f6e6520646f6573206e6f7420657869737400000000000000006044820152fd5b5098999a959697505050505050611d17565b96505050505094503d948561010051843e612164868461284c565b6101008387810103126105de57825167ffffffffffffffff81116105de5761219190878501908501612ace565b92602081015167ffffffffffffffff81116105de576121b590888301908301612ace565b50604081015167ffffffffffffffff81116105de576121d990888301908301612b2a565b96606082015167ffffffffffffffff81116105de576121fd90828401908401612b2a565b91608081015167ffffffffffffffff81116105de5761222190838301908301612ace565b9260a082015167ffffffffffffffff81116105de5761224590848401908401612ace565b9260c08301519267ffffffffffffffff84116105de57818101601f8583010112156105de57838101519361227885612a65565b94612286604051968761284c565b808652602086019184840160208084028387010101116105de5791602083850101925b6020808402828701010184106122ef575050505060e081015167ffffffffffffffff81116105de576122de9282019101612b2a565b96996101205292919095918b611cab565b835180151581036105de578252602093840193909101906122a9565b606460405160e560020a62461bcd02815260206004820152601f60248201527f526576696577207265717565737420616c7265616479206163636570746564006044820152fd5b346105de57610100513660031901126105de57610100516004548154909190600160a060020a031660015b838111156124fb575061238f82612a7d565b9061239983612a7d565b926123a381612a7d565b6123ac82612a7d565b906123bf6123b984612a7d565b93612a7d565b93610100519060015b898111156123e657505050610bf3949596506040519687968761262e565b806101005152600360205260406101005120546040519060e360020a631e1e7e5902825260048201526101005181602481865afa9081156109665789918b9161010051916124d8575b50600160a060020a03163314612450575b505061244b9061297f565b6123c8565b93600160a060020a0361010060036124ce94869861244b97845152826020528961247f87604087512094612aaf565b5261248c86835492612aaf565b528360018201541661249e868c612aaf565b5260028101546124ae868d612aaf565b5201546124c260ff8216610c7c868e612aaf565b0416610c8a828b612aaf565b9290508789612440565b6124ef91503d8061010051833e610952818361284c565b9450505050508d61242f565b806101005152600360205260406101005120546040519060e360020a631e1e7e5902825260048201526101005181602481865afa908115610966576101005191612574575b50600160a060020a0316331461255f575b61255a9061297f565b61237d565b9161256c61255a9161297f565b929050612551565b61258b91503d8061010051833e610952818361284c565b94505050505085612540565b906020808351928381520192019060005b8181106125b55750505090565b82518452602093840193909201916001016125a8565b906020808351928381520192019060005b8181106125e95750505090565b8251600160a060020a03168452602093840193909201916001016125dc565b9060038210156126155752565b60e060020a634e487b7102600052602160045260246000fd5b9695939192610d5e61266b9461264f61265d9460c08c5260c08c0190612597565b908a820360208c0152612597565b908682036060880152612597565b9380850360808201526020808451968781520193016000955b8087106126a35750506126a093945060a08184039101526125cb565b90565b9093602080826126b66001948951612608565b01950196019590612684565b6040906003190112610a3e576004359060243590565b9181601f84011215610a3e5782359167ffffffffffffffff8311610a3e5760208381860195010111610a3e57565b60005b8381106127195750506000910152565b8181015183820152602001612709565b9060209161274281518092818552858086019101612706565b601f01601f1916010190565b805180835260208181028401810193928101926000918101905b83831061277757505050505090565b9091929394602080612795600193601f198682030187528951612729565b97019301930191939290612768565b80548210156127c0576000526005602060002091020190600090565b60e060020a634e487b7102600052603260045260246000fd5b906001600283049216801561280d575b60208310146127f457565b60e060020a634e487b7102600052602260045260246000fd5b91607f16916127e9565b60a0810190811067ffffffffffffffff82111761283357604052565b60e060020a634e487b7102600052604160045260246000fd5b90601f8019910116810190811067ffffffffffffffff82111761283357604052565b9060405191826000825492612882846127d9565b80845293600181169081156128f057506001146128a9575b506128a79250038361284c565b565b90506000929192526020600020906000915b8183106128d45750509060206128a7928201013861289a565b60209193508060019154838589010152019101909184926128bb565b9050602092506128a794915060ff191682840152151581028201013861289a565b67ffffffffffffffff811161283357601f01601f191660200190565b92919261293982612911565b91612947604051938461284c565b829481845281830111610a3e578281602093846000960137010152565b9080601f83011215610a3e578160206126a09335910161292d565b600019811461298e5760010190565b60e060020a634e487b7102600052601160045260246000fd5b81601f82011215610a3e5780516129bd81612911565b926129cb604051948561284c565b81845260208284010111610a3e576126a09160208085019101612706565b60c081830312610a3e57805192602082015167ffffffffffffffff8111610a3e5783612a169184016129a7565b9260408301519067ffffffffffffffff8211610a3e57612a379184016129a7565b9160608101519160808201516002811015610a3e5760a090920151600160a060020a0381168103610a3e5790565b67ffffffffffffffff81116128335760208091020190565b90612a8782612a65565b612a94604051918261284c565b8281528092612aa5601f1991612a65565b0190602036910137565b80518210156127c0576020809202010190565b60038210156126155752565b9080601f83011215610a3e578151612ae581612a65565b92612af3604051948561284c565b8184526020808086019302820101928311610a3e57602001905b828210612b1a5750505090565b8151815260209182019101612b0d565b9080601f83011215610a3e578151612b4181612a65565b92612b4f604051948561284c565b818452602080808601930282010191838311610a3e5760208201905b838210612b7a57505050505090565b815167ffffffffffffffff8111610a3e57602091612b9d878480948801016129a7565b815201910190612b6b565b15612baf57565b606460405160e560020a62461bcd02815260206004820152601d60248201527f4e6f20726571756573742065786973747320666f7220746869732049440000006044820152fd5b90612c0082612a65565b612c0d604051918261284c565b8281528092612c1e601f1991612a65565b019060005b828110612c2f57505050565b806060602080938501015201612c23565b9074ffffffffffffffffffffffffffffffffffffffff00610100600160a060020a038454931602169074ffffffffffffffffffffffffffffffffffffffff001916179055565b6002821015612615575256fe608061064980380390601f19601f83011683019183831067ffffffffffffffff841117608b5780849260409485528339810103126086576047602060418360ba565b920160ba565b60008054600160a060020a03938416600160a060020a031991821617909155600180549290931691161790553460025560405161057b90816100ce8239f35b600080fd5b7f4e487b7100000000000000000000000000000000000000000000000000000000600052604160045260246000fd5b5190600160a060020a038216820360865756fe6080604052600436101561001257600080fd5b7c010000000000000000000000000000000000000000000000000000000060003504806345ad1a2e1461039e578063590e1ae3146102a757806369d8957514610243578063a37dda2c1461021c578063aa8c217c146101fe578063ae200e79146101d75763cd0c15bf1461008557600080fd5b346101d25760203660031901126101d257600254600435811561018b57808202908282040361015c57606490049081116100ef57600080808093600160a060020a038254168282156100e6575bf1156100da57005b6040513d6000823e3d90fd5b506108fc6100d2565b608460405160e560020a62461bcd02815260206004820152602860248201527f4d696c6573746f6e65207061796d656e74206578636565647320657363726f7760448201527f2062616c616e63650000000000000000000000000000000000000000000000006064820152fd5b7f4e487b7100000000000000000000000000000000000000000000000000000000600052601160045260246000fd5b606460405160e560020a62461bcd02815260206004820152601c60248201527f496e73756666696369656e742066756e647320696e20657363726f77000000006044820152fd5b600080fd5b346101d25760003660031901126101d2576020600160a060020a0360015416604051908152f35b346101d25760003660031901126101d2576020600254604051908152f35b346101d25760003660031901126101d2576020600160a060020a0360005416604051908152f35b346101d25760003660031901126101d25761026a600160a060020a03600154163314610483565b6000808080600254801561027e81156104f7565b600160a060020a0383541690839061029e575bf1156100da576000600255005b506108fc610291565b346101d25760003660031901126101d257600160a060020a0360005416803303610331576002549081156102ea576000808093819382f1156100da576000600255005b606460405160e560020a62461bcd02815260206004820152601260248201527f4e6f2066756e647320746f20726566756e6400000000000000000000000000006044820152fd5b608460405160e560020a62461bcd02815260206004820152602860248201527f4f6e6c792074686520667265656c616e6365722063616e20726571756573742060448201527f6120726566756e640000000000000000000000000000000000000000000000006064820152fd5b346101d25760203660031901126101d2576004356103c8600160a060020a03600154163314610483565b6002546103d68115156104f7565b811161041657600080808084600160a060020a0382541682821561040d575bf1156100da5760025490810390811161015c57600255005b506108fc6103f5565b608460405160e560020a62461bcd02815260206004820152602560248201527f5265647563656420616d6f756e74206578636565647320657363726f7720626160448201527f6c616e63650000000000000000000000000000000000000000000000000000006064820152fd5b1561048a57565b608460405160e560020a62461bcd02815260206004820152602360248201527f4f6e6c792074686520656d706c6f7965722063616e2072656c6561736520667560448201527f6e647300000000000000000000000000000000000000000000000000000000006064820152fd5b156104fe57565b606460405160e560020a62461bcd02815260206004820152601360248201527f4e6f2066756e647320746f2072656c65617365000000000000000000000000006044820152fdfea2646970667358221220764e3b121932d13ffcc08795403620e28f815731b78ad014b16ec846cdbac96e64736f6c634300081c0033a2646970667358221220173c4129b7a0333c2c78e4dd7d2ff79d66190996a369f2ddec709dc26c4fc90e64736f6c634300081c0033",
  "immutableReferences": {},
  "source": "// SPDX-License-Identifier: MIT\r\npragma solidity ^0.8.0;\r\n\r\nimport \"./Projects.sol\";\r\n\r\ncontract Escrow {\r\n    address public freelancer;\r\n    address public employer;\r\n    uint public amount;\r\n\r\n    constructor(address _freelancer, address _employer) payable {\r\n        freelancer = _freelancer;\r\n        employer = _employer;\r\n        amount = msg.value; // Set the amount to the value sent during the contract creation\r\n    }\r\n\r\n    function releaseFunds() external {\r\n        require(msg.sender == employer, \"Only the employer can release funds\");\r\n        require(amount > 0, \"No funds to release\");\r\n        payable(freelancer).transfer(amount);\r\n        amount = 0; // Set amount to 0 after release\r\n    }\r\n\r\n    function refund() external {\r\n        require(msg.sender == freelancer, \"Only the freelancer can request a refund\");\r\n        require(amount > 0, \"No funds to refund\");\r\n        payable(freelancer).transfer(amount);\r\n        amount = 0; // Set amount to 0 after refund\r\n    }\r\n\r\n    function releaseReducedFunds(uint _reducedAmount) external {\r\n        require(msg.sender == employer, \"Only the employer can release funds\");\r\n        require(amount > 0, \"No funds to release\");\r\n        require(_reducedAmount <= amount, \"Reduced amount exceeds escrow balance\");\r\n\r\n        payable(freelancer).transfer(_reducedAmount);\r\n        amount -= _reducedAmount; // Deduct the paid amount from the total escrow balance\r\n    }\r\n\r\n    function releaseMilestonePayment(uint milestonePercentage) external {\r\n        require(amount > 0, \"Insufficient funds in escrow\");\r\n\r\n        uint milestonePayment = (amount * milestonePercentage) / 100;\r\n        require(milestonePayment <= amount, \"Milestone payment exceeds escrow balance\");\r\n\r\n        payable(freelancer).transfer(milestonePayment);\r\n        // amount -= milestonePayment;\r\n    }\r\n}\r\n\r\ncontract RequestManager {\r\n    Projects public projectsContract;\r\n\r\n    enum RequestStatus { Pending, Accepted, Rejected }\r\n\r\n    struct Request {\r\n        uint projectId;\r\n        address freelancer;\r\n        uint freelancerRating;\r\n        RequestStatus status;\r\n        Escrow escrowContract;\r\n    }\r\n\r\n    struct MilestoneReviewRequest {\r\n        uint id;\r\n        uint milestoneId;\r\n        address freelancer;\r\n        string cid;\r\n        bool reviewed;\r\n    }\r\n\r\n    struct File {\r\n        uint id;\r\n        uint milestoneId;\r\n        string name;\r\n        string rid;\r\n        string cid;\r\n    }\r\n\r\n    // Mapping milestone ID to an array of files\r\n    mapping(uint => File[]) public milestoneFiles;\r\n    uint public fileCount;\r\n\r\n    // Store all requests in a single mapping\r\n    mapping(uint => Request) public requests;\r\n    uint public requestCount; // To keep track of the total number of requests\r\n\r\n    mapping(uint => MilestoneReviewRequest) public milestoneReviewRequests;\r\n    uint public milestoneReviewRequestCount;\r\n\r\n    event RequestSent(uint requestId, uint projectId, address freelancer);\r\n    event RequestAccepted(uint requestId, address freelancer, address escrowContract);\r\n    event RequestRejected(uint requestId, address freelancer);\r\n    event MilestoneReviewRequestSent(uint requestId, uint milestoneId, string cid);\r\n    event MilestoneAccepted(uint projectId, uint milestoneId, uint updatedRating);\r\n    event RejectionReasonAccepted(uint _reviewRequestId);\r\n\r\n    constructor(address _projectsContract) {\r\n        projectsContract = Projects(_projectsContract);\r\n    }\r\n\r\n    function sendRequest(uint _projectId, uint _freelancerRating) public {\r\n        require(_projectId > 0 && _projectId <= projectsContract.projectCount(), \"Invalid project ID\");\r\n        (,, , , Projects.Status status, ) = projectsContract.getProject(_projectId);\r\n        require(status == Projects.Status.Open, \"Project is not open\");\r\n\r\n        // Create a new request\r\n        requestCount++; // Increment request count to create a unique ID\r\n        requests[requestCount] = Request({\r\n            projectId: _projectId,\r\n            freelancer: msg.sender,\r\n            freelancerRating: _freelancerRating,\r\n            status: RequestStatus.Pending,\r\n            escrowContract: Escrow(address(0))\r\n        });\r\n\r\n        emit RequestSent(requestCount, _projectId, msg.sender);\r\n    }\r\n\r\n    function acceptRequest(uint _requestId) public payable {\r\n        Request storage request = requests[_requestId];\r\n        require(request.freelancer != address(0), \"No request exists for this ID\");\r\n        require(request.status == RequestStatus.Pending, \"Request is not pending\");\r\n\r\n        // Fetch project details\r\n        (,, , uint projectReward, Projects.Status status, address employer) = projectsContract.getProject(request.projectId);\r\n        require(msg.sender == employer, \"Only the employer can accept the request\");\r\n        require(status == Projects.Status.Open, \"Project must be open\");\r\n\r\n        // Create new escrow contract instance with freelancer and employer details\r\n        request.escrowContract = new Escrow{value: projectReward}(request.freelancer, employer);\r\n\r\n        request.status = RequestStatus.Accepted;\r\n        emit RequestAccepted(_requestId, request.freelancer, address(request.escrowContract));\r\n    }\r\n\r\n    function rejectRequest(uint _requestId) public {\r\n        Request storage request = requests[_requestId];\r\n        require(request.freelancer != address(0), \"No request exists for this ID\");\r\n        require(request.status == RequestStatus.Pending, \"Request already processed\");\r\n\r\n        request.status = RequestStatus.Rejected;\r\n        emit RequestRejected(_requestId, request.freelancer);\r\n    }\r\n\r\n    \r\n\r\n    function getRequest(uint _requestId) public view returns (Request memory) {\r\n        require(requests[_requestId].freelancer != address(0), \"No request exists for this ID\");\r\n        return requests[_requestId];\r\n    }\r\n\r\n    // New function to view all requests\r\n    function viewAllRequests() public view returns (\r\n        uint[] memory requestIds,\r\n        uint[] memory projectIds,\r\n        address[] memory freelancers,\r\n        uint[] memory freelancerRatings,\r\n        RequestStatus[] memory statuses,\r\n        address[] memory escrowContracts\r\n    ) {\r\n        uint count = requestCount;\r\n\r\n        // Initialize arrays based on the total request count\r\n        requestIds = new uint[](count);\r\n        projectIds = new uint[](count);\r\n        freelancers = new address[](count);\r\n        freelancerRatings = new uint[](count);\r\n        statuses = new RequestStatus[](count);\r\n        escrowContracts = new address[](count);\r\n\r\n        // Populate the arrays with request details\r\n        for (uint i = 1; i <= requestCount; i++) {\r\n            Request storage request = requests[i];\r\n            requestIds[i - 1] = i;\r\n            projectIds[i - 1] = request.projectId;\r\n            freelancers[i - 1] = request.freelancer;\r\n            freelancerRatings[i - 1] = request.freelancerRating;\r\n            statuses[i - 1] = request.status;\r\n            escrowContracts[i - 1] = address(request.escrowContract);\r\n        }\r\n\r\n        return (requestIds, projectIds, freelancers, freelancerRatings, statuses, escrowContracts);\r\n    }\r\n\r\n\r\n    // function acceptMilestone(uint _milestoneId, uint _actualDaysTaken, uint _delayPenalty, uint _requestId) public payable {\r\n    //     Request memory request = getRequest(_requestId); // Retrieve the request using requestId\r\n\r\n    //     // Ensure projectId is valid\r\n    //     require(request.projectId > 0 && request.projectId <= projectsContract.projectCount(), \"Project does not exist\");\r\n\r\n    //     // Retrieve the project details using the getProject function\r\n    //     (, , , uint reward, , address employer) = projectsContract.getProject(request.projectId);\r\n    //     require(msg.sender == employer, \"Only the employer can accept milestones\");\r\n\r\n    //     // Ensure milestoneId is valid\r\n    //     (\r\n    //         uint[] memory ids,\r\n    //         uint[] memory projectIds,\r\n    //         string[] memory names,\r\n    //         string[] memory descriptions,\r\n    //         uint[] memory daycounts,\r\n    //         uint[] memory percentages,\r\n    //         bool[] memory completions,\r\n    //         string[] memory proofFileHashes\r\n    //     ) = projectsContract.getMilestones(request.projectId);\r\n\r\n    //     // Check if the milestone exists and is within bounds\r\n    //     require(_milestoneId > 0 && _milestoneId <= ids.length, \"Milestone does not exist\");\r\n        \r\n    //     // Fetch milestone data by using _milestoneId as an index\r\n    //     uint milestoneIndex = _milestoneId - 1;\r\n    //     require(!completions[milestoneIndex], \"Milestone already completed\");\r\n    //     require(bytes(proofFileHashes[milestoneIndex]).length > 0, \"Proof file not uploaded\");\r\n\r\n    //     // Mark the milestone as completed\r\n    //     projectsContract.completeMilestone(request.projectId, _milestoneId);\r\n\r\n    //     // Calculate and update freelancer rating based on the provided formula\r\n    //     uint currentRating = projectsContract.getFreelancerRating(request.freelancer);\r\n    //     uint rewardWeight = (percentages[milestoneIndex] * reward) / 100;\r\n    //     int ratingChange = int((5 * 100 * rewardWeight * daycounts[milestoneIndex]) / (reward * _actualDaysTaken));\r\n\r\n    //     // Cap the increment at +0.2 if positive\r\n    //     if (ratingChange > 20) {\r\n    //         ratingChange = 20;\r\n    //     }\r\n\r\n    //     uint newRating = uint(int(currentRating) + ratingChange);\r\n\r\n    //     // Ensure new rating doesn't exceed 5.0 (500 basis points)\r\n    //     if (newRating > 500) {\r\n    //         newRating = 500;\r\n    //     }\r\n\r\n    //     // Update the freelancer's rating\r\n    //     projectsContract.setFreelancerRating(request.freelancer, newRating);\r\n\r\n    //     // Release milestone payment from the escrow with the specified penalty\r\n    //     uint milestonePercentage = percentages[milestoneIndex];\r\n    //     request.escrowContract.releaseMilestonePayment(milestonePercentage, _delayPenalty);\r\n\r\n    //     emit MilestoneAccepted(request.projectId, _milestoneId, newRating);\r\n    // }\r\n\r\n\r\n    function viewRequestsByEmployer() public view returns (\r\n            uint[] memory requestIds,\r\n            uint[] memory projectIds,\r\n            address[] memory freelancers,\r\n            uint[] memory freelancerRatings,\r\n            RequestStatus[] memory statuses,\r\n            address[] memory escrowContracts\r\n        ) {\r\n            uint count = 0;\r\n\r\n            // Count requests that belong to projects owned by the employer\r\n            for (uint i = 1; i <= requestCount; i++) {\r\n                uint projectId = requests[i].projectId;\r\n                (, , , , , address employer) = projectsContract.getProject(projectId);\r\n                if (employer == msg.sender) {\r\n                    count++;\r\n                }\r\n            }\r\n\r\n            // Initialize arrays based on the count of matching requests\r\n            requestIds = new uint[](count);\r\n            projectIds = new uint[](count);\r\n            freelancers = new address[](count);\r\n            freelancerRatings = new uint[](count);\r\n            statuses = new RequestStatus[](count);\r\n            escrowContracts = new address[](count);\r\n\r\n            uint index = 0;\r\n\r\n            // Populate the arrays with matching request details\r\n            for (uint i = 1; i <= requestCount; i++) {\r\n                uint projectId = requests[i].projectId;\r\n                (, , , , , address employer) = projectsContract.getProject(projectId);\r\n                if (employer == msg.sender) {\r\n                    Request storage request = requests[i];\r\n                    requestIds[index] = i;\r\n                    projectIds[index] = request.projectId;\r\n                    freelancers[index] = request.freelancer;\r\n                    freelancerRatings[index] = request.freelancerRating;\r\n                    statuses[index] = request.status;\r\n                    escrowContracts[index] = address(request.escrowContract);\r\n                    index++;\r\n                }\r\n            }\r\n\r\n            return (requestIds, projectIds, freelancers, freelancerRatings, statuses, escrowContracts);\r\n    }\r\n\r\n    function sendMilestoneReviewRequest(uint _milestoneId, string calldata _cid, address _freelancer) public {\r\n        // Create a new milestone review request\r\n        milestoneReviewRequestCount++; // Increment count for unique ID\r\n        milestoneReviewRequests[milestoneReviewRequestCount] = MilestoneReviewRequest({\r\n            id: milestoneReviewRequestCount,\r\n            milestoneId: _milestoneId,\r\n            freelancer: _freelancer,\r\n            cid: _cid,\r\n            reviewed: false // Initially, the request is not reviewed\r\n        });\r\n\r\n        emit MilestoneReviewRequestSent(milestoneReviewRequestCount, _milestoneId, _cid); // Emit event\r\n    }\r\n\r\n    function viewAllMilestoneReviewRequests() public view returns (\r\n        uint[] memory requestIds,\r\n        uint[] memory milestoneIds,\r\n        address[] memory freelancers,\r\n        string[] memory cids,\r\n        bool[] memory reviewedStatuses\r\n    ) {\r\n        uint count = milestoneReviewRequestCount;\r\n\r\n        // Initialize arrays based on the total count of review requests\r\n        requestIds = new uint[](count);\r\n        milestoneIds = new uint[](count);\r\n        freelancers = new address[](count);\r\n        cids = new string[](count);\r\n        reviewedStatuses = new bool[](count);\r\n\r\n        // Populate the arrays with review request details\r\n        for (uint i = 1; i <= milestoneReviewRequestCount; i++) {\r\n            MilestoneReviewRequest storage reviewRequest = milestoneReviewRequests[i];\r\n            requestIds[i - 1] = reviewRequest.id;\r\n            milestoneIds[i - 1] = reviewRequest.milestoneId;\r\n            freelancers[i - 1] = reviewRequest.freelancer;\r\n            cids[i - 1] = reviewRequest.cid;\r\n            reviewedStatuses[i - 1] = reviewRequest.reviewed;\r\n        }\r\n\r\n        return (requestIds, milestoneIds, freelancers, cids, reviewedStatuses);\r\n    }\r\n\r\n\r\n\r\nfunction acceptMilestoneReviewRequest(uint _reviewRequestId, uint _projId) public payable {\r\n    // Fetch the  request using the ID\r\n    MilestoneReviewRequest storage reviewRequest = milestoneReviewRequests[_reviewRequestId];\r\n    require(!reviewRequest.reviewed, \"Review request already accepted\");\r\n\r\n    // Get the milestone ID from the  request\r\n    uint milestoneId = reviewRequest.milestoneId;\r\n\r\n    // Retrieve the associated milestones for the project\r\n    (\r\n        uint[] memory ids,\r\n        uint[] memory projectIds,\r\n        string[] memory names,\r\n        string[] memory descriptions,\r\n        uint[] memory daycounts,\r\n        uint[] memory percentages,\r\n        bool[] memory completions,\r\n        string[] memory proofFileHashes\r\n    ) = projectsContract.getMilestones(_projId);\r\n\r\n    // Initialize variables to store the milestone data once we find it\r\n    bool milestoneFound = false;\r\n    string memory milestoneName;\r\n    string memory milestoneDescription;\r\n    uint milestoneDaycount;\r\n    uint milestonePercentage;\r\n    bool milestoneCompleted;\r\n    string memory milestoneProofFileHash;\r\n\r\n    // Search for the milestone with the specified milestoneId\r\n    for (uint i = 0; i < ids.length; i++) {\r\n        if (ids[i] == milestoneId) {\r\n            milestoneFound = true;\r\n            milestoneName = names[i];\r\n            milestoneDescription = descriptions[i];\r\n            milestoneDaycount = daycounts[i];\r\n            milestonePercentage = percentages[i];\r\n            milestoneCompleted = completions[i];\r\n            milestoneProofFileHash = proofFileHashes[i];\r\n            break;\r\n        }\r\n    }\r\n\r\n    require(milestoneFound, \"Milestone does not exist\");\r\n\r\n    // Use getProject to retrieve the project details\r\n    (\r\n        uint projId,\r\n        string memory projName,\r\n        string memory projDescription,\r\n        uint projReward,\r\n        Projects.Status projStatus,\r\n        address projEmployer\r\n    ) = projectsContract.getProject(_projId);\r\n\r\n    // Verify that the sender is the employer of the project\r\n    require(projEmployer == msg.sender, \"Only the employer can accept milestones\");\r\n\r\n    // Mark the review request as accepted\r\n    reviewRequest.reviewed = true;\r\n\r\n    // Get freelancer's address from the request\r\n    address freelancer = reviewRequest.freelancer;\r\n\r\n    // Update freelancer rating based on the milestone percentage\r\n    uint currentRating = projectsContract.getFreelancerRating(freelancer);\r\n    uint rewardWeight = projReward / 100;\r\n    uint newRating = currentRating + (5 * milestonePercentage / rewardWeight);\r\n\r\n    // Ensure the new rating does not exceed 500\r\n    if (newRating > 500) {\r\n        newRating = 500;\r\n    }\r\n\r\n    // Set the new rating for the freelancer\r\n    projectsContract.setFreelancerRating(freelancer, newRating);\r\n\r\n    // Find the request with the matching projectId and freelancer\r\n    uint requestIndex;\r\n    bool foundRequest = false;\r\n\r\n    for (uint i = 0; i < requestCount; i++) {\r\n        if (requests[i].projectId == _projId && requests[i].freelancer == freelancer) {\r\n            requestIndex = i;\r\n            foundRequest = true;\r\n            break;\r\n        }\r\n    }\r\n    require(foundRequest, \"Associated request not found\");\r\n\r\n    // Release the milestone payment from escrow using the found request\r\n    requests[requestIndex].escrowContract.releaseMilestonePayment(milestonePercentage);\r\n\r\n    // Emit an event to record the milestone acceptance\r\n    emit MilestoneAccepted(projId, milestoneId, newRating);\r\n}\r\n\r\n\r\n\r\n\r\n    function rejectMilestoneReviewRequest(uint _reviewRequestId, string calldata _reason) view  public returns (string memory) {\r\n        MilestoneReviewRequest storage reviewRequest = milestoneReviewRequests[_reviewRequestId];\r\n        require(!reviewRequest.reviewed, \"Review request already processed\");\r\n        return _reason;\r\n    }\r\n\r\n    function acceptRejectionReason(uint _reviewRequestId) public {\r\n        // Fetch the request using the ID\r\n        MilestoneReviewRequest storage reviewRequest = milestoneReviewRequests[_reviewRequestId];\r\n        \r\n        // Check if the request exists and if it is not already reviewed\r\n        require(reviewRequest.freelancer == msg.sender, \"Only the freelancer can accept the rejection reason\");\r\n        require(!reviewRequest.reviewed, \"Review request already reviewed\");\r\n\r\n        // Accept the rejection reason and mark the request as reviewed\r\n        reviewRequest.reviewed = true;\r\n\r\n        // Emit an event for this action (optional)\r\n        emit RejectionReasonAccepted(_reviewRequestId);\r\n    }\r\n\r\n\r\n    function viewAcceptedProjectsByFreelancer(address freelancer) public view returns (\r\n        uint[] memory ids, \r\n        string[] memory names, \r\n        string[] memory descriptions, \r\n        uint[] memory rewards, \r\n        Projects.Status[] memory statuses, // Change here to use Projects.Status\r\n        address[] memory employers\r\n    ) {\r\n        // Temporary storage for matched projects\r\n        uint[] memory tempIds = new uint[](requestCount); \r\n        string[] memory tempNames = new string[](requestCount);\r\n        string[] memory tempDescriptions = new string[](requestCount);\r\n        uint[] memory tempRewards = new uint[](requestCount);\r\n        Projects.Status[] memory tempStatuses = new Projects.Status[](requestCount); // Change here to use Projects.Status\r\n        address[] memory tempEmployers = new address[](requestCount);\r\n\r\n        uint matchCount = 0; // Count of matched projects\r\n\r\n        for (uint i = 1; i <= requestCount; i++) {\r\n            Request storage req = requests[i];\r\n            if (req.status == RequestStatus.Accepted && req.freelancer == freelancer) {\r\n                // Unpack the return values from getProject\r\n                (uint id, string memory name, string memory description, uint reward, Projects.Status status, address employer) = \r\n                    projectsContract.getProject(req.projectId); // Call the function\r\n                \r\n                // Assign the unpacked values to temporary storage\r\n                tempIds[matchCount] = id;\r\n                tempNames[matchCount] = name;\r\n                tempDescriptions[matchCount] = description;\r\n                tempRewards[matchCount] = reward;\r\n                tempStatuses[matchCount] = status;\r\n                tempEmployers[matchCount] = employer;\r\n                matchCount++;\r\n            }\r\n        }\r\n\r\n        // Create memory arrays of the exact size of matches found\r\n        ids = new uint[](matchCount);\r\n        names = new string[](matchCount);\r\n        descriptions = new string[](matchCount);\r\n        rewards = new uint[](matchCount);\r\n        statuses = new Projects.Status[](matchCount); // Change here to use Projects.Status\r\n        employers = new address[](matchCount);\r\n\r\n        for (uint j = 0; j < matchCount; j++) {\r\n            ids[j] = tempIds[j];\r\n            names[j] = tempNames[j];\r\n            descriptions[j] = tempDescriptions[j];\r\n            rewards[j] = tempRewards[j];\r\n            statuses[j] = tempStatuses[j];\r\n            employers[j] = tempEmployers[j];\r\n        }\r\n\r\n        return (ids, names, descriptions, rewards, statuses, employers);\r\n    }\r\n    \r\n\r\n    function addFile(\r\n        uint _milestoneId, \r\n        string memory _name, \r\n        string memory _rid, \r\n        string memory _cid\r\n    ) public {\r\n        // Create a new File struct with a unique ID and add it to the milestoneFiles map\r\n        File memory newFile = File({\r\n            id: fileCount, // unique global ID for each file\r\n            milestoneId: _milestoneId,\r\n            name: _name,\r\n            rid: _rid,\r\n            cid: _cid\r\n        });\r\n        \r\n        milestoneFiles[_milestoneId].push(newFile); // Add file to the array for the specific milestone\r\n        fileCount++; // Increment the global file count\r\n    }\r\n\r\n    function viewAllFilesForMilestone(uint _milestoneId) \r\n        public \r\n        view \r\n        returns (\r\n            uint[] memory ids,\r\n            uint[] memory milestoneIds,\r\n            string[] memory names,\r\n            string[] memory rids,\r\n            string[] memory cids\r\n        ) \r\n    {\r\n        uint count = fileCount; // Assuming 'fileCount' keeps track of the total files added\r\n\r\n        // Initialize arrays based on the total file count for the specified milestone\r\n        ids = new uint[](count);\r\n        milestoneIds = new uint[](count);\r\n        names = new string[](count);\r\n        rids = new string[](count);\r\n        cids = new string[](count);\r\n\r\n        // Populate the arrays with file details for the given milestone\r\n        uint index = 0;\r\n        for (uint i = 0; i < count; i++) {\r\n            if (milestoneFiles[_milestoneId][i].milestoneId == _milestoneId) {\r\n                File storage file = milestoneFiles[_milestoneId][i];\r\n                ids[index] = file.id;\r\n                milestoneIds[index] = file.milestoneId;\r\n                names[index] = file.name;\r\n                rids[index] = file.rid;\r\n                cids[index] = file.cid;\r\n                index++;\r\n            }\r\n        }\r\n\r\n        return (ids, milestoneIds, names, rids, cids);\r\n    }\r\n\r\n\r\n}\r\n",
  "sourcePath": "C:\\Users\\Shashwat Chaturvedi\\OneDrive - iiit-b\\college\\projects\\delance\\delance_test2\\contracts\\RequestManager.sol",
  "compiler": {
    "name": "solc",
    "version": "0.8.28+commit.7893614a.Emscripten.clang"
  },
  "schemaVersion": "3.4.16",
  "updatedAt": "2024-11-02T12:00:02.924Z",
  "networkType": "ethereum",
  "devdoc": {
    "kind": "dev",
    "methods": {},
    "version": 1
  },
  "userdoc": {
    "kind": "user",
    "methods": {},
    "version": 1
  }
}