{
  "contractName": "RequestManager",
  "abi": [
    {
      "inputs": [
        {
          "internalType": "address",
          "name": "_projectsContract",
          "type": "address"
        }
      ],
      "stateMutability": "nonpayable",
      "type": "constructor"
    },
    {
      "anonymous": false,
      "inputs": [
        {
          "indexed": false,
          "internalType": "uint256",
          "name": "projectId",
          "type": "uint256"
        },
        {
          "indexed": false,
          "internalType": "uint256",
          "name": "milestoneId",
          "type": "uint256"
        },
        {
          "indexed": false,
          "internalType": "uint256",
          "name": "updatedRating",
          "type": "uint256"
        }
      ],
      "name": "MilestoneAccepted",
      "type": "event"
    },
    {
      "anonymous": false,
      "inputs": [
        {
          "indexed": true,
          "internalType": "uint256",
          "name": "reviewRequestId",
          "type": "uint256"
        },
        {
          "indexed": false,
          "internalType": "string",
          "name": "reason",
          "type": "string"
        }
      ],
      "name": "MilestoneReviewRequestRejected",
      "type": "event"
    },
    {
      "anonymous": false,
      "inputs": [
        {
          "indexed": false,
          "internalType": "uint256",
          "name": "requestId",
          "type": "uint256"
        },
        {
          "indexed": false,
          "internalType": "uint256",
          "name": "milestoneId",
          "type": "uint256"
        },
        {
          "indexed": false,
          "internalType": "string",
          "name": "cid",
          "type": "string"
        }
      ],
      "name": "MilestoneReviewRequestSent",
      "type": "event"
    },
    {
      "anonymous": false,
      "inputs": [
        {
          "indexed": false,
          "internalType": "uint256",
          "name": "_reviewRequestId",
          "type": "uint256"
        }
      ],
      "name": "RejectionReasonAccepted",
      "type": "event"
    },
    {
      "anonymous": false,
      "inputs": [
        {
          "indexed": false,
          "internalType": "uint256",
          "name": "requestId",
          "type": "uint256"
        },
        {
          "indexed": false,
          "internalType": "address",
          "name": "freelancer",
          "type": "address"
        },
        {
          "indexed": false,
          "internalType": "address",
          "name": "escrowContract",
          "type": "address"
        }
      ],
      "name": "RequestAccepted",
      "type": "event"
    },
    {
      "anonymous": false,
      "inputs": [
        {
          "indexed": false,
          "internalType": "uint256",
          "name": "requestId",
          "type": "uint256"
        },
        {
          "indexed": false,
          "internalType": "address",
          "name": "freelancer",
          "type": "address"
        }
      ],
      "name": "RequestRejected",
      "type": "event"
    },
    {
      "anonymous": false,
      "inputs": [
        {
          "indexed": false,
          "internalType": "uint256",
          "name": "requestId",
          "type": "uint256"
        },
        {
          "indexed": false,
          "internalType": "uint256",
          "name": "projectId",
          "type": "uint256"
        },
        {
          "indexed": false,
          "internalType": "address",
          "name": "freelancer",
          "type": "address"
        }
      ],
      "name": "RequestSent",
      "type": "event"
    },
    {
      "inputs": [],
      "name": "fileCount",
      "outputs": [
        {
          "internalType": "uint256",
          "name": "",
          "type": "uint256"
        }
      ],
      "stateMutability": "view",
      "type": "function",
      "constant": true
    },
    {
      "inputs": [
        {
          "internalType": "uint256",
          "name": "",
          "type": "uint256"
        },
        {
          "internalType": "uint256",
          "name": "",
          "type": "uint256"
        }
      ],
      "name": "milestoneFiles",
      "outputs": [
        {
          "internalType": "uint256",
          "name": "id",
          "type": "uint256"
        },
        {
          "internalType": "uint256",
          "name": "milestoneId",
          "type": "uint256"
        },
        {
          "internalType": "string",
          "name": "name",
          "type": "string"
        },
        {
          "internalType": "string",
          "name": "rid",
          "type": "string"
        },
        {
          "internalType": "string",
          "name": "cid",
          "type": "string"
        }
      ],
      "stateMutability": "view",
      "type": "function",
      "constant": true
    },
    {
      "inputs": [],
      "name": "milestoneReviewRequestCount",
      "outputs": [
        {
          "internalType": "uint256",
          "name": "",
          "type": "uint256"
        }
      ],
      "stateMutability": "view",
      "type": "function",
      "constant": true
    },
    {
      "inputs": [
        {
          "internalType": "uint256",
          "name": "",
          "type": "uint256"
        }
      ],
      "name": "milestoneReviewRequests",
      "outputs": [
        {
          "internalType": "uint256",
          "name": "id",
          "type": "uint256"
        },
        {
          "internalType": "uint256",
          "name": "milestoneId",
          "type": "uint256"
        },
        {
          "internalType": "address",
          "name": "freelancer",
          "type": "address"
        },
        {
          "internalType": "string",
          "name": "cid",
          "type": "string"
        },
        {
          "internalType": "bool",
          "name": "reviewed",
          "type": "bool"
        }
      ],
      "stateMutability": "view",
      "type": "function",
      "constant": true
    },
    {
      "inputs": [],
      "name": "projectsContract",
      "outputs": [
        {
          "internalType": "contract Projects",
          "name": "",
          "type": "address"
        }
      ],
      "stateMutability": "view",
      "type": "function",
      "constant": true
    },
    {
      "inputs": [],
      "name": "requestCount",
      "outputs": [
        {
          "internalType": "uint256",
          "name": "",
          "type": "uint256"
        }
      ],
      "stateMutability": "view",
      "type": "function",
      "constant": true
    },
    {
      "inputs": [
        {
          "internalType": "uint256",
          "name": "",
          "type": "uint256"
        }
      ],
      "name": "requests",
      "outputs": [
        {
          "internalType": "uint256",
          "name": "projectId",
          "type": "uint256"
        },
        {
          "internalType": "address",
          "name": "freelancer",
          "type": "address"
        },
        {
          "internalType": "uint256",
          "name": "freelancerRating",
          "type": "uint256"
        },
        {
          "internalType": "enum RequestManager.RequestStatus",
          "name": "status",
          "type": "uint8"
        },
        {
          "internalType": "contract Escrow",
          "name": "escrowContract",
          "type": "address"
        }
      ],
      "stateMutability": "view",
      "type": "function",
      "constant": true
    },
    {
      "inputs": [
        {
          "internalType": "uint256",
          "name": "_projectId",
          "type": "uint256"
        },
        {
          "internalType": "uint256",
          "name": "_freelancerRating",
          "type": "uint256"
        }
      ],
      "name": "sendRequest",
      "outputs": [],
      "stateMutability": "nonpayable",
      "type": "function"
    },
    {
      "inputs": [
        {
          "internalType": "uint256",
          "name": "_requestId",
          "type": "uint256"
        }
      ],
      "name": "acceptRequest",
      "outputs": [],
      "stateMutability": "payable",
      "type": "function",
      "payable": true
    },
    {
      "inputs": [
        {
          "internalType": "uint256",
          "name": "_requestId",
          "type": "uint256"
        }
      ],
      "name": "rejectRequest",
      "outputs": [],
      "stateMutability": "nonpayable",
      "type": "function"
    },
    {
      "inputs": [
        {
          "internalType": "uint256",
          "name": "_requestId",
          "type": "uint256"
        }
      ],
      "name": "getRequest",
      "outputs": [
        {
          "components": [
            {
              "internalType": "uint256",
              "name": "projectId",
              "type": "uint256"
            },
            {
              "internalType": "address",
              "name": "freelancer",
              "type": "address"
            },
            {
              "internalType": "uint256",
              "name": "freelancerRating",
              "type": "uint256"
            },
            {
              "internalType": "enum RequestManager.RequestStatus",
              "name": "status",
              "type": "uint8"
            },
            {
              "internalType": "contract Escrow",
              "name": "escrowContract",
              "type": "address"
            }
          ],
          "internalType": "struct RequestManager.Request",
          "name": "",
          "type": "tuple"
        }
      ],
      "stateMutability": "view",
      "type": "function",
      "constant": true
    },
    {
      "inputs": [],
      "name": "viewAllRequests",
      "outputs": [
        {
          "internalType": "uint256[]",
          "name": "requestIds",
          "type": "uint256[]"
        },
        {
          "internalType": "uint256[]",
          "name": "projectIds",
          "type": "uint256[]"
        },
        {
          "internalType": "address[]",
          "name": "freelancers",
          "type": "address[]"
        },
        {
          "internalType": "uint256[]",
          "name": "freelancerRatings",
          "type": "uint256[]"
        },
        {
          "internalType": "enum RequestManager.RequestStatus[]",
          "name": "statuses",
          "type": "uint8[]"
        },
        {
          "internalType": "address[]",
          "name": "escrowContracts",
          "type": "address[]"
        }
      ],
      "stateMutability": "view",
      "type": "function",
      "constant": true
    },
    {
      "inputs": [],
      "name": "viewRequestsByEmployer",
      "outputs": [
        {
          "internalType": "uint256[]",
          "name": "requestIds",
          "type": "uint256[]"
        },
        {
          "internalType": "uint256[]",
          "name": "projectIds",
          "type": "uint256[]"
        },
        {
          "internalType": "address[]",
          "name": "freelancers",
          "type": "address[]"
        },
        {
          "internalType": "uint256[]",
          "name": "freelancerRatings",
          "type": "uint256[]"
        },
        {
          "internalType": "enum RequestManager.RequestStatus[]",
          "name": "statuses",
          "type": "uint8[]"
        },
        {
          "internalType": "address[]",
          "name": "escrowContracts",
          "type": "address[]"
        }
      ],
      "stateMutability": "view",
      "type": "function",
      "constant": true
    },
    {
      "inputs": [
        {
          "internalType": "uint256",
          "name": "_milestoneId",
          "type": "uint256"
        },
        {
          "internalType": "string",
          "name": "_cid",
          "type": "string"
        },
        {
          "internalType": "address",
          "name": "_freelancer",
          "type": "address"
        }
      ],
      "name": "sendMilestoneReviewRequest",
      "outputs": [],
      "stateMutability": "nonpayable",
      "type": "function"
    },
    {
      "inputs": [],
      "name": "viewAllMilestoneReviewRequests",
      "outputs": [
        {
          "internalType": "uint256[]",
          "name": "requestIds",
          "type": "uint256[]"
        },
        {
          "internalType": "uint256[]",
          "name": "milestoneIds",
          "type": "uint256[]"
        },
        {
          "internalType": "address[]",
          "name": "freelancers",
          "type": "address[]"
        },
        {
          "internalType": "string[]",
          "name": "cids",
          "type": "string[]"
        },
        {
          "internalType": "bool[]",
          "name": "reviewedStatuses",
          "type": "bool[]"
        }
      ],
      "stateMutability": "view",
      "type": "function",
      "constant": true
    },
    {
      "inputs": [
        {
          "internalType": "uint256",
          "name": "_reviewRequestId",
          "type": "uint256"
        },
        {
          "internalType": "uint256",
          "name": "_projId",
          "type": "uint256"
        }
      ],
      "name": "acceptMilestoneReviewRequest",
      "outputs": [],
      "stateMutability": "payable",
      "type": "function",
      "payable": true
    },
    {
      "inputs": [
        {
          "internalType": "uint256",
          "name": "_reviewRequestId",
          "type": "uint256"
        },
        {
          "internalType": "string",
          "name": "_reason",
          "type": "string"
        }
      ],
      "name": "rejectMilestoneReviewRequest",
      "outputs": [
        {
          "internalType": "string",
          "name": "",
          "type": "string"
        }
      ],
      "stateMutability": "nonpayable",
      "type": "function"
    },
    {
      "inputs": [
        {
          "internalType": "uint256",
          "name": "_reviewRequestId",
          "type": "uint256"
        }
      ],
      "name": "acceptRejectionReason",
      "outputs": [],
      "stateMutability": "nonpayable",
      "type": "function"
    },
    {
      "inputs": [
        {
          "internalType": "address",
          "name": "freelancer",
          "type": "address"
        }
      ],
      "name": "viewAcceptedProjectsByFreelancer",
      "outputs": [
        {
          "internalType": "uint256[]",
          "name": "ids",
          "type": "uint256[]"
        },
        {
          "internalType": "string[]",
          "name": "names",
          "type": "string[]"
        },
        {
          "internalType": "string[]",
          "name": "descriptions",
          "type": "string[]"
        },
        {
          "internalType": "uint256[]",
          "name": "rewards",
          "type": "uint256[]"
        },
        {
          "internalType": "enum Projects.Status[]",
          "name": "statuses",
          "type": "uint8[]"
        },
        {
          "internalType": "address[]",
          "name": "employers",
          "type": "address[]"
        }
      ],
      "stateMutability": "view",
      "type": "function",
      "constant": true
    },
    {
      "inputs": [
        {
          "internalType": "uint256",
          "name": "_milestoneId",
          "type": "uint256"
        },
        {
          "internalType": "string",
          "name": "_name",
          "type": "string"
        },
        {
          "internalType": "string",
          "name": "_rid",
          "type": "string"
        },
        {
          "internalType": "string",
          "name": "_cid",
          "type": "string"
        }
      ],
      "name": "addFile",
      "outputs": [],
      "stateMutability": "nonpayable",
      "type": "function"
    },
    {
      "inputs": [
        {
          "internalType": "uint256",
          "name": "_milestoneId",
          "type": "uint256"
        }
      ],
      "name": "viewAllFilesForMilestone",
      "outputs": [
        {
          "internalType": "uint256[]",
          "name": "ids",
          "type": "uint256[]"
        },
        {
          "internalType": "uint256[]",
          "name": "milestoneIds",
          "type": "uint256[]"
        },
        {
          "internalType": "string[]",
          "name": "names",
          "type": "string[]"
        },
        {
          "internalType": "string[]",
          "name": "rids",
          "type": "string[]"
        },
        {
          "internalType": "string[]",
          "name": "cids",
          "type": "string[]"
        }
      ],
      "stateMutability": "view",
      "type": "function",
      "constant": true
    }
  ],
  "bytecode": "0x60803460705761343c80380390601f19601f83011683019183831067ffffffffffffffff84111760755780849260209460405283398101031260705751600160a060020a0381169081900360705760008054600160a060020a03191691909117905560405161339790816100a58239f35b600080fd5b7f4e487b7100000000000000000000000000000000000000000000000000000000600052604160045260246000fdfe610140604052600436101561001357600080fd5b6000610100527c0100000000000000000000000000000000000000000000000000000000610100513504806313e43248146123b75780631a79631514611c495780632d7788db14611b5d57806331eb2af414611a595780633a760554146118c357806343953519146118a35780634ba1f098146116175780634bd335b8146115ec5780634d758c29146112445780635badbe4c146112245780637e670ea21461117f57806381d12c581461110e57806386fe6d4f14610e7757806394e1502914610e575780639be8d8f914610cb2578063a7080a1814610b84578063a817229a14610a4b578063b3db5c9414610772578063bb6866e1146106ef578063c58343ef146105e55763c62851001461012857600080fd5b346105de5760803660031901126105de5760043560243567ffffffffffffffff81116105de5761015c9036906004016129c9565b60443567ffffffffffffffff81116105de5761017c9036906004016129c9565b9160643567ffffffffffffffff81116105de5761019d9036906004016129c9565b9160025491604051926101af8461287c565b83526020830190808252604084019283526060840195865260808401948552610100515260016020526040610100512080546801000000000000000081101561041f5761020191600182018155612809565b9390936105bf57518355516001830155518051600283019167ffffffffffffffff821161041f57610232835461283e565b601f8111610570575b5060209082906001601f8311146104fe5761026e9282916101005192610353575b50509060080260020a60001904191690565b906002021790555b60038101925192835167ffffffffffffffff811161041f57610298825461283e565b601f81116104af575b5060206001601f83111461043c5781806102d4926004979861010051926103535750509060080260020a60001904191690565b906002021790555b01905180519067ffffffffffffffff821161041f576102fb835461283e565b601f81116103d0575b5060209082906001601f83111461035e5761033692829161010051926103535750509060080260020a60001904191690565b906002021790555b6103496002546129e4565b6002556101005180f35b01519050388061025c565b9050601f1983169184610100515280610100512092610100515b8181106103b85750916002939185600196941061039c575b5050500201905561033e565b01516008601f84160260020a6000190419169055388080610390565b91936020600181928787015181550195019201610378565b836101005152602061010051206020601f85010481019160208510610415575b601f602091010401905b8181106104075750610304565b6101005181556001016103fa565b90915081906103f0565b60e060020a634e487b710261010051526041600452602461010051fd5b601f1982169083610100515280610100512091610100515b8181106104975750916004969784926001956002951061047b575b505050020190556102dc565b01516008601f84160260020a600019041916905538808061046f565b9192602060018192868c015181550194019201610454565b826101005152602061010051206020601f840104810191602084106104f4575b601f602091010401905b8181106104e657506102a1565b6101005181556001016104d9565b90915081906104cf565b9050601f1983169184610100515280610100512092610100515b8181106105585750916002939185600196941061053c575b50505002019055610276565b01516008601f84160260020a6000190419169055388080610530565b91936020600181928787015181550195019201610518565b836101005152602061010051206020601f850104810191602085106105b5575b601f602091010401905b8181106105a7575061023b565b61010051815560010161059a565b9091508190610590565b60e060020a634e487b7102610100515261010051600452602461010051fd5b6101005180fd5b346105de5760203660031901126105de576004356040516106058161287c565b6101005181526101005160208201526101005160408201526101005160608201526080610100519101528061010051526003602052610658600160a060020a036001604061010051200154161515612c0d565b6101005152600360205260a060406101005120600160a060020a03604051916106808361287c565b805483526106e682600183015416602085019081526003600284015493604087019485520154928460608701926106ba60ff871685612b27565b8161010060808a019704168652604051975188525116602087015251604086015251606085019061266d565b51166080820152f35b346105de5760203660031901126105de5760043561010051526005602052604061010051208054600182015491610766600160a060020a036002830154169160ff600461073e600384016128d3565b920154169260405195869586526020860152604085015260a0606085015260a084019061278e565b90151560808301520390f35b346105de5761078036612727565b90801515806109bb575b1561097457600160a060020a036101005154166040519060e360020a631e1e7e590282528260048301528160248161010051935afa90811561096657610100519161093b575b5060028110156108d7576001036108f4576107ec6004546129e4565b908160045560036040516107ff8161287c565b828152602081019433865260408201908152600160a060020a036060830196610100518852608084019661010051885261010051528460205260406101005120935184555116600160a060020a03600184019116600160a060020a03198254161790555160028201550192519160038310156108d7577fe697eb68c0228bd7d4e553246a2a86e8402d0895e45092ef8ae87b4cfd29f01693600160a060020a036108ba9260609560ff80198554169116178355511690612cc6565b600454906040519182526020820152336040820152a16101005180f35b60e060020a634e487b710261010051526021600452602461010051fd5b606460405160e560020a62461bcd02815260206004820152601360248201527f50726f6a656374206973206e6f74206f70656e000000000000000000000000006044820152fd5b61095a91503d8061010051833e61095281836128b1565b810190612a4e565b509350505050836107d0565b6040513d61010051823e3d90fd5b606460405160e560020a62461bcd02815260206004820152601260248201527f496e76616c69642070726f6a65637420494400000000000000000000000000006044820152fd5b5060046020600160a060020a03610100515416604051928380927f36fbad260000000000000000000000000000000000000000000000000000000082525afa908115610966576101005191610a14575b5081111561078a565b90506020813d602011610a43575b81610a2f602093836128b1565b81010312610a3e575183610a0b565b600080fd5b3d9150610a22565b346105de5760203660031901126105de57600435806101005152600560205260406101005120600160a060020a036002820154163303610b17576004019081549060ff8216610ad0577f25fa961293610a63a633d14b93d5aa91df30ab4131e3e197fbb148988f45f2fa92600160209360ff1916179055604051908152a16101005180f35b606460405160e560020a62461bcd02815260206004820152601f60248201527f526576696577207265717565737420616c7265616479207265766965776564006044820152fd5b608460405160e560020a62461bcd02815260206004820152603360248201527f4f6e6c792074686520667265656c616e6365722063616e20616363657074207460448201527f68652072656a656374696f6e20726561736f6e000000000000000000000000006064820152fd5b346105de57610100513660031901126105de57600454610ba381612ae2565b610bac82612ae2565b91610bb681612ae2565b610bbf82612ae2565b610bc883612ae2565b91610bd284612ae2565b9360015b81811115610bf757505090610bf393929160405196879687612693565b0390f35b806101005152600360205260406101005120906000198101818111610c9557610c8a600160a060020a036101006003610c90968e878f88610c3791612b14565b52815490610c46908890612b14565b5260018101548416610c58878c612b14565b526002810154610c68878d612b14565b520154610c8160ff8216610c7c878e612b14565b612b27565b04169189612b14565b526129e4565b610bd6565b60e060020a634e487b710261010051526011600452602461010051fd5b346105de57610100513660031901126105de57600654610cd181612ae2565b90610cdb81612ae2565b610ce482612ae2565b610ced83612c7c565b90610cf784612aca565b92610d0560405194856128b1565b848452610d1185612aca565b602085019590601f190136873760015b81811115610db957610d518888886020610d7a8a610d6c8b610d5e8c6040519a8b9a60a08c5260a08c01906125fc565b908a8203888c01526125fc565b9088820360408a0152612630565b9086820360608801526127b3565b9184830360808601525191828152019190610100515b818110610d9e575050500390f35b82511515845285945060209384019390920191600101610d90565b806101005152600560205260406101005120908154600019820190828211610c955760ff6004610e5295610e4893610df28f8790612b14565b526001810154610e02868b612b14565b526002810154600160a060020a0316610e1b868c612b14565b52610e28600382016128d3565b610e32868d612b14565b52610e3d858c612b14565b500154169189612b14565b90151590526129e4565b610d21565b346105de57610100513660031901126105de576020600654604051908152f35b346105de5760603660031901126105de5760043560243567ffffffffffffffff81116105de57610eab90369060040161273d565b604435600160a060020a0381169392908490036105de57610ecd6006546129e4565b80600655604051610edd8161287c565b818152600160a060020a03602082019686885260408301908152610f02368787612992565b976060840198895260808401946101005186526101005152600560205260406101005120935184555160018401555116600160a060020a03600283019116600160a060020a031982541617905560038101955195865167ffffffffffffffff811161041f57610f71825461283e565b601f81116110bf575b5060206001601f831114611025579181610fd581611010989796946004967fbfc58ffde775327d37ac02c637219967f9f1d0d5dae07e75af5d1ad5be3543609d610100519261101a5750509060080260020a60001904191690565b906002021790555b019051151560ff801983541691161790556006549260405194859485526020850152606060408501526060840191612c5b565b0390a16101005180f35b015190508d8061025c565b601f1982169083610100515280610100512091610100515b8181106110a7575083600495937fbfc58ffde775327d37ac02c637219967f9f1d0d5dae07e75af5d1ad5be3543609c6001946110109b9a99976002951061108b575b50505002019055610fdd565b01516008601f84160260020a60001904191690558c808061107f565b9192602060018192868f01518155019401920161103d565b826101005152602061010051206020601f84010481019160208410611104575b601f602091010401905b8181106110f65750610f7a565b6101005181556001016110e9565b90915081906110df565b346105de5760203660031901126105de576004356101005152600360205260a060406101005120600160a060020a0361010082549282600182015416906003600282015491015491604051958652602086015260408501526111766060850160ff831661266d565b04166080820152f35b346105de5761118d36612727565b9061010051526001602052604061010051209081548110156105de576111b291612809565b508054610bf36001830154926112166111cd600283016128d3565b916112086111e960046111e2600385016128d3565b93016128d3565b936040519788978852602088015260a0604088015260a087019061278e565b90858203606087015261278e565b90838203608085015261278e565b346105de57610100513660031901126105de576020600454604051908152f35b346105de5760203660031901126105de57600435600160a060020a03811681036105de5760045461127481612ae2565b9161127e82612c7c565b9061128883612c7c565b60e05261129483612ae2565b60c0526112a083612ae2565b60a0526112ac83612ae2565b608052610100519260015b81811115611476575050506112cb82612ae2565b916112d581612c7c565b6112de82612c7c565b906112e883612ae2565b926112f281612ae2565b946112fc82612ae2565b97610100515b8381106113b15750505050611358929161133c61134a9261132e6040519860c08a5260c08a01906125fc565b9088820360208a01526127b3565b9086820360408801526127b3565b9084820360608601526125fc565b82810360808401526020808351928381520192019061010051905b80821061138e578480610bf3868983820360a0850152612630565b90919283519060028210156108d757602081600193829352019401920190611373565b6113bb8183612b14565b516113c6828b612b14565b526113d18184612b14565b516113dc8287612b14565b526113e78186612b14565b506113f48160e051612b14565b516113ff8288612b14565b5261140a8187612b14565b506114178160c051612b14565b516114228289612b14565b5261142f8160a051612b14565b519060028210156108d75761144f60019261144a838c612b14565b612d0c565b600160a060020a0361146382608051612b14565b511661146f828d612b14565b5201611302565b80610100515260036020526040610100512060ff60038201541660038110156108d757600114806115cd575b6114b6575b506114b1906129e4565b6112b7565b9094600160a060020a036101005154169154916040519260e360020a631e1e7e5902845260048401528260248161010051935afa9081156109665787611592926114b1946101005161010051610100519061010051928761010051956101005197611599575b5061152b906115759798612b14565b52611536878d612b14565b52611541868c612b14565b5061154e8660e051612b14565b5261155b8560e051612b14565b506115688560c051612b14565b5261144a8460a051612b14565b600160a060020a0361158983608051612b14565b911690526129e4565b94906114a7565b9250935050611575945061152b93506115bf91503d8061010051833e61095281836128b1565b97509590949193919061151c565b50600160a060020a038416600160a060020a03600183015416146114a2565b346105de57610100513660031901126105de576020600160a060020a03610100515416604051908152f35b60203660031901126105de57600435806101005152600360205260406101005120906001820190600160a060020a03825416611654811515612c0d565b600384019360ff85541660038110156108d75761185c57600160a060020a036101005154169054906040519160e360020a631e1e7e5902835260048301528160248161010051935afa91821561096657610100519283928391611828575b50600160a060020a0316918233036117bb5760028110156108d7576001036117745760405191610649908184019084821067ffffffffffffffff83111761041f576040938593612d19853982526020820152030191f092831561096657600160a060020a03610100816060956117497fac8064fea85b95641f19e230ba9da498102d474473fe4b103466cb224daf5e019886612cc6565b845460ff19166001179485905554604080519687529116602086015292041690820152a16101005180f35b606460405160e560020a62461bcd02815260206004820152601460248201527f50726f6a656374206d757374206265206f70656e0000000000000000000000006044820152fd5b608460405160e560020a62461bcd02815260206004820152602860248201527f4f6e6c792074686520656d706c6f7965722063616e206163636570742074686560448201527f20726571756573740000000000000000000000000000000000000000000000006064820152fd5b9050600160a060020a03935061184c9192503d8061010051833e61095281836128b1565b95945095925090509392906116b2565b606460405160e560020a62461bcd02815260206004820152601660248201527f52657175657374206973206e6f742070656e64696e67000000000000000000006044820152fd5b346105de57610100513660031901126105de576020600254604051908152f35b346105de5760203660031901126105de576004356002546118e381612ae2565b906118ed81612ae2565b6118f682612c7c565b9061190083612c7c565b9261190a81612c7c565b610100519096815b8381106119795761194188610bf38b61196b8b61195d8c61194f8d604051998a9960a08b5260a08b01906125fc565b9089820360208b01526125fc565b9087820360408901526127b3565b9085820360608701526127b3565b9083820360808501526127b3565b81610100515260016020528160016119978360406101005120612809565b500154146119a8575b600101611912565b91611a5160019183610100515282602052611a3660046119ce8760406101005120612809565b5080546119db858f612b14565b52858101546119ea858c612b14565b526119f7600282016128d3565b611a01858d612b14565b52611a0c848c612b14565b508b611a2485611a1e600385016128d3565b92612b14565b52611a2f848d612b14565b50016128d3565b611a40828d612b14565b52611a4b818c612b14565b506129e4565b9290506119a0565b346105de5760403660031901126105de5760043560243567ffffffffffffffff81116105de57611a8d90369060040161273d565b91908161010051526005602052600460406101005120019283549260ff8416611b1657610bf3946001611b029560ff19161790557fbaaa1d8ac25adbe9d68fdf1013f60ea647f91e457fb4589976b74dbf9c14968f6040516020815280611af8602082018688612c5b565b0390a23691612992565b60405191829160208352602083019061278e565b606460405160e560020a62461bcd02815260206004820152602060248201527f526576696577207265717565737420616c72656164792070726f6365737365646044820152fd5b346105de5760203660031901126105de5760043580610100515260036020526040610100512060036001820191611b9f600160a060020a038454161515612c0d565b019160ff83541660038110156108d757611c0257825460ff19166002179092555460408051928352600160a060020a039190911660208301527f490ad67e4c8b3b9c1d11dfcd7f02e155190b8f6feff3a9d9e9df3721f0f74e5791a16101005180f35b606460405160e560020a62461bcd02815260206004820152601960248201527f5265717565737420616c72656164792070726f636573736564000000000000006044820152fd5b611c5236612727565b906101005152600560205260406101005120600481015460ff8116612370576001820154600160a060020a0361010051541693604051907f42c549c00000000000000000000000000000000000000000000000000000000082528060048301526101005182602481895afa94851561096657610100516101208190529586938491829182918291906121ae575b5061010051998a805b825181101561219c578a611cfc8285612b14565b5114611d0a57600101611ce8565b611d49969798999a9b9c50809594819350611d429250611d3c82611d3c96611d3c8260019d611d3c8261012051612b14565b50612b14565b5198612b14565b505b15612155576040519560e360020a631e1e7e590287528260048801528660248161010051935afa9485156109665761010051968796879190612129575b50600160a060020a03339116036120bc57600160a060020a0391600160029260ff1916176004820155015416600160a060020a03610100515416604051967f3a766ddf000000000000000000000000000000000000000000000000000000008852826004890152602088602481855afa978815610966576101005198612087575b506064900484600502600581048603610c9557811561206a57048701809711610c95576101f48711612060575b803b156105de57604051907f063dca0c00000000000000000000000000000000000000000000000000000000825282600483015287602483015281604481610100519361010051905af180156109665761204d575b50610100516004549092839290835b838110611fbd575b5050505015611f765761010051526003602052600160a060020a036101006003604082512001540416803b156105de57604051917fcd0c15bf000000000000000000000000000000000000000000000000000000008352600483015281602481610100519361010051905af1801561096657611f57575b7f27d841e82fb3b2469e89e27c70f2ec8597324e08569a13460e4dd8a1a3c0b10c606084868560405192835260208301526040820152a16101005180f35b61010051919291611f67916128b1565b610100516105de579083611f19565b606460405160e560020a62461bcd02815260206004820152601c60248201527f4173736f6369617465642072657175657374206e6f7420666f756e64000000006044820152fd5b80610100515260036020528160406101005120541480612026575b80611ffb575b611fea57600101611e9a565b945050505050600186808080611ea2565b50806101005152600360205260ff60036040610100512001541660038110156108d757600114611fde565b50806101005152600360205282600160a060020a0360016040610100512001541614611fd8565b6101005161205a916128b1565b86611e8b565b6101f49650611e36565b60e060020a634e487b710261010051526012600452602461010051fd5b9097506020813d6020116120b4575b816120a3602093836128b1565b810103126105de5751966064611e09565b3d9150612096565b608460405160e560020a62461bcd02815260206004820152602760248201527f4f6e6c792074686520656d706c6f7965722063616e20616363657074206d696c60448201527f6573746f6e6573000000000000000000000000000000000000000000000000006064820152fd5b919650506121459196503d8061010051833e61095281836128b1565b9994925050969150959688611d88565b606460405160e560020a62461bcd02815260206004820152601860248201527f4d696c6573746f6e6520646f6573206e6f7420657869737400000000000000006044820152fd5b5098999a959697505050505050611d4b565b96505050505094503d948561010051843e6121c986846128b1565b6101008387810103126105de57825167ffffffffffffffff81116105de576121f690878501908501612b33565b92602081015167ffffffffffffffff81116105de5761221a90888301908301612b33565b50604081015167ffffffffffffffff81116105de5761223e90888301908301612b8f565b96606082015167ffffffffffffffff81116105de5761226290828401908401612b8f565b91608081015167ffffffffffffffff81116105de5761228690838301908301612b33565b9260a082015167ffffffffffffffff81116105de576122aa90848401908401612b33565b9260c08301519267ffffffffffffffff84116105de57818101601f8583010112156105de5783810151936122dd85612aca565b946122eb60405196876128b1565b808652602086019184840160208084028387010101116105de5791602083850101925b602080840282870101018410612354575050505060e081015167ffffffffffffffff81116105de576123439282019101612b8f565b96996101205292919095918b611cdf565b835180151581036105de5782526020938401939091019061230e565b606460405160e560020a62461bcd02815260206004820152601f60248201527f526576696577207265717565737420616c7265616479206163636570746564006044820152fd5b346105de57610100513660031901126105de57610100516004548154909190600160a060020a031660015b8381111561256057506123f482612ae2565b906123fe83612ae2565b9261240881612ae2565b61241182612ae2565b9061242461241e84612ae2565b93612ae2565b93610100519060015b8981111561244b57505050610bf39495965060405196879687612693565b806101005152600360205260406101005120546040519060e360020a631e1e7e5902825260048201526101005181602481865afa9081156109665789918b91610100519161253d575b50600160a060020a031633146124b5575b50506124b0906129e4565b61242d565b93600160a060020a0361010060036125339486986124b09784515282602052896124e487604087512094612b14565b526124f186835492612b14565b5283600182015416612503868c612b14565b526002810154612513868d612b14565b52015461252760ff8216610c7c868e612b14565b0416610c8a828b612b14565b92905087896124a5565b61255491503d8061010051833e61095281836128b1565b9450505050508d612494565b806101005152600360205260406101005120546040519060e360020a631e1e7e5902825260048201526101005181602481865afa9081156109665761010051916125d9575b50600160a060020a031633146125c4575b6125bf906129e4565b6123e2565b916125d16125bf916129e4565b9290506125b6565b6125f091503d8061010051833e61095281836128b1565b945050505050856125a5565b906020808351928381520192019060005b81811061261a5750505090565b825184526020938401939092019160010161260d565b906020808351928381520192019060005b81811061264e5750505090565b8251600160a060020a0316845260209384019390920191600101612641565b90600382101561267a5752565b60e060020a634e487b7102600052602160045260246000fd5b9695939192610d5e6126d0946126b46126c29460c08c5260c08c01906125fc565b908a820360208c01526125fc565b9086820360608801526125fc565b9380850360808201526020808451968781520193016000955b80871061270857505061270593945060a0818403910152612630565b90565b90936020808261271b600194895161266d565b019501960195906126e9565b6040906003190112610a3e576004359060243590565b9181601f84011215610a3e5782359167ffffffffffffffff8311610a3e5760208381860195010111610a3e57565b60005b83811061277e5750506000910152565b818101518382015260200161276e565b906020916127a78151809281855285808601910161276b565b601f01601f1916010190565b805180835260208181028401810193928101926000918101905b8383106127dc57505050505090565b90919293946020806127fa600193601f19868203018752895161278e565b970193019301919392906127cd565b8054821015612825576000526005602060002091020190600090565b60e060020a634e487b7102600052603260045260246000fd5b9060016002830492168015612872575b602083101461285957565b60e060020a634e487b7102600052602260045260246000fd5b91607f169161284e565b60a0810190811067ffffffffffffffff82111761289857604052565b60e060020a634e487b7102600052604160045260246000fd5b90601f8019910116810190811067ffffffffffffffff82111761289857604052565b90604051918260008254926128e78461283e565b8084529360018116908115612955575060011461290e575b5061290c925003836128b1565b565b90506000929192526020600020906000915b81831061293957505090602061290c92820101386128ff565b6020919350806001915483858901015201910190918492612920565b90506020925061290c94915060ff19168284015215158102820101386128ff565b67ffffffffffffffff811161289857601f01601f191660200190565b92919261299e82612976565b916129ac60405193846128b1565b829481845281830111610a3e578281602093846000960137010152565b9080601f83011215610a3e5781602061270593359101612992565b60001981146129f35760010190565b60e060020a634e487b7102600052601160045260246000fd5b81601f82011215610a3e578051612a2281612976565b92612a3060405194856128b1565b81845260208284010111610a3e57612705916020808501910161276b565b60c081830312610a3e57805192602082015167ffffffffffffffff8111610a3e5783612a7b918401612a0c565b9260408301519067ffffffffffffffff8211610a3e57612a9c918401612a0c565b9160608101519160808201516002811015610a3e5760a090920151600160a060020a0381168103610a3e5790565b67ffffffffffffffff81116128985760208091020190565b90612aec82612aca565b612af960405191826128b1565b8281528092612b0a601f1991612aca565b0190602036910137565b8051821015612825576020809202010190565b600382101561267a5752565b9080601f83011215610a3e578151612b4a81612aca565b92612b5860405194856128b1565b8184526020808086019302820101928311610a3e57602001905b828210612b7f5750505090565b8151815260209182019101612b72565b9080601f83011215610a3e578151612ba681612aca565b92612bb460405194856128b1565b818452602080808601930282010191838311610a3e5760208201905b838210612bdf57505050505090565b815167ffffffffffffffff8111610a3e57602091612c0287848094880101612a0c565b815201910190612bd0565b15612c1457565b606460405160e560020a62461bcd02815260206004820152601d60248201527f4e6f20726571756573742065786973747320666f7220746869732049440000006044820152fd5b908060209392818452848401376000828201840152601f01601f1916010190565b90612c8682612aca565b612c9360405191826128b1565b8281528092612ca4601f1991612aca565b019060005b828110612cb557505050565b806060602080938501015201612ca9565b9074ffffffffffffffffffffffffffffffffffffffff00610100600160a060020a038454931602169074ffffffffffffffffffffffffffffffffffffffff001916179055565b600282101561267a575256fe608061064980380390601f19601f83011683019183831067ffffffffffffffff841117608b5780849260409485528339810103126086576047602060418360ba565b920160ba565b60008054600160a060020a03938416600160a060020a031991821617909155600180549290931691161790553460025560405161057b90816100ce8239f35b600080fd5b7f4e487b7100000000000000000000000000000000000000000000000000000000600052604160045260246000fd5b5190600160a060020a038216820360865756fe6080604052600436101561001257600080fd5b7c010000000000000000000000000000000000000000000000000000000060003504806345ad1a2e1461039e578063590e1ae3146102a757806369d8957514610243578063a37dda2c1461021c578063aa8c217c146101fe578063ae200e79146101d75763cd0c15bf1461008557600080fd5b346101d25760203660031901126101d257600254600435811561018b57808202908282040361015c57606490049081116100ef57600080808093600160a060020a038254168282156100e6575bf1156100da57005b6040513d6000823e3d90fd5b506108fc6100d2565b608460405160e560020a62461bcd02815260206004820152602860248201527f4d696c6573746f6e65207061796d656e74206578636565647320657363726f7760448201527f2062616c616e63650000000000000000000000000000000000000000000000006064820152fd5b7f4e487b7100000000000000000000000000000000000000000000000000000000600052601160045260246000fd5b606460405160e560020a62461bcd02815260206004820152601c60248201527f496e73756666696369656e742066756e647320696e20657363726f77000000006044820152fd5b600080fd5b346101d25760003660031901126101d2576020600160a060020a0360015416604051908152f35b346101d25760003660031901126101d2576020600254604051908152f35b346101d25760003660031901126101d2576020600160a060020a0360005416604051908152f35b346101d25760003660031901126101d25761026a600160a060020a03600154163314610483565b6000808080600254801561027e81156104f7565b600160a060020a0383541690839061029e575bf1156100da576000600255005b506108fc610291565b346101d25760003660031901126101d257600160a060020a0360005416803303610331576002549081156102ea576000808093819382f1156100da576000600255005b606460405160e560020a62461bcd02815260206004820152601260248201527f4e6f2066756e647320746f20726566756e6400000000000000000000000000006044820152fd5b608460405160e560020a62461bcd02815260206004820152602860248201527f4f6e6c792074686520667265656c616e6365722063616e20726571756573742060448201527f6120726566756e640000000000000000000000000000000000000000000000006064820152fd5b346101d25760203660031901126101d2576004356103c8600160a060020a03600154163314610483565b6002546103d68115156104f7565b811161041657600080808084600160a060020a0382541682821561040d575bf1156100da5760025490810390811161015c57600255005b506108fc6103f5565b608460405160e560020a62461bcd02815260206004820152602560248201527f5265647563656420616d6f756e74206578636565647320657363726f7720626160448201527f6c616e63650000000000000000000000000000000000000000000000000000006064820152fd5b1561048a57565b608460405160e560020a62461bcd02815260206004820152602360248201527f4f6e6c792074686520656d706c6f7965722063616e2072656c6561736520667560448201527f6e647300000000000000000000000000000000000000000000000000000000006064820152fd5b156104fe57565b606460405160e560020a62461bcd02815260206004820152601360248201527f4e6f2066756e647320746f2072656c65617365000000000000000000000000006044820152fdfea26469706673582212205aa538a68d69b34f330ff6f538950be1506f600f93c36091f31eba85cfc4425064736f6c634300081c0033a2646970667358221220ddfaad305bc6881f55eb020586da1ed9d1b244e7d77d20acd0dad54c4a3a44ee64736f6c634300081c0033",
  "immutableReferences": {},
  "source": "// SPDX-License-Identifier: MIT\r\npragma solidity ^0.8.0;\r\n\r\nimport \"./Projects.sol\";\r\n\r\ncontract Escrow {\r\n    address public freelancer;\r\n    address public employer;\r\n    uint public amount;\r\n\r\n    constructor(address _freelancer, address _employer) payable {\r\n        freelancer = _freelancer;\r\n        employer = _employer;\r\n        amount = msg.value; // Set the amount to the value sent during the contract creation\r\n    }\r\n\r\n    function releaseFunds() external {\r\n        require(msg.sender == employer, \"Only the employer can release funds\");\r\n        require(amount > 0, \"No funds to release\");\r\n        payable(freelancer).transfer(amount);\r\n        amount = 0; // Set amount to 0 after release\r\n    }\r\n\r\n    function refund() external {\r\n        require(msg.sender == freelancer, \"Only the freelancer can request a refund\");\r\n        require(amount > 0, \"No funds to refund\");\r\n        payable(freelancer).transfer(amount);\r\n        amount = 0; // Set amount to 0 after refund\r\n    }\r\n\r\n    function releaseReducedFunds(uint _reducedAmount) external {\r\n        require(msg.sender == employer, \"Only the employer can release funds\");\r\n        require(amount > 0, \"No funds to release\");\r\n        require(_reducedAmount <= amount, \"Reduced amount exceeds escrow balance\");\r\n\r\n        payable(freelancer).transfer(_reducedAmount);\r\n        amount -= _reducedAmount; // Deduct the paid amount from the total escrow balance\r\n    }\r\n\r\n    function releaseMilestonePayment(uint milestonePercentage) external {\r\n        require(amount > 0, \"Insufficient funds in escrow\");\r\n\r\n        uint milestonePayment = (amount * milestonePercentage) / 100;\r\n        require(milestonePayment <= amount, \"Milestone payment exceeds escrow balance\");\r\n\r\n        payable(freelancer).transfer(milestonePayment);\r\n        // amount -= milestonePayment;\r\n    }\r\n}\r\n\r\ncontract RequestManager {\r\n    Projects public projectsContract;\r\n\r\n    enum RequestStatus { Pending, Accepted, Rejected }\r\n\r\n    struct Request {\r\n        uint projectId;\r\n        address freelancer;\r\n        uint freelancerRating;\r\n        RequestStatus status;\r\n        Escrow escrowContract;\r\n    }\r\n\r\n    struct MilestoneReviewRequest {\r\n        uint id;\r\n        uint milestoneId;\r\n        address freelancer;\r\n        string cid;\r\n        bool reviewed;\r\n    }\r\n\r\n    struct File {\r\n        uint id;\r\n        uint milestoneId;\r\n        string name;\r\n        string rid;\r\n        string cid;\r\n    }\r\n\r\n    // Mapping milestone ID to an array of files\r\n    mapping(uint => File[]) public milestoneFiles;\r\n    uint public fileCount;\r\n\r\n    // Store all requests in a single mapping\r\n    mapping(uint => Request) public requests;\r\n    uint public requestCount; // To keep track of the total number of requests\r\n\r\n    mapping(uint => MilestoneReviewRequest) public milestoneReviewRequests;\r\n    uint public milestoneReviewRequestCount;\r\n\r\n    event RequestSent(uint requestId, uint projectId, address freelancer);\r\n    event RequestAccepted(uint requestId, address freelancer, address escrowContract);\r\n    event RequestRejected(uint requestId, address freelancer);\r\n    event MilestoneReviewRequestSent(uint requestId, uint milestoneId, string cid);\r\n    event MilestoneAccepted(uint projectId, uint milestoneId, uint updatedRating);\r\n    event RejectionReasonAccepted(uint _reviewRequestId);\r\n    event MilestoneReviewRequestRejected(uint indexed reviewRequestId, string reason);\r\n\r\n    constructor(address _projectsContract) {\r\n        projectsContract = Projects(_projectsContract);\r\n    }\r\n\r\n    function sendRequest(uint _projectId, uint _freelancerRating) public {\r\n        require(_projectId > 0 && _projectId <= projectsContract.projectCount(), \"Invalid project ID\");\r\n        (,, , , Projects.Status status, ) = projectsContract.getProject(_projectId);\r\n        require(status == Projects.Status.Open, \"Project is not open\");\r\n\r\n        // Create a new request\r\n        requestCount++; // Increment request count to create a unique ID\r\n        requests[requestCount] = Request({\r\n            projectId: _projectId,\r\n            freelancer: msg.sender,\r\n            freelancerRating: _freelancerRating,\r\n            status: RequestStatus.Pending,\r\n            escrowContract: Escrow(address(0))\r\n        });\r\n\r\n        emit RequestSent(requestCount, _projectId, msg.sender);\r\n    }\r\n\r\n    function acceptRequest(uint _requestId) public payable {\r\n        Request storage request = requests[_requestId];\r\n        require(request.freelancer != address(0), \"No request exists for this ID\");\r\n        require(request.status == RequestStatus.Pending, \"Request is not pending\");\r\n\r\n        // Fetch project details\r\n        (,, , uint projectReward, Projects.Status status, address employer) = projectsContract.getProject(request.projectId);\r\n        require(msg.sender == employer, \"Only the employer can accept the request\");\r\n        require(status == Projects.Status.Open, \"Project must be open\");\r\n\r\n        // Create new escrow contract instance with freelancer and employer details\r\n        request.escrowContract = new Escrow{value: projectReward}(request.freelancer, employer);\r\n\r\n        request.status = RequestStatus.Accepted;\r\n        emit RequestAccepted(_requestId, request.freelancer, address(request.escrowContract));\r\n    }\r\n\r\n    function rejectRequest(uint _requestId) public {\r\n        Request storage request = requests[_requestId];\r\n        require(request.freelancer != address(0), \"No request exists for this ID\");\r\n        require(request.status == RequestStatus.Pending, \"Request already processed\");\r\n\r\n        request.status = RequestStatus.Rejected;\r\n        emit RequestRejected(_requestId, request.freelancer);\r\n    }\r\n\r\n    \r\n\r\n    function getRequest(uint _requestId) public view returns (Request memory) {\r\n        require(requests[_requestId].freelancer != address(0), \"No request exists for this ID\");\r\n        return requests[_requestId];\r\n    }\r\n\r\n    // New function to view all requests\r\n    function viewAllRequests() public view returns (\r\n        uint[] memory requestIds,\r\n        uint[] memory projectIds,\r\n        address[] memory freelancers,\r\n        uint[] memory freelancerRatings,\r\n        RequestStatus[] memory statuses,\r\n        address[] memory escrowContracts\r\n    ) {\r\n        uint count = requestCount;\r\n\r\n        // Initialize arrays based on the total request count\r\n        requestIds = new uint[](count);\r\n        projectIds = new uint[](count);\r\n        freelancers = new address[](count);\r\n        freelancerRatings = new uint[](count);\r\n        statuses = new RequestStatus[](count);\r\n        escrowContracts = new address[](count);\r\n\r\n        // Populate the arrays with request details\r\n        for (uint i = 1; i <= requestCount; i++) {\r\n            Request storage request = requests[i];\r\n            requestIds[i - 1] = i;\r\n            projectIds[i - 1] = request.projectId;\r\n            freelancers[i - 1] = request.freelancer;\r\n            freelancerRatings[i - 1] = request.freelancerRating;\r\n            statuses[i - 1] = request.status;\r\n            escrowContracts[i - 1] = address(request.escrowContract);\r\n        }\r\n\r\n        return (requestIds, projectIds, freelancers, freelancerRatings, statuses, escrowContracts);\r\n    }\r\n\r\n\r\n    // function acceptMilestone(uint _milestoneId, uint _actualDaysTaken, uint _delayPenalty, uint _requestId) public payable {\r\n    //     Request memory request = getRequest(_requestId); // Retrieve the request using requestId\r\n\r\n    //     // Ensure projectId is valid\r\n    //     require(request.projectId > 0 && request.projectId <= projectsContract.projectCount(), \"Project does not exist\");\r\n\r\n    //     // Retrieve the project details using the getProject function\r\n    //     (, , , uint reward, , address employer) = projectsContract.getProject(request.projectId);\r\n    //     require(msg.sender == employer, \"Only the employer can accept milestones\");\r\n\r\n    //     // Ensure milestoneId is valid\r\n    //     (\r\n    //         uint[] memory ids,\r\n    //         uint[] memory projectIds,\r\n    //         string[] memory names,\r\n    //         string[] memory descriptions,\r\n    //         uint[] memory daycounts,\r\n    //         uint[] memory percentages,\r\n    //         bool[] memory completions,\r\n    //         string[] memory proofFileHashes\r\n    //     ) = projectsContract.getMilestones(request.projectId);\r\n\r\n    //     // Check if the milestone exists and is within bounds\r\n    //     require(_milestoneId > 0 && _milestoneId <= ids.length, \"Milestone does not exist\");\r\n        \r\n    //     // Fetch milestone data by using _milestoneId as an index\r\n    //     uint milestoneIndex = _milestoneId - 1;\r\n    //     require(!completions[milestoneIndex], \"Milestone already completed\");\r\n    //     require(bytes(proofFileHashes[milestoneIndex]).length > 0, \"Proof file not uploaded\");\r\n\r\n    //     // Mark the milestone as completed\r\n    //     projectsContract.completeMilestone(request.projectId, _milestoneId);\r\n\r\n    //     // Calculate and update freelancer rating based on the provided formula\r\n    //     uint currentRating = projectsContract.getFreelancerRating(request.freelancer);\r\n    //     uint rewardWeight = (percentages[milestoneIndex] * reward) / 100;\r\n    //     int ratingChange = int((5 * 100 * rewardWeight * daycounts[milestoneIndex]) / (reward * _actualDaysTaken));\r\n\r\n    //     // Cap the increment at +0.2 if positive\r\n    //     if (ratingChange > 20) {\r\n    //         ratingChange = 20;\r\n    //     }\r\n\r\n    //     uint newRating = uint(int(currentRating) + ratingChange);\r\n\r\n    //     // Ensure new rating doesn't exceed 5.0 (500 basis points)\r\n    //     if (newRating > 500) {\r\n    //         newRating = 500;\r\n    //     }\r\n\r\n    //     // Update the freelancer's rating\r\n    //     projectsContract.setFreelancerRating(request.freelancer, newRating);\r\n\r\n    //     // Release milestone payment from the escrow with the specified penalty\r\n    //     uint milestonePercentage = percentages[milestoneIndex];\r\n    //     request.escrowContract.releaseMilestonePayment(milestonePercentage, _delayPenalty);\r\n\r\n    //     emit MilestoneAccepted(request.projectId, _milestoneId, newRating);\r\n    // }\r\n\r\n\r\n    function viewRequestsByEmployer() public view returns (\r\n            uint[] memory requestIds,\r\n            uint[] memory projectIds,\r\n            address[] memory freelancers,\r\n            uint[] memory freelancerRatings,\r\n            RequestStatus[] memory statuses,\r\n            address[] memory escrowContracts\r\n        ) {\r\n            uint count = 0;\r\n\r\n            // Count requests that belong to projects owned by the employer\r\n            for (uint i = 1; i <= requestCount; i++) {\r\n                uint projectId = requests[i].projectId;\r\n                (, , , , , address employer) = projectsContract.getProject(projectId);\r\n                if (employer == msg.sender) {\r\n                    count++;\r\n                }\r\n            }\r\n\r\n            // Initialize arrays based on the count of matching requests\r\n            requestIds = new uint[](count);\r\n            projectIds = new uint[](count);\r\n            freelancers = new address[](count);\r\n            freelancerRatings = new uint[](count);\r\n            statuses = new RequestStatus[](count);\r\n            escrowContracts = new address[](count);\r\n\r\n            uint index = 0;\r\n\r\n            // Populate the arrays with matching request details\r\n            for (uint i = 1; i <= requestCount; i++) {\r\n                uint projectId = requests[i].projectId;\r\n                (, , , , , address employer) = projectsContract.getProject(projectId);\r\n                if (employer == msg.sender) {\r\n                    Request storage request = requests[i];\r\n                    requestIds[index] = i;\r\n                    projectIds[index] = request.projectId;\r\n                    freelancers[index] = request.freelancer;\r\n                    freelancerRatings[index] = request.freelancerRating;\r\n                    statuses[index] = request.status;\r\n                    escrowContracts[index] = address(request.escrowContract);\r\n                    index++;\r\n                }\r\n            }\r\n\r\n            return (requestIds, projectIds, freelancers, freelancerRatings, statuses, escrowContracts);\r\n    }\r\n\r\n    function sendMilestoneReviewRequest(uint _milestoneId, string calldata _cid, address _freelancer) public {\r\n        // Create a new milestone review request\r\n        milestoneReviewRequestCount++; // Increment count for unique ID\r\n        milestoneReviewRequests[milestoneReviewRequestCount] = MilestoneReviewRequest({\r\n            id: milestoneReviewRequestCount,\r\n            milestoneId: _milestoneId,\r\n            freelancer: _freelancer,\r\n            cid: _cid,\r\n            reviewed: false // Initially, the request is not reviewed\r\n        });\r\n\r\n        emit MilestoneReviewRequestSent(milestoneReviewRequestCount, _milestoneId, _cid); // Emit event\r\n    }\r\n\r\n    function viewAllMilestoneReviewRequests() public view returns (\r\n        uint[] memory requestIds,\r\n        uint[] memory milestoneIds,\r\n        address[] memory freelancers,\r\n        string[] memory cids,\r\n        bool[] memory reviewedStatuses\r\n    ) {\r\n        uint count = milestoneReviewRequestCount;\r\n\r\n        // Initialize arrays based on the total count of review requests\r\n        requestIds = new uint[](count);\r\n        milestoneIds = new uint[](count);\r\n        freelancers = new address[](count);\r\n        cids = new string[](count);\r\n        reviewedStatuses = new bool[](count);\r\n\r\n        // Populate the arrays with review request details\r\n        for (uint i = 1; i <= milestoneReviewRequestCount; i++) {\r\n            MilestoneReviewRequest storage reviewRequest = milestoneReviewRequests[i];\r\n            requestIds[i - 1] = reviewRequest.id;\r\n            milestoneIds[i - 1] = reviewRequest.milestoneId;\r\n            freelancers[i - 1] = reviewRequest.freelancer;\r\n            cids[i - 1] = reviewRequest.cid;\r\n            reviewedStatuses[i - 1] = reviewRequest.reviewed;\r\n        }\r\n\r\n        return (requestIds, milestoneIds, freelancers, cids, reviewedStatuses);\r\n    }\r\n\r\n\r\n\r\nfunction acceptMilestoneReviewRequest(uint _reviewRequestId, uint _projId) public payable {\r\n        // Fetch the  request using the ID\r\n        MilestoneReviewRequest storage reviewRequest = milestoneReviewRequests[_reviewRequestId];\r\n        require(!reviewRequest.reviewed, \"Review request already accepted\");\r\n\r\n        // Get the milestone ID from the  request\r\n        uint milestoneId = reviewRequest.milestoneId;\r\n\r\n        // Retrieve the associated milestones for the project\r\n        (\r\n            uint[] memory ids,\r\n            uint[] memory projectIds,\r\n            string[] memory names,\r\n            string[] memory descriptions,\r\n            uint[] memory daycounts,\r\n            uint[] memory percentages,\r\n            bool[] memory completions,\r\n            string[] memory proofFileHashes\r\n        ) = projectsContract.getMilestones(_projId);\r\n\r\n        // Initialize variables to store the milestone data once we find it\r\n        bool milestoneFound = false;\r\n        string memory milestoneName;\r\n        string memory milestoneDescription;\r\n        uint milestoneDaycount;\r\n        uint milestonePercentage;\r\n        bool milestoneCompleted;\r\n        string memory milestoneProofFileHash;\r\n\r\n        // Search for the milestone with the specified milestoneId\r\n        for (uint i = 0; i < ids.length; i++) {\r\n            if (ids[i] == milestoneId) {\r\n                milestoneFound = true;\r\n                milestoneName = names[i];\r\n                milestoneDescription = descriptions[i];\r\n                milestoneDaycount = daycounts[i];\r\n                milestonePercentage = percentages[i];\r\n                milestoneCompleted = completions[i];\r\n                milestoneProofFileHash = proofFileHashes[i];\r\n                break;\r\n            }\r\n        }\r\n\r\n        require(milestoneFound, \"Milestone does not exist\");\r\n\r\n        // Use getProject to retrieve the project details\r\n        (\r\n            uint projId,\r\n            string memory projName,\r\n            string memory projDescription,\r\n            uint projReward,\r\n            Projects.Status projStatus,\r\n            address projEmployer\r\n        ) = projectsContract.getProject(_projId);\r\n\r\n        // Verify that the sender is the employer of the project\r\n        require(projEmployer == msg.sender, \"Only the employer can accept milestones\");\r\n\r\n        // Mark the review request as accepted\r\n        reviewRequest.reviewed = true;\r\n\r\n        // Get freelancer's address from the request\r\n        address freelancer = reviewRequest.freelancer;\r\n\r\n        // Update freelancer rating based on the milestone percentage\r\n        uint currentRating = projectsContract.getFreelancerRating(freelancer);\r\n        uint rewardWeight = projReward / 100;\r\n        uint newRating = currentRating + (5 * milestonePercentage / rewardWeight);\r\n\r\n        // Ensure the new rating does not exceed 500\r\n        if (newRating > 500) {\r\n            newRating = 500;\r\n        }\r\n\r\n        // Set the new rating for the freelancer\r\n        projectsContract.setFreelancerRating(freelancer, newRating);\r\n\r\n        // Find the request with the matching projectId and freelancer\r\n        uint requestIndex;\r\n        bool foundRequest = false;\r\n\r\n        for (uint i = 0; i < requestCount; i++) {\r\n            if (requests[i].projectId == _projId && requests[i].freelancer == freelancer && requests[i].status == RequestStatus.Accepted) {\r\n                requestIndex = i;\r\n                foundRequest = true;\r\n                break;\r\n            }\r\n        }\r\n        require(foundRequest, \"Associated request not found\");\r\n\r\n        // Release the milestone payment from escrow using the found request\r\n        requests[requestIndex].escrowContract.releaseMilestonePayment(milestonePercentage);\r\n\r\n        // Emit an event to record the milestone acceptance\r\n        emit MilestoneAccepted(projId, milestoneId, newRating);\r\n    }\r\n\r\n\r\n\r\n\r\n    function rejectMilestoneReviewRequest(uint _reviewRequestId, string calldata _reason)  public returns (string memory) {\r\n        MilestoneReviewRequest storage reviewRequest = milestoneReviewRequests[_reviewRequestId];\r\n        require(!reviewRequest.reviewed, \"Review request already processed\");\r\n        reviewRequest.reviewed = true;\r\n\r\n        emit MilestoneReviewRequestRejected(_reviewRequestId, _reason);\r\n        return _reason;\r\n    }\r\n\r\n    function acceptRejectionReason(uint _reviewRequestId) public {\r\n        // Fetch the request using the ID\r\n        MilestoneReviewRequest storage reviewRequest = milestoneReviewRequests[_reviewRequestId];\r\n        \r\n        // Check if the request exists and if it is not already reviewed\r\n        require(reviewRequest.freelancer == msg.sender, \"Only the freelancer can accept the rejection reason\");\r\n        require(!reviewRequest.reviewed, \"Review request already reviewed\");\r\n\r\n        // Accept the rejection reason and mark the request as reviewed\r\n        reviewRequest.reviewed = true;\r\n\r\n        // Emit an event for this action (optional)\r\n        emit RejectionReasonAccepted(_reviewRequestId);\r\n    }\r\n\r\n\r\n    function viewAcceptedProjectsByFreelancer(address freelancer) public view returns (\r\n        uint[] memory ids, \r\n        string[] memory names, \r\n        string[] memory descriptions, \r\n        uint[] memory rewards, \r\n        Projects.Status[] memory statuses, // Change here to use Projects.Status\r\n        address[] memory employers\r\n    ) {\r\n        // Temporary storage for matched projects\r\n        uint[] memory tempIds = new uint[](requestCount); \r\n        string[] memory tempNames = new string[](requestCount);\r\n        string[] memory tempDescriptions = new string[](requestCount);\r\n        uint[] memory tempRewards = new uint[](requestCount);\r\n        Projects.Status[] memory tempStatuses = new Projects.Status[](requestCount); // Change here to use Projects.Status\r\n        address[] memory tempEmployers = new address[](requestCount);\r\n\r\n        uint matchCount = 0; // Count of matched projects\r\n\r\n        for (uint i = 1; i <= requestCount; i++) {\r\n            Request storage req = requests[i];\r\n            if (req.status == RequestStatus.Accepted && req.freelancer == freelancer) {\r\n                // Unpack the return values from getProject\r\n                (uint id, string memory name, string memory description, uint reward, Projects.Status status, address employer) = \r\n                    projectsContract.getProject(req.projectId); // Call the function\r\n                \r\n                // Assign the unpacked values to temporary storage\r\n                tempIds[matchCount] = id;\r\n                tempNames[matchCount] = name;\r\n                tempDescriptions[matchCount] = description;\r\n                tempRewards[matchCount] = reward;\r\n                tempStatuses[matchCount] = status;\r\n                tempEmployers[matchCount] = employer;\r\n                matchCount++;\r\n            }\r\n        }\r\n\r\n        // Create memory arrays of the exact size of matches found\r\n        ids = new uint[](matchCount);\r\n        names = new string[](matchCount);\r\n        descriptions = new string[](matchCount);\r\n        rewards = new uint[](matchCount);\r\n        statuses = new Projects.Status[](matchCount); // Change here to use Projects.Status\r\n        employers = new address[](matchCount);\r\n\r\n        for (uint j = 0; j < matchCount; j++) {\r\n            ids[j] = tempIds[j];\r\n            names[j] = tempNames[j];\r\n            descriptions[j] = tempDescriptions[j];\r\n            rewards[j] = tempRewards[j];\r\n            statuses[j] = tempStatuses[j];\r\n            employers[j] = tempEmployers[j];\r\n        }\r\n\r\n        return (ids, names, descriptions, rewards, statuses, employers);\r\n    }\r\n    \r\n\r\n    function addFile(\r\n        uint _milestoneId, \r\n        string memory _name, \r\n        string memory _rid, \r\n        string memory _cid\r\n    ) public {\r\n        // Create a new File struct with a unique ID and add it to the milestoneFiles map\r\n        File memory newFile = File({\r\n            id: fileCount, // unique global ID for each file\r\n            milestoneId: _milestoneId,\r\n            name: _name,\r\n            rid: _rid,\r\n            cid: _cid\r\n        });\r\n        \r\n        milestoneFiles[_milestoneId].push(newFile); // Add file to the array for the specific milestone\r\n        fileCount++; // Increment the global file count\r\n    }\r\n\r\n    function viewAllFilesForMilestone(uint _milestoneId) \r\n        public \r\n        view \r\n        returns (\r\n            uint[] memory ids,\r\n            uint[] memory milestoneIds,\r\n            string[] memory names,\r\n            string[] memory rids,\r\n            string[] memory cids\r\n        ) \r\n    {\r\n        uint count = fileCount; // Assuming 'fileCount' keeps track of the total files added\r\n\r\n        // Initialize arrays based on the total file count for the specified milestone\r\n        ids = new uint[](count);\r\n        milestoneIds = new uint[](count);\r\n        names = new string[](count);\r\n        rids = new string[](count);\r\n        cids = new string[](count);\r\n\r\n        // Populate the arrays with file details for the given milestone\r\n        uint index = 0;\r\n        for (uint i = 0; i < count; i++) {\r\n            if (milestoneFiles[_milestoneId][i].milestoneId == _milestoneId) {\r\n                File storage file = milestoneFiles[_milestoneId][i];\r\n                ids[index] = file.id;\r\n                milestoneIds[index] = file.milestoneId;\r\n                names[index] = file.name;\r\n                rids[index] = file.rid;\r\n                cids[index] = file.cid;\r\n                index++;\r\n            }\r\n        }\r\n\r\n        return (ids, milestoneIds, names, rids, cids);\r\n    }\r\n\r\n\r\n}\r\n",
  "sourcePath": "C:\\Users\\Shashwat Chaturvedi\\OneDrive - iiit-b\\college\\projects\\delance\\delance_test2\\contracts\\RequestManager.sol",
  "compiler": {
    "name": "solc",
    "version": "0.8.28+commit.7893614a.Emscripten.clang"
  },
  "schemaVersion": "3.4.16",
  "updatedAt": "2024-11-02T18:55:12.745Z",
  "networkType": "ethereum",
  "devdoc": {
    "kind": "dev",
    "methods": {},
    "version": 1
  },
  "userdoc": {
    "kind": "user",
    "methods": {},
    "version": 1
  }
}